:1040000000000320357B0100217B0100217B0100A2
:10401000217B0100217B0100217B010000000000C9
:10402000000000000000000000000000217B0100F3
:10403000217B010000000000217B0100B57B010015
:10404000217B0100217B0100217B0100217B0100FC
:10405000217B0100217B0100217B0100217B0100EC
:10406000217B0100217B0100217B0100217B0100DC
:10407000797A01007F7A0100857A01008B7A01004C
:10408000917A0100977A01009D7A0100A37A0100DC
:10409000A97A0100AF7A0100B57A0100BB7A01006C
:1040A000C17A0100C77A0100CD7A0100D37A0100FC
:1040B000217B0100217B0100217B010071BC0000FC
:1040C00071BC000071BC000071BC000071BC00003C
:1040D000217B0100217B0100217B0100217B01006C
:1040E000217B0100217B0100217B0100217B01005C
:1040F00000000000217B0100217B0100217B0100E9
:10410000217B0100217B0100217B0100217B01003B
:10411000217B0100217B0100217B0100217B01002B
:10412000217B0100217B01005D58010069580100DD
:104130006D58010071580100217B0100217B0100B5
:10414000217B0100217B01003DAC000049AC000057
:104150004DAC000051AC0000217B0100217B01002F
:10416000217B0100217B0100217B0100217B0100DB
:10417000217B0100217B0100217B0100217B0100CB
:10418000257B0100C77B0100CB7B0100CF7B0100B9
:10419000217B0100217B0100217B0100217B0100AB
:1041A000217B0100217B0100217B0100217B01009B
:1041B000217B0100217B0100217B0100217B01008B
:1041C000217B0100217B0100217B0100217B01007B
:1041D000217B0100217B0100217B0100217B01006B
:1041E000217B0100217B0100217B0100B9630100DB
:1041F00085F3000000000000217B0100217B01000D
:10420000217B0100217B0100217B0100217B01003A
:10421000217B0100217B0100217B0100217B01002A
:10422000217B0100217B0100217B0100217B01001A
:10423000217B0100217B0100217B0100217B01000A
:10424000217B0100217B0100217B0100217B0100FA
:10425000217B0100217B0100217B0100217B0100EA
:10426000217B010010B5054C237833B9044B13B101
:104270000448AFF300800123237010BD60090020C3
:10428000000000004C08020008B5034B1BB10349B5
:104290000348AFF3008008BD00000000640900205F
:1042A0004C080200014801F0A2BD00BFA029002077
:1042B000014801F09CBD00BF602A0020014801F0C8
:1042C000AEBD00BFA0290020014801F0A8BD00BF7D
:1042D000602A002010B50446383010F02BFF20462D
:1042E00010BD00002DE9F0472DED028B1F464378ED
:1042F000BDF828A0BDF82C6004468946154600F19B
:104300003C0833B10023437043715146404606F0E8
:10431000B4FA404606F0C0FA48B163790133DBB223
:10432000012B637111D13146404606F0A6FA667939
:1043300076B9B9F1010F16D132462946BDEC028B90
:104340000E20BDE8F04711F075BFF0D9022363716C
:104350000E2011F059FFBDEC028B0021BDE8F047A3
:104360000E2013F09BBFB9F1020F3CD1404606F07E
:104370008CFA07EE905AB8EE678A07EE907A0446F8
:104380005046F8EE678A16F093FC02460B46002072
:10439000002116F03FFB16F0EDFF78EE688A07EE7D
:1043A000900A88EEA77AA4B207EE904AF8EE677AF0
:1043B000A7EE278AB5EEC08AF1EE10FA18EE100AC1
:1043C0000ADB16F087FC454B002216F025FB16F0A1
:1043D00089FF81B20022B1E716F07CFC3F4B00223E
:1043E00016F018FBF3E7B9F1040F0DD194F848204B
:1043F00082F0010284F848201AB1B4F84C10324619
:104400009CE7B4F84E1099E7B9F1050F18D104F103
:104410005408404606F040FA00285AD0B4F852102A
:10442000404606F02AFABD4204D92946384613F020
:1044300062FBCEE702D239462846F8E73146C9E7A3
:10444000B9F1030F84D1B4F86030D4ED198A404635
:1044500008EE103A06F019FA07EE900AB8EE488A0C
:10446000F8EE677AB4F86030A8EEA78A404607EE07
:10447000903AB5EEC08AF1EE10FAD4ED198AB8EE92
:10448000678A15DB06F001FA07EE900AF8EE677A04
:10449000A8EEA78A18EE100A16F01CFC0F4B00229B
:1044A00016F0BAFA16F01EFF81B2A4F8681091E770
:1044B00006F0EBF907EE900AF8EE677AA8EEA78A05
:1044C00018EE100A16F006FC044B002216F0A2FAB1
:1044D000E8E7BDEC028BBDE8F08700BF0000E03FDD
:1044E00070B5002200F50B650446114628460BF016
:1044F00043FB68BB1E491F4804F1200511F01CFA5C
:104500001D4A1F21284610F067FC48B304F14806F5
:10451000194A2121304610F0B7F808B3284610F0A8
:104520003AFBC4E91906284610F037FB1349E06648
:10453000104811F001FA04F1700094ED010A0EF038
:1045400067FC04F10C000021BDE8704006F095B94D
:1045500028460BF0B7FF08B90949CCE70949CAE773
:104560000949044811F0E8F900232370E3E700BF8C
:1045700068E501001442002020360020D1E501004A
:104580008AE50100ACE50100EBE50100002310B570
:10459000036083808371C21D00F1120100F11104D8
:1045A00002F8013B944221F8023B9377F8D180F85E
:1045B000303000234363836310BD38B50C46054695
:1045C00013F00EFB2060AB691B782371AB695B783D
:1045D0006371AB699B78A371E21D04F112000023A3
:1045E000A9691944C97802F8011BA96901EB4301C3
:1045F000B1F90E1020F8021BA9691944013391F892
:10460000221091770A2BEBD1AB6993F82C3084F808
:104610003030AB691B6B6363AB695B6BA36338BD05
:1046200010B54FF4E1316D4811F08AFF6C4806F087
:1046300095F94FF4FA6013F013FB684811F074F920
:104640006849664811F078F96749644811F074F9CF
:104650000F2013F039FD13F03FFA644807F00EF80D
:10466000624807F0F5F8624804F0DEFA614801F0AC
:10467000B5FE614804F0B6FE604802F0D1F860482B
:1046800001F0BCF900210E2013F008FE5D48002166
:1046900006F0F3F85C48002106F0EFF800215B48D3
:1046A00006F0EBF85A4803F05FFD082159480AF07C
:1046B00039FF5948002106F0E0F85848FFF710FF8D
:1046C000574BDB681B78002B40F086805549564CD1
:1046D000424811F031F90021544806F0CEF804F1B7
:1046E0002000FFF753FF04F120012046FFF765FF8C
:1046F000B4F85E1004F1600006F0BFF823684C487F
:1047000003F5A1530C33A36104F006F8494804F003
:10471000CBFC494805F010FA484805F04DFC4848E4
:1047200005F050F947483E23C37404F06BFB464A3A
:10473000314B926A5A64454A4548128DA3F8482085
:10474000002106F09AF84348002106F096F8424B03
:104750004248196806F091F802221046404913F0C9
:1047600093F840490222042013F08EF83E490222B9
:10477000032013F089F83D490222052013F084F844
:104780003B4B1B7823B13B4B1A48197801F010FEC4
:10479000394B1B782BB1394B174893F9001004F0B3
:1047A000AEFF374B1B782BB1364B144893F90010F2
:1047B00002F099FB0F4B104893F9011004F029FE09
:1047C000314B064800221A7111F0AEF8BDE81040D6
:1047D0002E49034806F0E2B82D4978E7144200203C
:1047E000203600200BE6010017E60100202B0020F8
:1047F00058320020582B0020FC330020102C0020C1
:104800003C1500200031002010310020083100202C
:1048100048300020413100205C3100208009002018
:104820000830002036E601006430002020300020EF
:10483000A8310020B83300208C340020303500200F
:10484000643400206C33002068310020F0350020F3
:10485000341500202C15002008000020241500200D
:10486000A5420000C9420000BD420000B142000064
:104870000400002006000020050000202215002072
:10488000211500200700002040310020801A06007A
:104890005EE6010010B50A4C0A4804F0DDFD204632
:1048A00001F0CEF8A37C2BB1074B40F20222DA8054
:1048B00000221A81BDE81040014801F0C9B800BFCC
:1048C0003C150020FC330020D4300020F0B5414CD2
:1048D000414889B004F0C0FD204601F0A3F93F48EB
:1048E00002F077F83D4802F08DF941F2F5330022ED
:1048F000E35CA274A3B33A4B01215970A174394906
:104900001A815960384B6D4603F110072A46186822
:1049100059682E4603C60833BB423546F7D13349A2
:104920000823013B32F8020B21F8020B13F0FF03BE
:10493000F7D12F4B04AD03F110072A4618685968C8
:104940002E4603C60833BB423546F7D12949082312
:10495000013B32F8020B21F8020B13F0FF03F7D1F1
:104960001D4D2A78053A012A02D8234804F080F820
:1049700095F90030072B13D1204DAB7D022B0FD1C1
:10498000284605F01AFB1348B5F9966001F002F9C4
:10499000032806BF714209B23146284605F016FBCE
:1049A0000C4801F04DF8A38A1548013390F82220F5
:1049B0009BB29342A3820BD30023A38205F05AFF3C
:1049C00005484FF0FF3109B0BDE8F04004F097BE54
:1049D00009B0F0BD3C150020FC330020102C002055
:1049E000D43000200000020284E60100DE30002006
:1049F00094E60100EE3000205832002030350020CF
:104A0000F0350020CA4B2DE9F04F0026C3E90066BF
:104A1000C84BDFF8C083C84DC84FC3E90066C84B18
:104A200085B0C3E90066062252230421404606F001
:104A30006DFDC44AC449404613F07AFD6021C34865
:104A400006F090F903220221C14801F049F905223C
:104A50000421C04801F044F9BE4BBD4ABB49BE48E1
:104A600001F032FD40F201104FF48033C5E900033C
:104A70004CF60A632B813223AB7242F6E06442F2B9
:104A80001073C5E9054349F64043EB613B7985F86E
:104A900024303B46386833F8052FA5F825209B784D
:104AA00085F827303B4607F1100C33F8082F2A858C
:104AB0009B7885F82A303B46286253F80B2FC5F8BF
:104AC0002B201B7985F82F30BCE80F0005F130044E
:104AD000C5E903660FC4DCF80030236041469F48F7
:104AE000C5F844809E4C04F017FC9B4B9B4A9D48A4
:104AF000294600F029FE4FF4A013236040F20B2357
:104B00006381994BA680C4E90333C4F80660268309
:104B1000636104F11A0207F124032E46343753F877
:104B2000041B42F8041BBB42F9D1904B63644FF461
:104B30007A73A4F84A308E4BE3641923A4F85230F8
:104B40004FF4FA63A4F85E308A4BDFF88C82236658
:104B5000894B636600254FF0010A4FF48373C4E963
:104B60000B55C4E90D55C4E90F55C4E9155584F832
:104B700048A084F850A084F85CA0A4F8683008210C
:104B800040460AF00EFB7D4F7D4BA8F802A04FF087
:104B90008072C8E9012338467A4B00F801AB4FF028
:104BA0000A11C8E90313C8E905550AF0F3FB3223DB
:104BB000FB804FF05A133B611E23FB824FF4C873F6
:104BC0003B83714B3D71C7E90255C7E9075587F82B
:104BD00014A07B626D4F6E4B6E4A7B604FF00009F4
:104BE0004FF00A0BC7E90355A7F800A087F802B0F9
:104BF000A7F808B0C7F81490C7F81890C7F81C9029
:104C0000654907F120000FF0EBFD644907F148000A
:104C10000FF032FD624B3B6707F50B600AF092FF25
:104C2000484A6049384613F083FC5F4B14221A82CD
:104C30005E4A5A61464A5A60464AC3F82090C3E920
:104C40000227C3F824905A4AC3F82890C3F82C903E
:104C5000C3F83090C3F83490C3F83890C3F83C9050
:104C6000DFF80091A3F800A0C2E90096C3E9065559
:104C7000394E9561C2E91855C2E91A5582F85C505F
:104C8000DFF858A1354D83F802B040F2011191834D
:104C90006521C2E90367A2F85E1095605361264959
:104CA000444F009433462A46504603F0EBFA33460D
:104CB0002A4621490094404805F0E0FC33462A4644
:104CC0001D4900943D4805F03BFD33462A46CDE999
:104CD00001A819490094384604F0C2F933462A461F
:104CE000CDE900471449364803F0CAFC154A354956
:104CF000334813F01DFC33462A46CDE900480E49DF
:104D0000314803F05BFE33462A460B4900942F4896
:104D100004F050F82B464946CDE90148064A009672
:104D20002B4804F08FFE2B464946CDE9006457E03E
:104D3000341500202C150020582B0020A4E601007B
:104D400024150020000000202DB50000A02B00201D
:104D5000A0290020602A0020102C0020FC33002015
:104D6000D43000203C1500200B020B020100000192
:104D70007B00F70006017B0004568EBD4031002009
:104D8000030205005A0088130400A00F80090020C8
:104D90000000C8420B7008000A7008002C002100B7
:104DA00000F901005D540000083000200AD7A33C40
:104DB00064300020B8330020D0350020F0350020CA
:104DC000A8310020D5420000583200206C3300206A
:104DD0008C340020202B0020483000206831002037
:104DE000064A074805F07EF8009433462A464946AD
:104DF000044804F0D3FD05B0BDE8F08F582B002027
:104E000030350020643400202DE9F0472DED068B6D
:104E1000614D82B012F0EAFE284601F0F1FAAB795A
:104E2000ABB1002395F901105C48AB7104F0F1FAC5
:104E30006B785B482B4493F92B1001F0B7FD6B782E
:104E4000574805EB830393ED0C0A02F0B4FF554B72
:104E50001B7823B1544B5048197801F0A9FA4F4EF2
:104E6000304604F01DFD96F840301BB169784A4881
:104E700001F07FFA4D4B1B784BB14D4B93F900106D
:104E800096F900308B4202D0444804F038FC494F78
:104E90003B7813B1484B00221A73484C12F0A6FE1F
:104EA000454800F00DFE12F0A1FE6379022B0CD1F3
:104EB000012363700023637123790133DBB2032B79
:104EC000237184BF40F20323A3803D4805F0E4FC36
:104ED00018B361883A4805F0D0FC22795300224487
:104EE000DBB291792170032903F10C022ED1B4F8C1
:104EF0005EC004EB4200A0F802C004EB430C04EBDC
:104F00004204BCF81C30019363880093BCF80C3059
:104F1000BCF80A202948FFF7E5F92A4C2A4803F093
:104F20004FF92378002B77D004F1080005F0B4FC8A
:104F3000002871D0E18804F1080005F09EFC237977
:104F4000012B0AD1B4F91010601C21E00429D4D13E
:104F5000B4F84AC004EB4200CDE7022B36D104F18D
:104F60001C0005F099FC002856D0218B04F11C0090
:104F700005F083FC227DB4F91210B4F916301AB191
:104F800000222275C91ADFE7012222751944A018F0
:104F90000AF0F6FA40E000BF582B0020FC33002056
:104FA000102C002004000020060000200500002036
:104FB00022150020201500203C150020D4300020B0
:104FC000003100204031002048300020032B40F009
:104FD0008A8104F11C0005F05FFCE8B194F82520FB
:104FE00094F824309A4280F07281218B04F11C00E5
:104FF00005F043FC227DB4F91210B4F91630002AF2
:10500000BED101221944A01822750AF0B9FA94F809
:105010002530013384F82530BF4C2378002B6DD028
:1050200004F10C0005F038FC002867D0B4F9081032
:1050300004F10C0005F021FC606E036804F5336197
:10504000DB689847A06E036804F65431DB68984724
:10505000E06E036804F67831DB68984704F678312F
:1050600004F50B600AF0D2FA04F5336104F50B6025
:105070000AF0CCFA04F5376804F6543104F50B60F5
:105080000AF0C4FA98ED001ADFEDA47A04F66C3841
:10509000D8ED000A04F6683898ED000A04F64832A4
:1050A00004F6443304F6943E04F5396C04F68C306F
:1050B00004F64C3190ED003A92ED002AD3ED001A3F
:1050C0009EED004ADCED003AD1ED002A21EE271AD0
:1050D00060EEA70A20EE270A04F170000EF070F8C7
:1050E000636FA361A36FE361E36F636163785A1C2D
:1050F0006270A2789A429CBF002363708848894CF2
:1051000000F0A6FE884800F0A3FE2378002B6CD0A8
:1051100004F1180005F0C0FB002866D0B4F91010A7
:1051200004F1180005F0A9FBD4E90113D4ED0C8AB1
:1051300094ED0D8AC4ED0E8AD3E9202384ED0F8A05
:10514000D1E9200115F068FC0022784B15F01AFE19
:1051500016F010F9E3682062D3F814A0C4F82CA06C
:1051600015F0B8FD80465046894615F0B3FD704BEA
:10517000002215F031FF66A3D3E9002315F002FEEB
:1051800041EC100B41EC1A0B13F0DAF9404653ECEA
:10519000102B494615F0F6FD16F0ECF8B0EE4A0A71
:1051A000F0EE6A0A09EE100A606213F0A1FA4046B6
:1051B00053EC102B494615F0E5FD16F0DBF863784B
:1051C00094ED057AA06207EE900A5A1C6270E9EE2F
:1051D000078AA278A7EE878A9A4298BF0023C4ED77
:1051E0000C8A84ED0D8A98BF6370524C237F0BB3F9
:1051F00004F1600005F050FBE0B1B4F85E1004F17A
:10520000600005F03AFB002104F1680005F035FB71
:1052100004F120012046FFF7D0F94748092105F0A5
:10522000CDFB45483C2204F1200105F043FB4248F8
:1052300005F075FC414803F040F9414803F09FFB3D
:10524000404803F047FD404803F0B8FE3F4803F0F4
:1052500038FF3F4804F0BAFB3E4804F0AFFC3E483C
:1052600005F05FFA00233D4886F8403005F014FB56
:1052700020B13B4B3948198805F0FFFA394A3A4CBE
:105280000023D3801381237196F90030D81D04D0F8
:10529000012B2BD1304805F001FA6B78022B0BD192
:1052A00003232371C82323831E23E3824FF47A63ED
:1052B000E384062384F8243096F90030012B04BFE0
:1052C0000023237102B0BDEC068BBDE8F087E18CB2
:1052D00004F11C0005F0D1FAB4F91210601C0AF0B8
:1052E0004FF9002396E6B4F912102DE6191D03D1EB
:1052F000174804F080FBD0E7DA1C03D1154804F00E
:105300007DFCCAE7023331D1104803F0EDFEC4E75B
:1053100000000060FB21094080090020E02E65426A
:10532000A029002008300020602A00200000E03F73
:105330000080664064300020203600206831002064
:10534000A8310020583200206C330020B8330020F0
:10535000643400208C340020D03500202C1500202F
:105360000C000020D430002040310020304800F0F4
:1053700072FB20B13B7813B9FFF78CFA8DE72C4B09
:105380005B7B0BB13B7883B196F90030022B0FD1D8
:1053900096F841302BB1274A002386F8413082F835
:1053A0003F30244803F008F977E7FFF78FFA74E7F6
:1053B000032B03D1204803F0EBF96EE7052B03D153
:1053C0001E4803F001FC68E7062B03D11B4803F0DD
:1053D00009FC62E7042B03D1194803F05FFD5CE789
:1053E000072B03D1174805F0E7F856E701330AD138
:1053F000154890F821301BB1144804F05BFA4CE7D3
:1054000005F0BCF949E7114804F03AF8104B1B7855
:105410004BB1104B104893F9001001F064FD0E4899
:1054200002F053FC39E70C4801F049FDF7E700BFF3
:105430003C15002068310020A8310020583200209F
:105440006C33002030350020F0350020FC33002084
:105450002115002007000020102C002010B5044664
:1054600048300EF0D3FF04F120000FF03BF9204646
:1054700010BD7047012906D801448B79002B0CBF61
:105480000020032070470020704700234371837180
:10549000C3717047037870B50446002B2DD01748B0
:1054A000164E0122092105F0DBFA0025304605F0F1
:1054B00020FA20B1304605F035FBC5B2F6E7A378F7
:1054C000257123441A7AAA4304BF01229A71E37812
:1054D00023441A7AAA4304BF01229A71A3790BB11B
:1054E00001236371E3792BB101236371A37A013343
:1054F000A37202E06379002BF8D170BD2036002042
:105500000160704710B503790446006843B994ED13
:10551000030A02F051F9002801DD0123237110BDB7
:10552000012B07D194ED020A02F057F90028F6DDAD
:105530000223F3E7BDE8104001F064BB00790128C5
:105540008CBF00200120704708B50221002012F016
:10555000D2FAC0B20128FFEE007AB7EE000A18BFF7
:10556000B0EE670A08BD000038B52DED028B0B7850
:10557000032B04460D4608D1002303718369C360E1
:10558000D4ED057AF1EE677A4FE04B78032B08D122
:10559000002303718369C36043698360BDEC028BA0
:1055A00038BD8B79012B12D9032B0BBF00230123AC
:1055B000237123710CBFA3690023E360FFF7C4FFCD
:1055C000D4ED057A27EE800A84ED020AE6E7CB786F
:1055D000012B34D9032B90ED048A29D100230371C8
:1055E000806915F077FB36A3D3E9002315F0CAFBD9
:1055F00015F0C0FEFFEE047A28EE278AE06084ED05
:10560000028A2B79012B4CD92046FFF79DFF2D21D3
:105610000020B0EE408A12F06EFA07EE900AB8EE63
:10562000E77ADFED297AE8EE077AC4ED027AB5E78A
:10563000012303710023C360B1EE488ADFE70B79D1
:10564000012B33D9032B90ED048A25D1002303715C
:10565000806915F03FFB1AA3D3E9002315F092FBF4
:1056600015F088FEF7EE047A28EE278AE06084EDD4
:10567000028AEB78012B14D92046FFF765FF2D2114
:105680000020B0EE408A12F036FA07EE900AB8EE2B
:10569000E77ADFED0E7AC6E7012303710023C360CA
:1056A000E5E7AB78012B3FF66BAF77E78B78012B03
:1056B0003FF67AAF4B79012B3FF676AF6EE700BF2E
:1056C0009A9999999999E93F000034C300003443AD
:1056D00010B50446FFF748FFD4ED027AF5EEC07A24
:1056E000F1EE10FACCBF0320042010BDF8B505463A
:1056F00040F2011325F8043B04460F4616460021EC
:105700004FF4E872284616F0FFF900236422C4E93A
:10571000783323710435A4F8D42184F8DA314FF6B4
:10572000FF72A4F8DC3184F8DE31064BC4F86C510A
:10573000A4F8D821C4F8E83184F8D67184F8DB6184
:105740002046F8BD2800D0072DE9F04F1E46502313
:1057500003829F4B036283629E4BC3629E4B036333
:105760009E4B436389B003F5A0138363CDE9051213
:105770009B4B9C494162F0210025C0E90F13012297
:1057800003278C330446828107774364C0E90055C0
:1057900085608573857485828561934B9348C4E9E0
:1057A0001203934B23657823A4F8543004F1340397
:1057B000049304F15803312118460793FFF796FF2D
:1057C00004F511732A46302118460093FFF78EFF27
:1057D00004F586630222322118460193FFF786FF03
:1057E00004F21C633A46332118460293FFF77EFF0A
:1057F00004F6080318460422342104F6F41B03932C
:1058000004F53E6AFFF772FF052235215846FFF77F
:105810006DFF04F6CC59062236215046FFF766FF8D
:1058200004F6B878072237214846FFF75FFF0822C1
:1058300038214046FFF75AFF049B03F58B5710377A
:10584000092239213846FFF751FF41F29032079B78
:10585000A35041F29433009AE25041F29833019AF6
:10586000E25041F29C33029AE25004F59D53039AB0
:105870001A6041F2A43341F2A83044F803B041F277
:10588000AC3344F800A044F8039041F2B033B4F9CB
:105890003A2044F8038041F2B433E75041F2B83380
:1058A000E118B4F93870E7524A8041F2BC3163180C
:1058B000B4F93CC067525A80A3F804C041F2C23325
:1058C000E218B4F94410B4F84670E752518041F23E
:1058D000C632A318B4F94AC0B4F94C70B4F94810F0
:1058E000B4F84EE024F802E0A3F802C09F80D9800B
:1058F00041F2CE33B4F84070B4F94210E752E218E6
:105900003C4F518041F2D23162183B6863507B6852
:1059100053603B891381049B184406F0B9FD41F2A2
:10592000E4333322E25241F2E833E218E5505560A5
:1059300041F2F0323049A150A31841F2F43231461D
:10594000A5527A891A810D22DA72DD809D7241F2A8
:105950000A433222E25241F20C43E218E55041F28E
:10596000144355604FF4FA72E25241F21843E218C0
:10597000E55004F5A153556065221A8041F2244395
:10598000E218E55004F5A15355600022DA631A6469
:1059900083F83850059B2360069B04F11800C4E986
:1059A0000136FFF7ADFD04F59F5304F5A0521C33FB
:1059B000063203F8015B9342FBD141F206432046D5
:1059C000E55241F20843E55409B0BDE8F08F00BF4D
:1059D000000034420000B442000034C350006400B0
:1059E0005000B40000003443A0004600AA005A0052
:1059F000D0071400D8E601000101000110B50446EB
:105A000000F5A1500021043004F037FF04F5A05048
:105A10000021183004F031FF04F1340000F0AAFA3C
:105A200004F59F501030BDE81040FFF722BD08B5C7
:105A30000921343000F024FB003818BF012008BDD4
:105A400000234373837300F59F501030FFF71DBD93
:105A50001830FFF757BD1830FFF770BD2DE9F04142
:105A6000002500F5A05600F59F5704464573857341
:105A7000063610374FF00108E9B23846FFF7FAFC56
:105A80000135022806F8010B88BF84F80E80032D2B
:105A9000F2D104F59F561C36002504F13408012785
:105AA000E9B2404600F0ECFA06F8010B18B1012803
:105AB000A77388BF677301350A2DF1D1BDE8F08166
:105AC000436893F8403070B504460BB1012303736B
:105AD00004F5A15504F13400043500F0ADFA284670
:105AE00004F0DAFEC8B104F5A153284604F59F5529
:105AF000B3F90010103504F0C0FE2846FFF7CAFCC9
:105B000095F90A2095F90B309A4206DB206800F0DF
:105B100097FB41F2FA330022E25404F5A0560C360A
:105B2000304604F0B9FE04F5A055183510B341F223
:105B30000A433046E15A04F0A0FE2046FFF78EFFEC
:105B4000A37B2BB9284604F0A7FE98B100210AE0F8
:105B5000284604F0A1FE50B141F214432846E15A10
:105B600004F08BFE0121A06802F019F902E0A37B8A
:105B7000002BE7D0284604F08FFE18B9A068012159
:105B800002F00DF9237B23B92046BDE87040FFF7F2
:105B900057BF70BD10B50446FFF760FF04F59F5175
:105BA00004F118001C31BDE81040FFF791BD2DE94C
:105BB000F04100F59F551C35044629461830FFF783
:105BC000D3FC04F5A15704F59F580C37002608F1C3
:105BD0001008F1B24046FFF74DFC0136032E07F8DE
:105BE000010BF6D104F59C5204F5A15304F5A05025
:105BF000294610321A33063011F8015B81F8325011
:105C000052F8045BB5F9D86123F8026B814295F82C
:105C1000DE5181F85150EFD141F25843227FE254D6
:105C2000BDE8F08110B50446FFF718FF2046BDE837
:105C30001040FFF7BCBF00290ADBB0F900308B42EF
:105C400008DAB0F902008842ACBF02200020704799
:105C5000002070470320704700290EDBB0F90030A8
:105C60008B420CDAB0F902308B420ADAB0F9040048
:105C70008842B4BF002001207047002070470320F5
:105C800070470220704700290ADBB0F900308B42D0
:105C900008DDB0F902008842D4BF0320002070471D
:105CA0000020704702207047002912DBB0F9043051
:105CB0008B4212DDB0F900308B420CDAB0F90230C1
:105CC0008B420ADAB0F906008842D4BF03200020D4
:105CD0007047002070470320704702207047000083
:105CE0004FF47F432DE9F0478380FF2383712C4BD2
:105CF00090460022C0E9042323A3D3E90023C0E98E
:105D00000623284B0022C0E90823274B0022C0E9C4
:105D10000A23264B0022C0E90C231DA3D3E900234C
:105D2000C0E90E23224B0025C0E910350A230446A2
:105D300080F848301F4BC36400260027C0E9025595
:105D40009FED150B89465030052100F0CFF8E06C2F
:105D5000B4F842A0C4E91E67C4E9206714F0BAFF92
:105D600041EC100B514604F1880000F0BFF8C4E983
:105D70002C67C4E92E6784F8059084F806802560B6
:105D80002046BDE8F08700BF46EAFF9EDB8F6740F4
:105D9000E0F09C762F1BD43F000000A09999B93FFA
:105DA00000004E40000049400000284000C08240F2
:105DB0000A000500CDCCCC3D10B50446002190F979
:105DC000050012F027FA94F90600002112F022FAD9
:105DD00004F10800002104F050FD04F1500000F02F
:105DE00093F804F18800BDE8104000F08DB838B594
:105DF000044690F9050012F07BFA054694F9060076
:105E000012F076FA2368854215BF013303F1FF33A0
:105E10002360236014BF00230123237138BD38B5EC
:105E2000044690F9050012F063FA054694F906005D
:105E300012F05EFA236885420BBF013303F1FF3392
:105E4000236023600CBF00230123237138BD0000B1
:105E50002DE9F84300F108050446284604F01CFD2E
:105E600000283ED0284604F010FD14F011FF1E4B10
:105E7000002215F0B1F806460F462846B4F8401047
:105E800004F0FBFC2068656C401B14F011FFD4E9A2
:105E90000E2314F077FF80462068401B894614F0DB
:105EA00007FF32463B4615F097F8C4E92C0141EC58
:105EB000100B04F1880000F02BF83B4684ED2E0B0C
:105EC00032464046494615F087F8C4E91E0141ECC8
:105ED000100B04F1500000F01BF884ED200B236838
:105EE0006364BDE8F88300BF00408F4030B50022F6
:105EF00000240025C0E90022C0E90645C0E90845A4
:105F000080ED040B018130BD002104F0B6BC00001F
:105F10002DE9F04757EC106B824604F0BDFC10B33E
:105F2000DAE90489124942464B46002014F072FD1A
:105F3000DAE9062314F026FF324604460D463B46B6
:105F40004046494614F01EFF02460B4620462946AD
:105F500014F062FDCAE90801CAE90601BAF808109E
:105F6000504604F08AFC9AED080BBDE8F08700BFAC
:105F70000000F03F70B5044604F59D5500F59D50B6
:105F800000211430083504F078FC274A21212846E6
:105F900006F081FA20B9254925480FF0D7FCFEE725
:105FA000244923480FF0D2FC0026F1B201222846F2
:105FB000013606F0A1FA082EF7D10026F1B2002230
:105FC0002846013606F07EFA082EF7D1608811F0D7
:105FD00047FE0026F1B201222846013606F072FA89
:105FE000082EF7D1608811F03BFE0026F1B20022A6
:105FF0002846013606F066FA082EF7D1608811F0BF
:106000002FFE04F59A541C340026072EF1B203D853
:106010000122284606F056FA54F8040B013600F027
:1060200077F80A2EF1D170BD20360020E4E6010099
:106030001442002007E7010070B500F59D551435A6
:106040000446284604F028FC064628B141F2B03345
:106050002846E15A04F011FC04F59A5504F59C54C5
:106060001C35043455F8040B037833B10EB100F03D
:1060700087F855F8040C00F092F8A542F2D170BDF3
:10608000421841F29E33D35C042B3FD8DFE803F083
:10609000030F1B26320001F2D64100EB810100F50F
:1060A0009C504B68B3F9D8110430FFF7C4BD01F21E
:1060B000D64100EB810100F59C504B680830B3F9E4
:1060C000D811FFF7C9BD01F2D64100EB810100F5FF
:1060D0009C504B680E30B3F9D811E6E701F2D64177
:1060E00000EB810100F59C504B681230B3F9D811D8
:1060F000FFF7DABD01F2D64100EB810100F59C50BB
:106100004B681A30B3F9D811FFF7BDBD00207047B6
:1061100037B50446B0F8D40111F0A2FD0022144BAB
:1061200094F8D6110092201D06F022FB054688B98E
:10613000104911480FF0EDFB94F8DB110E480A22CC
:106140000FF04FFC2570B4F8D40103B0BDE8304027
:1061500011F086BD094908480FF0DBFB94F8DB110C
:1061600005480A220FF03DFC01232370EBE700BF36
:10617000203600202CE70100144200204DE70100EA
:10618000037810B504464BB1043006F0EAF911F07B
:1061900027FD0023C4F8E00184F8DD3110BD037849
:1061A00070B5044613B90025284670BD061D30465B
:1061B00006F0EBF905460028F5D094F8DD31002B08
:1061C000F1D184F8DC31304606F0C8F984F8DE01FC
:1061D000304606F0F0F9012384F8DD3194F8DC3123
:1061E000A4F8D8011BB14FF6FF73A4F8D83194F985
:1061F000DE311BB14FF6FF73A4F8D831B4F9E831A2
:10620000B4F9D8219A42DCBF4FF6FF73A4F8D83115
:1062100011F0E6FCD4F8E031C01AC4F8E401C3E799
:1062200090F9083090F907201A4490F90930934208
:1062300004DC90F90A309342A8BF1346C37170473B
:1062400090F9083090F90720D21A90F9093093425A
:1062500004DC90F90A309342A8BF1346C37170471B
:1062600013B5C279333AD2B20446130243EA02426A
:10627000406C0192012105F0EDFB606C019A022156
:1062800005F0E8FB606C02B0BDE8104005F0E0BA34
:1062900013B5C279333A0446D2B21202406C01926D
:1062A000012105F0D7FB606C019A022105F0D2FBB9
:1062B000606C02B0BDE8104005F0CABA13B5C279EF
:1062C000333A0446D2B21204406C0192012105F027
:1062D000C1FB606C019A022105F0BCFB606C02B04E
:1062E000BDE8104005F0B4BA13B5C2790446333A9C
:1062F000D2B2406C0192012105F0ACFB606C019AB6
:10630000022105F0A7FB606C02B0BDE8104005F06B
:106310009FBA13B5C279333A0446D2B242EA022296
:10632000406C0192012105F095FB606C019A0221FD
:1063300005F090FB606C02B0BDE8104005F088BA33
:1063400013B5C279333AD2B21302044643EA024388
:106350001A43406C0192012105F07CFB606C019AAC
:10636000022105F077FB606C02B0BDE8104005F03B
:106370006FBA052904D8DFE801F01703070B0F13E4
:1063800001234370FFF76CBF02234370FFF780BF08
:1063900003234370FFF7A8BF04234370FFF78EBFAA
:1063A00005234370FFF7B5BF00234370FFF7C8BF55
:1063B00043788B4210B504460FD0FFF7DAFF012374
:1063C000D4E90601A37111F096FB6061014604F166
:1063D0000C00BDE8104004F050BA10BD10B56421A7
:1063E0000446002011F087FB012160802046FFF762
:1063F000DFFF04F10C000021BDE8104004F03DBABD
:10640000037810B50446002B5BD00C3004F044FA3E
:10641000002856D06421002011F06DFB40B20A28FC
:1064200029DC2046FFF70CFF6421002011F063FBFC
:1064300094F9072013181BB2642BA8BF642394F9A6
:10644000202023EAE3739A4263802EDD642100203A
:1064500011F051FB94F90730184400B20028A080D5
:106460000FDB94F9203083420BDB03212046BDE88B
:106470001040FFF79DBF5928D6DD2046FFF7D0FE1C
:10648000D2E7B4F9023094F9211094F9222099420C
:1064900003DC934203DC0421E8E79342E5DB94F953
:1064A00023209A42E1DB0521E0E794F921209A427A
:1064B00001DB0121DAE794F922209A42F9DB02217B
:1064C000D4E710BD000000002DE9F04F2DED048B46
:1064D00083B09046019340F20113436141F2883248
:1064E0004FF47A630025C0E9072342F6E063C0E970
:1064F0000935B14B056104460126C0E917334FF059
:10650000050B4FF61973C0E90055C0E90255C0E903
:106510000B55C0E90D55C0E91155C0E91355C0E947
:10652000155580F818B0C56380F84060A0F8643055
:10653000A24AA348A34BA0668946A349E166226705
:106540006367C4F88430A14BC4F89030A04BC4F802
:106550009830A04BC4F89C309F4BC4F8A0309F4BA0
:10656000C4F8A430C4F8A8309D4BC4F8AC304FF048
:1065700080439FED850B9FED861B9FED872BC4F815
:106580008020C4F8B03086A3D3E900239FED868B2A
:106590004FF07E579FED869BC4E9342384ED2E0B8C
:1065A00084ED301B84ED322BA067E167C4F888705E
:1065B000C4F88C70C4F8947029460A2204F1D800FB
:1065C00001F0FEFB94ED322B94ED301B94ED2E0B7D
:1065D00029460A2204F5B47001F0F2FBB0EE482A15
:1065E000F0EE682AB0EE481AF0EE681AB0EE490AEA
:1065F000F0EE690A2946142204F5FC7001F0E0FB74
:10660000B0EE482AF0EE682AB0EE481AF0EE681AAA
:10661000B0EE490AF0EE690A1422294604F5227008
:1066200001F0CEFB6F4BC4F818336F4BC4F81C332A
:106630006E4BC4F824336E4BC4F828336D4BC4F84A
:106640002C331E2384F860336B4BD4ED1A8AC4F8C4
:106650006833B6EE009A03F21D239FED688AC4F8F2
:106660005C7328EE899A94F85C70C4F86C334FF42C
:1066700048734FF0030AF1EE049AA4F870334FF414
:106680007A73C4F8743327FA06F0C4E9CD55C4E927
:10669000CF55C4E9D155A4F820A3A4F8305384F809
:1066A000325384EDD38A84EDD48AC4EDD59A84ED37
:1066B000D68A84EDD99A84F8725384F878A314F0BA
:1066C000F7FA4F4B002214F0A7F914F00BFE44F632
:1066D0002063C4E9E23594F86430D4ED267A84F876
:1066E0007903FF1A474BC4F8B0334FF4167378EEB2
:1066F000E78AA4F8B433444BC4F8B8334FF4FA73C0
:10670000A4F8BC33294684EDDF9A84F88063C4F88A
:10671000845384F890A3C4EDE59A84EDE68AC4ED31
:10672000E78A84EDE88A84F8A4B384EDEA8A84F8E1
:10673000AC7384F8AD5384F8AE6384F8B66384F820
:10674000BE63202204F5747015F0DEF92F49304B3A
:10675000C4F80090C4E9F2132E4BC4F8D0332E4B8A
:10676000C4F8D83342F63023A4F8F033019BC4F8C0
:106770000C802046C4E9F055236103B0BDEC048BC6
:10678000BDE8F08FAFF30080B81E85EB51B8DE3F57
:106790009A9999999999993F9A9999999999793F3B
:1067A000D9CEF753E3A5DB3F000000000000000056
:1067B000333333333333E33F7878645000007A4324
:1067C0000000AF4300803B43000061C3CDCC4C3F91
:1067D0000000484200007A44E7FB293E9A99B541FF
:1067E000008098440000C8420000484300002C4349
:1067F000A71607443720C03F030120030000000014
:106800000000E03F58025802F401F4019808F40136
:10681000000004080000F0410000F0C1000000008A
:1068200070B504462DED028B5F4A00684FF4C861D5
:1068300004F01FFA2068012104F062FA0221A0602E
:10684000206804F05DFA94F85C106060A06804F0C1
:10685000CFFAA068012104F0A5FAA068042104F091
:10686000A1FA94F85C10606804F0C2FA6068012133
:1068700004F098FA6068042104F094FA94F918106E
:10688000002011F038F9E075D4E9080111F033F96E
:106890000146E06104F1280003F0EFFF04F130004D
:1068A000002103F0EAFF04F57070002103F0E5FF1A
:1068B000002104F1380003F0E0FFE068FFF77CFA04
:1068C00004F1D8062069FFF777FA04F5B47530466D
:1068D00001F0BCFA284601F0B9FA94F8640014F00B
:1068E000D7F99FED2F8B41EC100BB0EE481AF0EE6C
:1068F000681A304601F06BFB94F8640014F0C8F994
:10690000B0EE481AF0EE681A41EC100B284601F080
:106910005EFBE3683046B3F8401001F0B3FA236938
:1069200004F5FC76B3F84010284601F0ABFA04F504
:106930002275304601F08AFA284601F087FAD4F829
:106940001C0314F0C7F9024601F1004343EC102B7D
:1069500041EC110B304601F03AFBD4F81C0314F063
:10696000B9F9024601F1004341EC110B43EC102B45
:10697000284601F02CFBE368B3F84010304649008C
:1069800001F080FABDEC028B2369B3F84010284671
:106990004900BDE8704001F075BA00BFAFF3008058
:1069A0000000000000E06F402036002090F85C30CE
:1069B00053FA81F380F8603090F85D3053FA81F338
:1069C00080F8613090F85E3053FA81F180F86210FF
:1069D000704790F99033032B0CBF0423032380F8F6
:1069E000903390F96833032B0CBF0423032380F802
:1069F000683370472DE9D043B5EEC00AD0ED2B7A4D
:106A0000F1EE10FA2DED048BF0EE408AD8BFF1EED6
:106A1000408A88EEA79A0446F5EEC00AF1EE10FA15
:106A2000B0EE608AD8BFB1EE608A38EE080A80EE18
:106A3000270A11F067FFB4EEC09AF1EE10FA33DCCA
:106A400019EE100A14F046F9064618EE100A0F4621
:106A500014F040F98046D4F8AC00894614F03AF9B5
:106A60001B4B002214F08EF932463B4614F08AF993
:106A700032463B4614F086F902460B4640464946EC
:106A800013F0C8FF064618EE900A0F4614F022F9DC
:106A900002460B463046394614F09EFA14F06AFC62
:106AA00007EE900A37EE890AD4ED2C7A60EE277A49
:106AB00017EE900A14F00EF9064B002214F062F95A
:106AC00014F038FCBDEC048B80B2BDE8D08300BF6D
:106AD0000000E03F00408F4010B5044604214068AC
:106AE00004F060F9A068042104F05CF960680021FA
:106AF00004F07EF9A0680021BDE8104004F078B9E8
:106B0000F8B52DED028B9FED268B0025044600F590
:106B1000FC7704F5227680ED928BB0EE480AF0EE19
:106B2000680A80EDB68BC0F83853C0F84453384635
:106B300001F028FAB0EE480AF0EE680A304601F09B
:106B400021FA2946384601F098FA2946304604F1E0
:106B5000D80601F092FAB0EE480AF0EE680A84ED29
:106B60004A8B84ED6E8BA4F8305384F83253304650
:106B700004F5B47401F006FAB0EE480AF0EE680AC3
:106B8000204601F0FFF92946304601F076FABDECC7
:106B9000028B29462046BDE8F84001F06EBA00BFDE
:106BA000000000000000000010B5012380F8CC3385
:106BB00090F8CD33B0F8C8130133044680F8CD33D4
:106BC00000F5707003F059FE2046BDE81040FFF755
:106BD00097BF012280F8BE23002280F8CD23FFF763
:106BE0008FBF90F916208A420BD0012280F84020F6
:106BF000C268817512684264026912688264FFF794
:106C00007FBF704710B504460021FFF7EAFF6068B8
:106C1000042104F0C7F8A068042104F0C3F86068F8
:106C2000002104F0E5F8A0680021BDE8104004F060
:106C3000DFB838B504460D460021FFF7D2FF606883
:106C4000012104F0AFF8A068012104F0ABF86068FE
:106C5000294604F0CDF8A0682946BDE8384004F084
:106C6000C7B838B504460D460121FFF7BAFF606882
:106C7000022104F097F8A068022104F093F86068FC
:106C8000294604F0B5F8A0682946BDE8384004F06C
:106C9000AFB838B504460D460321FFF7A2FF606880
:106CA000022104F07FF8A068012104F07BF86068FD
:106CB000294604F09DF8A0682946BDE8384004F054
:106CC00097B838B504460D460421FFF78AFF60687F
:106CD000012104F067F8A068022104F063F86068FD
:106CE000294604F085F8A0682946BDE8384004F03C
:106CF0007FB8F8B504460E4605211546FFF771FF2B
:106D00006068012104F04EF86F08A0680121A6EB2D
:106D1000550504F047F86068E9B204F069F8B9195C
:106D2000A068C9B2BDE8F84004F062B8F8B50446FE
:106D30000D4606211646FFF754FF6068012104F056
:106D400031F8A068012104F02DF805EB56016068C8
:106D50007708C9B204F04CF8E91BA068C9B2BDE8D5
:106D6000F84004F045B8032BD2B201D1FFF7C1BF00
:106D7000FFF7DCBF90F8803370B504460D4600F194
:106D800030061BB990F91730032B1FD0002384F86D
:106D90008033032394F8A423E37594F8603094EDD2
:106DA000E27AD4F888139B1ADBB207EE903AF8EE39
:106DB000476AF8EE677A84F8AC3387EEA67A84F8EF
:106DC000AD33304684EDEA7A03F057FD304603F0E8
:106DD0005CFD07EE900AD4EDEA6A94EDE77AC4F818
:106DE0008C03F8EE677AA6EEE77AB5EEC07AF1EE9C
:106DF00010FA17EE100A1CDB13F06CFF154B002283
:106E000013F00AFE14F06EFA94F86030C0B28342B8
:106E100038BF94F8A42384F8AD033CBF9B1A84F8D0
:106E2000AD33304603F038FD50B1012384F8803390
:106E300070BD13F04FFF074B002213F0EBFDE1E7AD
:106E400094F9AD2394F860102B462046BDE87040BD
:106E5000FFF789BF0000E03F10B50446D0E9080104
:106E600010F049FE94F91710E06103290CD10123B9
:106E700084F880330221002010F03DFED4F88833DE
:106E800084F89003E36106E0022910D1002010F09D
:106E900032FE84F86803E16904F1280003F0EDFC98
:106EA00004F130000021BDE8104003F0E6BC0429E5
:106EB000F1D1012384F8BE33B4F8F033E2E7037D67
:106EC00010B5044673B1283003F0E6FC50B194F9D4
:106ED0001810002010F00FFEE0752046BDE81040AD
:106EE000FFF7BABF10BD38B5037D04460D464BB160
:106EF000283003F0D1FC28B1E5752046BDE83840C4
:106F0000FFF7AABF38BDF8B590F8E0702DED028B01
:106F10000446F0EE408AB0EE608A00F1D80600F533
:106F2000B4752FBB0121304601F0A7F894ED340B66
:106F3000304600F08CFFF5EEC08AF1EE10FA13D562
:106F40000121304600F0C6FFB5EEC08AF1EE10FA1E
:106F50000ED594ED340B284600F079FF94ED340BF8
:106F6000304600F074FF03E03946304600F0B2FFCF
:106F700094F870712FBB0121284601F07EF894ED42
:106F8000340B284600F063FFB5EEC08AF1EE10FA2C
:106F900013D50121284600F09DFFF5EEC08AF1EEE1
:106FA00010FA0ED594ED340B284600F050FF94ED06
:106FB000340B304600F04BFF03E03946284600F022
:106FC00089FF18EE900A13F085FEC4E94A0118EE15
:106FD000100A13F07FFEC4E96E01E368304693EDBA
:106FE000200B01F0A6F82369284693ED200B01F051
:106FF000A0F8F5EEC08AF1EE10FA4CBF0221012193
:10700000606803F0CFFEB5EEC08AF1EE10FA4CBF17
:1070100002210121A06803F0C5FED4E94C0114F05F
:1070200061F9C1B2606803F0E3FED4E9700114F0C5
:1070300059F9BDEC028BC1B2A068BDE8F84003F07D
:10704000D7BE13B5002104468DED010AFFF7C9FD37
:10705000DDED010A2046B0EE600A02B0BDE8104046
:10706000FFF751BF90F91520012A03D190ED1E0AB8
:10707000FFF7E7BF90F86010FFF7DBBDFFF7E1BF58
:1070800013B5012104468DED010AFFF7AAFDDDEDE0
:10709000010A2046B0EE600A02B0BDE81040FFF7DA
:1070A00032BF90F91520012A03D190ED1F0AFFF796
:1070B000E7BF90F86110FFF7D4BDF8B500F13007D5
:1070C000044638460D46164603F0E6FB78B12046E6
:1070D000FFF798FD94F8B6338BB1002384F8B633EC
:1070E000A4F8BC63B4F8BC13384603F0C6FB94F8AC
:1070F000B63320464BB1BDE8F840FFF7B3BF0123DC
:1071000084F8B633A4F8BC53ECE7BDE8F840FFF7C9
:10711000C8BF13B5032104468DED010AFFF761FDD9
:10712000DDED010A2046B1EE600A02B0BDE8104074
:10713000FFF7E9BE90F91520012A03D190ED200A4E
:10714000FFF7E7BF90F86210FFF7A3BD2DE9F0410C
:1071500010EE104A2DED028B052110EE906A80464C
:10716000FFF73FFD204613F0B5FD044630460D46BF
:1071700013F0B0FD114B002213F004FE02460B4643
:1071800006460F462046294613F046FC14F0F2F856
:10719000324608EE100A3B462046294613F03AFCD8
:1071A00014F0E8F8F0EE480ABDEC028B00EE100A8D
:1071B0004046BDE8F041FFF7A6BE00BF0000E03F3B
:1071C00038B52DED028B90F91530012B0446B0EE49
:1071D000408A09D190ED1E0A60EE080ABDEC028BD0
:1071E000BDE83840FFF7B2BF90F8605007EE905A04
:1071F000F8EE677A27EE808A18EE100A13F06AFD1F
:10720000B5EEC08AF1EE10FA094B4FF000020CDB2C
:1072100013F002FC14F066F8BDEC028BC2B22946F2
:107220002046BDE83840FFF764BD13F0F3FBF1E7FB
:107230000000E03F10B52DED028B0421B0EE408A36
:107240000446FFF7CEFCF1EE480AB0EE480ABDEC6A
:10725000028B2046BDE81040FFF755BE90F915207F
:10726000012A03D190ED200AFFF7E4BF90F86210E5
:10727000FFF727BDF8B500F13007044638460D4644
:10728000164603F009FB78B12046FFF7BBFC94F8E3
:10729000AE338BB1002384F8AE33A4F8B463B4F8F2
:1072A000B413384603F0E9FA94F8AE3320464BB1F4
:1072B000BDE8F840FFF73EBF012384F8AE33A4F8E1
:1072C000B453ECE7BDE8F840FFF7C8BF2DE9F04143
:1072D00010EE104A2DED028B062110EE906A8046CA
:1072E000FFF77FFC204613F0F5FC044630460D46C0
:1072F00013F0F0FC114B002213F044FD02460B4644
:1073000006460F462046294613F084FB14F032F857
:10731000324608EE100A3B462046294613F07CFB15
:1073200014F028F8F0EE480ABDEC028B00EE100ACB
:107330004046BDE8F041FFF7E6BD00BF0000E03F7A
:1073400038B52DED028B90F91530012B0446B0EEC7
:10735000408A09D190ED1E0A60EE080ABDEC028B4E
:10736000BDE83840FFF7B2BF90F8605007EE905A82
:10737000F8EE677A27EE808A18EE100A13F0AAFC5E
:10738000B5EEC08AF1EE10FA094B4FF000020CDBAB
:1073900013F042FB13F0A6FFBDEC028BC2B22946EC
:1073A0002046BDE83840FFF7C1BC13F033FBF1E7DE
:1073B0000000E03F032901D1FFF7C8BEFFF786BFF9
:1073C00090F9152090F96833012A10B408D1D0ED56
:1073D000D90A90ED200A5DF8044B1946FFF7EABF81
:1073E00090F9602390F862105DF8044BFFF7BBBC86
:1073F00090F8803370B504460D4600F130061BB995
:1074000090F91730032B1BD094EDE57AD4ED1E7A5A
:10741000D4F8881377EEC77A94EDE27AC4EDE77A70
:10742000F8EE476A002387EEA67A84F880330323B8
:10743000E3753046C4EDE87A84EDE67A03F01DFA90
:10744000304603F022FA07EE900AD4EDE66A94ED96
:10745000E77AC4F88C03F8EE677A3046A6EEE77A4E
:10746000D4ED1E7A84EDE87AB4EEE77AF1EE10FA04
:10747000C2BF94ED267A77EEC77AC4EDE87A03F0BE
:107480000BFA18B1012384F8803370BDD4EDE80AFB
:1074900094ED1E0A29462046BDE87040FFF78ABFDA
:1074A00090F91530012B01D1FFF7A2BFFFF762BCA5
:1074B00090F99013FFF7F4BF38B590F8693304469C
:1074C000A3B100F13005284603F0E6F994F97833CA
:1074D000A8BB032B94F915201FD1012A15D1D4ED97
:1074E000DF0A94ED200A2046FFF730FE94F872334D
:1074F000002B4CD004F13005284603F0CDF9C8BB71
:107500002046BDE83840FFF7ADBD94F8792394F8E4
:1075100062102046FFF7EDFBE8E7012A07D1D4ED22
:10752000DF0A94ED200A2046FFF7D0FEDEE794F84C
:10753000792394F862102046FFF7F8FBD6E7032B77
:107540000BBF0423032384F8783384F878330CBF0B
:10755000B4F86E33B4F86C33A4F87033002384F8B5
:1075600069330123D4F8741384F87233284603F086
:1075700084F9BBE7012384F869330023B4F870135E
:1075800084F872332846BDE8384003F076B938BD38
:1075900070B50A212DED048B0446F0EE419AB0EE51
:1075A000408AF0EE608AB0EE619AFFF71AFBD4EDE4
:1075B000D37A94EDD57A77EEC76AF4EEE96AF1EE04
:1075C00010FA06D877EE877AF4EEE97AF1EE10FA3F
:1075D00006DAC4EDD39A4FF0FF312046FFF701FBE6
:1075E000D4EDD47A94EDD57A77EEC76AF4EEC96A11
:1075F000F1EE10FA06D877EE877AF4EEC97AF1EE5A
:1076000010FA06DA84EDD49A4FF0FF312046FFF7E6
:10761000E8FA94F8403004F13806002B37D0F0EE49
:10762000690AB0EE480A2046FFF7E4F9F0EE490A8D
:10763000B0EE680A05462046FFF7DCF985420146B0
:1076400088BF2946304603F018F9002384F84030FB
:1076500019EE900A13F03EFBE368D3E90E2313F012
:10766000BBFC13F03FFE0546606519EE100A13F0EF
:1076700031FB2369D3E90E2313F0AEFC13F032FE85
:10768000636CA0651D44A36CE56418442065304616
:1076900003F002F9002866D1F5EEC09AF1EE10FA77
:1076A0001DDDB5EEC09AF1EE10FA7ADDE368E26C0A
:1076B0001B689A4204DA2369226D1B689A4207DB31
:1076C000B5EEC08AF1EE10FA1EDCB1EE488A1BE07E
:1076D0002046FFF701FA0120BDEC048B70BD1BD5DD
:1076E000B5EEC09AF1EE10FA3FDDE368E26C1B687C
:1076F0009A4204DD2369226D1B689A42E8DBB5EEED
:10770000C08AF1EE10FAE0DCF5EEC08AF1EE10FA74
:1077100020DCF1EE688A1DE0F5EEC09AF1EE10FA79
:10772000D6D5B5EEC09AF1EE10FAD1D5E368E26C89
:107730001B689A4204DD2369226D1B689A42C7DCEC
:10774000B5EEC08AF1EE10FA28DCF5EEC08AF1EE53
:1077500010FADEDC2046F0EE680AB0EE480AFFF7C9
:10776000D2FB0020B8E70220B6E7F5EEC09AF1EEB2
:1077700010FAD6DDB5EEC09AF1EE10FACCD5E3687A
:10778000E26C1B689A4204DA2369226D1B689A42F4
:107790009EDCB5EEC08AF1EE10FAD6DCB1EE488A76
:1077A000D3E7F5EEC09AF1EE10FAE3D5B5EEC09A44
:1077B000F1EE10FA99DCDDE7B5EEC00AF1EE10FA51
:1077C0004CBFD0ED1F0AD0ED1E0AF0EE401AB0EE0D
:1077D000401AB0EE600AFFF7DBBED0EDCB1AB5EE73
:1077E000C00AF1EE10FA60EE211A07DDD0ED200A92
:1077F000B1EE611AB1EE600AFFF7CABE06D590ED90
:10780000200AB1EE611AF1EE400AF5E70120704757
:107810002DE9F04F2DED028B90F8003283B010EE81
:10782000108A0446CDED010A00F5FC7700F1D80678
:107830003BB90121384600F020FC0121304600F020
:107840001CFC04F5227308EE103A94F8903204F50B
:10785000B47543B918EE100A012100F00EFC0121A5
:10786000284600F00AFCD4F80CA0404613F032FA87
:10787000DAE90E2313F0B0FB00220023804689468C
:1078800013F006FDCA4B0022002800F03381404669
:10789000494613F0C1F813F025FDD4F8383383427C
:1078A0000ED007EE900AF8EEE77ADAF80030C4F866
:1078B0003803636417EE900A13F00CFAC4E99201DE
:1078C000D4F810B0019813F005FADBE90E2313F099
:1078D00083FB002200238046894613F0D9FCB44B79
:1078E0000022002800F00B814046494613F094F82E
:1078F00013F0F8FCD4F8443383420ED007EE900A1C
:10790000F8EEE77ADBF80030C4F84403A36417EE1E
:10791000900A13F0DFF9C4E9B601DAF80000636CED
:10792000C01AC4F83C0313F0C3F941EC100B3846FD
:1079300000F0FFFB23691868A36CC01AC4F8480361
:1079400013F0B6F941EC100B18EE100A00F0F1FB41
:10795000E368304693ED200B00F0EBFB23692846EB
:1079600093ED200B00F0E5FBD4E994AB002200235B
:107970005046594613F096FC002840F0C58000227E
:10798000002350465946D0460BF1004913F076FCCF
:10799000002800F0BC80864B00224046494613F088
:1079A0003BF813F09FFC07EE900A94EDC67AF8EED0
:1079B000E77AB4EEE77AF1EE10FA16DD17EE100A68
:1079C00013F088F900228046894600235046594624
:1079D00013F04AFC002800F0A180424609F1004360
:1079E00043EC102B384600F0CDFAD4E9B8AB0022B6
:1079F00000235046594613F055FC002840F0918072
:107A00000022002350465946D0460BF1004913F09E
:107A100035FC002800F08880654B0022404649462E
:107A200012F0FAFF13F05EFC07EE900A94EDC67AAE
:107A3000F8EEE77AB4EEE77AF1EE10FA16DD17EE1B
:107A4000100A13F047F90022804689460023504669
:107A5000594613F009FC00286DD0424609F1004355
:107A600043EC102B18EE100A00F08CFAD4E9CE3259
:107A7000B4F92013581A824260DAD4E99423002121
:107A8000C4E94A23304600F025FA0121606803F07A
:107A900089F9D4E94C0113F025FCC1B2606803F008
:107AA000A7F9D4E9D132B4F92013581A82426CDA1A
:107AB000D4E9B8230021C4E96E23284600F00AFA6D
:107AC0000121A06803F06EF9D4E9700113F00AFCFB
:107AD000C1B2A06803F08CF994F830332BB194F85C
:107AE000313313B1012384F8323303B0BDEC028B80
:107AF000BDE8F08F4046494612F08CFFCBE6404689
:107B0000494612F087FFF3E6D046D94643E7284BB3
:107B100000225046494612F07DFF42E749EC108BA7
:107B200060E7D046D94677E7214B002250464946C8
:107B300012F070FF76E749EC108B93E70B449A4202
:107B400009DDD4E994230121C4E94A23304600F039
:107B5000C1F902219AE79FED140B384600F012FAA2
:107B60009FED110B304600F00DFA9FED0F7B606822
:107B700084ED4A7B042103F015F96068002103F0CD
:107B800037F9012384F830338BE70B449A4211DD37
:107B9000D4E9B8230121C4E96E23284600F09AF9FC
:107BA00002218EE7AFF3008000000000000000001B
:107BB0000000E03F9FED0E0B18EE100A00F0E2F916
:107BC0009FED0B0B284600F0DDF99FED097BA068C7
:107BD00084ED6E7B042103F0E5F8A068002103F03A
:107BE00007F9012384F8313376E700BFAFF3008053
:107BF000000000000000000010B50B212DED028BED
:107C00000446B0EE408AFEF7ECFFD4EDCB0A68EEF6
:107C1000200ABDEC028B2046B1EE600ABDE81040A0
:107C2000FFF7F6BD38B590F8BE33044600F5707521
:107C300003B30423C375002380F8BE33B0F8C81320
:107C4000284602F01AFE0123A4F8CC332046FEF7A2
:107C500057FF94F8CC339BB394F8CD3394F8CE23EC
:107C60009A422DD31BBB94EDF40A2046BDE8384060
:107C7000FFF7C2BF284602F00FFE0028E9D094F8B3
:107C8000CC3383F0010384F8CC3353B1B4F8C81378
:107C9000284602F0F2FD94F8CD33013384F8CD3359
:107CA000D7E7B4F8CA13284602F0E7FDD1E704EBA2
:107CB000830393EDF40AD3EDF37A30EE670AD4E749
:107CC0002046BDE83840FEF79DBF027D9AB190F98D
:107CD0001730012B01D1FFF7EFBB032B01D1FFF7C9
:107CE000E7BB022B01D1FFF76BBB042B01D1FFF7E0
:107CF00099BFFFF7B7B97047D0ED226A90ED1A6AC5
:107D000090ED235A90ED267A26EE866A26EE056AD5
:107D1000B4EEC76AF1EE10FA32D4D0ED275AB4EEC1
:107D2000E56AF1EE10FAD8BFF0EE465AD0ED1B7AB4
:107D3000C0ED1E5A66EEA77A67EE857AF0EEE77A16
:107D4000B4EEE77AF1EE10FA1DDDF1EE477AC0ED00
:107D50001F7AD0ED1C7A66EEA77A67EE857AB4EECC
:107D6000E77AF1EE10FA08DC90ED277AF4EEC77AA4
:107D7000F1EE10FAD8BFB0EE677A80ED207A704746
:107D8000F0EE475AD2E790ED276AB4EEE76AF1EEDB
:107D900010FA4CBFF1EE467AF1EE677AD7E7D0EDF4
:107DA000247A90ED257A002908BFF0EE477AC0EDDD
:107DB000237AFFF7A1BF80ED220AFFF79DBF0000E5
:107DC0002DE970430FF27009D9E90089C0E91A89D9
:107DD000DFF8749041724FF00008C0E91C890FF27F
:107DE0006009D9E90089002400250026C0E9006661
:107DF000C0E90A45C0E90C45C0E90E45C0E9104597
:107E0000C0E91245C0E91445C0E91645C0E9184566
:107E1000C0E91E89C0E9204580ED040B80ED061BFA
:107E200080ED082B067280F88A60A0F88820BDE8F3
:107E3000708300BFAFF300800000000000E06F40DF
:107E40000000000000C05F4000C05FC07047D0B5B8
:107E500057EC106B0446002210EE100A002339463E
:107E600013F002FA68B994F88A30012BC4E9046768
:107E700007D132463B460020002112F0CBFDC4E979
:107E80000401D0BDF8B50D1E044622DD284612F0CF
:107E90000FFF0646B4F888000F4612F0F9FE0246BE
:107EA0000B463046394613F097F802460B46064615
:107EB0000F46D4E9060112F065FF3246C4E9060117
:107EC0003B46D4E9080113F087F8C4E90801A4F897
:107ED0008850F8BD38B590F88A308B4204460D467C
:107EE00017D0D0E904230021002012F093FDD4E93B
:107EF0000623C4E904010020002112F08BFDD4E91F
:107F00000823C4E906010020002112F083FDC4E922
:107F1000080184F88A5038BD2DE9F843437A55ECBE
:107F2000104B0646C3B1D0E91C89294610EE100A51
:107F300042464B4613F098F908BBD6E91E67204627
:107F400032463B46294613F0ADF908B134463D466A
:107F500045EC104BBDE8F883D0E9188910EE102AE3
:107F60002B464046494613F09DF940B9D6E91A67B9
:107F700022462B463046394613F076F9E5E744466B
:107F80004D46E5E72DE9D043D0E9186759EC108B51
:107F9000044610EE102A4B463046394613F082F95B
:107FA00050B9D4E91A6742464B463046394613F079
:107FB0005BF908B946464F4694ED0E0BC4E91667C7
:107FC0002046FFF7A9FF84ED0E0BBDE8D0832DE915
:107FD000F04757EC106B55EC114B824611EE102A0E
:107FE00010EE100A2B46394613F05CF9F0B9DAE9C5
:107FF0001689CAE91867CAE91A4532463B4640461F
:10800000494613F031F998B922462B464046494675
:1080100013F048F908B944464D469AED0E0BCAE9EB
:1080200016455046FFF778FF8AED0E0BBDE8F08746
:1080300034463D46F1E7D0E9122390ED160B10B51A
:108040000446C0E90A2380ED0E0BFFF765FF637A53
:1080500084ED0E0B4BB100220023C4E91223C4E9C6
:108060000A23C4E90E23C4E9162394ED0E0B20461F
:10807000FFF752FF84ED0E0B10BD012938B5044601
:108080000CBF0125002503D1037A0BB9FFF7D3FFFD
:10809000257238BD2DE9F34755EC104B824610EEA2
:1080A000102AD0E914012B4612F0B4FC8046894610
:1080B000CAE92089DAE9042312F064FE06460F4675
:1080C000DAE90623CAE90C674046494612F05AFE2F
:1080D000DAE90E2312F0A0FCCAE90E0141EC100B04
:1080E0005046FFF719FFDAE90A238AED0E0B204606
:1080F00029468DED000B12F08DFCDAE9082312F011
:1081000041FE80468946DDE90023CAE910893046F0
:10811000394612F081FC42464B4612F07DFC41ECA0
:10812000100B5046FFF7F8FECAE90A4502B0BDE859
:10813000F08713B5037A8DED000B04468BB102F086
:10814000ABFB9DED000B60B12046FFF7A3FFB4F839
:108150008810204684ED160B02B0BDE8104002F0F6
:108160008CBB02B010BD000010B5082104461048B9
:1081700002F024FC0E4802F0D2FC90B10D490E48EA
:108180000DF0DAFB0023A17A607AA37001310FF0C1
:10819000B2FC0021207204F11400BDE8104002F08E
:1081A0006CBB064904480DF0C7FB0123EBE700BF99
:1081B000203600206BE701001442002099E70100FF
:1081C000837813B50446A3B1C379DBB100230DF165
:1081D00007018DF8073007F015F804F1140002F0DC
:1081E0005BFB30B19DF80730DA0704D50123E3705B
:1081F000637102B010BD13F0020303D00123E370DA
:10820000A371F6E76371FBE7837813B5044603B304
:1082100000230DF107018DF8073006F0FAFFB4F9DD
:108220001030B4F90C209DF807109818814210DC2A
:10823000981A81420DDBE1895B1A1BB2991A002959
:10824000D7BFE37A2382C2F164020133DCBF22820A
:10825000E37202B010BD10B5817A04460131407A54
:108260000FF049FC207210BD10B500230446C37006
:10827000C372FFF7F0FF618A04F11400BDE81040FB
:1082800002F0FBBA70B50E460021C0E90411104996
:1082900081611049C16110490162082180F82410F0
:1082A0000E49044643F29250C4E90A014FF00061BE
:1082B00021630B490868496804F1340503C509497D
:1082C000A360049BE163C4E90062E360204670BDE3
:1082D00000000C432549D6432549D6447800B40014
:1082E000BEE7010001030300F0B52DED028B90ED18
:1082F000088A002380F83C3089B0044600F110055C
:1083000018EE100A12F0E6FCB5EEC08AF1EE10FA93
:108310002F4B4FF0000257DB12F07EFB12F0E2FF12
:108320000146284602F0A9FAA06894F8343084F88F
:10833000303000252946303084F8315084F83250EE
:1083400002F09BFA2068FDF76BFF94F83F30002B9A
:1083500036D0E36801229D805A70E36840F2022221
:10836000DA801D811B4B6A4603F110071646186818
:108370005968154603C50833BB422A46F7D1164B48
:1083800004AA03F1100C154618685968174603C76C
:10839000083363453A46F7D1E268314602F10A00F4
:1083A00002F11A0331F8024B20F8024B8342F9D153
:1083B00029462A3231F8020B23F8020B9A42F9D1EE
:1083C00009B0BDEC028BF0BD12F024FBA6E700BFA4
:1083D0000000E03FC6E70100D6E7010010B5B0F9A4
:1083E0002E100446B0F92C000FF085FB07EE900A22
:1083F000F8EEE77A17EE900AC4ED067A12F06AFCFE
:1084000002460B4600200F4912F0E6FD0E4B0022FB
:1084100012F0B8FC12F0AEFF94F82430E06107EEE1
:10842000900AB1EE007A27EE877A07EE903AF8EEDE
:10843000677A84ED087A67EE877AFCEEE77AC4ED16
:108440000A7A10BD00004E4000408F402DE9F041F7
:108450000321044601200FF04EFB022100200FF003
:108460004AFB032101200FF046FB0025C6B24FF066
:10847000010894F83320EBB29A421CD9022E04EB87
:1084800003070CD1B3EB520F4FEA520107D35B1A2B
:10849000234493F8343087F834300135E9E7DB07BB
:1084A00002D487F83480F8E7062101200FF023FB7F
:1084B00087F83400F1E7BDE8F081436893F8402085
:1084C00010B5044692B1012280F83C2093F90030A7
:1084D000022B0BD1FFF782FF2046FFF7B7FF606842
:1084E000A16A4164BDE8104000F08FBF10BD0000DC
:1084F00038B52DED028B90ED088A044600F1100589
:1085000018EE100A12F0E6FBB5EEC08AF1EE10FA92
:10851000284B4FF0000232DB12F07EFA12F0E2FE3E
:108520000146284602F0A9F994F8323094F8332035
:1085300094F824000133DBB29A4284F832309CBFB5
:10854000002384F8323094F83210621892F83430F4
:1085500084F8303094F831300133DBB2984284F83B
:1085600031309FBF012384F83C30002384F8313040
:1085700041B9032384F83D3084F83E300EE012F018
:1085800049FACBE792F83330052B0FD194F93D30FF
:10859000042B0CBF0323042384F83D30E36801223D
:1085A0005A7000229A80BDEC028B38BD042BF5D1A5
:1085B0000323E1E70000E03F90F83C3010B50446AB
:1085C0000BB1FFF791FE606800F08BFF94F83F302D
:1085D0002BB1E36840F20222DA8000221A8104F112
:1085E000100002F059F910B12046FFF781FF94F80E
:1085F0003030A0681BB9BDE81040FEF703BB022B6A
:108600000BD1D4ED077AFDEEE77ABDE8104017EE06
:10861000903A9AB21146FEF750BD032B03D1BDE844
:108620001040FEF7CDBE052B0BD194F93D30042B45
:10863000BDE810400CBF9FED100A9FED100AFFF738
:10864000CCB8042B0BD194F93E30042B03D1BDE8F8
:108650001040FEF703BEBDE81040FEF76BBDD4ED41
:10866000077AFDEEE77ABDE8104017EE903A9AB22D
:108670001146FEF7FFBD00BF0000B4420000B4C2C7
:108680002DE9F84300251E4600F120090123044688
:10869000C0E90055C0E90255C0E904558846856126
:1086A00083836421484617460CF0C2FB194B2363B1
:1086B000B2EE080AF2EE070A1E2284ED0A0AC4EDA1
:1086C0000B0AA286494604F138000CF00BFD322358
:1086D000C4F88C3041F28833A4F8AC30089BE360D6
:1086E0000020099BC4F89400C4F89800C4F89C00CA
:1086F000C4F8A000C4F8A400C4F8A800C4E9215537
:10870000C4E9008784F89050A66023612046BDE844
:10871000F88300BF9A99394030B5044695B004F10A
:1087200020054FF4FA700FF09BFAD4ED0B0A94ED8C
:108730000A0AA28E294601A80CF0D4FC4C2201A9F9
:1087400004F1380013F0D2F901A80CF0F3FC28462C
:108750000CF0A0FC054620B90A490B480DF0ECF8D6
:1087600025770A4908480DF0E7F8002184F88D10B4
:10877000A4F88E1084F8901004F1840002F07DF8C3
:1087800015B030BDE6E70100144200201BE80100EF
:10879000F0B5044689B0406800F0B8FE237F2BB9DD
:1087A000606809B0BDE8F04001F084B8637F5BB158
:1087B000E3680022627701219A80597004F1140065
:1087C000B4F8AC1002F059F8E36840F20222DA8003
:1087D00000221A814A4B6A4603F1100716461868B0
:1087E0005968154603C50833BB422A46F7D1454BA5
:1087F00004AA03F1100C154618685968174603C7F8
:10880000083363453A46F7D1E268314602F10A007F
:1088100002F11A0331F8026B20F8026B8342F9D19E
:1088200029462A3231F8020B23F8020B9342F9D180
:1088300094F88D30FBB194F88E30E3B194F88F301A
:10884000CBB194F89030B3B160686FF0010100F0E3
:1088500056FF23696068198F00F0D7FD606800F04B
:1088600068FE2069012100F045FD206809B0BDE8DF
:10887000F040FDF7D5BC04F11405284602F00CF8D1
:1088800048B1E36801225A7000229A80B4F8AC1013
:10889000284601F0F2FF94ED297AD4ED0C7AA06815
:1088A000B4EEE77AF1EE10FA04DD09B0BDE8F0406D
:1088B000FEF740BCF1EE676AB4EEE67AF1EE10FA2C
:1088C00004D509B0BDE8F040FEF7CCBB94ED2A7AA0
:1088D000F4EEC77AF1EE10FAE7D4F4EEC76AF1EEDF
:1088E00010FA04DD09B0BDE8F040FEF7B7BCFEF7B2
:1088F000E6FAA06809B0BDE8F040FFF7E6B900BFAE
:108900004AE801005AE8010038B500F1380504468C
:10891000002128460CF0F6FC28460CF01BFD2846EA
:1089200084ED250A0CF019FD284684ED260A0CF08A
:1089300017FD284684ED270A0CF015FD284684ED26
:10894000280A0CF013FD284684ED290A0CF011FDCD
:10895000284684ED2A0A0CF0B9FC84F88D002846DC
:108960000CF0BBFC84F88E0028460CF0BDFC84F8AB
:108970008F0028460CF0BFFC84F8900038BD38B555
:10898000037F0446CBB1436893F840300BB1012319
:10899000437704F1380004F184050CF0D2FB28463B
:1089A00001F07AFF48B12046FFF7AEFF94F88C1033
:1089B0002846BDE8384001F060BF38BD2DE9F041E0
:1089C00000251E46012304460375C0E90055C0E991
:1089D000025505611830174688460CF0CDFC04F1AD
:1089E00064000CF0C9FC4FF4C873A4F8B0301E4BFF
:1089F000C4F8CC304FF07C52C4F8FC304FF4FA632A
:108A0000C4F8D420A4F81031184A069BC4F8DC201E
:108A1000002041F28832E360079BC4F8BC00C4F830
:108A2000C000C4F8C400C4F8C800C4F8D000C4F83A
:108A3000D800C4F8EC00C4F8F000C4F8F400C4F89E
:108A4000F800C4F80001C4E92D55C4E93955C4E95A
:108A50004255C4E90087A4F8E02084F80451A660D8
:108A600023612046BDE8F081CDCC4C3E0000A04102
:108A700010B5B0F8E0100446E43001F0FEFED4ED8D
:108A8000317A37EEE77AC4ED3B7AC4ED3C7A77EE83
:108A9000A77A84ED3E7AB6EE007A67EE877A94ED97
:108AA0003F7AC4ED3D7A67EE277A002384F80431DB
:108AB000C4ED407A10BD000090ED327AD0ED346AFA
:108AC000B5EEC07AF1EE10FAD4BFF1EE477AF0EECF
:108AD000477AF4EEE76AF1EE10FA10B5044646D98B
:108AE000D0ED366A9FED350AF4EEE76ADFED347AB1
:108AF000F1EE10FA88BFB0EE670A94BF012300239D
:108B0000D4ED3E7A94ED406AF5EEC07AF1EE10FABB
:108B1000D4BFF1EE676AF0EE676AB4EEE66AF1EE92
:108B200010FA2BD8F5EEC07AF1EE10FA23DD002909
:108B30003ED02046FFF79CFFB4F8101104F5847076
:108B400001F09BFE012384F804319FED1E0AA0680A
:108B5000FFF752F8A36893F8323323B904F5847011
:108B600001F09AFE10B1002384F8043110BD9FED8E
:108B7000140A0123C4E701D50029DAD094F80421AE
:108B8000002AE2D1A0687BB1B5EEC07AF1EE10FA0E
:108B900004DD29B1BDE81040FEF712BB0029F9D071
:108BA000BDE81040FEF7CCBBBDE81040FEF75ABA56
:108BB000F5EEC07AF1EE10FAE0D5BAE76666663FE8
:108BC0009A99193F0000344310B50446406800F0FC
:108BD00031FD237D2BB120460121BDE81040FFF778
:108BE0006BBF10BD10B50446406800F037FD237D13
:108BF0002BB120460021BDE81040FFF75DBF10BD3E
:108C000038B5084C05467021204601F0D7FE0121F9
:108C1000A9402046C9B201F026FF2046BDE83840F1
:108C200001F07DBF2036002070B5044604F118061F
:108C30000120FFF7E5FF214930460CF008FC05460E
:108C400020B91F491F480CF077FE25751E491D48A5
:108C50000CF072FE304600210CF0D7FB01221146C9
:108C600030460CF0BDFB04F164060020FFF7C8FF9E
:108C7000124930460CF0EBFB054620B91349114868
:108C80000CF05AFE257512490E480CF055FE304680
:108C900000210CF0BAFB0122114630460CF0A0FB7B
:108CA000B4F8B01004F1B40001F0E7FDB4F8E0103E
:108CB00004F1E400BDE8704001F0DFBD2036002083
:108CC0006AE801001442002096E80100BEE80100B5
:108CD000EBE8010038B5037D0446002B69D000F1B4
:108CE000B405284601F0D8FD90B3B4F8B01028467A
:108CF00001F0C3FD0120FFF783FF032104F11800F9
:108D00000CF076FD002084ED2F0AFFF779FF032198
:108D100004F164000CF06CFDD4ED2F7A84ED300A80
:108D200037EEC07A30EE270AF6EE007A20EE270AF8
:108D3000D4ED337A84ED310A67EE807A84ED327AAD
:108D4000C4ED347AD4ED357A27EE800A84ED360A04
:108D500004F1E405284601F09FFDF0B1B4F8E010FD
:108D6000284601F08AFDD4ED3C7A94ED317AC4EDC9
:108D70003B7A77EE676A77EE877A84ED3C7AB6EED7
:108D8000007A67EE877A94ED3F7AC4ED3D7A67EE1C
:108D9000277AC4ED3E6AC4ED407A23695B7943B11A
:108DA0006068052100F0ABFC2068BDE83840FDF7A5
:108DB00037BA38BD70B5012505614FF4FA760F4D0D
:108DC000456186844FF07D550D4E85610025C0E9D3
:108DD0000C65C0E90755C0E90A55C0E9105585631F
:108DE00044F620664FF47A658360049B8687C0E969
:108DF0000012A0F84850C36070BD00BF000096424A
:108E00007017030038B5114D04461121284601F0B2
:108E1000D5FDE17C284601F026FE284601F07FFEC4
:108E200004F11C00002101F028FD04F128000021BC
:108E300001F023FD04F13400002101F01EFD04F1D6
:108E400040000021BDE8384001F017BD2036002069
:108E500038B5074C05461121204601F0AFFDE97CED
:108E6000204601F000FE2046BDE8384001F057BE24
:108E70002036002038B5084CC57C1121204645F02D
:108E8000400501F09BFD2946204601F0ECFD2046FF
:108E9000BDE8384001F043BE20360020F0B504465E
:108EA00089B0406800F0EEFB237C002B6BD0637C24
:108EB00004F140066BB1002520466574FFF7DAFF28
:108EC000E36801229D80B4F848105A70304601F0E2
:108ED000D4FCE3680022DA801A812C4B6A4603F145
:108EE000100C174618685968154603C508336345C2
:108EF0002A46F7D1264B04AA03F1100E154618682E
:108F000059689446ACE80300083373456246F6D1CD
:108F1000E268394602F10A0302F11A0031F8027BD5
:108F200023F8027B8342F9D129462A3231F8020B19
:108F300023F8020B9A42F9D1304601F0ADFC48B15A
:108F4000E36801225A7000229A80B4F84810304633
:108F500001F093FCA37CA068022B06D194ED060AD5
:108F600009B0BDE8F040FEF72BB9032B06D194ED14
:108F7000060A09B0BDE8F040FEF7E2B909B0BDE865
:108F8000F040FEF76FB809B0F0BD00BF14E9010072
:108F900024E9010038B50122044611210648064D96
:108FA00001F05EFD044801F0A4FC20B1284601F068
:108FB000B9FDA074F6E738BD2036002038B5037C33
:108FC0000446002B47D000F11C05284601F064FC44
:108FD00090B1A18C284601F050FC2046FFF7DAFF43
:108FE0002046FFF735FFA37C013B022B9EBF94F880
:108FF0003330013384F83330636893F90030042B45
:109000002AD004F12805284601F046FC80B1218EC3
:10901000284601F032FC94F8332094F832309A421A
:1090200003D36068042100F06AFB002384F8333026
:1090300004F13405284601F02FFC30B12846A18FF9
:1090400001F01BFC2046FFF715FF636893F84030E2
:109050000BB10123637438BD002384F83330F4E787
:1090600070B541F65836868383600E4E059B866246
:1090700040F201154FF4FA66C360049B05838685B0
:10908000002547F230560361069B8576C0E90855F6
:10909000C0E90C55C0E90F55C0E9001206874361CD
:1090A00070BD00BFF401F40110B50021044620306A
:1090B00001F0E3FB04F130000021BDE8104001F0B5
:1090C000DCBB037E10B504466BB143699B7953B199
:1090D00040686FF0010100F012FB218F6068BDE86D
:1090E000104000F092B910BD2DE9F041044688B05F
:1090F000406800F01EFA637E04F13C0504F120068E
:109100001BB30027A0686776FDF77CFDA068394691
:10911000303001F0B2FB6069FFF7A6F86369218F78
:10912000DF7128464FF0010801F0A7FBA18B84F8FE
:109130001A80304601F0A1FBA18D04F1300001F04E
:109140009CFB236983F801809F80236940F20222FF
:10915000DA8000221A81644B6A4603F1100E9446AD
:1091600018685968174603C7083373453A46F7D15C
:109170005E4B04AA03F11008174618685968964612
:10918000AEE80300083343457246F6D122696146D2
:1091900002F10A0002F11A0331F802CB20F802CBE7
:1091A0008342F9D139462A3231F8020B23F8020BF7
:1091B0009342F9D1304601F06FFB70B10127A18BCA
:1091C000A776304601F059FBA18D04F1300001F083
:1091D00054FB236900225F709A80A37E002B74D019
:1091E00004F1300001F058FB002868D00023A3767A
:1091F0006069FFF709F86069C27A037A9A423DD341
:1092000001266676FFF730F863696421DE7100207D
:109210000EF071FC40B25028CCBF314602212068CC
:10922000FDF7C6F82068FCF7FBFF6068022100F03C
:1092300066FAE3686668D3ED087AB1EE007A67EE05
:10924000877AF5EEC07AF1EE10FA17EE900A40DB5D
:1092500011F040FD264B002211F0DEFB12F042F827
:109260000146304600F0D1F86368002283F84120BF
:10927000E368012283F83C2083F83F20284601F070
:109280000BFB68B3012560696576FEF7EDFF636946
:109290006421DD7100200EF02EFC40B24B28D4BFBB
:1092A000032129462068FDF783F82068FCF7C8FFF2
:1092B0006068002108B0BDE8F04100F020BA628D7E
:1092C000218DA068FDF7D6FF92E7A068FDF79AFC14
:1092D0008EE711F0FFFC064B002211F09BFBBDE76F
:1092E00008B0BDE8F08100BF34E9010044E90100A5
:1092F0000000E03F43694176D970704710B54A1EBF
:1093000002300631002412F9013F23448A4200F85A
:10931000013B1CB2F7D110BD2F4A034670B50024A3
:1093200020F8024B1568C3F802509588858095791E
:10933000857115466420C3F80940587255F8070F27
:109340001861A87998751920D8752448C3F81A406F
:1093500098610F2018771046AE8850F80E5FC3F85A
:109360001E508588807983F8240010465D8450F86B
:10937000155FC3F8255085888079DC609E82A3F84C
:10938000295083F82B0052F81C0FD86290889279EC
:10939000188683F8322041F6583041F28832C3E90A
:1093A0000D0243F69822DA6301220D48A3F840200B
:1093B00083F85C204FF4FA72A3F85E204FF47A72BF
:1093C000C3E91204C3E914445C649C65A3F86020FB
:1093D0005966184670BD00BF54E901000514140F0A
:1093E0000000551510B56421044600200EF083FBE3
:1093F000616B607004F14C0001F03FFA04F154001D
:109400000021BDE8104001F038BA41634C3001F052
:1094100034BA012908B5034605D103F110011846F5
:10942000FFF76CFF08BD022902D100F11701F7E731
:10943000032902D100F11E01F2E7042902D100F153
:109440002501EDE7052902D100F12C01E8E700290B
:10945000E3D100F10901E3E710B504464FF47F02C0
:10946000406E002102F0F6FA606E4FF47F02032195
:1094700002F0F0FA606EBDE8104002F0E9B90000B9
:1094800010B50446074A406E002102F0E3FA606E10
:10949000044A032102F0DEFA606EBDE8104002F0DB
:1094A000D7B900BF00FFFF0013B504460A4601917B
:1094B000406E002102F0CEFA019A606E012102F0A6
:1094C000C9FA019A606E022102F0C4FA606E019A34
:1094D000032102F0BFFA606E02B0BDE8104002F056
:1094E000B7B910B504464FF47F42406E002102F038
:1094F000B1FA606E4FF47F42032102F0ABFA606E66
:10950000BDE8104002F0A4B9FFF7A6BF10B50446AD
:109510004FF0FF12406E002102F09CFA606E4FF097
:10952000FF12032102F096FA606EBDE8104002F0CF
:109530008FB910B504464FF6FF72406E002102F05D
:1095400089FA606E4FF6FF72032102F083FA606EB3
:10955000BDE8104002F07CB9FFF7C3BF70B52DED38
:10956000028B00F1540682B0054630460C4601F0ED
:1095700093F918B12146304601F07FF907EE904A81
:109580009FED298A9FED297AF8EE677A304678EECA
:10959000677AC7EE278A01F078F907EE900AF8EEAD
:1095A000677AB0EE487AA8EEA77A3046B4EEC87A69
:1095B000F1EE10FA27DB01F068F907EE900AF8EEF9
:1095C000677AA8EEA78A18EE100A11F083FB184BF1
:1095D000002211F021FA11F085FEC2B2100240EA19
:1095E00002420021686E019202F034FA686E019A1C
:1095F000032102F02FFA686E02B0BDEC028BBDE8C9
:10960000704002F025B901F040F907EE900AF8EE3B
:10961000677AA8EEA78A18EE100A11F05BFB044BDC
:10962000002211F0F7F9D6E70000000000007FC328
:109630000000E03F10B504466FF07F42406E00210D
:1096400002F008FA606E6FF07F42032102F002FA26
:10965000606EBDE8104002F0FBB8000010B5044693
:10966000074A406E002102F0F5F9606E044A0321BA
:1096700002F0F0F9606EBDE8104002F0E9B800BFFA
:109680005555550010B50446FF22406E002102F0EA
:10969000E1F9606EFF22032102F0DCF9606EBDE8A3
:1096A000104002F0D5B838B500F1540504462846FC
:1096B00001F0F2F850B1B4F85E10284601F0DDF880
:1096C00094F85C3083F0010384F85C3094F85C100B
:1096D000606E71B14FF47F02002102F0BBF9FF22EE
:1096E000606E032102F0B6F9606EBDE8384002F00A
:1096F000AFB8FF2202F0AEF94FF47F02F0E710B5E9
:1097000090F900308B42044670D0012380F840303D
:109710000170D0E90E010EF0EEF994F90030DA1D77
:109720000CD147F2305363632046FFF7BCFF616BF7
:1097300004F14C00BDE8104001F09FB823B960630C
:109740002046FFF79DFEF2E7012B01D16063EEE7B3
:10975000022B05D1636C63632046FFF7C2FEE6E788
:10976000591C06D1B4F8483063632046FFF774FEF5
:10977000DDE7032B06D144F6206363632046FFF741
:10978000C5FED4E7052B06D144F62063636320466B
:10979000FFF750FFCBE7062B06D144F62063636347
:1097A0002046FFF75BFFC2E7042B06D144F6206397
:1097B00063632046FFF766FFB9E79A1C0AD144F6B7
:1097C000206363632046FFF7B4FEB0E74EF66023E4
:1097D0006363ACE71A1DD2B2012AF7D9072B02D175
:1097E00044F62063F4E700232370A8E710BD10B50A
:1097F0006421044600200EF07EF9002340B2984216
:1098000084F84130607094F902300CDB83420EDD45
:1098100000212046FFF773FF616B04F14C00BDE8A7
:10982000104001F02AB8834294F9031005DC94F942
:109830000330834205DD0121EBE7884294F90420DF
:1098400008DB94F90430834208DD012384F84130B9
:109850000221DEE7904294F9053005DB94F90530EA
:10986000834205DD0321D4E7984294F9062005DB05
:1098700094F90630834205DD0421CAE7904294F949
:10988000073005DB94F90730834203DD0521C0E78B
:109890009842BDDB94F908308342B9DD0621B8E770
:1098A00010B504464C3000F0F7FF10B12046FFF72A
:1098B0009EFF10BD08B5FFF79AFF08BD10B5002246
:1098C00004461146406E02F0C5F8606E0022032186
:1098D00002F0C0F8606EBDE8104001F0B9BF38B5C5
:1098E00000F154050446284600F0D6FF50B1B4F804
:1098F0005E10284600F0C1FF94F85C3083F001034D
:1099000084F85C3094F85C3083B1606E4FF47F0271
:10991000002102F09FF8606E4FF47F02032102F0F5
:1099200099F8606EBDE8384001F092BF2046BDE86E
:109930003840FFF7C3BF2DE9F843D0F864909DF895
:10994000247005464FF00C080C4610049DF82010BA
:109950009DF82820B0FBF8F080B21E4602F0AAF86D
:1099600002F004F900210246484602F073F824048C
:109970003A463146B4FBF8F4A0B2D5F8649002F050
:1099800099F802F0F3F803210246484602F062F823
:10999000686EBDE8F84301F05BBF000070B50025BC
:1099A000C0E906554560064D0562C0E9022301265F
:1099B000049B06754FF47A6585840160036170BD70
:1099C000D007D0070021183000F057BF037D10B535
:1099D00004467BB1836893F840305BB1818C408C46
:1099E0000EF089F8208481B204F11800BDE810401F
:1099F00000F043BF10BD38B5037D0446A3B1183055
:109A000000F04AFF054620B1A068BDE83840FFF7E6
:109A100051BFA068218CFFF7A1FD2368E0681D738A
:109A2000BDE83840FDF7EEB838BD10B51A30002358
:109A3000DCB2A24205D931F8134020F8024B0133C1
:109A4000F6E710BDF0B504460F46012181614FF4E1
:109A5000FA612184A1853049A16301F6AA31E1634D
:109A60002E492164002040F6C411C4E90900C4E96C
:109A70000C00C4E91200A083A077A4F8441084F875
:109A80005000FA212648274DA4F8521061654FF482
:109A9000C801C4E916012449216604F1640C05F1EA
:109AA000100E28686968664603C608357545B446D1
:109AB000F7D11E4D04F1740C05F1100E2868696889
:109AC000664603C608357545B446F7D1184D04F10E
:109AD000840C05F1100E28686968664603C60835CF
