:10400000000003203D7B0100297B0100297B01008A
:10401000297B0100297B0100297B010000000000B1
:10402000000000000000000000000000297B0100EB
:10403000297B010000000000297B0100BD7B0100FD
:10404000297B0100297B0100297B0100297B0100DC
:10405000297B0100297B0100297B0100297B0100CC
:10406000297B0100297B0100297B0100297B0100BC
:10407000817A0100877A01008D7A0100937A01002C
:10408000997A01009F7A0100A57A0100AB7A0100BC
:10409000B17A0100B77A0100BD7A0100C37A01004C
:1040A000C97A0100CF7A0100D57A0100DB7A0100DC
:1040B000297B0100297B0100297B010079BC0000DC
:1040C00079BC000079BC000079BC000079BC00001C
:1040D000297B0100297B0100297B0100297B01004C
:1040E000297B0100297B0100297B0100297B01003C
:1040F00000000000297B0100297B0100297B0100D1
:10410000297B0100297B0100297B0100297B01001B
:10411000297B0100297B0100297B0100297B01000B
:10412000297B0100297B01006558010071580100BD
:104130007558010079580100297B0100297B010095
:10414000297B0100297B010045AC000051AC000037
:1041500055AC000059AC0000297B0100297B01000F
:10416000297B0100297B0100297B0100297B0100BB
:10417000297B0100297B0100297B0100297B0100AB
:104180002D7B0100CF7B0100D37B0100D77B010099
:10419000297B0100297B0100297B0100297B01008B
:1041A000297B0100297B0100297B0100297B01007B
:1041B000297B0100297B0100297B0100297B01006B
:1041C000297B0100297B0100297B0100297B01005B
:1041D000297B0100297B0100297B0100297B01004B
:1041E000297B0100297B0100297B0100C1630100BB
:1041F0008DF3000000000000297B0100297B0100F5
:10420000297B0100297B0100297B0100297B01001A
:10421000297B0100297B0100297B0100297B01000A
:10422000297B0100297B0100297B0100297B0100FA
:10423000297B0100297B0100297B0100297B0100EA
:10424000297B0100297B0100297B0100297B0100DA
:10425000297B0100297B0100297B0100297B0100CA
:10426000297B010010B5054C237833B9044B13B1F9
:104270000448AFF300800123237010BD60090020C3
:10428000000000004C08020008B5034B1BB10349B5
:104290000348AFF3008008BD00000000640900205F
:1042A0004C080200014801F02ABC00BFA0290020F0
:1042B000014801F024BC00BF602A0020014801F041
:1042C00036BC00BFA0290020014801F030BC00BF6F
:1042D000602A002010B50446383010F02FFF204629
:1042E00010BD00002DE9F0472DED028B1F464378ED
:1042F000BDF828A0BDF82C6004468946154600F19B
:104300003C0833B10023437043715146404606F0E8
:10431000B8FA404606F0C4FA48B163790133DBB21B
:10432000012B637111D13146404606F0AAFA667935
:1043300076B9B9F1010F16D132462946BDEC028B90
:104340000E20BDE8F04711F079BFF0D90223637168
:104350000E2011F05DFFBDEC028B0021BDE8F0479F
:104360000E2013F09FBFB9F1020F3CD1404606F07A
:1043700090FA07EE905AB8EE678A07EE907A0446F4
:104380005046F8EE678A16F097FC02460B4600206E
:10439000002116F043FB16F0F1FF78EE688A07EE75
:1043A000900A88EEA77AA4B207EE904AF8EE677AF0
:1043B000A7EE278AB5EEC08AF1EE10FA18EE100AC1
:1043C0000ADB16F08BFC454B002216F029FB16F099
:1043D0008DFF81B20022B1E716F080FC3F4B002236
:1043E00016F01CFBF3E7B9F1040F0DD194F8482047
:1043F00082F0010284F848201AB1B4F84C10324619
:104400009CE7B4F84E1099E7B9F1050F18D104F103
:104410005408404606F044FA00285AD0B4F8521026
:10442000404606F02EFABD4204D92946384613F01C
:1044300066FBCEE702D239462846F8E73146C9E79F
:10444000B9F1030F84D1B4F86030D4ED198A404635
:1044500008EE103A06F01DFA07EE900AB8EE488A08
:10446000F8EE677AB4F86030A8EEA78A404607EE07
:10447000903AB5EEC08AF1EE10FAD4ED198AB8EE92
:10448000678A15DB06F005FA07EE900AF8EE677A00
:10449000A8EEA78A18EE100A16F020FC0F4B002297
:1044A00016F0BEFA16F022FF81B2A4F8681091E768
:1044B00006F0EFF907EE900AF8EE677AA8EEA78A01
:1044C00018EE100A16F00AFC044B002216F0A6FAA9
:1044D000E8E7BDEC028BBDE8F08700BF0000E03FDD
:1044E000002310B5036083808371C21D00F11201A7
:1044F00000F1110402F8013B944221F8023B93774A
:10450000F8D180F8303000234363836310BD38B5A1
:104510000C46054613F068FB2060AB691B782371DD
:10452000AB695B786371AB699B78A371E21D04F1A1
:1045300012000023A9691944C97802F8011BA9696E
:1045400001EB4301B1F90E1020F8021BA9691944CF
:10455000013391F8221091770A2BEBD1AB6993F8D4
:104560002C3084F83030AB691B6B6363AB695B6BD9
:10457000A36338BD38B54FF4E1316648664D674CEA
:1045800011F0E2FF664806F0EDF94FF4FA6013F01F
:104590006BFB604811F0CCF962495E4811F0D0F92C
:1045A00061495C4811F0CCF90F2013F091FD13F034
:1045B00097FA5E4807F066F85C4807F04DF95C48EA
:1045C00004F046FB5B4801F069FE284604F010FF4A
:1045D000594802F085F8594801F098F800210E205A
:1045E00013F060FE5648002106F04BF955480021B3
:1045F00006F047F90021544806F043F9534803F008
:10460000C7FD082152480AF091FF0021514806F0E9
:1046100038F9514801F05AFB504803F04DFB04F1C2
:104620002000FFF75DFF04F120012046FFF76FFF38
:10463000B4F85E1004F1600006F023F923684848DE
:1046400003F5A1530C33A36104F07AF84548394CC3
:1046500004F03EFD444805F073FA444805F0B0FC10
:10466000434805F0B3F943483E23C37404F0DEFB2E
:10467000414B42489B6A6B64414B00211B8DA5F85E
:10468000483006F0FEF83F48002106F0FAF83E4BAD
:104690003E48196806F0F5F8022210463C4913F02E
:1046A000F7F83C490222042013F0F2F83A490222BA
:1046B000032013F0EDF839490222052013F0E8F841
:1046C000374B1B7823B1374B2046197801F0D0FDCA
:1046D000354B1B782BB1354B0F4893F9001004F084
:1046E00084FF334B1B782BB1324B134893F90010E6
:1046F00002F059FB6178084805F0C6F82E4B0548D2
:1047000000221A7111F014F9BDE838402B49044811
:1047100006F048B914420020FC3300206430002029
:104720002036002068E5010074E50100202B002000
:1047300058320020582B0020102C00203C1500205F
:1047400000310020103100200831002048300020C6
:10475000413100205C310020800900200830002019
:10476000A8310020B83300208C34002030350020E0
:10477000643400206C3300206831002034150020A0
:10478000F03500202C150020080000202415002002
:10479000A5420000C9420000BD420000B142000035
:1047A0000400002006000020050000202215002043
:1047B000211500200700002040310020801A06004B
:1047C00010B50A4C0A4804F02AFE204600F0C0FF4B
:1047D000A37C2BB1074B40F20222DA8000221A811F
:1047E000BDE81040014800F0BBBF00BF3C150020F1
:1047F000FC330020D4300020F0B5414C414889B052
:1048000004F00DFE204601F095F83F4802F041F813
:104810003D4802F057F941F2F5330022E35CA274FF
:10482000A3B33A4B01215970A17439491A815960D7
:10483000384B6D4603F110072A46186859682E4612
:1048400003C60833BB423546F7D133490823013B41
:1048500032F8020B21F8020B13F0FF03F7D12F4BB4
:1048600004AD03F110072A46186859682E4603C69E
:104870000833BB423546F7D129490823013B32F8BA
:10488000020B21F8020B13F0FF03F7D11D4D2A781C
:10489000053A012A02D8234804F0FEF895F90030C1
:1048A000072B13D1204DAB7D022B0FD1284605F0ED
:1048B00088FB1348B5F9966000F0F4FF032806BFA3
:1048C000714209B23146284605F084FB0C4800F0DD
:1048D0003FFFA38A1548013390F822209BB29342F0
:1048E000A3820BD30023A38205F0C8FF05484FF035
:1048F000FF3109B0BDE8F04004F077BE09B0F0BD6B
:104900003C150020FC330020102C0020D430002067
:104910000000020294E50100DE300020A4E5010061
:10492000EE3000205832002030350020F0350020D5
:104930002DE9FF47C04BDFF8A483C04DC04F0026D0
:10494000C3E90066BF4BC3E90066BF4B0622C3E95B
:10495000006604215223404606F0DCFDBB4ABC49F8
:10496000404613F0E9FD6021BA4806F0FFF9032242
:104970000221B94801F03CF805220421B74801F0B2
:1049800037F8B64BB44AB349B54801F0FDFC40F2E4
:1049900001104FF48033C5E900034CF60A632B8104
:1049A0003223AB7242F6E06442F21073C5E905436C
:1049B00049F64043EB613B7985F824303B46386843
:1049C00033F8052FA5F825209B7885F827303B463E
:1049D00007F1100C33F8082F2A859B7885F82A30C8
:1049E0003B46286253F80B2FC5F82B201B7985F81E
:1049F0002F30BCE80F0005F13004C5E903660FC491
:104A0000DCF80030236041469648C5F84480964C57
:104A100004F088FC924B934A9448294600F01CFD10
:104A20004FF4A013236040F20B236381904BA680C8
:104A3000C4E90333C4F806602683636104F11A02F3
:104A400007F124032E46343753F8041B42F8041BA5
:104A5000BB42F9D1874B63644FF47A73A4F84A30B0
:104A6000854BE3641923A4F852304FF4FA63A4F899
:104A70005E30824BDFF868822366814B63660025D7
:104A80004FF001094FF48373C4E90B55C4E90D5588
:104A9000C4E90F55C4E9155584F8489084F850903E
:104AA00084F85C90A4F86830082140460AF07DFB49
:104AB000744F754BA8F802904FF08072C8E901233B
:104AC0003846724B00F8019B4FF00A11C8E90313F6
:104AD000C8E905550AF062FC3223FB804FF05A13F7
:104AE0003B611E23FB824FF4C8733B83684B3D71CF
:104AF000C7E90255C7E9075587F814907B62654FEF
:104B0000654AA7F800900A23BB703B8100237B61B4
:104B1000BB61FB61C7E903557A606049604ADFF811
:104B2000C491DFF848A107F120000FF05DFE5D4958
:104B300007F148000FF0A4FD5B4B3B6707F50B60E6
:104B40000BF004F8414A5949384613F0F5FC3B464E
:104B5000424A4149484603F093F8554B37499D6115
:104B6000C3E900A6C3E918553D4E83F85C50C3E97C
:104B70001A55C3F814903B4DDFF86C919D6040F2DC
:104B800001129A836522C3E90367A3F85E204846B1
:104B900033462A46009403F089FB464F2749009488
:104BA00033462A46444805F06DFD33462A462349DC
:104BB0000094424805F0C8FD33462A46CDE90198E5
:104BC0001E490094384604F05FFA33462A46CDE980
:104BD00000471A493A4803F067FD1C4A39493848EA
:104BE00013F0AAFC33462A46CDE90048134936485B
:104BF00003F0F8FE33462A4610490094334804F087
:104C0000EDF82B465146CDE901480C4A0096304854
:104C100004F01CFF2B465146CDE90064074A2D489D
:104C200005F064F9009433462A4651462A4804F0B8
:104C3000B9FE04B0BDE8F08734150020582B0020E1
:104C4000B4E501002C1500202415002000000020F0
:104C500035B50000A02B0020A0290020602A0020EC
:104C6000102C0020FC330020D43000203C15002004
:104C70000B020B02010000017B00F70006017B0024
:104C800004568EBD40310020030205005A008813EF
:104C90000400A00F800900200000C8420A7008002C
:104CA0000B7008002C00210000F901006951000080
:104CB00064300020B8330020D0350020F0350020CB
:104CC000A8310020D5420000583200206C3300206B
:104CD0008C3400203035002064340020202B00204C
:104CE0004830002008300020683100202DE9F743CB
:104CF000B74E12F07FFF304601F0E2FAB379A3B16C
:104D000000237178B348B37104F0BEFD7378B248E4
:104D1000334493F92B1001F0A9FD7378AE4806EBEC
:104D2000830393ED0C0A02F0A6FFAC4B1B7823B172
:104D3000AB4BA748197801F09BFAA64F384604F010
:104D400087FD97F840301BB17178A14801F071FAE6
:104D5000A44B1B784BB1A44B93F9001097F900308A
:104D60008B4202D09B4804F040FCA04B1A78994635
:104D700012B19F4B00221A739E4D12F03BFF9C48CC
:104D800000F026FD12F036FF6B79022B0CD10123C7
:104D90006B7000236B712B790133DBB2032B2B710A
:104DA00084BF40F20323AB80934805F079FDF8B14E
:104DB0006988914805F065FD2A7953002A44DBB2E1
:104DC00091792970032903F10C022AD1B5F85E40CC
:104DD00005EB4200448005EB430405EB4202A38B44
:104DE000019353880093A38962898248FFF77AFA76
:104DF000824C834803F0F8F92378002B5CD004F14F
:104E0000080005F04DFD002856D0E18804F10800A7
:104E100005F037FD2379012B0AD1B4F91010601C7D
:104E200021E00429D7D1B5F84A4005EB4200D1E78B
:104E3000022B1BD104F11C0005F032FD00283BD0F1
:104E4000218B04F11C0005F01CFD227DB4F9121029
:104E5000B4F916301AB100222275C91ADFE701220F
:104E600022751944A0180AF08FFB25E0032B40F0AF
:104E7000AB8004F11C0005F013FDE8B194F8252087
:104E800094F824309A4280F09380218B04F11C0026
:104E900005F0F7FC227DB4F91210B4F91630002A9F
:104EA000D9D101221944A01822750AF06DFB94F89B
:104EB0002530013384F825305248DFF8848100F032
:104EC00043FF514800F04CFE504800F049FE504866
:104ED00002F00AFF98F81C300BB308F1600005F0EF
:104EE000DFFCE0B1B8F85E1008F1600005F0C9FC25
:104EF000002108F1680005F0C4FC08F120014046DB
:104F0000FFF705FB4348092105F05CFD41483C22C1
:104F100008F1200105F0D2FC3E4805F004FE3E48B1
:104F200003F0DFFA3D4803F03EFD3D4803F0E6FEA6
:104F30003C4804F057F83C4804F0D7F83B4804F0EC
:104F400049FD3B4804F03EFE3A4805F0EEFB0023E5
:104F5000394887F8403005F0A3FC20B1374B36487C
:104F6000198805F08EFC0023EB802B81237197F9C3
:104F70000030D81D04D0012B64D12E4805F092FBDF
:104F80007378022B0BD103232371C82323831E23A1
:104F9000E3824FF47A63E384062384F8243097F99C
:104FA0000030012B04BF0023237103B0BDE8F08360
:104FB000E18C04F11C0005F064FCB4F91210601CD3
:104FC0000AF0E2FA002375E7B4F9121027E700BFF0
:104FD000582B0020FC330020102C0020040000205F
:104FE00006000020050000202215002020150020CA
:104FF0003C150020D430002000310020403100203A
:105000004830002080090020A0290020602A0020CC
:10501000083000202036002068310020A831002010
:10502000583200206C330020B83300206434002054
:105030008C340020D03500202C1500200C000020DE
:1050400064300020191D03D1394804F0D8FC97E7DB
:10505000DA1C03D1374804F0D5FD91E7023303D1C0
:10506000354804F055F88BE7344800F07CFB28B154
:1050700099F8003013B9FFF7A3FB81E72F4B5B7B57
:1050800013B199F8003083B197F90030022B0FD19A
:1050900097F841302BB12A4A002387F8413082F833
:1050A0003F30274803F09CFA6AE7FFF7A5FB67E764
:1050B000032B03D1234803F07FFB61E7052B03D1CA
:1050C000214803F095FD5BE7062B03D11E4803F052
:1050D0009DFD55E7042B03D11C4803F0F3FE4FE779
:1050E000072B03D11A4805F06BFA49E701330AD1BF
:1050F000184890F821301BB1174804F0B5FB3FE782
:1051000005F040FB3CE7144804F09CF9134B1B7876
:105110004BB1134B134893F9001001F044FE1148B2
:1051200002F033FD2CE70F4801F029FEF7E700BF3E
:10513000643400208C340020B83300203C1500205B
:1051400068310020A8310020583200206C33002044
:1051500030350020F0350020FC33002021150020E0
:1051600007000020102C002010B5044648300FF036
:1051700051F904F120000FF0B9FA204610BD704734
:10518000012906D801448B79002B0CBF0020032095
:10519000704700207047002343718371C3717047CB
:1051A000037870B50446002B2DD01748164E012207
:1051B000092105F059FC0025304605F09EFB20B181
:1051C000304605F0B3FCC5B2F6E7A3782571234459
:1051D0001A7AAA4304BF01229A71E37823441A7A07
:1051E000AA4304BF01229A71A3790BB10123637111
:1051F000E3792BB101236371A37A0133A37202E037
:105200006379002BF8D170BD203600200160704713
:1052100010B503790446006843B994ED030A02F01F
:105220002BFA002801DD0123237110BD012B07D1CA
:1052300094ED020A02F031FA0028F6DD0223F3E7CA
:10524000BDE8104001F03EBC007901288CBF002071
:105250000120704708B50221002012F050FCC0B2B6
:105260000128FFEE007AB7EE000A18BFB0EE670A19
:1052700008BD00000000000038B52DED028B0B7852
:10528000032B04460D4608D1002303718369C360D4
:10529000D4ED057AF1EE677A4FE04B78032B08D115
:1052A000002303718369C36043698360BDEC028B93
:1052B00038BD8B79012B12D9032B0BBF002301239F
:1052C000237123710CBFA3690023E360FFF7C2FFC2
:1052D000D4ED057A27EE800A84ED020AE6E7CB7862
:1052E000012B34D9032B90ED048A29D100230371BB
:1052F000806915F0F3FC36A3D3E9002315F046FDD1
:1053000016F03CF8FFEE047A28EE278AE06084ED80
:10531000028A2B79012B4CD92046FFF79BFF2D21C8
:105320000020B0EE408A12F0EAFB07EE900AB8EED9
:10533000E77ADFED297AE8EE077AC4ED027AB5E77D
:10534000012303710023C360B1EE488ADFE70B79C4
:10535000012B33D9032B90ED048A25D1002303714F
:10536000806915F0BBFC1AA3D3E9002315F00EFDEC
:1053700016F004F8F7EE047A28EE278AE06084ED50
:10538000028AEB78012B14D92046FFF763FF2D2109
:105390000020B0EE408A12F0B2FB07EE900AB8EEA1
:1053A000E77ADFED0E7AC6E7012303710023C360BD
:1053B000E5E7AB78012B3FF66BAF77E78B78012BF6
:1053C0003FF67AAF4B79012B3FF676AF6EE700BF21
:1053D0009A9999999999E93F000034C300003443A0
:1053E00010B50446FFF748FFD4ED027AF5EEC07A17
:1053F000F1EE10FACCBF0320042010BDF8B505462D
:1054000040F2011325F8043B04460F4616460021DE
:105410004FF4E872284616F077FB00236422C4E9B3
:10542000783323710435A4F8D42184F8DA314FF6A7
:10543000FF72A4F8DC3184F8DE31064BC4F86C51FD
:10544000A4F8D821C4F8E83184F8D67184F8DB6177
:105450002046F8BD2800D0072DE9F04F1E46502306
:1054600003829F4B036283629E4BC3629E4B036326
:105470009E4B436389B003F5A0138363CDE9051206
:105480009B4B9C494162F0210025C0E90F1301228A
:1054900003278C330446828107774364C0E90055B3
:1054A00085608573857485828561934B9348C4E9D3
:1054B0001203934B23657823A4F8543004F134038A
:1054C000049304F15803312118460793FFF796FF20
:1054D00004F511732A46302118460093FFF78EFF1A
:1054E00004F586630222322118460193FFF786FFF6
:1054F00004F21C633A46332118460293FFF77EFFFD
:1055000004F6080318460422342104F6F41B03931E
:1055100004F53E6AFFF772FF052235215846FFF772
:105520006DFF04F6CC59062236215046FFF766FF80
:1055300004F6B878072237214846FFF75FFF0822B4
:1055400038214046FFF75AFF049B03F58B5710376D
:10555000092239213846FFF751FF41F29032079B6B
:10556000A35041F29433009AE25041F29833019AE9
:10557000E25041F29C33029AE25004F59D53039AA3
:105580001A6041F2A43341F2A83044F803B041F26A
:10559000AC3344F800A044F8039041F2B033B4F9BE
:1055A0003A2044F8038041F2B433E75041F2B83373
:1055B000E118B4F93870E7524A8041F2BC316318FF
:1055C000B4F93CC067525A80A3F804C041F2C23318
:1055D000E218B4F94410B4F84670E752518041F231
:1055E000C632A318B4F94AC0B4F94C70B4F94810E3
:1055F000B4F84EE024F802E0A3F802C09F80D980FE
:1056000041F2CE33B4F84070B4F94210E752E218D8
:105610003C4F518041F2D23162183B6863507B6845
:1056200053603B891381049B184406F035FF41F217
:10563000E4333322E25241F2E833E218E550556098
:1056400041F2F0323049A150A31841F2F432314610
:10565000A5527A891A810D22DA72DD809D7241F29B
:105660000A433222E25241F20C43E218E55041F281
:10567000144355604FF4FA72E25241F21843E218B3
:10568000E55004F5A153556065221A8041F2244388
:10569000E218E55004F5A15355600022DA631A645C
:1056A00083F83850059B2360069B04F11800C4E979
:1056B0000136FFF7ABFD04F59F5304F5A0521C33F0
:1056C000063203F8015B9342FBD141F206432046C8
:1056D000E55241F20843E55409B0BDE8F08F00BF40
:1056E000000034420000B442000034C350006400A3
:1056F0005000B40000003443A0004600AA005A0045
:10570000D0071400E8E501000101000110B50446CE
:1057100000F5A1500021043005F0B3F804F5A050C5
:105720000021183005F0ADF804F1340000F082FBE0
:1057300004F59F501030BDE81040FFF720BD08B5BC
:105740000921343000F0FCFB003818BF012008BDEF
:1057500000234373837300F59F501030FFF71BBD88
:105760001830FFF755BD1830FFF76EBD2DE9F04139
:10577000002500F5A05600F59F5704464573857334
:10578000063610374FF00108E9B23846FFF7F8FC4B
:105790000135022806F8010B88BF84F80E80032D1E
:1057A000F2D104F59F561C36002504F13408012778
:1057B000E9B2404600F0C4FB06F8010B18B101281D
:1057C000A77388BF677301350A2DF1D1BDE8F08159
:1057D000436893F8403070B504460BB1012303735E
:1057E00004F5A15504F13400043500F085FB28468A
:1057F00005F056F8C8B104F5A153284604F59F55A5
:10580000B3F90010103505F03CF82846FFF7C8FC46
:1058100095F90A2095F90B309A4206DB206800F0D2
:105820006FFC41F2FA330022E25404F5A0560C3624
:10583000304605F035F804F5A055183510B341F29F
:105840000A433046E15A05F01CF82046FFF78EFF68
:10585000A37B2BB9284605F023F898B100210AE074
:10586000284605F01DF850B141F214432846E15A8C
:1058700005F007F80121A06802F0F1F902E0A37B2E
:10588000002BE7D0284605F00BF818B9A0680121D5
:1058900002F0E5F9237B23B92046BDE87040FFF70D
:1058A00057BF70BD10B50446FFF760FF04F59F5168
:1058B00004F118001C31BDE81040FFF791BD2DE93F
:1058C000F04100F59F551C35044629461830FFF776
:1058D000D3FC04F5A15704F59F580C37002608F1B6
:1058E0001008F1B24046FFF74BFC0136032E07F8D3
:1058F000010BF6D104F59C5204F5A15304F5A05018
:10590000294610321A33063011F8015B81F8325003
:1059100052F8045BB5F9D86123F8026B814295F81F
:10592000DE5181F85150EFD141F25843227FE254C9
:10593000BDE8F08110B50446FFF718FF2046BDE82A
:105940001040FFF7BCBF00290ADBB0F900308B42E2
:1059500008DAB0F902008842ACBF0220002070478C
:10596000002070470320704700290EDBB0F900309B
:105970008B420CDAB0F902308B420ADAB0F904003B
:105980008842B4BF002001207047002070470320E8
:1059900070470220704700290ADBB0F900308B42C3
:1059A00008DDB0F902008842D4BF03200020704710
:1059B0000020704702207047002912DBB0F9043044
:1059C0008B4212DDB0F900308B420CDAB0F90230B4
:1059D0008B420ADAB0F906008842D4BF03200020C7
:1059E0007047002070470320704702207047000076
:1059F0004FF47F432DE9F0478380FF2383712C4BC5
:105A000090460022C0E9042323A3D3E90023C0E980
:105A10000623284B0022C0E90823274B0022C0E9B7
:105A20000A23264B0022C0E90C231DA3D3E900233F
:105A3000C0E90E23224B0025C0E910350A23044695
:105A400080F848301F4BC36400260027C0E9025588
:105A50009FED150B89465030052100F0CFF8E06C22
:105A6000B4F842A0C4E91E67C4E9206715F036F90E
:105A700041EC100B514604F1880000F0BFF8C4E976
:105A80002C67C4E92E6784F8059084F806802560A9
:105A90002046BDE8F08700BF46EAFF9EDB8F6740E7
:105AA000E0F09C762F1BD43F000000A09999B93FED
:105AB00000004E40000049400000284000C08240E5
:105AC0000A000500CDCCCC3D10B50446002190F96C
:105AD000050012F0A3FB94F90600002112F09EFBD2
:105AE00004F10800002104F0CCFE04F1500000F0A5
:105AF00093F804F18800BDE8104000F08DB838B587
:105B0000044690F9050012F0F7FB054694F90600EB
:105B100012F0F2FB2368854215BF013303F1FF3316
:105B20002360236014BF00230123237138BD38B5DF
:105B3000044690F9050012F0DFFB054694F90600D3
:105B400012F0DAFB236885420BBF013303F1FF3308
:105B5000236023600CBF00230123237138BD0000A4
:105B60002DE9F84300F108050446284604F098FEA4
:105B700000283ED0284604F08CFE15F08DF81E4B10
:105B8000002215F02DFA06460F462846B4F84010BC
:105B900004F077FE2068656C401B15F08DF8D4E9A1
:105BA0000E2315F0F3F880462068401B894615F057
:105BB00083F832463B4615F013FAC4E92C0141EC58
:105BC000100B04F1880000F02BF83B4684ED2E0BFF
:105BD00032464046494615F003FAC4E91E0141EC3D
:105BE000100B04F1500000F01BF884ED200B23682B
:105BF0006364BDE8F88300BF00408F4030B50022E9
:105C000000240025C0E90022C0E90645C0E9084596
:105C100080ED040B018130BD002104F032BE000094
:105C20002DE9F04757EC106B824604F039FE10B3B3
:105C3000DAE90489124942464B46002014F0EEFE90
:105C4000DAE9062315F0A2F8324604460D463B4633
:105C50004046494615F09AF802460B46204629462A
:105C600014F0DEFECAE90801CAE90601BAF8081014
:105C7000504604F006FE9AED080BBDE8F08700BF21
:105C80000000F03FF8B500F1200604460E4A1F213F
:105C900030460FF0A5F810B900252846F8BD04F1EC
:105CA0004807094A212138460EF0F2FC0546002833
:105CB000F2D030460EF073FFC4E9190730460EF0FB
:105CC00070FFE066E9E700BF2036002038B500220B
:105CD00000F50B6504461146284609F051FFD0B97E
:105CE000134914480FF02CFE2046FFF7CBFF054662
:105CF000C8B911490F480FF023FE257004F1700058
:105D000094ED010A0DF088F804F10C000021BDE8C3
:105D1000384004F0B6BD28460AF0D8FB08B9074958
:105D2000DFE70749DDE7074902480FF009FEE5E72D
:105D3000F4E50100144200205DE6010016E60100D2
:105D400038E601007DE601000378F7B50446002B34
:105D50006CD000F10C05284604F0A2FD002865D0A7
:105D60002846B4F9081004F08CFD606E036804F551
:105D700033673946DB689847A06E036804F65436EB
:105D80003146DB689847E06E036804F67831DB68DB
:105D9000019104F50B6598470199284609F03AFCF2
:105DA0003946284609F036FC04F53767314628465F
:105DB00009F030FC97ED001ADFED1D7A04F66C3720
:105DC000D7ED000A04F6683797ED000A04F648326A
:105DD00004F6443304F68C3004F64C3104F6943661
:105DE00004F5396590ED003A92ED002AD3ED001AE2
:105DF00096ED004AD5ED003AD1ED002A21EE271AA2
:105E000060EEA70A20EE270A04F170000DF0DCF91D
:105E1000636FA361A36FE361E36F636163785A1CEF
:105E20006270A2789A429CBF0023637003B0F0BDF9
:105E3000E02E654270B5044604F59D5500F59D5071
:105E400000211430083504F01CFD274A2121284682
:105E500006F025FB20B9254925480FF07BFDFEE71C
:105E6000244923480FF076FD0026F1B2012228468E
:105E7000013606F045FB082EF7D10026F1B20022CC
:105E80002846013606F022FB082EF7D1608811F073
:105E9000EBFE0026F1B201222846013606F016FB81
:105EA000082EF7D1608811F0DFFE0026F1B2002243
:105EB0002846013606F00AFB082EF7D1608811F05B
:105EC000D3FE04F59A541C340026072EF1B203D8F1
:105ED0000122284606F0FAFA54F8040B013600F0C5
:105EE00077F80A2EF1D170BD2036002097E6010028
:105EF00014420020BAE6010070B500F59D55143536
:105F00000446284604F0CCFC064628B141F2B033E2
:105F10002846E15A04F0B5FC04F59A5504F59C5462
:105F20001C35043455F8040B037833B10EB100F07E
:105F300087F855F8040C00F092F8A542F2D170BD34
:105F4000421841F29E33D35C042B3FD8DFE803F0C4
:105F5000030F1B26320001F2D64100EB810100F550
:105F60009C504B68B3F9D8110430FFF7ECBC01F238
:105F7000D64100EB810100F59C504B680830B3F925
:105F8000D811FFF7F1BC01F2D64100EB810100F519
:105F90009C504B680E30B3F9D811E6E701F2D641B8
:105FA00000EB810100F59C504B681230B3F9D81119
:105FB000FFF702BD01F2D64100EB810100F59C50D4
:105FC0004B681A30B3F9D811FFF7E5BC00207047D1
:105FD00037B50446B0F8D40111F046FE0022144B48
:105FE00094F8D6110092201D06F0C6FB054688B92C
:105FF000104911480FF091FC94F8DB110E480A2269
:106000000FF0F3FC2570B4F8D40103B0BDE83040C4
:1060100011F02ABE094908480FF07FFC94F8DB1103
:1060200005480A220FF0E1FC01232370EBE700BFD3
:1060300020360020DFE601001442002000E70100C6
:10604000037810B504464BB1043006F08EFA11F017
:10605000CBFD0023C4F8E00184F8DD3110BD0378E6
:1060600070B5044613B90025284670BD061D30469C
:1060700006F08FFA05460028F5D094F8DD31002BA4
:10608000F1D184F8DC31304606F06CFA84F8DE0198
:10609000304606F094FA012384F8DD3194F8DC31BF
:1060A000A4F8D8011BB14FF6FF73A4F8D83194F9C6
:1060B000DE311BB14FF6FF73A4F8D831B4F9E831E3
:1060C000B4F9D8219A42DCBF4FF6FF73A4F8D83157
:1060D00011F08AFDD4F8E031C01AC4F8E401C3E736
:1060E00090F9083090F907201A4490F9093093424A
:1060F00004DC90F90A309342A8BF1346C37170477D
:1061000090F9083090F90720D21A90F9093093429B
:1061100004DC90F90A309342A8BF1346C37170475C
:1061200013B5C279333AD2B20446130243EA0242AB
:10613000406C0192012105F091FC606C019A0221F2
:1061400005F08CFC606C02B0BDE8104005F084BB2B
:1061500013B5C279333A0446D2B21202406C0192AE
:10616000012105F07BFC606C019A022105F076FCB0
:10617000606C02B0BDE8104005F06EBB13B5C2798B
:10618000333A0446D2B21204406C0192012105F068
:1061900065FC606C019A022105F060FC606C02B045
:1061A000BDE8104005F058BB13B5C2790446333A38
:1061B000D2B2406C0192012105F050FC606C019A52
:1061C000022105F04BFC606C02B0BDE8104005F008
:1061D00043BB13B5C279333A0446D2B242EA022233
:1061E000406C0192012105F039FC606C019A02219A
:1061F00005F034FC606C02B0BDE8104005F02CBB2B
:1062000013B5C279333AD2B21302044643EA0243C9
:106210001A43406C0192012105F020FC606C019A48
:10622000022105F01BFC606C02B0BDE8104005F0D7
:1062300013BB052904D8DFE801F01703070B0F1380
:1062400001234370FFF76CBF02234370FFF780BF49
:1062500003234370FFF7A8BF04234370FFF78EBFEB
:1062600005234370FFF7B5BF00234370FFF7C8BF96
:1062700043788B4210B504460FD0FFF7DAFF0123B5
:10628000D4E90601A37111F03AFC6061014604F102
:106290000C00BDE8104004F0F4BA10BD10B5642144
:1062A0000446002011F02BFC012160802046FFF7FE
:1062B000DFFF04F10C000021BDE8104004F0E1BA5A
:1062C000037810B50446002B5BD00C3004F0E8FADC
:1062D000002856D06421002011F011FC40B20A2899
:1062E00029DC2046FFF70CFF6421002011F007FC99
:1062F00094F9072013181BB2642BA8BF642394F9E8
:10630000202023EAE3739A4263802EDD642100207B
:1063100011F0F5FB94F90730184400B20028A08072
:106320000FDB94F9203083420BDB03212046BDE8CC
:106330001040FFF79DBF5928D6DD2046FFF7D0FE5D
:10634000D2E7B4F9023094F9211094F9222099424D
:1063500003DC934203DC0421E8E79342E5DB94F994
:1063600023209A42E1DB0521E0E794F921209A42BB
:1063700001DB0121DAE794F922209A42F9DB0221BC
:10638000D4E710BD000000002DE9F04F2DED048B87
:1063900083B09046019340F20113436141F2883289
:1063A0004FF47A630025C0E9072342F6E063C0E9B1
:1063B0000935B14B056104460126C0E917334FF09A
:1063C000050B4FF61973C0E90055C0E90255C0E945
:1063D0000B55C0E90D55C0E91155C0E91355C0E989
:1063E000155580F818B0C56380F84060A0F8643097
:1063F000A24AA348A34BA0668946A349E166226747
:106400006367C4F88430A14BC4F89030A04BC4F843
:106410009830A04BC4F89C309F4BC4F8A0309F4BE1
:10642000C4F8A430C4F8A8309D4BC4F8AC304FF089
:1064300080439FED850B9FED861B9FED872BC4F856
:106440008020C4F8B03086A3D3E900239FED868B6B
:106450004FF07E579FED869BC4E9342384ED2E0BCD
:1064600084ED301B84ED322BA067E167C4F888709F
:10647000C4F88C70C4F8947029460A2204F1D8003C
:1064800001F0B2FC94ED322B94ED301B94ED2E0B09
:1064900029460A2204F5B47001F0A6FCB0EE482AA1
:1064A000F0EE682AB0EE481AF0EE681AB0EE490A2B
:1064B000F0EE690A2946142204F5FC7001F094FC00
:1064C000B0EE482AF0EE682AB0EE481AF0EE681AEC
:1064D000B0EE490AF0EE690A1422294604F522704A
:1064E00001F082FC6F4BC4F818336F4BC4F81C33B7
:1064F0006E4BC4F824336E4BC4F828336D4BC4F88C
:106500002C331E2384F860336B4BD4ED1A8AC4F805
:106510006833B6EE009A03F21D239FED688AC4F833
:106520005C7328EE899A94F85C70C4F86C334FF46D
:1065300048734FF0030AF1EE049AA4F870334FF455
:106540007A73C4F8743327FA06F0C4E9CD55C4E968
:10655000CF55C4E9D155A4F820A3A4F8305384F84A
:10656000325384EDD38A84EDD48AC4EDD59A84ED78
:10657000D68A84EDD99A84F8725384F878A314F0FB
:106580009BFB4F4B002214F04BFA14F0AFFE44F685
:106590002063C4E9E23594F86430D4ED267A84F8B7
:1065A0007903FF1A474BC4F8B0334FF4167378EEF3
:1065B000E78AA4F8B433444BC4F8B8334FF4FA7301
:1065C000A4F8BC33294684EDDF9A84F88063C4F8CC
:1065D000845384F890A3C4EDE59A84EDE68AC4ED73
:1065E000E78A84EDE88A84F8A4B384EDEA8A84F823
:1065F000AC7384F8AD5384F8AE6384F8B66384F862
:10660000BE63202204F5747015F07EFA2F49304BDA
:10661000C4F80090C4E9F2132E4BC4F8D0332E4BCB
:10662000C4F8D83342F63023A4F8F033019BC4F801
:106630000C802046C4E9F055236103B0BDEC048B07
:10664000BDE8F08FAFF30080B81E85EB51B8DE3F98
:106650009A9999999999993F9A9999999999793F7C
:10666000D9CEF753E3A5DB3F000000000000000097
:10667000333333333333E33F7878645000007A4365
:106680000000AF4300803B43000061C3CDCC4C3FD2
:106690000000484200007A44E7FB293E9A99B54140
:1066A000008098440000C8420000484300002C438A
:1066B000A71607443720C03F030120030000000055
:1066C0000000E03F58025802F401F4019808F40178
:1066D000000004080000F0410000F0C100000000CC
:1066E00070B504462DED028B5F4A00684FF4C86117
:1066F00004F0C3FA2068012104F006FB0221A06027
:10670000206804F001FB94F85C106060A06804F05D
:1067100073FBA068012104F049FBA068042104F088
:1067200045FB94F85C10606804F066FB606801212A
:1067300004F03CFB6068042104F038FB94F9181065
:10674000002011F0DCF9E075D4E9080111F0D7F967
:106750000146E06104F1280004F093F804F13000F0
:10676000002104F08EF804F57070002104F089F81F
:10677000002104F1380004F084F8E068FFF7A4F980
:1067800004F1D8062069FFF79FF904F5B475304687
:1067900001F070FB284601F06DFB94F8640014F0E2
:1067A0007BFA9FED2F8B41EC100BB0EE481AF0EE08
:1067B000681A304601F01FFC94F8640014F06CFA7B
:1067C000B0EE481AF0EE681A41EC100B284601F0C2
:1067D00012FCE3683046B3F8401001F067FB236910
:1067E00004F5FC76B3F84010284601F05FFB04F591
:1067F0002275304601F03EFB284601F03BFBD4F801
:106800001C0314F06BFA024601F1004343EC102B19
:1068100041EC110B304601F0EEFBD4F81C0314F0F0
:106820005DFA024601F1004341EC110B43EC102BE1
:10683000284601F0E0FBE368B3F840103046490019
:1068400001F034FBBDEC028B2369B3F840102846FD
:106850004900BDE8704001F029BB00BFAFF30080E4
:106860000000000000E06F402036002090F85C300F
:1068700053FA81F380F8603090F85D3053FA81F379
:1068800080F8613090F85E3053FA81F180F8621040
:10689000704790F99033032B0CBF0423032380F837
:1068A000903390F96833032B0CBF0423032380F843
:1068B000683370472DE9D043B5EEC00AD0ED2B7A8E
:1068C000F1EE10FA2DED048BF0EE408AD8BFF1EE18
:1068D000408A88EEA79A0446F5EEC00AF1EE10FA57
:1068E000B0EE608AD8BFB1EE608A38EE080A80EE5A
:1068F000270A12F00BF8B4EEC09AF1EE10FA33DC6E
:1069000019EE100A14F0EAF9064618EE100A0F46BE
:1069100014F0E4F98046D4F8AC00894614F0DEF9AE
:106920001B4B002214F032FA32463B4614F02EFA8A
:1069300032463B4614F02AFA02460B464046494688
:1069400014F06CF8064618EE900A0F4614F0C6F9DB
:1069500002460B463046394614F042FB14F00EFD59
:1069600007EE900A37EE890AD4ED2C7A60EE277A8A
:1069700017EE900A14F0B2F9064B002214F006FA52
:1069800014F0DCFCBDEC048B80B2BDE8D08300BF0A
:106990000000E03F00408F4010B5044604214068ED
:1069A00004F004FAA068042104F000FA60680021F1
:1069B00004F022FAA0680021BDE8104004F01CBADF
:1069C000F8B52DED028B9FED268B0025044600F5D2
:1069D000FC7704F5227680ED928BB0EE480AF0EE5B
:1069E000680A80EDB68BC0F83853C0F84453384677
:1069F00001F0DCFAB0EE480AF0EE680A304601F029
:106A0000D5FA2946384601F04CFB2946304604F1B8
:106A1000D80601F046FBB0EE480AF0EE680A84EDB5
:106A20004A8B84ED6E8BA4F8305384F83253304691
:106A300004F5B47401F0BAFAB0EE480AF0EE680A50
:106A4000204601F0B3FA2946304601F02AFBBDEC9E
:106A5000028B29462046BDE8F84001F022BB00BF6A
:106A6000000000000000000010B5012380F8CC33C6
:106A700090F8CD33B0F8C8130133044680F8CD3315
:106A800000F5707003F0FDFE2046BDE81040FFF7F2
:106A900097BF012280F8BE23002280F8CD23FFF7A4
:106AA0008FBF90F916208A420BD0012280F8402037
:106AB000C268817512684264026912688264FFF7D5
:106AC0007FBF704710B504460021FFF7EAFF6068FA
:106AD000042104F06BF9A068042104F067F96068F0
:106AE000002104F089F9A0680021BDE8104004F0FD
:106AF00083B938B504460D460021FFF7D2FF606820
:106B0000012104F053F9A068012104F04FF96068F5
:106B1000294604F071F9A0682946BDE8384004F020
:106B20006BB938B504460D460121FFF7BAFF60681E
:106B3000022104F03BF9A068022104F037F96068F3
:106B4000294604F059F9A0682946BDE8384004F008
:106B500053B938B504460D460321FFF7A2FF60681C
:106B6000022104F023F9A068012104F01FF96068F4
:106B7000294604F041F9A0682946BDE8384004F0F0
:106B80003BB938B504460D460421FFF78AFF60681B
:106B9000012104F00BF9A068022104F007F96068F4
:106BA000294604F029F9A0682946BDE8384004F0D8
:106BB00023B9F8B504460E4605211546FFF771FFC7
:106BC0006068012104F0F2F86F08A0680121A6EBCB
:106BD000550504F0EBF86068E9B204F00DF9B91955
:106BE000A068C9B2BDE8F84004F006B9F8B504469B
:106BF0000D4606211646FFF754FF6068012104F098
:106C0000D5F8A068012104F0D1F805EB56016068C1
:106C10007708C9B204F0F0F8E91BA068C9B2BDE872
:106C2000F84004F0E9B8032BD2B201D1FFF7C1BF9D
:106C3000FFF7DCBF90F8803370B504460D4600F1D5
:106C400030061BB990F91730032B1FD0002384F8AE
:106C50008033032394F8A423E37594F8603094ED13
:106C6000E27AD4F888139B1ADBB207EE903AF8EE7A
:106C7000476AF8EE677A84F8AC3387EEA67A84F830
:106C8000AD33304684EDEA7A03F0FBFD304603F085
:106C900000FE07EE900AD4EDEA6A94EDE77AC4F8B4
:106CA0008C03F8EE677AA6EEE77AB5EEC07AF1EEDD
:106CB00010FA17EE100A1CDB14F010F8154B002226
:106CC00013F0AEFE14F012FB94F86030C0B28342B1
:106CD00038BF94F8A42384F8AD033CBF9B1A84F812
:106CE000AD33304603F0DCFD50B1012384F880332E
:106CF00070BD13F0F3FF074B002213F08FFEE1E7A6
:106D000094F9AD2394F860102B462046BDE87040FE
:106D1000FFF789BF0000E03F10B50446D0E9080145
:106D200010F0EDFE94F91710E06103290CD1012356
:106D300084F880330221002010F0E1FED4F888337B
:106D400084F89003E36106E0022910D1002010F0DE
:106D5000D6FE84F86803E16904F1280003F091FD90
:106D600004F130000021BDE8104003F08ABD042981
:106D7000F1D1012384F8BE33B4F8F033E2E7037DA8
:106D800010B5044673B1283003F08AFD50B194F970
:106D90001810002010F0B3FEE0752046BDE810404A
:106DA000FFF7BABF10BD38B5037D04460D464BB1A1
:106DB000283003F075FD28B1E5752046BDE8384060
:106DC000FFF7AABF38BDF8B590F8E0702DED028B43
:106DD0000446F0EE408AB0EE608A00F1D80600F575
:106DE000B4752FBB0121304601F05BF994ED340BF3
:106DF000304601F040F8F5EEC08AF1EE10FA13D5F6
:106E00000121304601F07AF8B5EEC08AF1EE10FAB1
:106E10000ED594ED340B284601F02DF894ED340B8B
:106E2000304601F028F803E03946304601F066F8B4
:106E300094F870712FBB0121284601F032F994EDCE
:106E4000340B284601F017F8B5EEC08AF1EE10FABF
:106E500013D50121284601F051F8F5EEC08AF1EE74
:106E600010FA0ED594ED340B284601F004F894ED99
:106E7000340B304600F0FFFF03E03946284601F0AE
:106E80003DF818EE900A13F029FFC4E94A0118EE04
:106E9000100A13F023FFC4E96E01E368304693ED56
:106EA000200B01F05AF92369284693ED200B01F0DD
:106EB00054F9F5EEC08AF1EE10FA4CBF022101211F
:106EC000606803F073FFB5EEC08AF1EE10FA4CBFB4
:106ED00002210121A06803F069FFD4E94C0114F0FC
:106EE00005FAC1B2606803F087FFD4E9700114F0BD
:106EF000FDF9BDEC028BC1B2A068BDE8F84003F01B
:106F00007BBF13B5002104468DED010AFFF7C9FDD3
:106F1000DDED010A2046B0EE600A02B0BDE8104087
:106F2000FFF751BF90F91520012A03D190ED1E0AF9
:106F3000FFF7E7BF90F86010FFF7DBBDFFF7E1BF99
:106F400013B5012104468DED010AFFF7AAFDDDED21
:106F5000010A2046B0EE600A02B0BDE81040FFF71B
:106F600032BF90F91520012A03D190ED1F0AFFF7D7
:106F7000E7BF90F86110FFF7D4BDF8B500F1300716
:106F8000044638460D46164603F08AFC78B1204682
:106F9000FFF798FD94F8B6338BB1002384F8B6332D
:106FA000A4F8BC63B4F8BC13384603F06AFC94F848
:106FB000B63320464BB1BDE8F840FFF7B3BF01231D
:106FC00084F8B633A4F8BC53ECE7BDE8F840FFF70B
:106FD000C8BF13B5032104468DED010AFFF761FD1B
:106FE000DDED010A2046B1EE600A02B0BDE81040B6
:106FF000FFF7E9BE90F91520012A03D190ED200A90
:10700000FFF7E7BF90F86210FFF7A3BD2DE9F0414D
:1070100010EE104A2DED028B052110EE906A80468D
:10702000FFF73FFD204613F059FE044630460D465B
:1070300013F054FE114B002213F0A8FE02460B463B
:1070400006460F462046294613F0EAFC14F096F94E
:10705000324608EE100A3B462046294613F0DEFC75
:1070600014F08CF9F0EE480ABDEC028B00EE100A29
:107070004046BDE8F041FFF7A6BE00BF0000E03F7C
:1070800038B52DED028B90F91530012B0446B0EE8A
:10709000408A09D190ED1E0A60EE080ABDEC028B11
:1070A000BDE83840FFF7B2BF90F8605007EE905A45
:1070B000F8EE677A27EE808A18EE100A13F00EFEBB
:1070C000B5EEC08AF1EE10FA094B4FF000020CDB6E
:1070D00013F0A6FC14F00AF9BDEC028BC2B22946EB
:1070E0002046BDE83840FFF764BD13F097FCF1E798
:1070F0000000E03F10B52DED028B0421B0EE408A78
:107100000446FFF7CEFCF1EE480AB0EE480ABDECAB
:10711000028B2046BDE81040FFF755BE90F91520C0
:10712000012A03D190ED200AFFF7E4BF90F8621026
:10713000FFF727BDF8B500F13007044638460D4685
:10714000164603F0ADFB78B12046FFF7BBFC94F880
:10715000AE338BB1002384F8AE33A4F8B463B4F833
:10716000B413384603F08DFB94F8AE3320464BB190
:10717000BDE8F840FFF73EBF012384F8AE33A4F822
:10718000B453ECE7BDE8F840FFF7C8BF2DE9F04184
:1071900010EE104A2DED028B062110EE906A80460B
:1071A000FFF77FFC204613F099FD044630460D465C
:1071B00013F094FD114B002213F0E8FD02460B463C
:1071C00006460F462046294613F028FC14F0D6F850
:1071D000324608EE100A3B462046294613F020FCB2
:1071E00014F0CCF8F0EE480ABDEC028B00EE100A69
:1071F0004046BDE8F041FFF7E6BD00BF0000E03FBC
:1072000038B52DED028B90F91530012B0446B0EE08
:10721000408A09D190ED1E0A60EE080ABDEC028B8F
:10722000BDE83840FFF7B2BF90F8605007EE905AC3
:10723000F8EE677A27EE808A18EE100A13F04EFDFA
:10724000B5EEC08AF1EE10FA094B4FF000020CDBEC
:1072500013F0E6FB14F04AF8BDEC028BC2B22946EB
:107260002046BDE83840FFF7C1BC13F0D7FBF1E77B
:107270000000E03F032901D1FFF7C8BEFFF786BF3A
:1072800090F9152090F96833012A10B408D1D0ED97
:10729000D90A90ED200A5DF8044B1946FFF7EABFC2
:1072A00090F9602390F862105DF8044BFFF7BBBCC7
:1072B00090F8803370B504460D4600F130061BB9D6
:1072C00090F91730032B1BD094EDE57AD4ED1E7A9C
:1072D000D4F8881377EEC77A94EDE27AC4EDE77AB2
:1072E000F8EE476A002387EEA67A84F880330323FA
:1072F000E3753046C4EDE87A84EDE67A03F0C1FA2E
:10730000304603F0C6FA07EE900AD4EDE66A94ED33
:10731000E77AC4F88C03F8EE677A3046A6EEE77A8F
:10732000D4ED1E7A84EDE87AB4EEE77AF1EE10FA45
:10733000C2BF94ED267A77EEC77AC4EDE87A03F0FF
:10734000AFFA18B1012384F8803370BDD4EDE80A98
:1073500094ED1E0A29462046BDE87040FFF78ABF1B
:1073600090F91530012B01D1FFF7A2BFFFF762BCE6
:1073700090F99013FFF7F4BF38B590F869330446DD
:10738000A3B100F13005284603F08AFA94F9783366
:10739000A8BB032B94F915201FD1012A15D1D4EDD8
:1073A000DF0A94ED200A2046FFF730FE94F872338E
:1073B000002B4CD004F13005284603F071FAC8BB0D
:1073C0002046BDE83840FFF7ADBD94F8792394F826
:1073D00062102046FFF7EDFBE8E7012A07D1D4ED64
:1073E000DF0A94ED200A2046FFF7D0FEDEE794F88E
:1073F000792394F862102046FFF7F8FBD6E7032BB9
:107400000BBF0423032384F8783384F878330CBF4C
:10741000B4F86E33B4F86C33A4F87033002384F8F6
:1074200069330123D4F8741384F87233284603F0C7
:1074300028FABBE7012384F869330023B4F87013FA
:1074400084F872332846BDE8384003F01ABA38BDD4
:1074500070B50A212DED048B0446F0EE419AB0EE92
:10746000408AF0EE608AB0EE619AFFF71AFBD4ED25
:10747000D37A94EDD57A77EEC76AF4EEE96AF1EE45
:1074800010FA06D877EE877AF4EEE97AF1EE10FA80
:1074900006DAC4EDD39A4FF0FF312046FFF701FB27
:1074A000D4EDD47A94EDD57A77EEC76AF4EEC96A52
:1074B000F1EE10FA06D877EE877AF4EEC97AF1EE9B
:1074C00010FA06DA84EDD49A4FF0FF312046FFF728
:1074D000E8FA94F8403004F13806002B37D0F0EE8B
:1074E000690AB0EE480A2046FFF7E4F9F0EE490ACF
:1074F000B0EE680A05462046FFF7DCF985420146F2
:1075000088BF2946304603F0BCF9002384F8403098
:1075100019EE900A13F0E2FBE368D3E90E2313F0AF
:107520005FFD13F0E3FE0546606519EE100A13F0E7
:10753000D5FB2369D3E90E2313F052FD13F0D6FED9
:10754000636CA0651D44A36CE56418442065304657
:1075500003F0A6F9002866D1F5EEC09AF1EE10FA14
:107560001DDDB5EEC09AF1EE10FA7ADDE368E26C4B
:107570001B689A4204DA2369226D1B689A4207DB72
:10758000B5EEC08AF1EE10FA1EDCB1EE488A1BE0BF
:107590002046FFF701FA0120BDEC048B70BD1BD51E
:1075A000B5EEC09AF1EE10FA3FDDE368E26C1B68BD
:1075B0009A4204DD2369226D1B689A42E8DBB5EE2E
:1075C000C08AF1EE10FAE0DCF5EEC08AF1EE10FAB6
:1075D00020DCF1EE688A1DE0F5EEC09AF1EE10FABB
:1075E000D6D5B5EEC09AF1EE10FAD1D5E368E26CCB
:1075F0001B689A4204DD2369226D1B689A42C7DC2E
:10760000B5EEC08AF1EE10FA28DCF5EEC08AF1EE94
:1076100010FADEDC2046F0EE680AB0EE480AFFF70A
:10762000D2FB0020B8E70220B6E7F5EEC09AF1EEF3
:1076300010FAD6DDB5EEC09AF1EE10FACCD5E368BB
:10764000E26C1B689A4204DA2369226D1B689A4235
:107650009EDCB5EEC08AF1EE10FAD6DCB1EE488AB7
:10766000D3E7F5EEC09AF1EE10FAE3D5B5EEC09A85
:10767000F1EE10FA99DCDDE7B5EEC00AF1EE10FA92
:107680004CBFD0ED1F0AD0ED1E0AF0EE401AB0EE4E
:10769000401AB0EE600AFFF7DBBED0EDCB1AB5EEB4
:1076A000C00AF1EE10FA60EE211A07DDD0ED200AD3
:1076B000B1EE611AB1EE600AFFF7CABE06D590EDD1
:1076C000200AB1EE611AF1EE400AF5E70120704799
:1076D0002DE9F04F2DED028B90F8003283B010EEC3
:1076E000108A0446CDED010A00F5FC7700F1D806BA
:1076F0003BB90121384600F0D4FC0121304600F0AE
:10770000D0FC04F5227308EE103A94F8903204F598
:10771000B47543B918EE100A012100F0C2FC012132
:10772000284600F0BEFCD4F80CA0404613F0D6FA70
:10773000DAE90E2313F054FC002200238046894628
:1077400013F0AAFDCA4B0022002800F03381404606
:10775000494613F065F913F0C9FDD4F83833834274
:107760000ED007EE900AF8EEE77ADAF80030C4F8A7
:107770003803636417EE900A13F0B0FAC4E992017B
:10778000D4F810B0019813F0A9FADBE90E2313F036
:1077900027FC002200238046894613F07DFDB44B70
:1077A0000022002800F00B814046494613F038F9CA
:1077B00013F09CFDD4F8443383420ED007EE900AB8
:1077C000F8EEE77ADBF80030C4F84403A36417EE60
:1077D000900A13F083FAC4E9B601DAF80000636C8A
:1077E000C01AC4F83C0313F067FA41EC100B38469A
:1077F00000F0B3FC23691868A36CC01AC4F84803EE
:1078000013F05AFA41EC100B18EE100A00F0A5FC28
:10781000E368304693ED200B00F09FFC2369284677
:1078200093ED200B00F099FCD4E994AB00220023E7
:107830005046594613F03AFD002840F0C58000221A
:10784000002350465946D0460BF1004913F01AFD6B
:10785000002800F0BC80864B00224046494613F0C9
:10786000DFF813F043FD07EE900A94EDC67AF8EEC8
:10787000E77AB4EEE77AF1EE10FA16DD17EE100AA9
:1078800013F02CFA002280468946002350465946C0
:1078900013F0EEFC002800F0A180424609F10043FD
:1078A00043EC102B384600F081FBD4E9B8AB002242
:1078B00000235046594613F0F9FC002840F091800F
:1078C0000022002350465946D0460BF1004913F0E0
:1078D000D9FC002800F08880654B002240464946CC
:1078E00013F09EF813F002FD07EE900A94EDC67AAD
:1078F000F8EEE77AB4EEE77AF1EE10FA16DD17EE5D
:10790000100A13F0EBF90022804689460023504606
:10791000594613F0ADFC00286DD0424609F10043F2
:1079200043EC102B18EE100A00F040FBD4E9CE32E5
:10793000B4F92013581A824260DAD4E99423002162
:10794000C4E94A23304600F0D9FA0121606803F007
:107950002DFAD4E94C0113F0C9FCC1B2606803F000
:107960004BFAD4E9D132B4F92013581A82426CDAB6
:10797000D4E9B8230021C4E96E23284600F0BEFAFA
:107980000121A06803F012FAD4E9700113F0AEFCF3
:10799000C1B2A06803F030FA94F830332BB194F8F8
:1079A000313313B1012384F8323303B0BDEC028BC1
:1079B000BDE8F08F4046494613F030F8CBE640462C
:1079C000494613F02BF8F3E6D046D94643E7284B57
:1079D00000225046494613F021F842E749EC108B4B
:1079E00060E7D046D94677E7214B0022504649460A
:1079F00013F014F876E749EC108B93E70B449A42A6
:107A000009DDD4E994230121C4E94A23304600F07A
:107A100075FA02219AE79FED140B384600F0C6FA7A
:107A20009FED110B304600F0C1FA9FED0F7B6068AF
:107A300084ED4A7B042103F0B9F96068002103F06A
:107A4000DBF9012384F830338BE70B449A4211DDD4
:107A5000D4E9B8230121C4E96E23284600F04EFA88
:107A600002218EE7AFF3008000000000000000005C
:107A70000000E03F9FED0E0B18EE100A00F096FAA2
:107A80009FED0B0B284600F091FA9FED097BA06853
:107A900084ED6E7B042103F089F9A068002103F0D6
:107AA000ABF9012384F8313376E700BFAFF30080F0
:107AB000000000000000000010B50B212DED028B2E
:107AC0000446B0EE408AFEF7ECFFD4EDCB0A68EE38
:107AD000200ABDEC028B2046B1EE600ABDE81040E2
:107AE000FFF7F6BD38B590F8BE33044600F5707563
:107AF00003B30423C375002380F8BE33B0F8C81362
:107B0000284602F0BEFE0123A4F8CC332046FEF73F
:107B100057FF94F8CC339BB394F8CD3394F8CE232D
:107B20009A422DD31BBB94EDF40A2046BDE83840A1
:107B3000FFF7C2BF284602F0B3FE0028E9D094F850
:107B4000CC3383F0010384F8CC3353B1B4F8C813B9
:107B5000284602F096FE94F8CD33013384F8CD33F5
:107B6000D7E7B4F8CA13284602F08BFED1E704EB3E
:107B7000830393EDF40AD3EDF37A30EE670AD4E78A
:107B80002046BDE83840FEF79DBF027D9AB190F9CE
:107B90001730012B01D1FFF7EFBB032B01D1FFF70A
:107BA000E7BB022B01D1FFF76BBB042B01D1FFF721
:107BB00099BFFFF7B7B97047D0ED226A90ED1A6A06
:107BC00090ED235A90ED267A26EE866A26EE056A17
:107BD000B4EEC76AF1EE10FA32D4D0ED275AB4EE03
:107BE000E56AF1EE10FAD8BFF0EE465AD0ED1B7AF6
:107BF000C0ED1E5A66EEA77A67EE857AF0EEE77A58
:107C0000B4EEE77AF1EE10FA1DDDF1EE477AC0ED41
:107C10001F7AD0ED1C7A66EEA77A67EE857AB4EE0D
:107C2000E77AF1EE10FA08DC90ED277AF4EEC77AE5
:107C3000F1EE10FAD8BFB0EE677A80ED207A704787
:107C4000F0EE475AD2E790ED276AB4EEE76AF1EE1C
:107C500010FA4CBFF1EE467AF1EE677AD7E7D0ED35
:107C6000247A90ED257A002908BFF0EE477AC0ED1E
:107C7000237AFFF7A1BF80ED220AFFF79DBF000026
:107C800030B5012505800A25857014250582094D2A
:107C900045610025C0E906550025C0E901120562CD
:107CA00045628562C562056345638563C563C360DC
:107CB00030BD00BF0AD7A33CC3681B7810B504468B
:107CC00053B9064906480DF03BFE04F118000021A7
:107CD000BDE8104002F0D5BD0249F3E71EE7010000
:107CE0001442002046E70100F8B503782DED068B1D
:107CF0000446002B6AD000F11805284602F0D0FD9A
:107D0000002863D02846B4F9101002F0BAFDD4E977
:107D10000113D4ED0C8A94ED0D8AC4ED0E8AD3E9DB
:107D20002023D1E9200184ED0F8A12F079FE002290
:107D30002B4B13F02BF813F021FBE36820625D69F5
:107D4000E56212F0CBFF064628460F4612F0C6FF4A
:107D5000244B002213F044F91FA3D3E9002313F0AE
:107D600015F841EC100B41EC1A0B10F0EDFB30460E
:107D700053EC102B394613F009F813F0FFFAB0EE6C
:107D80004A0AF0EE6A0A606209EE100A10F0B4FCCA
:107D9000304653EC102B394612F0F8FF13F0EEFA90
:107DA000637894ED057AA06207EE900A5A1C62701F
:107DB000E9EE078AA278A7EE878A9A4298BF002345
:107DC000C4ED0C8A84ED0D8A98BF6370BDEC068B00
:107DD000F8BD00BFAFF3008000000060FB21094048
:107DE0000000E03F008066402DE970430FF270090B
:107DF000D9E90089C0E91A89DFF8749041724FF01F
:107E00000008C0E91C890FF26009D9E90089002443
:107E100000250026C0E90066C0E90A45C0E90C4516
:107E2000C0E90E45C0E91045C0E91245C0E9144556
:107E3000C0E91645C0E91845C0E91E89C0E92045DA
:107E400080ED040B80ED061B80ED082B067280F898
:107E50008A60A0F88820BDE8708300BFAFF300807F
:107E60000000000000E06F400000000000C05F4024
:107E700000C05FC07047D0B557EC106B04460022BD
:107E800010EE100A0023394613F0F2F968B994F89D
:107E90008A30012BC4E9046707D132463B460020F3
:107EA000002112F0BBFDC4E90401D0BDF8B50D1EE0
:107EB000044622DD284612F0FFFE0646B4F888008C
:107EC0000F4612F0E9FE02460B463046394613F0E3
:107ED00087F802460B4606460F46D4E9060112F023
:107EE00055FF3246C4E906013B46D4E9080113F0C8
:107EF00077F8C4E90801A4F88850F8BD38B590F8BF
:107F00008A308B4204460D4617D0D0E90423002165
:107F1000002012F083FDD4E90623C4E90401002007
:107F2000002112F07BFDD4E90823C4E906010020FA
:107F3000002112F073FDC4E9080184F88A5038BDAD
:107F40002DE9F843437A55EC104B0646C3B1D0E90E
:107F50001C89294610EE100A42464B4613F088F958
:107F600008BBD6E91E67204632463B46294613F039
:107F70009DF908B134463D4645EC104BBDE8F88309
:107F8000D0E9188910EE102A2B464046494613F0D6
:107F90008DF940B9D6E91A6722462B463046394654
:107FA00013F066F9E5E744464D46E5E72DE9D04391
:107FB000D0E9186759EC108B044610EE102A4B4696
:107FC0003046394613F072F950B9D4E91A6742467F
:107FD0004B463046394613F04BF908B946464F46F2
:107FE00094ED0E0BC4E916672046FFF7A9FF84ED58
:107FF0000E0BBDE8D0832DE9F04757EC106B55EC24
:10800000114B824611EE102A10EE100A2B4639460B
:1080100013F04CF9F0B9DAE91689CAE91867CAE928
:108020001A4532463B464046494613F021F998B975
:1080300022462B464046494613F038F908B94446D3
:108040004D469AED0E0BCAE916455046FFF778FFEC
:108050008AED0E0BBDE8F08734463D46F1E7D0E9E6
:10806000122390ED160B10B50446C0E90A2380EDEB
:108070000E0BFFF765FF637A84ED0E0B4BB1002208
:108080000023C4E91223C4E90A23C4E90E23C4E986
:10809000162394ED0E0B2046FFF752FF84ED0E0BD6
:1080A00010BD012938B504460CBF0125002503D1B8
:1080B000037A0BB9FFF7D3FF257238BD2DE9F347DB
:1080C00055EC104B824610EE102AD0E914012B46D5
:1080D00012F0A4FC80468946CAE92089DAE9042323
:1080E00012F054FE06460F46DAE90623CAE90C6789
:1080F0004046494612F04AFEDAE90E2312F090FC9F
:10810000CAE90E0141EC100B5046FFF719FFDAE9FE
:108110000A238AED0E0B204629468DED000B12F046
:108120007DFCDAE9082312F031FE80468946DDE95C
:108130000023CAE910893046394612F071FC4246E4
:108140004B4612F06DFC41EC100B5046FFF7F8FE69
:10815000CAE90A4502B0BDE8F08713B5037A8DED90
:10816000000B04468BB102F09BFB9DED000B60B150
:108170002046FFF7A3FFB4F88810204684ED160BC5
:1081800002B0BDE8104002F07CBB02B010BD0000A0
:1081900010B508210446104802F014FC0E4802F005
:1081A000C2FC90B10D490E480DF0CAFB0023A17A24
:1081B000607AA37001310FF0A2FC0021207204F15B
:1081C0001400BDE8104002F05CBB064904480DF005
:1081D000B7FB0123EBE700BF203600206AE7010070
:1081E0001442002098E70100837813B50446A3B138
:1081F000C379DBB100230DF107018DF8073007F0DB
:1082000005F804F1140002F04BFB30B19DF8073083
:10821000DA0704D50123E370637102B010BD13F0D7
:10822000020303D00123E370A371F6E76371FBE758
:10823000837813B5044603B300230DF107018DF8CD
:10824000073006F0EAFFB4F91030B4F90C209DF8BD
:1082500007109818814210DC981A81420DDBE189E1
:108260005B1A1BB2991A0029D7BFE37A2382C2F1A5
:1082700064020133DCBF2282E37202B010BD10B58C
:10828000817A04460131407A0FF039FC207210BD2A
:1082900010B500230446C370C372FFF7F0FF618A74
:1082A00004F11400BDE8104002F0EBBA70B50E46C0
:1082B0000021C0E90411104981611049C1611049D0
:1082C0000162082180F824100E49044643F29250BE
:1082D000C4E90A014FF0006121630B49086849684D
:1082E00004F1340503C50949A360049BE163C4E9B3
:1082F0000062E360204670BD00000C432549D64370
:108300002549D6447800B400BEE70100010303000C
:10831000F0B52DED028B90ED088A002380F83C30FB
:1083200089B0044600F1100518EE100A12F0D6FCD0
:10833000B5EEC08AF1EE10FA2F4B4FF0000257DB7A
:1083400012F06EFB12F0D2FF0146284602F099FAB5
:10835000A06894F8343084F8303000252946303055
:1083600084F8315084F8325002F08BFA2068FDF71F
:10837000B7FE94F83F30002B36D0E36801229D8091
:108380005A70E36840F20222DA801D811B4B6A4674
:1083900003F11007164618685968154603C50833D7
:1083A000BB422A46F7D1164B04AA03F1100C15461E
:1083B00018685968174603C7083363453A46F7D12A
:1083C000E268314602F10A0002F11A0331F8024B69
:1083D00020F8024B8342F9D129462A3231F8020BA8
:1083E00023F8020B9A42F9D109B0BDEC028BF0BD23
:1083F00012F014FBA6E700BF0000E03FC6E7010053
:10840000D6E7010010B5B0F92E100446B0F92C00E3
:108410000FF075FB07EE900AF8EEE77A17EE900A78
:10842000C4ED067A12F05AFC02460B4600200F49B2
:1084300012F0D6FD0E4B002212F0A8FC12F09EFFA7
:1084400094F82430E06107EE900AB1EE007A27EE4E
:10845000877A07EE903AF8EE677A84ED087A67EE4D
:10846000877AFCEEE77AC4ED0A7A10BD00004E4030
:1084700000408F402DE9F0410321044601200FF018
:108480003EFB022100200FF03AFB032101200FF0F8
:1084900036FB0025C6B24FF0010894F83320EBB24A
:1084A0009A421CD9022E04EB03070CD1B3EB520FF6
:1084B0004FEA520107D35B1A234493F8343087F80C
:1084C00034300135E9E7DB0702D487F83480F8E778
:1084D000062101200FF013FB87F83400F1E7BDE817
:1084E000F081436893F8402010B5044692B193F9A7
:1084F00000300122022B80F83C200BD1FFF782FFD5
:108500002046FFF7B7FF6068A16A4164BDE81040EC
:1085100000F081BF10BD000038B52DED028B90ED4D
:10852000088A044600F1100518EE100A12F0D6FB76
:10853000B5EEC08AF1EE10FA284B4FF0000232DBA4
:1085400012F06EFA12F0D2FE0146284602F099F9B6
:1085500094F8323094F8332094F824000133DBB2DD
:108560009A4284F832309CBF002384F8323094F869
:108570003210621892F8343084F8303094F8313088
:108580000133DBB2984284F831309FBF012384F875
:108590003C30002384F8313041B9032384F83D3066
:1085A00084F83E300EE012F039FACBE792F833301F
:1085B000052B0FD194F93D30042B0CBF032304236A
:1085C00084F83D30E36801225A7000229A80BDECA5
:1085D000028B38BD042BF5D10323E1E70000E03F17
:1085E00090F83C3010B504460BB1FFF791FE60687F
:1085F00000F059FF94F83F302BB1E36840F20222BB
:10860000DA8000221A8104F1100002F049F910B159
:108610002046FFF781FF94F83030A0681BB9BDE811
:108620001040FEF74FBA022B0BD1D4ED077AFDEEC6
:10863000E77ABDE8104017EE903A9AB21146FEF77D
:108640009CBC032B03D1BDE81040FEF719BE052BDF
:108650000BD194F93D30042BBDE810400CBF9FEDC9
:10866000100A9FED100AFFF718B8042B0BD194F9EC
:108670003E30042B03D1BDE81040FEF74FBDBDE8EE
:108680001040FEF7B7BCD4ED077AFDEEE77ABDE8FF
:10869000104017EE903A9AB21146FEF74BBD00BF5C
:1086A0000000B4420000B4C22DE9F84300251E4684
:1086B00000F1200901230446C0E90055C0E9025534
:1086C000C0E904558846856183836421484617467E
:1086D0000CF0B2FB194B2363B2EE080AF2EE070A64
:1086E0001E2284ED0A0AC4ED0B0AA286494604F153
:1086F00038000CF0FBFC3223C4F88C3041F2883394
:10870000A4F8AC30089BE3600020099BC4F89400F7
:10871000C4F89800C4F89C00C4F8A000C4F8A400F1
:10872000C4F8A800C4E92155C4E9008784F8905032
:10873000A66023612046BDE8F88300BF9A993940BE
:1087400030B5044695B004F120054FF4FA700FF0EF
:108750008BFAD4ED0B0A94ED0A0AA28E294601A8E1
:108760000CF0C4FC4C2201A904F1380013F0BEF94E
:1087700001A80CF0E3FC28460CF090FC054620B95B
:108780000A490B480DF0DCF825770A4908480DF036
:10879000D7F8002184F88D10A4F88E1084F890107A
:1087A00004F1840002F06DF815B030BDE6E7010079
:1087B000144200201BE80100F0B5044689B040686F
:1087C00000F086FE237F2BB9606809B0BDE8F04059
:1087D00001F04AB8637F5BB1E36800226277012150
:1087E0009A80597004F11400B4F8AC1002F049F802
:1087F000E36840F20222DA8000221A814A4B6A467C
:1088000003F11007164618685968154603C5083362
:10881000BB422A46F7D1454B04AA03F1100C15467A
:1088200018685968174603C7083363453A46F7D1B5
:10883000E268314602F10A0002F11A0331F8026BD4
:1088400020F8026B8342F9D129462A3231F8020B13
:1088500023F8020B9342F9D194F88D30FBB194F8D0
:108860008E30E3B194F88F30CBB194F89030B3B13F
:1088700060686FF0010100F0B8FE23696068198F2D
:1088800000F0C9FD606800F036FE2069012100F0AB
:1088900045FD206809B0BDE8F040FDF721BC04F1BA
:1088A0001405284601F0FCFF48B1E36801225A7024
:1088B00000229A80B4F8AC10284601F0E2FF94ED53
:1088C000297AD4ED0C7AA068B4EEE77AF1EE10FACA
:1088D00004DD09B0BDE8F040FEF78CBBF1EE676A3D
:1088E000B4EEE67AF1EE10FA04D509B0BDE8F04036
:1088F000FEF718BB94ED2A7AF4EEC77AF1EE10FA7F
:10890000E7D4F4EEC76AF1EE10FA04DD09B0BDE871
:10891000F040FEF703BCFEF732FAA06809B0BDE8EC
:10892000F040FFF732B900BF4AE801005AE8010001
:1089300038B500F138050446002128460CF0E6FC65
:1089400028460CF00BFD284684ED250A0CF009FDA5
:10895000284684ED260A0CF007FD284684ED270AF8
:108960000CF005FD284684ED280A0CF003FD28468E
:1089700084ED290A0CF001FD284684ED2A0A0CF04A
:10898000A9FC84F88D0028460CF0ABFC84F88E001E
:1089900028460CF0ADFC84F88F0028460CF0AFFCA4
:1089A00084F8900038BD38B5037F0446CBB14368E6
:1089B00093F840300BB10123437704F1380004F100
:1089C00084050CF0C2FB284601F06AFF48B120463E
:1089D000FFF7AEFF94F88C102846BDE8384001F050
:1089E00050BF38BD2DE9F04100251E460123044645
:1089F0000375C0E90055C0E90255056118301746F6
:108A000088460CF0BDFC04F164000CF0B9FC4FF496
:108A1000C873A4F8B0301E4BC4F8CC304FF07C5271
:108A2000C4F8FC304FF4FA63C4F8D420A4F8103131
:108A3000184A069BC4F8DC20002041F28832E3602B
:108A4000079BC4F8BC00C4F8C000C4F8C400C4F854
:108A5000C800C4F8D000C4F8D800C4F8EC00C4F8CA
:108A6000F000C4F8F400C4F8F800C4F80001C4E948
:108A70002D55C4E93955C4E94255C4E90087A4F825
:108A8000E02084F80451A66023612046BDE8F0810F
:108A9000CDCC4C3E0000A04110B5B0F8E01004462B
:108AA000E43001F0EEFED4ED317A37EEE77AC4ED32
:108AB0003B7AC4ED3C7A77EEA77A84ED3E7AB6EE47
:108AC000007A67EE877A94ED3F7AC4ED3D7A67EEDF
:108AD000277A002384F80431C4ED407A10BD0000E9
:108AE00090ED327AD0ED346AB5EEC07AF1EE10FA3C
:108AF000D4BFF1EE477AF0EE477AF4EEE76AF1EE92
:108B000010FA10B5044646D9D0ED366A9FED350A05
:108B1000F4EEE76ADFED347AF1EE10FA88BFB0EEDA
:108B2000670A94BF01230023D4ED3E7A94ED406A96
:108B3000F5EEC07AF1EE10FAD4BFF1EE676AF0EE0E
:108B4000676AB4EEE66AF1EE10FA2BD8F5EEC07A59
:108B5000F1EE10FA23DD00293ED02046FFF79CFFFE
:108B6000B4F8101104F5847001F08BFE012384F831
:108B700004319FED1E0AA068FEF79EFFA36893F8DC
:108B8000323323B904F5847001F08AFE10B100235A
:108B900084F8043110BD9FED140A0123C4E701D508
:108BA0000029DAD094F80421002AE2D1A0687BB130
:108BB000B5EEC07AF1EE10FA04DD29B1BDE810403F
:108BC000FEF75EBA0029F9D0BDE81040FEF718BBE9
:108BD000BDE81040FEF7A6B9F5EEC07AF1EE10FA46
:108BE000E0D5BAE76666663F9A99193F00003443BC
:108BF00010B50446406800F093FC237D2BB120465D
:108C00000121BDE81040FFF76BBF10BD10B5044651
:108C1000406800F099FC237D2BB120460021BDE87F
:108C20001040FFF75DBF10BD38B5084C05467021F8
:108C3000204601F0C7FE0121A9402046C9B201F03B
:108C400016FF2046BDE8384001F06DBF20360020F9
:108C500070B5044604F118060120FFF7E5FF21492D
:108C600030460CF0F8FB054620B91F491F480CF0B0
:108C700067FE25751E491D480CF062FE3046002136
:108C80000CF0C7FB0122114630460CF0ADFB04F19D
:108C900064060020FFF7C8FF124930460CF0DBFBEA
:108CA000054620B9134911480CF04AFE25751249B2
:108CB0000E480CF045FE304600210CF0AAFB0122C4
:108CC000114630460CF090FBB4F8B01004F1B4003B
:108CD00001F0D7FDB4F8E01004F1E400BDE8704005
:108CE00001F0CFBD203600206AE8010014420020C8
:108CF00096E80100BEE80100EBE8010038B5037D0D
:108D00000446002B69D000F1B405284601F0C8FDE7
:108D100090B3B4F8B010284601F0B3FD0120FFF77E
:108D200083FF032104F118000CF066FD002084EDA0
:108D30002F0AFFF779FF032104F164000CF05CFDBA
:108D4000D4ED2F7A84ED300A37EEC07A30EE270A60
:108D5000F6EE007A20EE270AD4ED337A84ED310A5C
:108D600067EE807A84ED327AC4ED347AD4ED357AC8
:108D700027EE800A84ED360A04F1E405284601F066
:108D80008FFDF0B1B4F8E010284601F07AFDD4ED83
:108D90003C7A94ED317AC4ED3B7A77EE676A77EEF0
:108DA000877A84ED3C7AB6EE007A67EE877A94EDA6
:108DB0003F7AC4ED3D7A67EE277AC4ED3E6AC4ED92
:108DC000407A23695B7943B16068052100F00DFCAE
:108DD0002068BDE83840FDF783B938BD70B501257E
:108DE00005614FF4FA760F4D456186844FF07D554D
:108DF0000D4E85610025C0E90C65C0E90755C0E945
:108E00000A55C0E91055856344F620664FF47A652B
:108E10008360049B8687C0E90012A0F84850C360B5
:108E200070BD00BF000096427017030038B5114DA9
:108E300004461121284601F0C5FDE17C284601F0D9
:108E400016FE284601F06FFE04F11C00002101F01F
:108E500018FD04F12800002101F013FD04F1340095
:108E6000002101F00EFD04F140000021BDE8384072
:108E700001F007BD2036002038B5074C054611210A
:108E8000204601F09FFDE97C204601F0F0FD2046E0
:108E9000BDE8384001F047BE2036002038B5084C08
:108EA000C57C1121204645F0400501F08BFD294687
:108EB000204601F0DCFD2046BDE8384001F033BE1D
:108EC00020360020F0B5044689B0406800F050FB21
:108ED000237C002B6BD0637C04F140066BB1002532
:108EE00020466574FFF7DAFFE36801229D80B4F83D
:108EF00048105A70304601F0C4FCE3680022DA8062
:108F00001A812C4B6A4603F1100C174618685968F1
:108F1000154603C5083363452A46F7D1264B04AAF4
:108F200003F1100E1546186859689446ACE8030022
:108F3000083373456246F6D1E268394602F10A0306
:108F400002F11A0031F8027B23F8027B8342F9D147
:108F500029462A3231F8020B23F8020B9A42F9D142
:108F6000304601F09DFC48B1E36801225A700022AE
:108F70009A80B4F84810304601F083FCA37CA068C6
:108F8000022B06D194ED060A09B0BDE8F040FEF7C9
:108F900077B8032B06D194ED060A09B0BDE8F0407E
:108FA000FEF72EB909B0BDE8F040FDF7BBBF09B030
:108FB000F0BD00BF14E9010024E9010038B5012229
:108FC000044611210648064D01F04EFD044801F00B
:108FD00094FC20B1284601F0A9FDA074F6E738BD45
:108FE0002036002038B5037C0446002B47D000F122
:108FF0001C05284601F054FC90B1A18C284601F0D4
:1090000040FC2046FFF7DAFF2046FFF735FFA37C40
:10901000013B022B9EBF94F83330013384F8333088
:10902000636893F90030042B2AD004F12805284600
:1090300001F036FC80B1218E284601F022FC94F824
:10904000332094F832309A4203D36068042100F050
:10905000CCFA002384F8333004F13405284601F0BB
:109060001FFC30B12846A18F01F00BFC2046FFF712
:1090700015FF636893F840300BB10123637438BD6A
:10908000002384F83330F4E770B541F65836868310
:1090900083600E4E059B866240F201154FF4FA661E
:1090A000C360049B05838685002547F23056036123
:1090B000069B8576C0E90855C0E90C55C0E90F55F7
:1090C000C0E900120687436170BD00BFF401F401DE
:1090D00010B500210446203001F0D3FB04F130002C
:1090E0000021BDE8104001F0CCBB037E10B5044662
:1090F0006BB143699B7953B140686FF0010100F097
:1091000074FA218F6068BDE8104000F084B910BD8A
:109110002DE9F041044688B0406800F0ECF9637E28
:1091200004F13C0504F120061BB30027A068677614
:10913000FDF7C8FCA0683946303001F0A2FB606939
:10914000FFF7A6F86369218FDF7128464FF0010809
:1091500001F097FBA18B84F81A80304601F091FB57
:10916000A18D04F1300001F08CFB236983F80180AC
:109170009F80236940F20222DA8000221A81644B28
:109180006A4603F1100E944618685968174603C7DB
:10919000083373453A46F7D15E4B04AA03F1100831
:1091A0001746186859689646AEE8030008334345E9
:1091B0007246F6D12269614602F10A0002F11A03F1
:1091C00031F802CB20F802CB8342F9D139462A325A
:1091D00031F8020B23F8020B9342F9D1304601F02B
:1091E0005FFB70B10127A18BA776304601F049FBE8
:1091F000A18D04F1300001F044FB236900225F706F
:109200009A80A37E002B74D004F1300001F048FB5B
:10921000002868D00023A3766069FFF709F8606929
:10922000C27A037A9A423DD301266676FFF730F878
:1092300063696421DE7100200EF061FC40B25028A9
:10924000CCBF314602212068FDF712F82068FCF7F8
:1092500047FF6068022100F0C8F9E3686668D3ED53
:10926000087AB1EE007A67EE877AF5EEC07AF1EE11
:1092700010FA17EE900A40DB11F030FD264B002269
:1092800011F0CEFB12F032F80146304600F0C3F880
:109290006368002283F84120E368012283F83C20C0
:1092A00083F83F20284601F0FBFA68B30125606986
:1092B0006576FEF7EDFF63696421DD7100200EF035
:1092C0001EFC40B24B28D4BF032129462068FCF77E
:1092D000CFFF2068FCF714FF6068002108B0BDE8EC
:1092E000F04100F082B9628D218DA068FDF722FF68
:1092F00092E7A068FDF7E6FB8EE711F0EFFC064B66
:10930000002211F08BFBBDE708B0BDE8F08100BF83
:1093100034E9010044E901000000E03F436941767F
:10932000D97070472F4A034670B5002420F8024BCD
:109330001568C3F802509588858095798571154622
:109340006420C3F80940587255F8070F1861A879CE
:1093500098751920D8752448C3F81A4098610F20D1
:1093600018771046AE8850F80E5FC3F81E508588F7
:10937000807983F8240010465D8450F8155FC3F8A7
:10938000255085888079DC609E82A3F8295083F877
:109390002B0052F81C0FD86290889279188683F8B7
:1093A000322041F6583041F28832C3E90D0243F6CB
:1093B0009822DA6301220D48A3F8402083F85C204C
:1093C0004FF4FA72A3F85E204FF47A72C3E91204E4
:1093D000C3E914445C649C65A3F860205966184690
:1093E00070BD00BF54E901000514140F00005515AD
:1093F00010B56421044600200EF081FB616B6070A3
:1094000004F14C0001F03DFA04F154000021BDE8E4
:10941000104001F036BA41634C3001F032BA10B559
:1094200004464FF47F02406E002102F017FB606E8D
:109430004FF47F02032102F011FB606EBDE8104083
:1094400002F00ABA10B50446074A406E002102F045
:1094500005FB606E044A032102F000FB606EBDE86C
:10946000104002F0F9B900BF00FFFF0013B5044639
:109470000A460191406E002102F0F0FA019A606EF6
:10948000012102F0EBFA019A606E022102F0E6FA85
:10949000606E019A032102F0E1FA606E02B0BDE84D
:1094A000104002F0D9B910B504464FF47F42406E27
:1094B000002102F0D3FA606E4FF47F42032102F0E4
:1094C000CDFA606EBDE8104002F0C6B9FFF7A7BF45
:1094D00010B504464FF0FF12406E002102F0BEFAB4
:1094E000606E4FF0FF12032102F0B8FA606EBDE823
:1094F000104002F0B1B910B504464FF6FF72406E4D
:10950000002102F0ABFA606E4FF6FF72032102F009
:10951000A5FA606EBDE8104002F09EB9FFF7C3BF28
:1095200010B504466FF07F42406E002102F096FABB
:10953000606E6FF07F42032102F090FA606EBDE82A
:10954000104002F089B9000010B50446074A406E89
:10955000002102F083FA606E044A032102F07EFAD1
:10956000606EBDE8104002F077B900BF5555550058
:1095700010B50446FF22406E002102F06FFA606EC3
:10958000FF22032102F06AFA606EBDE8104002F08B
:1095900063B938B500F154050446284601F080F956
:1095A00050B1B4F85E10284601F06BF994F85C30C5
:1095B00083F0010384F85C3094F85C10606E71B144
:1095C0004FF47F02002102F049FAFF22606E03216E
:1095D00002F044FA606EBDE8384002F03DB9FF2267
:1095E00002F03CFA4FF47F02F0E790F900308B4232
:1095F00010B5044663D0012380F840300170D0E9F3
:109600000E010EF07CFA94F9003007330E2B4FD880
:10961000DFE803F0084E4E4747401D501517243928
:109620002B324B0047F2305363632046FFF7B1FF04
:10963000616B04F14C00BDE8104001F022B9606399
:10964000F6E7636C63632046FFF72DFFF0E7B4F89D
:10965000483063632046FFF7E2FEE9E744F6206303
:1096600063632046FFF734FFE2E744F62063636359
:109670002046FFF755FFDBE744F62063636320468F
:10968000FFF762FFD4E744F6206363632046FFF7E9
:109690006FFFCDE744F6206363632046FFF72BFF9F
:1096A000C6E74EF660236363C2E744F62063FAE739
:1096B0000023237060632046FFF7C4FEB8E710BDA7
:1096C00010B5002204461146406E02F0C7F9606EE4
:1096D0000022032102F0C2F9606EBDE8104002F0E2
:1096E000BBB838B500F154050446284601F0D8F857
:1096F00050B1B4F85E10284601F0C3F894F85C301D
:1097000083F0010384F85C3094F85C3083B1606EC0
:109710004FF47F02002102F0A1F9606E4FF47F0246
:10972000032102F09BF9606EBDE8384002F094B866
:109730002046BDE83840FFF7C3BF2DE9F843D0F815
:1097400064909DF8247005464FF00C080C461004F8
:109750009DF820109DF82820B0FBF8F080B21E463E
:1097600002F0ACF902F006FA00210246484602F087
:1097700075F924043A463146B4FBF8F4A0B2D5F8A2
:10978000649002F09BF902F0F5F903210246484685
:1097900002F064F9686EBDE8F84302F05DB810B5F8
:1097A0006421044600200EF0AAF9002340B298423A
:1097B00084F84130607094F902300CDB83420EDD96
:1097C00000212046FFF711FF616B04F14C00BDE85A
:1097D000104001F056B8834294F9031005DC94F967
:1097E0000330834205DD0121EBE7884294F9042030
:1097F00008DB94F90430834208DD012384F841300A
:109800000221DEE7904294F9053005DB94F905303A
:10981000834205DD0321D4E7984294F9062005DB55
:1098200094F90630834205DD0421CAE7904294F999
:10983000073005DB94F90730834203DD0521C0E7DB
:109840009842BDDB94F908308342B9DD0621B8E7C0
:1098500010B504464C3001F023F820B12046BDE895
:109860001040FFF79CBF10BDFFF799BF10B54A1E0F
:1098700002300631002412F9013F23448A4200F8E5
:10988000013B1CB2F7D110BD052904D8DFE801F077
:109890001303070A0D1000F11001FFF7E7BF00F1F5
:1098A0001701FAE700F11E01F7E700F12501F4E7DF
:1098B00000F12C01F1E700F10901EEE710B507EE28
:1098C000901A2DED028BF8EE677A9FED218A9FEDBD
:1098D000217A78EE677A00F15404C7EE278A204691
:1098E00000F0D7FF07EE900AF8EE677AB0EE487AFC
:1098F000A7EEA87A2046B4EEC87AF1EE10FA15DB8E
:1099000000F0C7FF07EE900AF8EE677AA7EEA88A84
:1099100018EE100A11F0E2F90F4B002211F080F856
:1099200011F0E4FCBDEC028BC0B210BD00F0B1FF41
:1099300007EE900AF8EE677AA7EEA88A18EE100AEA
:1099400011F0CCF9044B002211F068F8E8E700BFF1
:109950000000000000007FC30000E03F37B500F1C9
:10996000540504462846019100F09AFF019918B168
:10997000284600F086FF01992046FFF79FFF02026C
:1099800042EA00420021606E019202F067F8606EC8
:10999000019A032102F062F8606E03B0BDE8304026
:1099A00001F05ABF70B50025C0E906554560064D67
:1099B0000562C0E902230126049B06754FF47A650F
:1099C00085840160036170BDD007D0070021183085
:1099D00000F057BF037D10B504467BB1836893F850
:1099E00040305BB1818C408C0EF089F8208481B2CC
:1099F00004F11800BDE8104000F043BF10BD38B5B9
:109A0000037D0446A3B1183000F04AFF054620B19B
:109A1000A068BDE83840FFF727BFA068218CFFF79A
:109A20009DFF2368E0681D73BDE83840FDF74AB824
:109A300038BD10B51A300023DCB2A24205D931F886
:109A4000134020F8024B0133F6E710BDF0B5044691
:109A50000F46012181614FF4FA612184A1853049CB
:109A6000A16301F6AA31E1632E492164002040F68A
:109A7000C411C4E90900C4E90C00C4E91200A083C0
:109A8000A077A4F8441084F85000FA212648274D06
:109A9000A4F8521061654FF4C801C4E916012449C5
:109AA000216604F1640C05F1100E286869686646A9
:109AB00003C608357545B446F7D11E4D04F1740C44
:109AC00005F1100E28686968664603C608357545B5
:109AD000B446F7D1184D04F1840C05F1100E286836
