:10400000000003204D7C0100397C0100397C010057
:10401000397C0100397C0100397C0100000000007E
:10402000000000000000000000000000397C0100DA
:10403000397C010000000000397C0100CD7C0100CA
:10404000397C0100397C0100397C0100397C010098
:10405000397C0100397C0100397C0100397C010088
:10406000397C0100397C0100397C0100397C010078
:10407000917B0100977B01009D7B0100A37B0100E8
:10408000A97B0100AF7B0100B57B0100BB7B010078
:10409000C17B0100C77B0100CD7B0100D37B010008
:1040A000D97B0100DF7B0100E57B0100EB7B010098
:1040B000397C0100397C0100397C010089BD000098
:1040C00089BD000089BD000089BD000089BD0000D8
:1040D000397C0100397C0100397C0100397C010008
:1040E000397C0100397C0100397C0100397C0100F8
:1040F00000000000397C0100397C0100397C01009E
:10410000397C0100397C0100397C0100397C0100D7
:10411000397C0100397C0100397C0100397C0100C7
:10412000397C0100397C0100755901008159010079
:104130008559010089590100397C0100397C010051
:10414000397C0100397C010055AD000061AD0000F3
:1041500065AD000069AD0000397C0100397C0100CB
:10416000397C0100397C0100397C0100397C010077
:10417000397C0100397C0100397C0100397C010067
:104180003D7C0100DF7C0100E37C0100E77C010055
:10419000397C0100397C0100397C0100397C010047
:1041A000397C0100397C0100397C0100397C010037
:1041B000397C0100397C0100397C0100397C010027
:1041C000397C0100397C0100397C0100397C010017
:1041D000397C0100397C0100397C0100397C010007
:1041E000397C0100397C0100397C0100D164010077
:1041F0009DF4000000000000397C0100397C0100C2
:10420000397C0100397C0100397C0100397C0100D6
:10421000397C0100397C0100397C0100397C0100C6
:10422000397C0100397C0100397C0100397C0100B6
:10423000397C0100397C0100397C0100397C0100A6
:10424000397C0100397C0100397C0100397C010096
:10425000397C0100397C0100397C0100397C010086
:10426000397C010010B5054C237833B9044B13B1E8
:104270000448AFF300800123237010BD60090020C3
:10428000000000005C09020008B5034B1BB10349A4
:104290000348AFF3008008BD00000000640900205F
:1042A0005C090200014801F056BB00BFA0290020B4
:1042B000014801F050BB00BF602A0020014801F016
:1042C00062BB00BFA0290020014801F05CBB00BF19
:1042D000602A002010B50446383010F0B7FF2046A1
:1042E00010BD00230022C26002614261C0E90033B8
:1042F000C0E906330372038480F8223000F1230200
:104300002D3002F8013B8242FBD1704738B50C4694
:10431000054613F0F1FC20606B685B7823716B68D5
:1043200093F907306371AB6893F90030A371EB68C0
:1043300093F91630E371EB6893F917302372EB6849
:104340009B6FE360EB68DB68D3E9200117F09EF810
:104350002061EB68DB68D3E9200117F097F8606112
:10436000EB68DB681B68A361EB681B691B68E36192
:1043700038BD000038B54FF4E1316048604D614C04
:1043800012F06AF9604806F075FB4FF4FA6013F01A
:10439000F3FC5A4811F054FB5C49584811F058FBA3
:1043A0005B49564811F054FB0F2013F019FF13F02E
:1043B0001FFC584807F0EEF9564807F0D5FA564862
:1043C00004F01EFD554801F095FE284605F0C6F89C
:1043D000534802F0B1F8534801F0C4F8524803F0D2
:1043E00091FE524803F000FE082151480BF026F9D7
:1043F0000021504806F0CDFA4F4801F093FB4F489A
:1044000003F086FB04F12000FFF76BFF04F12001AD
:104410002046FFF77BFFB4F8661004F1680006F051
:10442000B8FA2368464803F5A1530C33A36104F09E
:1044300075FA4448394C04F011FF434805F02AFC52
:10444000424805F047FE424805F076FB41483E23CE
:10445000C37404F0C3FD404B40489B6A6B64404BFF
:1044600000211B8DA5F8483006F093FA3D48002145
:1044700006F08FFA3C4B3D48196806F08AFA022292
:1044800010463B4913F08CFA3A490222042013F0FB
:1044900087FA39490222032013F082FA37490222AF
:1044A000052013F07DFA364B1B7823B1354B20469F
:1044B000197801F009FE344B1B782BB1334B1048AF
:1044C00093F9001005F047F9314B1B782BB1314BB4
:1044D000134893F9001002F092FB6178084805F048
:1044E00089FA2D4B054800221A7111F0A9FABDE88E
:1044F00038402A49044806F0DDBA00BF1C420020BB
:1045000004340020643000202836002078E60100C2
:1045100084E60100202B002060320020582B002070
:10452000102C00203C150020DC30002048300020FA
:10453000493100206431002080090020083000202B
:10454000B0310020C03300209434002038350020E2
:104550006C340020743300207031002034150020AA
:10456000F83500202C15002008000020241500201C
:10457000A5420000C9420000BD420000B142000057
:104580000400002006000020050000202215002065
:10459000211500200700002048310020801A060065
:1045A00013B50B4C0B4804F0F0FF204600F0FCFF65
:1045B000A37C43B1042240F20223074801930DEB90
:1045C000020103F0B6FD024800F0F6FF02B010BD94
:1045D0003C15002004340020DC300020F0B53E4CB7
:1045E0003E488BB004F0D1FF204601F0CFF83C48A4
:1045F00002F07BF83A4802F091F90023A37441F2EB
:10460000F533E35C8BB301233648A37403F0CFFD8D
:10461000042240F202230DEB02013248019303F021
:1046200088FD314B02AA03F1100716461868596835
:10463000154603C50833BB422A46F7D10822314646
:10464000284803F083FD294B06AA03F110071646FC
:1046500018685968154603C50833BB422A46F7D186
:1046600020480822314603F07FFD1C4D2A78053A88
:10467000012A02D81E4804F0E7FA95F90030072B0A
:1046800013D11C4DAB7D022B0FD1284605F023FD25
:104690001148B5F9966001F031F8032806BF714260
:1046A00009B23146284605F01FFD0B4800F07CFF9B
:1046B000A38A1148013390F822209BB29342A3822F
:1046C00008D30023A38206F061F904484FF0FF31BC
:1046D00005F041F80BB0F0BD3C150020043400207B
:1046E000102C0020DC300020A4E60100B4E601001C
:1046F0006032002038350020F83500202DE9FF47D2
:10470000C04BDFF8A483C04DC04F0026C3E900664C
:10471000BF4BC3E90066BF4B0622C3E90066042114
:104720005223404606F07EFFBB4ABC49404613F088
:104730008BFF6021BA4806F0A1FB03220221B94891
:1047400001F082F805220421B74801F07DF8B64B4C
:10475000B44AB349B54801F043FD40F201104FF4AB
:104760008033C5E900034CF60A632B813223AB7218
:1047700042F6E06442F21073C5E9054349F640434E
:10478000EB613B7985F824303B46386833F8052FD8
:10479000A5F825209B7885F827303B4607F1100CBB
:1047A00033F8082F2A859B7885F82A303B46286203
:1047B00053F80B2FC5F82B201B7985F82F30BCE858
:1047C0000F0005F13004C5E903660FC4DCF80030C2
:1047D000236041469648C5F84480964C04F058FE44
:1047E000924B934A9448294600F062FD4FF4A0137F
:1047F000236040F20B236381904BA680C4E903330E
:10480000C4F806602683636104F11A0207F12403E9
:104810002E46343753F8041B42F8041BBB42F9D12F
:10482000874B63644FF47A73A4F84A30854BE36492
:104830001923A4F852304FF4FA63A4F85E30824B87
:10484000DFF868822366814B636600254FF001091B
:104850004FF48373C4E90B55C4E90D55C4E90F55F2
:10486000C4E9155584F8489084F8509084F85C9019
:10487000A4F86830082140460AF01FFD744F754BBC
:10488000A8F802904FF08072C8E901233846724BB5
:1048900000F8019B4FF00A11C8E90313C8E9055558
:1048A0000AF004FE3223FB804FF05A133B611E23B3
:1048B000FB824FF4C8733B83684B3D71C7E90255D7
:1048C000C7E9075587F814907B62654F654AA7F8DA
:1048D00000900A23BB703B8100237B61BB61FB61BD
:1048E000C7E903557A606049604ADFF8C491DFF890
:1048F00048A107F120000FF0FFFF5D4907F14800D4
:104900000FF046FF5B4B3B6707F50B600BF0A6F91A
:10491000414A5949384613F097FE3B46424A4149BD
:10492000484603F0D9F8554B37499D61C3E900A6C5
:10493000C3E91A553D4E83F86450C3E91C55C3F8CA
:1049400014903B4DDFF86C919D6040F201129A8308
:104950006522C3E90367A3F86620484633462A4622
:10496000009403F09FFD464F2749009433462A46A2
:10497000444805F011FF33462A4623490094424833
:1049800005F06EFF33462A46CDE901981E49009492
:10499000384604F03FFC33462A46CDE900471A4921
:1049A0003A4803F06FFF1C4A3949384813F04CFE6F
:1049B00033462A46CDE900481349364804F0EAF860
:1049C00033462A4610490094334804F0DFFA2B4658
:1049D0005146CDE901480C4A0096304805F0E0F810
:1049E0002B465146CDE90064074A2D4805F008FBE7
:1049F000009433462A4651462A4805F089F804B007
:104A0000BDE8F08734150020582B0020C4E60100D3
:104A10002C150020241500200000002045B60000C1
:104A2000A02B0020A0290020602A0020102C0020AC
:104A300004340020DC3000203C1500200B020B0267
:104A4000010000017B00F70006017B0004568EBDCB
:104A500048310020030205005A0088130400A00F0B
:104A6000800900200000C8420A7008000B7008008E
:104A70002C00210010FA0100C54F00006430002016
:104A8000C0330020D8350020F8350020B031002098
:104A9000D54200006032002074330020943400209E
:104AA000383500206C340020202B002048300020B6
:104AB00008300020703100202DE9F341AF4E13F093
:104AC00021F9304601F028FBB379A3B100237178B6
:104AD000AB48B37104F08EFF7378AA48334493F95E
:104AE0002B1001F0EFFD7378A64806EB830393EDDE
:104AF0000C0A02F0ECFFA44B1B7823B1A34B9F4898
:104B0000197801F0E1FA9E4D284604F057FF95F818
:104B100040301BB17178994801F0B7FA9C4B1B7873
:104B20004BB19C4B93F9001095F900308B4202D0A9
:104B3000934804F010FE984B1A78984612B1974BA0
:104B400000221A7313F0DEF89448954C00F06CFDC7
:104B500013F0D8F8934803F067FC934803F070FA19
:104B60002378002B55D004F1080005F021FF002820
:104B70004FD0E18804F1080005F00BFF2379012BE9
:104B800003D1B4F91010601C1AE0022B1BD104F100
:104B90001C0005F00DFF00283BD0218B04F11C0008
:104BA00005F0F7FE227DB4F91210B4F916301AB1EF
:104BB00000222275C91AE6E7012222751944A018BD
:104BC0000AF06AFD25E0032B40F0B88004F11C00D8
:104BD00005F0EEFEE8B194F8252094F824309A42CE
:104BE00080F0A080218B04F11C0005F0D2FE227D14
:104BF000B4F91210B4F91630002AD9D1012219449F
:104C0000A01822750AF048FD94F82530013384F885
:104C100025306648664F00F0C3FF664800F0CCFEC2
:104C2000654800F0C9FE654802F08AFF3B7F0BB380
:104C300007F1680005F0BCFEE0B1B7F8661007F1B7
:104C4000680005F0A6FE002107F1700005F0A1FE46
:104C500007F120013846FFF759FB5948092105F0B3
:104C600039FF5748442207F1200105F0AFFE5448B0
:104C700005F0E1FF534803F026FD534803F06BFFB6
:104C8000524804F013F9524804F072FA514804F003
:104C9000F2FA514804F054FF504805F03DF85048EE
:104CA00005F0CFFD00234F4885F8403005F080FE29
:104CB00020B14D4B4B48198805F06BFE04220027AC
:104CC0000DEB02013748019703F033FA95F90030F4
:104CD0002771D91D04D0012B33D1414805F06CFD5B
:104CE00095F90030D81D05D0012B40F0D8803C4804
:104CF00005F062FD7378022B0BD103232371C823C7
:104D000023831E23E3824FF47A63E384062384F82B
:104D1000243095F90030012B04BF0023237102B029
:104D2000BDE8F081E18C04F11C0005F032FEB4F91D
:104D30001210601C0AF0B0FC002368E7B4F91210EE
:104D400021E71A1D03D1244804F00FFFC8E7DF1C38
:104D500003D1224805F000F8C2E7023303D11D4811
:104D600004F09CFABCE70D4800F029FC00283DD077
:104D700098F80030D3BBFFF713FCB1E7582B0020A5
:104D800004340020102C0020040000200600002025
:104D90000500002022150020201500203C150020D1
:104DA00048310020DC3000204830002080090020FD
:104DB00064300020A0290020602A00200830002054
:104DC0002836002070310020B031002060320020F1
:104DD00074330020C03300206C3400209434002051
:104DE000D83500202C1500200C000020674B5B7B81
:104DF00013B198F8003083B195F90030022B0FD130
:104E000095F841302BB1624A002385F8413082F891
:104E10003F305F4803F0D6FC62E7FFF7DFFB5FE758
:104E2000032B03D15B4803F0B5FD59E7052B03D1F4
:104E3000594803F0B5FF53E7062B03D1564803F05A
:104E4000BDFF4DE7042B03D1544804F013F947E7A5
:104E5000072B03D1524805F03DFC41E701330AD14D
:104E6000504890F821301BB14F4804F0B3FD37E7AC
:104E700005F014FD34E74C4804F09AFB4B4B1B78CB
:104E80004BB14B4B4B4893F9001001F0B8FE494829
:104E900002F0A7FD24E7474801F09DFEF7E7191D42
:104EA00003D1454804F061FE24E7DA1C03D14348EE
:104EB00004F052FF1EE7023303D1414804F0EEF93B
:104EC00018E7324800F07BFB10B198F800309BB136
:104ED0002E4B5B7B9BB995F90030022B16D195F8D0
:104EE00041302BB12A4A002385F8413082F83F3007
:104EF000274803F067FCFDE6FFF752FBFAE698F857
:104F00000030002BE7D1FFF769FBF3E6032B03D159
:104F1000204803F03FFDEDE6052B03D11E4803F0CA
:104F20003FFFE7E6062B03D11B4803F047FFE1E60E
:104F3000042B03D1194804F09DF8DBE6072B03D1BD
:104F4000174805F0C7FBD5E601330AD1154890F89C
:104F500021301BB1144804F03DFDCBE605F09EFC6A
:104F6000C8E6114804F024FB104B1B784BB1104BE2
:104F7000104893F9001001F042FE0E4802F031FD96
:104F8000B8E60C4801F027FEF7E700BF3C1500200B
:104F900070310020B03100206032002074330020D6
:104FA00038350020F8350020043400202115002079
:104FB00007000020102C00206C34002094340020C6
:104FC000C033002010B5044648300FF0ABFA04F1AE
:104FD00020000FF013FC204610BD7047012906D8B1
:104FE00001448B79002B0CBF002003207047002068
:104FF0007047002343718371C3717047037870B5A4
:105000000446002B2DD01748164E0122092105F029
:10501000B3FD0025304605F0F8FC20B1304605F020
:105020000DFEC5B2F6E7A378257123441A7AAA4388
:1050300004BF01229A71E37823441A7AAA4304BF79
:1050400001229A71A3790BB101236371E3792BB12A
:1050500001236371A37A0133A37202E06379002B09
:10506000F8D170BD283600200160704710B5037973
:105070000446006843B994ED030A02F029FA0028B7
:1050800001DD0123237110BD012B07D194ED020A2C
:1050900002F02FFA0028F6DD0223F3E7BDE8104006
:1050A00001F03CBC007901288CBF00200120704732
:1050B00008B50221002012F0AAFDC0B20128FFEEBF
:1050C000007AB7EE000A18BFB0EE670A08BD00000C
:1050D00038B52DED028B0B78032B04460D4608D115
:1050E000002303718369C360D4ED057AF1EE677A1A
:1050F0004FE04B78032B08D1002303718369C36011
:1051000043698360BDEC028B38BD8B79012B12D9CA
:10511000032B0BBF00230123237123710CBFA36951
:105120000023E360FFF7C4FFD4ED057A27EE800A81
:1051300084ED020AE6E7CB78012B34D9032B90EDFE
:10514000048A29D100230371806915F04FFE36A32C
:10515000D3E9002315F0A2FE16F098F9FFEE047AC9
:1051600028EE278AE06084ED028A2B79012B4CD946
:105170002046FFF79DFF2D210020B0EE408A12F05F
:1051800046FD07EE900AB8EEE77ADFED297AE8EE01
:10519000077AC4ED027AB5E7012303710023C360E7
:1051A000B1EE488ADFE70B79012B33D9032B90ED61
:1051B000048A25D100230371806915F017FE1AA314
:1051C000D3E9002315F06AFE16F060F9F7EE047AD1
:1051D00028EE278AE06084ED028AEB78012B14D94F
:1051E0002046FFF765FF2D210020B0EE408A12F027
:1051F0000EFD07EE900AB8EEE77ADFED0E7AC6E70D
:10520000012303710023C360E5E7AB78012B3FF670
:105210006BAF77E78B78012B3FF67AAF4B79012B99
:105220003FF676AF6EE700BF9A9999999999E93F51
:10523000000034C30000344310B50446FFF748FFB4
:10524000D4ED027AF5EEC07AF1EE10FACCBF03206D
:10525000042010BDF8B5054640F2011325F8043BC3
:1052600004460F46164600214FF4E872284616F011
:10527000D3FC00236422C4E9783323710435A4F8F5
:10528000D42184F8DA314FF6FF72A4F8DC3184F8C7
:10529000DE31064BC4F86C51A4F8D821C4F8E831CB
:1052A00084F8D67184F8DB612046F8BD2800D00769
:1052B0002DE9F04F1E46502303829F4B0362836209
:1052C0009E4BC3629E4B03639E4B436389B003F5C1
:1052D000A0138363CDE905129B4B9C494162F021E9
:1052E0000025C0E90F13012203278C330446828175
:1052F00007774364C0E900558560857385748582AE
:105300008561934B9348C4E91203934B236578233B
:10531000A4F8543004F13403049304F15803312108
:1053200018460793FFF796FF04F511732A463021BC
:1053300018460093FFF78EFF04F5866302223221A0
:1053400018460193FFF786FF04F21C633A463321A7
:1053500018460293FFF77EFF04F60803184604225E
:10536000342104F6F41B039304F53E6AFFF772FF41
:10537000052235215846FFF76DFF04F6CC59062269
:1053800036215046FFF766FF04F6B878072237212A
:105390004846FFF75FFF082238214046FFF75AFFD3
:1053A000049B03F58B571037092239213846FFF744
:1053B00051FF41F29032079BA35041F29433009A7F
:1053C000E25041F29833019AE25041F29C33029A42
:1053D000E25004F59D53039A1A6041F2A43341F25E
:1053E000A83044F803B041F2AC3344F800A044F8CC
:1053F000039041F2B033B4F93A2044F8038041F20B
:10540000B433E75041F2B833E118B4F93870E752D9
:105410004A8041F2BC316318B4F93CC067525A80EB
:10542000A3F804C041F2C233E218B4F94410B4F84E
:105430004670E752518041F2C632A318B4F94AC00F
:10544000B4F94C70B4F94810B4F84EE024F802E016
:10545000A3F802C09F80D98041F2CE33B4F84070E7
:10546000B4F94210E752E2183C4F518041F2D23178
:1054700062183B6863507B6853603B891381049BCF
:10548000184407F091F841F2E4333322E25241F23A
:10549000E833E218E550556041F2F0323049A1504E
:1054A000A31841F2F4323146A5527A891A810D22AD
:1054B000DA72DD809D7241F20A433222E25241F2F9
:1054C0000C43E218E55041F2144355604FF4FA7270
:1054D000E25241F21843E218E55004F5A153556039
:1054E00065221A8041F22443E218E55004F5A153E5
:1054F00055600022DA631A6483F83850059B2360F4
:10550000069B04F11800C4E90136FFF7ADFD04F570
:105510009F5304F5A0521C33063203F8015B9342FB
:10552000FBD141F206432046E55241F20843E554DF
:1055300009B0BDE8F08F00BF000034420000B44263
:10554000000034C3500064005000B4000000344335
:10555000A0004600AA005A00D0071400F8E6010097
:105560000101000110B5044600F5A15000210430EE
:1055700005F00FFA04F5A0500021183005F009FAE3
:1055800004F1340000F082FB04F59F501030BDE8B8
:105590001040FFF722BD08B50921343000F0FCFBB4
:1055A000003818BF012008BD00234373837300F542
:1055B0009F501030FFF71DBD1830FFF757BD183052
:1055C000FFF770BD2DE9F041002500F5A05600F56C
:1055D0009F57044645738573063610374FF0010810
:1055E000E9B23846FFF7FAFC0135022806F8010B4C
:1055F00088BF84F80E80032DF2D104F59F561C3627
:10560000002504F134080127E9B2404600F0C4FB4C
:1056100006F8010B18B10128A77388BF677301351D
:105620000A2DF1D1BDE8F081436893F8403070B5A0
:1056300004460BB10123037304F5A15504F13400B2
:10564000043500F085FB284605F0B2F9C8B104F531
:10565000A153284604F59F55B3F90010103505F005
:1056600098F92846FFF7CAFC95F90A2095F90B30FE
:105670009A4206DB206800F06FFC41F2FA33002208
:10568000E25404F5A0560C36304605F091F904F5C5
:10569000A055183510B341F20A433046E15A05F0DF
:1056A00078F92046FFF78EFFA37B2BB9284605F03B
:1056B0007FF998B100210AE0284605F079F950B148
:1056C00041F214432846E15A05F063F90121A0682C
:1056D00002F0F1F902E0A37B002BE7D0284605F0A9
:1056E00067F918B9A068012102F0E5F9237B23B915
:1056F0002046BDE87040FFF757BF70BD10B50446A7
:10570000FFF760FF04F59F5104F118001C31BDE85C
:105710001040FFF791BD2DE9F04100F59F551C3574
:10572000044629461830FFF7D3FC04F5A15704F5C9
:105730009F580C37002608F11008F1B24046FFF7D9
:105740004DFC0136032E07F8010BF6D104F59C52EF
:1057500004F5A15304F5A050294610321A3306303F
:1057600011F8015B81F8325052F8045BB5F9D86149
:1057700023F8026B814295F8DE5181F85150EFD148
:1057800041F25843227FE254BDE8F08110B504464F
:10579000FFF718FF2046BDE81040FFF7BCBF002907
:1057A0000ADBB0F900308B4208DAB0F90200884217
:1057B000ACBF0220002070470020704703207047D4
:1057C00000290EDBB0F900308B420CDAB0F9023060
:1057D0008B420ADAB0F904008842B4BF00200120ED
:1057E000704700207047032070470220704700294F
:1057F0000ADBB0F900308B4208DDB0F902008842C4
:10580000D4BF03200020704700207047022070475B
:10581000002912DBB0F904308B4212DDB0F9003000
:105820008B420CDAB0F902308B420ADAB0F906008A
:105830008842D4BF03200020704700207047032017
:1058400070470220704700004FF47F432DE9F04776
:105850008380FF2383712C4B90460022C0E90423F0
:1058600023A3D3E90023C0E90623284B0022C0E983
:105870000823274B0022C0E90A23264B0022C0E957
:105880000C231DA3D3E90023C0E90E23224B0025DE
:10589000C0E910350A23044680F848301F4BC36422
:1058A00000260027C0E902559FED150B89465030B0
:1058B000052100F0CFF8E06CB4F842A0C4E91E67FF
:1058C000C4E9206715F092FA41EC100B514604F13F
:1058D000880000F0BFF8C4E92C67C4E92E6784F89B
:1058E000059084F8068025602046BDE8F08700BF5B
:1058F00046EAFF9EDB8F6740E0F09C762F1BD43F8B
:10590000000000A09999B93F00004E4000004940B6
:105910000000284000C082400A000500CDCCCC3DEC
:1059200010B50446002190F9050012F0FFFC94F92F
:105930000600002112F0FAFC04F10800002105F035
:1059400028F804F1500000F093F804F18800BDE855
:10595000104000F08DB838B5044690F9050012F0FB
:1059600053FD054694F9060012F04EFD236885426A
:1059700015BF013303F1FF332360236014BF0023FD
:105980000123237138BD38B5044690F9050012F0A3
:105990003BFD054694F9060012F036FD236885426A
:1059A0000BBF013303F1FF33236023600CBF0023DF
:1059B0000123237138BD00002DE9F84300F10805EB
:1059C0000446284604F0F4FF00283ED0284604F0A0
:1059D000E8FF15F0E9F91E4B002215F089FB064699
:1059E0000F462846B4F8401004F0D3FF2068656CD9
:1059F000401B15F0E9F9D4E90E2315F04FFA804663
:105A00002068401B894615F0DFF932463B4615F009
:105A10006FFBC4E92C0141EC100B04F1880000F08D
:105A20002BF83B4684ED2E0B32464046494615F096
:105A30005FFBC4E91E0141EC100B04F1500000F0C3
:105A40001BF884ED200B23686364BDE8F88300BF76
:105A500000408F4030B5002200240025C0E900221C
:105A6000C0E90645C0E9084580ED040B018130BD61
:105A7000002104F08EBF00002DE9F04757EC106BB9
:105A8000824604F095FF10B3DAE9048912494246D0
:105A90004B46002015F04AF8DAE9062315F0FEF926
:105AA000324604460D463B464046494615F0F6F957
:105AB00002460B462046294615F03AF8CAE9080185
:105AC000CAE90601BAF80810504604F062FF9AEDE0
:105AD000080BBDE8F08700BF0000F03FF8B500F10B
:105AE000200604460E4A1F2130460FF001FA10B975
:105AF00000252846F8BD04F14807094A2121384607
:105B00000EF04EFE05460028F2D030460FF0CFF8DA
:105B1000C4E9190730460FF0CCF8E066E9E700BFAA
:105B20002836002038B5002200F50B6504461146E2
:105B300028460AF0ADF8D0B9134914480FF088FF91
:105B40002046FFF7CBFF0546C8B911490F480FF0B3
:105B50007FFF257004F1700094ED010A0DF0E4F967
:105B600004F10C000021BDE8384004F012BF2846C3
:105B70000AF034FD08B90749DFE70749DDE70749BF
:105B800002480FF065FFE5E704E701001C42002032
:105B90006DE7010026E7010048E701008DE70100FD
:105BA0000378F7B50446002B6CD000F10C052846AD
:105BB00004F0FEFE002865D02846B4F9081004F071
:105BC000E8FE606E036804F533673946DB68984782
:105BD000A06E036804F654363146DB689847E06EE1
:105BE000036804F67831DB68019104F50B6598478A
:105BF0000199284609F096FD3946284609F092FD9C
:105C000004F537673146284609F08CFD97ED001AF8
:105C1000DFED1D7A04F66C37D7ED000A04F668371D
:105C200097ED000A04F6483204F6443304F68C304B
:105C300004F64C3104F6943604F5396590ED003ADB
:105C400092ED002AD3ED001A96ED004AD5ED003A08
:105C5000D1ED002A21EE271A60EEA70A20EE270ACE
:105C600004F170000DF038FB636FA361A36FE36173
:105C7000E36F636163785A1C6270A2789A429CBF9A
:105C80000023637003B0F0BDE02E654270B504469A
:105C900004F59D5500F59D5000211430083504F0A1
:105CA00078FE274A2121284606F081FC20B92549A3
:105CB00025480FF0D7FEFEE7244923480FF0D2FE17
:105CC0000026F1B201222846013606F0A1FC082E7A
:105CD000F7D10026F1B200222846013606F07EFCFC
:105CE000082EF7D1608812F047F80026F1B20122A1
:105CF0002846013606F072FC082EF7D1608812F0B3
:105D00003BF80026F1B200222846013606F066FC78
:105D1000082EF7D1608812F02FF804F59A541C343D
:105D20000026072EF1B203D80122284606F056FCC1
:105D300054F8040B013600F077F80A2EF1D170BD4B
:105D400028360020A7E701001C420020CAE7010016
:105D500070B500F59D5514350446284604F028FE1C
:105D6000064628B141F2B0332846E15A04F011FE4C
:105D700004F59A5504F59C541C35043455F8040B6D
:105D8000037833B10EB100F087F855F8040C00F039
:105D900092F8A542F2D170BD421841F29E33D35C15
:105DA000042B3FD8DFE803F0030F1B26320001F27B
:105DB000D64100EB810100F59C504B68B3F9D81136
:105DC0000430FFF7ECBC01F2D64100EB810100F595
:105DD0009C504B680830B3F9D811FFF7F1BC01F2C1
:105DE000D64100EB810100F59C504B680E30B3F9B1
:105DF000D811E6E701F2D64100EB810100F59C5095
:105E00004B681230B3F9D811FFF702BD01F2D64149
:105E100000EB810100F59C504B681A30B3F9D811A2
:105E2000FFF7E5BC0020704737B50446B0F8D40151
:105E300011F0A2FF0022144B94F8D6110092201DFD
:105E400006F022FD054688B9104911480FF0EDFD16
:105E500094F8DB110E480A220FF04FFE2570B4F8BB
:105E6000D40103B0BDE8304011F086BF09490848AD
:105E70000FF0DBFD94F8DB1105480A220FF03DFE20
:105E800001232370EBE700BF28360020EFE7010075
:105E90001C42002010E80100037810B504464BB105
:105EA000043006F0EAFB11F027FF0023C4F8E001FC
:105EB00084F8DD3110BD037870B5044613B90025B0
:105EC000284670BD061D304606F0EBFB054600284F
:105ED000F5D094F8DD31002BF1D184F8DC31304677
:105EE00006F0C8FB84F8DE01304606F0F0FB012323
:105EF00084F8DD3194F8DC31A4F8D8011BB14FF6F9
:105F0000FF73A4F8D83194F9DE311BB14FF6FF735B
:105F1000A4F8D831B4F9E831B4F9D8219A42DCBFF9
:105F20004FF6FF73A4F8D83111F0E6FED4F8E03153
:105F3000C01AC4F8E401C3E790F9083090F90720CB
:105F40001A4490F90930934204DC90F90A309342E4
:105F5000A8BF1346C371704790F9083090F9072025
:105F6000D21A90F90930934204DC90F90A30934236
:105F7000A8BF1346C371704713B5C279333AD2B282
:105F80000446130243EA0242406C0192012105F0EB
:105F9000EDFD606C019A022105F0E8FD606C02B035
:105FA000BDE8104005F0E0BC13B5C279333A0446B1
:105FB000D2B21202406C0192012105F0D7FD606C53
:105FC000019A022105F0D2FD606C02B0BDE81040DC
:105FD00005F0CABC13B5C279333A0446D2B21204F2
:105FE000406C0192012105F0C1FD606C019A022113
:105FF00005F0BCFD606C02B0BDE8104005F0B4BC1B
:1060000013B5C2790446333AD2B2406C01920121F1
:1060100005F0ACFD606C019A022105F0A7FD606CF3
:1060200002B0BDE8104005F09FBC13B5C279333A09
:106030000446D2B242EA0222406C0192012105F0EC
:1060400095FD606C019A022105F090FD606C02B034
:10605000BDE8104005F088BC13B5C279333AD2B21E
:106060001302044643EA02431A43406C01920121A1
:1060700005F07CFD606C019A022105F077FD606CF3
:1060800002B0BDE8104005F06FBC052904D8DFE878
:1060900001F01703070B0F1301234370FFF76CBFC9
:1060A00002234370FFF780BF03234370FFF7A8BFAD
:1060B00004234370FFF78EBF05234370FFF7B5BF7E
:1060C00000234370FFF7C8BF43788B4210B50446E6
:1060D0000FD0FFF7DAFF0123D4E90601A37111F015
:1060E00096FD6061014604F10C00BDE8104004F02B
:1060F00050BC10BD10B564210446002011F087FD8E
:10610000012160802046FFF7DFFF04F10C00002131
:10611000BDE8104004F03DBC037810B50446002BE8
:106120005BD00C3004F044FC002856D064210020E1
:1061300011F06DFD40B20A2829DC2046FFF70CFF64
:106140006421002011F063FD94F9072013181BB29D
:10615000642BA8BF642394F9202023EAE3739A42B6
:1061600063802EDD6421002011F051FD94F9073089
:10617000184400B20028A0800FDB94F9203083423D
:106180000BDB03212046BDE81040FFF79DBF5928D7
:10619000D6DD2046FFF7D0FED2E7B4F9023094F9FD
:1061A000211094F92220994203DC934203DC04215C
:1061B000E8E79342E5DB94F923209A42E1DB0521ED
:1061C000E0E794F921209A4201DB0121DAE794F912
:1061D00022209A42F9DB0221D4E710BD0000000022
:1061E0002DE9F04F2DED048B83B09046019340F2E2
:1061F0000113436141F288324FF47A630025C0E90C
:10620000072342F6E063C0E90935B14B0561044656
:106210000126C0E917334FF0050B4FF61973C0E99B
:106220000055C0E90255C0E90B55C0E90D55C0E95C
:106230001155C0E91355C0E9155580F818B0C5636C
:1062400080F84060A0F86430A24AA348A34BA0663F
:106250008946A349E16622676367C4F88430A14B8D
:10626000C4F89030A04BC4F89830A04BC4F89C30D0
:106270009F4BC4F8A0309F4BC4F8A430C4F8A8309A
:106280009D4BC4F8AC304FF080439FED850B9FEDE4
:10629000861B9FED872BC4F88020C4F8B03086A3FE
:1062A000D3E900239FED868B4FF07E579FED869BB1
:1062B000C4E9342384ED2E0B84ED301B84ED322BA6
:1062C000A067E167C4F88870C4F88C70C4F8947053
:1062D00029460A2204F1D80001F0B2FC94ED322BD9
:1062E00094ED301B94ED2E0B29460A2204F5B47070
:1062F00001F0A6FCB0EE482AF0EE682AB0EE481A8B
:10630000F0EE681AB0EE490AF0EE690A2946142246
:1063100004F5FC7001F094FCB0EE482AF0EE682A17
:10632000B0EE481AF0EE681AB0EE490AF0EE690ACB
:106330001422294604F5227001F082FC6F4BC4F848
:1063400018336F4BC4F81C336E4BC4F824336E4BB8
:10635000C4F828336D4BC4F82C331E2384F8603303
:106360006B4BD4ED1A8AC4F86833B6EE009A03F288
:106370001D239FED688AC4F85C7328EE899A94F80F
:106380005C70C4F86C334FF448734FF0030AF1EEBD
:10639000049AA4F870334FF47A73C4F8743327FA6C
:1063A00006F0C4E9CD55C4E9CF55C4E9D155A4F8E8
:1063B00020A3A4F8305384F8325384EDD38A84EDBB
:1063C000D48AC4EDD59A84EDD68A84EDD99A84F81E
:1063D000725384F878A314F0F7FC4F4B002214F0AA
:1063E000A7FB15F00BF844F62063C4E9E23594F8F6
:1063F0006430D4ED267A84F87903FF1A474BC4F849
:10640000B0334FF4167378EEE78AA4F8B433444BF4
:10641000C4F8B8334FF4FA73A4F8BC33294684EDBA
:10642000DF9A84F88063C4F8845384F890A3C4EDA1
:10643000E59A84EDE68AC4EDE78A84EDE88A84F87B
:10644000A4B384EDEA8A84F8AC7384F8AD5384F87D
:10645000AE6384F8B66384F8BE63202204F57470DA
:1064600015F0DAFB2F49304BC4F80090C4E9F21361
:106470002E4BC4F8D0332E4BC4F8D83342F6302319
:10648000A4F8F033019BC4F80C802046C4E9F05511
:10649000236103B0BDEC048BBDE8F08FAFF3008047
:1064A000B81E85EB51B8DE3F9A9999999999993F11
:1064B0009A9999999999793FD9CEF753E3A5DB3FFA
:1064C0000000000000000000333333333333E33F78
:1064D0007878645000007A430000AF4300803B436B
:1064E000000061C3CDCC4C3F0000484200007A441C
:1064F000E7FB293E9A99B541008098440000C842C4
:106500000000484300002C43A71607443720C03F33
:1065100003012003000000000000E03F5802580281
:10652000F401F4019808F401000004080000F041AF
:106530000000F0C10000000070B504462DED028B94
:106540005F4A00684FF4C86104F01FFC2068012115
:1065500004F062FC0221A060206804F05DFC94F865
:106560005C106060A06804F0CFFCA068012104F01A
:10657000A5FCA068042104F0A1FC94F85C106068FC
:1065800004F0C2FC6068012104F098FC60680421FA
:1065900004F094FC94F91810002011F038FBE07519
:1065A000D4E9080111F033FB0146E06104F1280051
:1065B00004F0EFF904F13000002104F0EAF904F5E9
:1065C0007070002104F0E5F9002104F1380004F0B6
:1065D000E0F9E068FFF7A4F904F1D8062069FFF7B5
:1065E0009FF904F5B475304601F070FB284601F0C0
:1065F0006DFB94F8640014F0D7FB9FED2F8B41ECFA
:10660000100BB0EE481AF0EE681A304601F01FFC8D
:1066100094F8640014F0C8FBB0EE481AF0EE681A63
:1066200041EC100B284601F012FCE3683046B3F849
:10663000401001F067FB236904F5FC76B3F84010C5
:10664000284601F05FFB04F52275304601F03EFB61
:10665000284601F03BFBD4F81C0314F0C7FB0246AC
:1066600001F1004343EC102B41EC110B304601F0DB
:10667000EEFBD4F81C0314F0B9FB024601F1004311
:1066800041EC110B43EC102B284601F0E0FBE368D2
:10669000B3F840103046490001F034FBBDEC028BEA
:1066A0002369B3F8401028464900BDE8704001F066
:1066B00029BB00BFAFF300800000000000E06F4086
:1066C0002836002090F85C3053FA81F380F860306F
:1066D00090F85D3053FA81F380F8613090F85E30C5
:1066E00053FA81F180F86210704790F99033032BD0
:1066F0000CBF0423032380F8903390F96833032BF5
:106700000CBF0423032380F8683370472DE9D0437E
:10671000B5EEC00AD0ED2B7AF1EE10FA2DED048B18
:10672000F0EE408AD8BFF1EE408A88EEA79A044680
:10673000F5EEC00AF1EE10FAB0EE608AD8BFB1EE05
:10674000608A38EE080A80EE270A12F067F9B4EE84
:10675000C09AF1EE10FA33DC19EE100A14F046FB81
:10676000064618EE100A0F4614F040FB8046D4F897
:10677000AC00894614F03AFB1B4B002214F08EFB50
:1067800032463B4614F08AFB32463B4614F086FB09
:1067900002460B464046494614F0C8F9064618EE34
:1067A000900A0F4614F022FB02460B46304639464B
:1067B00014F09EFC14F06AFE07EE900A37EE890A88
:1067C000D4ED2C7A60EE277A17EE900A14F00EFBC7
:1067D000064B002214F062FB14F038FEBDEC048B73
:1067E00080B2BDE8D08300BF0000E03F00408F4092
:1067F00010B504460421406804F060FBA068042141
:1068000004F05CFB6068002104F07EFBA0680021BE
:10681000BDE8104004F078BBF8B52DED028B9FED7C
:10682000268B0025044600F5FC7704F5227680EDE2
:10683000928BB0EE480AF0EE680A80EDB68BC0F895
:106840003853C0F84453384601F0DCFAB0EE480A39
:10685000F0EE680A304601F0D5FA2946384601F0D4
:106860004CFB2946304604F1D80601F046FBB0EE59
:10687000480AF0EE680A84ED4A8B84ED6E8BA4F82A
:10688000305384F83253304604F5B47401F0BAFA48
:10689000B0EE480AF0EE680A204601F0B3FA294645
:1068A000304601F02AFBBDEC028B29462046BDE8AC
:1068B000F84001F022BB00BF000000000000000013
:1068C00010B5012380F8CC3390F8CD33B0F8C8135D
:1068D0000133044680F8CD3300F5707004F059F8A8
:1068E0002046BDE81040FFF797BF012280F8BE2385
:1068F000002280F8CD23FFF78FBF90F916208A423F
:106900000BD0012280F84020C26881751268426471
:10691000026912688264FFF77FBF704710B50446B2
:106920000021FFF7EAFF6068042104F0C7FAA068BD
:10693000042104F0C3FA6068002104F0E5FAA068BD
:106940000021BDE8104004F0DFBA38B504460D461A
:106950000021FFF7D2FF6068012104F0AFFAA068C0
:10696000012104F0ABFA6068294604F0CDFAA06872
:106970002946BDE8384004F0C7BA38B504460D468C
:106980000121FFF7BAFF6068022104F097FAA068BE
:10699000022104F093FA6068294604F0B5FAA06871
:1069A0002946BDE8384004F0AFBA38B504460D4674
:1069B0000321FFF7A2FF6068022104F07FFAA068BC
:1069C000012104F07BFA6068294604F09DFAA06872
:1069D0002946BDE8384004F097BA38B504460D465C
:1069E0000421FFF78AFF6068012104F067FAA068BC
:1069F000022104F063FA6068294604F085FAA06871
:106A00002946BDE8384004F07FBAF8B504460E4682
:106A100005211546FFF771FF6068012104F04EFA69
:106A20006F08A0680121A6EB550504F047FA6068DD
:106A3000E9B204F069FAB919A068C9B2BDE8F84032
:106A400004F062BAF8B504460D4606211646FFF773
:106A500054FF6068012104F031FAA068012104F0BC
:106A60002DFA05EB560160687708C9B204F04CFABC
:106A7000E91BA068C9B2BDE8F84004F045BA032B91
:106A8000D2B201D1FFF7C1BFFFF7DCBF90F880336E
:106A900070B504460D4600F130061BB990F9173069
:106AA000032B1FD0002384F88033032394F8A423FE
:106AB000E37594F8603094EDE27AD4F888139B1A69
:106AC000DBB207EE903AF8EE476AF8EE677A84F8A0
:106AD000AC3387EEA67A84F8AD33304684EDEA7A9B
:106AE00003F057FF304603F05CFF07EE900AD4ED49
:106AF000EA6A94EDE77AC4F88C03F8EE677AA6EEBA
:106B0000E77AB5EEC07AF1EE10FA17EE100A1CDB48
:106B100014F06CF9154B002214F00AF814F06EFC16
:106B200094F86030C0B2834238BF94F8A42384F84C
:106B3000AD033CBF9B1A84F8AD33304603F038FFF9
:106B400050B1012384F8803370BD14F04FF9074B26
:106B5000002213F0EBFFE1E794F9AD2394F8601005
:106B60002B462046BDE87040FFF789BF0000E03F9C
:106B700010B50446D0E9080111F049F894F917104E
:106B8000E06103290CD1012384F880330221002025
:106B900011F03DF8D4F8883384F89003E36106E0FF
:106BA000022910D1002011F032F884F86803E1695D
:106BB00004F1280003F0EDFE04F130000021BDE8EF
:106BC000104003F0E6BE0429F1D1012384F8BE335E
:106BD000B4F8F033E2E7037D10B5044673B1283012
:106BE00003F0E6FE50B194F91810002011F00FF8F0
:106BF000E0752046BDE81040FFF7BABF10BD38B5BC
:106C0000037D04460D464BB1283003F0D1FE28B178
:106C1000E5752046BDE83840FFF7AABF38BDF8B596
:106C200090F8E0702DED028B0446F0EE408AB0EE55
:106C3000608A00F1D80600F5B4752FBB01213046FB
:106C400001F05BF994ED340B304601F040F8F5EEBD
:106C5000C08AF1EE10FA13D50121304601F07AF81E
:106C6000B5EEC08AF1EE10FA0ED594ED340B28463D
:106C700001F02DF894ED340B304601F028F803E0D4
:106C80003946304601F066F894F870712FBB012147
:106C9000284601F032F994ED340B284601F017F83C
:106CA000B5EEC08AF1EE10FA13D50121284601F0A5
:106CB00051F8F5EEC08AF1EE10FA0ED594ED340BD2
:106CC000284601F004F894ED340B304600F0FFFF45
:106CD00003E03946284601F03DF818EE900A14F01A
:106CE00085F8C4E94A0118EE100A14F07FF8C4E9E7
:106CF0006E01E368304693ED200B01F05AF92369E9
:106D0000284693ED200B01F054F9F5EEC08AF1EE20
:106D100010FA4CBF02210121606804F0CFF8B5EEF3
:106D2000C08AF1EE10FA4CBF02210121A06804F0E4
:106D3000C5F8D4E94C0114F061FBC1B2606804F0FD
:106D4000E3F8D4E9700114F059FBBDEC028BC1B239
:106D5000A068BDE8F84004F0D7B813B50021044698
:106D60008DED010AFFF7C9FDDDED010A2046B0EE09
:106D7000600A02B0BDE81040FFF751BF90F915203E
:106D8000012A03D190ED1E0AFFF7E7BF90F86010CB
:106D9000FFF7DBBDFFF7E1BF13B5012104468DED21
:106DA000010AFFF7AAFDDDED010A2046B0EE600AF8
:106DB00002B0BDE81040FFF732BF90F91520012A5C
:106DC00003D190ED1F0AFFF7E7BF90F86110FFF7BE
:106DD000D4BDF8B500F13007044638460D461646D6
:106DE00003F0E6FD78B12046FFF798FD94F8B6333E
:106DF0008BB1002384F8B633A4F8BC63B4F8BC1399
:106E0000384603F0C6FD94F8B63320464BB1BDE8D2
:106E1000F840FFF7B3BF012384F8B633A4F8BC539E
:106E2000ECE7BDE8F840FFF7C8BF13B503210446FF
:106E30008DED010AFFF761FDDDED010A2046B1EE9F
:106E4000600A02B0BDE81040FFF7E9BE90F91520D6
:106E5000012A03D190ED200AFFF7E7BF90F86210F6
:106E6000FFF7A3BD2DE9F04110EE104A2DED028B86
:106E7000052110EE906A8046FFF73FFD204613F093
:106E8000B5FF044630460D4613F0B0FF114B00220B
:106E900014F004F802460B4606460F4620462946E3
:106EA00013F046FE14F0F2FA324608EE100A3B46A2
:106EB0002046294613F03AFE14F0E8FAF0EE480AAC
:106EC000BDEC028B00EE100A4046BDE8F041FFF732
:106ED000A6BE00BF0000E03F38B52DED028B90F953
:106EE0001530012B0446B0EE408A09D190ED1E0A00
:106EF00060EE080ABDEC028BBDE83840FFF7B2BF78
:106F000090F8605007EE905AF8EE677A27EE808A84
:106F100018EE100A13F06AFFB5EEC08AF1EE10FA0F
:106F2000094B4FF000020CDB13F002FE14F066FA7E
:106F3000BDEC028BC2B229462046BDE83840FFF7BF
:106F400064BD13F0F3FDF1E70000E03F10B52DED57
:106F5000028B0421B0EE408A0446FFF7CEFCF1EE2E
:106F6000480AB0EE480ABDEC028B2046BDE810404E
:106F7000FFF755BE90F91520012A03D190ED200AA4
:106F8000FFF7E4BF90F86210FFF727BDF8B500F1F6
:106F90003007044638460D46164603F009FD78B121
:106FA0002046FFF7BBFC94F8AE338BB1002384F886
:106FB000AE33A4F8B463B4F8B413384603F0E9FC74
:106FC00094F8AE3320464BB1BDE8F840FFF73EBF22
:106FD000012384F8AE33A4F8B453ECE7BDE8F840DD
:106FE000FFF7C8BF2DE9F04110EE104A2DED028BDE
:106FF000062110EE906A8046FFF77FFC204613F0D2
:10700000F5FE044630460D4613F0F0FE114B00220B
:1070100013F044FF02460B4606460F46204629461B
:1070200013F084FD14F032FA324608EE100A3B46A3
:107030002046294613F07CFD14F028FAF0EE480AA9
:10704000BDEC028B00EE100A4046BDE8F041FFF7B0
:10705000E6BD00BF0000E03F38B52DED028B90F992
:107060001530012B0446B0EE408A09D190ED1E0A7E
:1070700060EE080ABDEC028BBDE83840FFF7B2BFF6
:1070800090F8605007EE905AF8EE677A27EE808A03
:1070900018EE100A13F0AAFEB5EEC08AF1EE10FA4F
:1070A000094B4FF000020CDB13F042FD14F0A6F97F
:1070B000BDEC028BC2B229462046BDE83840FFF73E
:1070C000C1BC13F033FDF1E70000E03F032901D11B
:1070D000FFF7C8BEFFF786BF90F9152090F9683317
:1070E000012A10B408D1D0EDD90A90ED200A5DF83C
:1070F000044B1946FFF7EABF90F9602390F862103D
:107100005DF8044BFFF7BBBC90F8803370B50446C4
:107110000D4600F130061BB990F91730032B1BD038
:1071200094EDE57AD4ED1E7AD4F8881377EEC77A19
:1071300094EDE27AC4EDE77AF8EE476A002387EE31
:10714000A67A84F880330323E3753046C4EDE87AE9
:1071500084EDE67A03F01DFC304603F022FC07EED6
:10716000900AD4EDE66A94EDE77AC4F88C03F8EE61
:10717000677A3046A6EEE77AD4ED1E7A84EDE87A97
:10718000B4EEE77AF1EE10FAC2BF94ED267A77EE0C
:10719000C77AC4EDE87A03F00BFC18B1012384F838
:1071A000803370BDD4EDE80A94ED1E0A29462046CE
:1071B000BDE87040FFF78ABF90F91530012B01D16F
:1071C000FFF7A2BFFFF762BC90F99013FFF7F4BF7F
:1071D00038B590F869330446A3B100F1300528466C
:1071E00003F0E6FB94F97833A8BB032B94F9152040
:1071F0001FD1012A15D1D4EDDF0A94ED200A2046D3
:10720000FFF730FE94F87233002B4CD004F13005B8
:10721000284603F0CDFBC8BB2046BDE83840FFF749
:10722000ADBD94F8792394F862102046FFF7EDFB8A
:10723000E8E7012A07D1D4EDDF0A94ED200A2046C1
:10724000FFF7D0FEDEE794F8792394F86210204629
:10725000FFF7F8FBD6E7032B0BBF0423032384F8C7
:10726000783384F878330CBFB4F86E33B4F86C33E9
:10727000A4F87033002384F869330123D4F874131D
:1072800084F87233284603F084FBBBE7012384F8BB
:1072900069330023B4F8701384F872332846BDE8CC
:1072A000384003F076BB38BD70B50A212DED048B54
:1072B0000446F0EE419AB0EE408AF0EE608AB0EEFD
:1072C000619AFFF71AFBD4EDD37A94EDD57A77EE75
:1072D000C76AF4EEE96AF1EE10FA06D877EE877A1B
:1072E000F4EEE97AF1EE10FA06DAC4EDD39A4FF033
:1072F000FF312046FFF701FBD4EDD47A94EDD57A27
:1073000077EEC76AF4EEC96AF1EE10FA06D877EEA6
:10731000877AF4EEC97AF1EE10FA06DA84EDD49A9F
:107320004FF0FF312046FFF7E8FA94F8403004F1BF
:107330003806002B37D0F0EE690AB0EE480A204636
:10734000FFF7E4F9F0EE490AB0EE680A0546204678
:10735000FFF7DCF98542014688BF2946304603F035
:1073600018FB002384F8403019EE900A13F03EFD1C
:10737000E368D3E90E2313F0BBFE14F03FF8054693
:10738000606519EE100A13F031FD2369D3E90E236D
:1073900013F0AEFE14F032F8636CA0651D44A36CCC
:1073A000E56418442065304603F002FB002866D1EE
:1073B000F5EEC09AF1EE10FA1DDDB5EEC09AF1EED1
:1073C00010FA7ADDE368E26C1B689A4204DA2369FA
:1073D000226D1B689A4207DBB5EEC08AF1EE10FA07
:1073E0001EDCB1EE488A1BE02046FFF701FA0120BF
:1073F000BDEC048B70BD1BD5B5EEC09AF1EE10FA52
:107400003FDDE368E26C1B689A4204DD2369226D6C
:107410001B689A42E8DBB5EEC08AF1EE10FAE0DCB8
:10742000F5EEC08AF1EE10FA20DCF1EE688A1DE07C
:10743000F5EEC09AF1EE10FAD6D5B5EEC09AF1EE9F
:1074400010FAD1D5E368E26C1B689A4204DD236927
:10745000226D1B689A42C7DCB5EEC08AF1EE10FAC5
:1074600028DCF5EEC08AF1EE10FADEDC2046F0EE04
:10747000680AB0EE480AFFF7D2FB0020B8E7022006
:10748000B6E7F5EEC09AF1EE10FAD6DDB5EEC09A89
:10749000F1EE10FACCD5E368E26C1B689A4204DA8C
:1074A0002369226D1B689A429EDCB5EEC08AF1EE1C
:1074B00010FAD6DCB1EE488AD3E7F5EEC09AF1EEC9
:1074C00010FAE3D5B5EEC09AF1EE10FA99DCDDE7DB
:1074D000B5EEC00AF1EE10FA4CBFD0ED1F0AD0EDA8
:1074E0001E0AF0EE401AB0EE401AB0EE600AFFF746
:1074F000DBBED0EDCB1AB5EEC00AF1EE10FA60EEAD
:10750000211A07DDD0ED200AB1EE611AB1EE600A52
:10751000FFF7CABE06D590ED200AB1EE611AF1EE72
:10752000400AF5E7012070472DE9F04F2DED028B61
:1075300090F8003283B010EE108A0446CDED010AB7
:1075400000F5FC7700F1D8063BB90121384600F080
:10755000D4FC0121304600F0D0FC04F5227308EE83
:10756000103A94F8903204F5B47543B918EE100A45
:10757000012100F0C2FC0121284600F0BEFCD4F835
:107580000CA0404613F032FCDAE90E2313F0B0FDF4
:10759000002200238046894613F006FFCA4B0022D2
:1075A000002800F033814046494613F0C1FA13F039
:1075B00025FFD4F8383383420ED007EE900AF8EE58
:1075C000E77ADAF80030C4F83803636417EE900AFB
:1075D00013F00CFCC4E99201D4F810B0019813F038
:1075E00005FCDBE90E2313F083FD00220023804617
:1075F000894613F0D9FEB44B0022002800F00B811D
:107600004046494613F094FA13F0F8FED4F8443398
:1076100083420ED007EE900AF8EEE77ADBF80030EE
:10762000C4F84403A36417EE900A13F0DFFBC4E927
:10763000B601DAF80000636CC01AC4F83C0313F01A
:10764000C3FB41EC100B384600F0B3FC236918680B
:10765000A36CC01AC4F8480313F0B6FB41EC100B3E
:1076600018EE100A00F0A5FCE368304693ED200BFD
:1076700000F09FFC2369284693ED200B00F099FC55
:10768000D4E994AB002200235046594613F096FEED
:10769000002840F0C5800022002350465946D046BD
:1076A0000BF1004913F076FE002800F0BC80864BF9
:1076B00000224046494613F03BFA13F09FFE07EEC6
:1076C000900A94EDC67AF8EEE77AB4EEE77AF1EE36
:1076D00010FA16DD17EE100A13F088FB0022804620
:1076E000894600235046594613F04AFE002800F010
:1076F000A180424609F1004343EC102B384600F0CC
:1077000081FBD4E9B8AB002200235046594613F060
:1077100055FE002840F09180002200235046594633
:10772000D0460BF1004913F035FE002800F08880A8
:10773000654B00224046494613F0FAF913F05EFE0D
:1077400007EE900A94EDC67AF8EEE77AB4EEE77A9F
:10775000F1EE10FA16DD17EE100A13F047FB0022C7
:107760008046894600235046594613F009FE0028FA
:107770006DD0424609F1004343EC102B18EE100A7D
:1077800000F040FBD4E9CE32B4F92013581A8242FB
:1077900060DAD4E994230021C4E94A23304600F09A
:1077A000D9FA0121606803F089FBD4E94C0113F098
:1077B00025FEC1B2606803F0A7FBD4E9D132B4F969
:1077C0002013581A82426CDAD4E9B8230021C4E9A4
:1077D0006E23284600F0BEFA0121A06803F06EFB7C
:1077E000D4E9700113F00AFEC1B2A06803F08CFB6B
:1077F00094F830332BB194F8313313B1012384F86A
:10780000323303B0BDEC028BBDE8F08F40464946F1
:1078100013F08CF9CBE64046494613F087F9F3E6BE
:10782000D046D94643E7284B00225046494613F03C
:107830007DF942E749EC108B60E7D046D94677E7FF
:10784000214B00225046494613F070F976E749EC87
:10785000108B93E70B449A4209DDD4E9942301216C
:10786000C4E94A23304600F075FA02219AE79FEDF9
:10787000140B384600F0C6FA9FED110B304600F0AD
:10788000C1FA9FED0F7B606884ED4A7B042103F011
:1078900015FB6068002103F037FB012384F83033C7
:1078A0008BE70B449A4211DDD4E9B8230121C4E9E6
:1078B0006E23284600F04EFA02218EE7AFF30080D7
:1078C00000000000000000000000E03F9FED0E0BF4
:1078D00018EE100A00F096FA9FED0B0B284600F008
:1078E00091FA9FED097BA06884ED6E7B042103F083
:1078F000E5FAA068002103F007FB012384F8313387
:1079000076E700BFAFF30080000000000000000039
:1079100010B50B212DED028B0446B0EE408AFEF728
:10792000ECFFD4EDCB0A68EE200ABDEC028B2046BA
:10793000B1EE600ABDE81040FFF7F6BD38B590F82B
:10794000BE33044600F5707503B30423C3750023EA
:1079500080F8BE33B0F8C813284603F01AF80123A4
:10796000A4F8CC332046FEF757FF94F8CC339BB3F2
:1079700094F8CD3394F8CE239A422DD31BBB94EDCB
:10798000F40A2046BDE83840FFF7C2BF284603F09E
:107990000FF80028E9D094F8CC3383F0010384F881
:1079A000CC3353B1B4F8C813284602F0F2FF94F870
:1079B000CD33013384F8CD33D7E7B4F8CA13284662
:1079C00002F0E7FFD1E704EB830393EDF40AD3ED74
:1079D000F37A30EE670AD4E72046BDE83840FEF778
:1079E0009DBF027D9AB190F91730012B01D1FFF7AD
:1079F000EFBB032B01D1FFF7E7BB022B01D1FFF750
:107A00006BBB042B01D1FFF799BFFFF7B7B97047E4
:107A1000D0ED226A90ED1A6A90ED235A90ED267A05
:107A200026EE866A26EE056AB4EEC76AF1EE10FA13
:107A300032D4D0ED275AB4EEE56AF1EE10FAD8BF91
:107A4000F0EE465AD0ED1B7AC0ED1E5A66EEA77ACC
:107A500067EE857AF0EEE77AB4EEE77AF1EE10FAA7
:107A60001DDDF1EE477AC0ED1F7AD0ED1C7A66EE8F
:107A7000A77A67EE857AB4EEE77AF1EE10FA08DCC1
:107A800090ED277AF4EEC77AF1EE10FAD8BFB0EE97
:107A9000677A80ED207A7047F0EE475AD2E790ED92
:107AA000276AB4EEE76AF1EE10FA4CBFF1EE467ABF
:107AB000F1EE677AD7E7D0ED247A90ED257A0029A8
:107AC00008BFF0EE477AC0ED237AFFF7A1BF80ED43
:107AD000220AFFF79DBF000030B5012505800A2569
:107AE000857014250582094D45610025C0E90655BC
:107AF0000025C0E90112056245628562C562056321
:107B000045638563C563C36030BD00BF0AD7A33C2E
:107B1000C3681B7810B5044653B9064906480DF0F2
:107B200097FF04F118000021BDE8104002F031BFBA
:107B30000249F3E72EE801001C42002056E801004C
:107B4000F8B503782DED068B0446002B6AD000F1C2
:107B50001805284602F02CFF002863D02846B4F907
:107B6000101002F016FFD4E90113D4ED0C8A94ED45
:107B70000D8AC4ED0E8AD3E92023D1E9200184EDDA
:107B80000F8A12F0D5FF00222B4B13F087F913F068
:107B90007DFCE36820625D69E56213F027F9064623
:107BA00028460F4613F022F9244B002213F0A0FAC6
:107BB0001FA3D3E9002313F071F941EC100B41EC42
:107BC0001A0B10F049FD304653EC102B394613F0D8
:107BD00065F913F05BFCB0EE4A0AF0EE6A0A6062E7
:107BE00009EE100A10F010FE304653EC102B394607
:107BF00013F054F913F04AFC637894ED057AA0620F
:107C000007EE900A5A1C6270E9EE078AA278A7EE86
:107C1000878A9A4298BF0023C4ED0C8A84ED0D8AAE
:107C200098BF6370BDEC068BF8BD00BFAFF300805A
:107C300000000060FB2109400000E03F008066403A
:107C40002DE970430FF27009D9E90089C0E91A895A
:107C5000DFF8749041724FF00008C0E91C890FF200
:107C60006009D9E90089002400250026C0E90066E2
:107C7000C0E90A45C0E90C45C0E90E45C0E9104518
:107C8000C0E91245C0E91445C0E91645C0E91845E8
:107C9000C0E91E89C0E9204580ED040B80ED061B7C
:107CA00080ED082B067280F88A60A0F88820BDE875
:107CB000708300BFAFF300800000000000E06F4061
:107CC0000000000000C05F4000C05FC07047D0B53A
:107CD00057EC106B0446002210EE100A00233946C0
:107CE00013F04EFB68B994F88A30012BC4E904679D
:107CF00007D132463B460020002112F017FFC4E9AD
:107D00000401D0BDF8B50D1E044622DD284613F04F
:107D10005BF80646B4F888000F4613F045F80246B3
:107D20000B463046394613F0E3F902460B46064649
:107D30000F46D4E9060113F0B1F83246C4E9060152
:107D40003B46D4E9080113F0D3F9C4E90801A4F8CB
:107D50008850F8BD38B590F88A308B4204460D46FD
:107D600017D0D0E904230021002012F0DFFED4E96F
:107D70000623C4E904010020002112F0D7FED4E953
:107D80000823C4E906010020002112F0CFFEC4E957
:107D9000080184F88A5038BD2DE9F843437A55EC40
:107DA000104B0646C3B1D0E91C89294610EE100AD3
:107DB00042464B4613F0E4FA08BBD6E91E6720465C
:107DC00032463B46294613F0F9FA08B134463D469F
:107DD00045EC104BBDE8F883D0E9188910EE102A65
:107DE0002B464046494613F0E9FA40B9D6E91A67EE
:107DF00022462B463046394613F0C2FAE5E74446A0
:107E00004D46E5E72DE9D043D0E9186759EC108BD2
:107E1000044610EE102A4B463046394613F0CEFA8F
:107E200050B9D4E91A6742464B463046394613F0FA
:107E3000A7FA08B946464F4694ED0E0BC4E91667FB
:107E40002046FFF7A9FF84ED0E0BBDE8D0832DE996
:107E5000F04757EC106B55EC114B824611EE102A8F
:107E600010EE100A2B46394613F0A8FAF0B9DAE9F9
:107E70001689CAE91867CAE91A4532463B464046A0
:107E8000494613F07DFA98B922462B4640464946AA
:107E900013F094FA08B944464D469AED0E0BCAE920
:107EA00016455046FFF778FF8AED0E0BBDE8F087C8
:107EB00034463D46F1E7D0E9122390ED160B10B59C
:107EC0000446C0E90A2380ED0E0BFFF765FF637AD5
:107ED00084ED0E0B4BB100220023C4E91223C4E948
:107EE0000A23C4E90E23C4E9162394ED0E0B2046A1
:107EF000FFF752FF84ED0E0B10BD012938B5044683
:107F00000CBF0125002503D1037A0BB9FFF7D3FF7E
:107F1000257238BD2DE9F34755EC104B824610EE23
:107F2000102AD0E914012B4612F000FE8046894643
:107F3000CAE92089DAE9042312F0B0FF06460F46A9
:107F4000DAE90623CAE90C674046494612F0A6FF63
:107F5000DAE90E2312F0ECFDCAE90E0141EC100B38
:107F60005046FFF719FFDAE90A238AED0E0B204687
:107F700029468DED000B12F0D9FDDAE9082312F045
:107F80008DFF80468946DDE90023CAE91089304625
:107F9000394612F0CDFD42464B4612F0C9FD41EC88
:107FA000100B5046FFF7F8FECAE90A4502B0BDE8DB
:107FB000F08713B5037A8DED000B04468BB102F008
:107FC000F7FC9DED000B60B12046FFF7A3FFB4F86E
:107FD0008810204684ED160B02B0BDE8104002F078
:107FE000D8BC02B010BD000010B5082104461048EE
:107FF00002F070FD0E4802F01EFE90B10D490E48D1
:108000000DF026FD0023A17A607AA37001310FF0F4
:10801000FEFD0021207204F11400BDE8104002F0C2
:10802000B8BC064904480DF013FD0123EBE700BF7F
:10803000283600207AE801001C420020A8E8010050
:10804000837813B50446A3B1C379DBB100230DF1E6
:1080500007018DF8073007F061F904F1140002F010
:10806000A7FC30B19DF80730DA0704D50123E3708F
:10807000637102B010BD13F0020303D00123E3705B
:10808000A371F6E76371FBE7837813B5044603B386
:1080900000230DF107018DF8073007F046F9B4F918
:1080A0001030B4F90C209DF807109818814210DCAC
:1080B000981A81420DDBE1895B1A1BB2991A0029DB
:1080C000D7BFE37A2382C2F164020133DCBF22828C
:1080D000E37202B010BD10B5817A04460131407AD6
:1080E0000FF095FD207210BD10B500230446C3703B
:1080F000C372FFF7F0FF618A04F11400BDE810407D
:1081000002F047BC10B5002104460E2010F052F9D1
:1081100004F12C00002102F03CFC04F13C000021A1
:1081200002F037FC04F134000021BDE8104002F0F9
:1081300030BC10B506300023DCB2A24205D9CC5CBD
:1081400000F8014B0133052BF6D110BD10B50A30F4
:108150000023DCB2A24206D931F8134020F8024BCA
:108160000133092BF5D110BD10B51A300023DCB254
:10817000A24206D931F8134020F8024B0133092BF3
:10818000F5D110BD00F11A0200F12A03002032F8E7
:10819000021B9A420844FAD1704708B50E200EF02F
:1081A000BFF8BDE8084000210E2010F003B90123FC
:1081B000437000238380704700220E200EF0C6B863
:1081C00038B53C302DED028B1D4608EE902A08EEA6
:1081D000101A02F0E6FB0446284612F0F5FD0246AE
:1081E0000B460020002112F0A1FC13F04FF9B8EE6D
:1081F000488AF8EE688A07EE900A78EE688AA4B298
:1082000088EEA77A07EE904AF8EE677AA7EE278AFB
:10821000B5EEC08AF1EE10FA18EE100A10DB12F07B
:10822000E5FD0B4B002212F083FC13F0E7F8BDECE8
:10823000028B81B2BDE8384000220E200EF086B8D5
:1082400012F0D4FD024B002212F070FCEDE700BFEB
:108250000000E03F90F8482082F0010280F84820BA
:108260002AB1B0F84C1000220E200EF06FB8B0F812
:108270004E10F9E7F8B500F15407064638460C46AB
:10828000154602F095FBB8B1B6F85210384602F028
:1082900080FBAC420AD9214628460FF0B8FC81B2D7
:1082A000BDE8F84000220E200EF050B802D2294658
:1082B0002046F2E70021F3E7F8BD000038B5B0F83A
:1082C000603000F13C052DED028B0446D0ED198A9B
:1082D000284608EE103A02F064FB07EE900AB8EE6A
:1082E000488AF8EE677AB4F86030A8EEA78A284684
:1082F00007EE903AB5EEC08AF1EE10FAD4ED198A85
:10830000B8EE678A1CDB02F04CFB07EE900AF8EE31
:10831000677AA8EEA78A18EE100A12F067FD114BD3
:10832000002212F005FC13F069F8BDEC028B81B25B
:10833000A4F868100022BDE838400E200EF006B800
:1083400002F02FFB07EE900AF8EE677AA8EEA78AF4
:1083500018EE100A12F04AFD024B002212F0E6FB62
:10836000E1E700BF0000E03F2DE9F74316461A465B
:108370004378BDF82880BDF82C7004460D4600F106
:108380003C0943B100234370437141464846019282
:1083900002F0FFFA019A0192484602F009FB019AA5
:1083A00050B161790131C9B2012961710ED13946EB
:1083B000484602F0EEFA019A637953B9013D042D63
:1083C0002CD8DFE805F0091025181E00F4D9022387
:1083D000637103B0BDE8F0833146204603B0BDE8C9
:1083E000F043FFF7E9BE43463146204603B0BDE8FF
:1083F000F043FFF7E5BE204603B0BDE8F043FFF7CA
:1084000029BF3146204603B0BDE8F043FFF732BF35
:10841000204603B0BDE8F043FFF750BF204603B04D
:10842000BDE8F043FFF7B9BE37B54379022B0446E8
:108430000CD1012343700023437103790133DBB274
:10844000032B037184BF40F20323838004F12C05C6
:10845000284602F0ADFAD8B16188284602F099FAB0
:1084600023795A002344D2B299792170032911D17A
:10847000B4F85E0004EB4203588304EB420220464A
:10848000938B0193538B009393895289FFF76CFF71
:1084900003B030BD0429F0D1B4F84A0004EB420324
:1084A000EAE7000070B50E460021C0E9041110494A
:1084B00081611049C16110490162082180F82410CE
:1084C0000E49044643F29250C4E90A014FF000619C
:1084D00021630B490868496804F1340503C509495B
:1084E000A360049BE163C4E90062E360204670BDC1
:1084F00000000C432549D6432549D6447800B400F2
:10850000CEE8010001030300F0B52DED028B90EDE4
:10851000088A002380F83C308BB0044600F1100537
:1085200018EE100A12F062FCB5EEC08AF1EE10FAF5
:108530002A4B4FF000024EDB12F0FAFA12F05EFF07
:108540000146284602F025FAA06894F8343084F8F1
:108550003030002184F8311084F83210303002F0CD
:1085600018FA2068FDF7E8FC94F83F307BB3E06828
:10857000FFF71DFE042240F202230DEB0201E0682A
:108580000193FFF7D6FD164B02AA03F1100617461A
:1085900018685968154603C50833B3422A46F7D10F
:1085A000104B06AA03F1100C1646186859681546B8
:1085B00003C5083363452A46F7D1E06808223946E7
:1085C000FFF7C4FDE06808223146FFF7CDFD0BB090
:1085D000BDEC028BF0BD12F0A9FAAFE70000E03F5E
:1085E000D6E80100E6E8010010B5B0F92E10044607
:1085F000B0F92C000FF00BFB07EE900AF8EEE77ACB
:1086000017EE900AC4ED067A12F0F0FB02460B4614
:1086100000200F4912F06CFD0E4B002212F03EFCC0
:1086200012F034FF94F82430E06107EE900AB1EEC6
:10863000007A27EE877A07EE903AF8EE677A84EDB3
:10864000087A67EE877AFCEEE77AC4ED0A7A10BD05
:1086500000004E4000408F402DE9F04103210446C8
:1086600001200FF0D4FA022100200FF0D0FA0321EC
:1086700001200FF0CCFA0025C6B24FF0010894F8A3
:108680003320EBB29A421CD9022E04EB03070CD123
:10869000B3EB520F4FEA520107D35B1A234493F80E
:1086A000343087F834300135E9E7DB0702D487F846
:1086B0003480F8E7062101200FF0A9FA87F834008A
:1086C000F1E7BDE8F081436893F8402010B5044617
:1086D00092B193F900300122022B80F83C200BD19B
:1086E000FFF782FF2046FFF7B7FF6068A16A416489
:1086F000BDE8104000F045BF10BD000038B52DEDBD
:10870000028B90ED088A044600F1100518EE100A5D
:1087100012F06CFBB5EEC08AF1EE10FA284B4FF068
:10872000000232DB12F004FA12F068FE014628461D
:1087300002F02FF994F8323094F8332094F82400A2
:108740000133DBB29A4284F832309CBF002384F8B4
:10875000323094F83210621892F8343084F83030A5
:1087600094F831300133DBB2984284F831309FBF46
:10877000012384F83C30002384F8313041B90323CD
:1087800084F83D3084F83E300EE012F0CFF9CBE7AC
:1087900092F83330052B0ED194F93D30042B0CBFE9
:1087A0000323042384F83D30BDEC028BE068BDE870
:1087B0003840FFF7FCBC042BF6D10323E2E700BFEF
:1087C0000000E03F90F83C3013B504460BB1FFF7D2
:1087D0009BFE606800F01DFF94F83F3043B1042217
:1087E00040F20223E06801930DEB0201FFF7A1FCC8
:1087F00004F1100002F0DCF810B12046FFF77EFF14
:1088000094F83030A0681BB9FEF788F802B010BDAC
:10881000022B0AD1D4ED077AFDEEE77A17EE903AF3
:108820009AB21146FEF7D5FAF0E7032B02D1FEF714
:1088300053FCEBE7052B0AD194F93D30042B0CBF18
:108840009FED0E0A9FED0E0AFEF753FEDEE7042BA6
:1088500009D194F93E30042B02D1FEF78BFBD5E70A
:10886000FEF7F4FAD2E7D4ED077AFDEEE77A17EED9
:10887000903A9AB21146FEF789FBC7E70000B4426E
:108880000000B4C22DE9F84300251E4600F120097E
:1088900001230446C0E90055C0E90255C0E904556A
:1088A0008846856183836421484617460CF04CFB5B
:1088B000194B2363B2EE080AF2EE070A1E2284ED7A
:1088C0000A0AC4ED0B0AA286494604F138000CF0EE
:1088D00095FC3223C4F88C3041F28833A4F8AC30D4
:1088E000089BE3600020099BC4F89400C4F898003A
:1088F000C4F89C00C4F8A000C4F8A400C4F8A80000
:10890000C4E92155C4E9008784F89050A66023612A
:108910002046BDE8F88300BF9A99394030B5044637
:1089200095B004F120054FF4FA700FF025FAD4ED5C
:108930000B0A94ED0A0AA28E294601A80CF05EFCEF
:108940004C2201A904F1380013F058F901A80CF0E9
:108950007DFC28460CF02AFC054620B90A490B4844
:108960000DF076F825770A4908480DF071F80021D6
:1089700084F88D10A4F88E1084F8901004F184000F
:1089800002F007F815B030BDF6E801001C420020E7
:108990002BE90100F0B504468BB0406800F04EFEB4
:1089A000237F23B9606801F015F80BB0F0BD637F39
:1089B00053B10023E0686377FFF7F9FBB4F8AC101C
:1089C00004F1140001F0E5FF042240F202230DEB54
:1089D0000201E0680193FFF7ACFB3F4B02AA03F1F1
:1089E0001006174618685968154603C50833B34280
:1089F0002A46F7D1394B06AA03F1100C164618681F
:108A00005968154603C5083363452A46F7D1E0681F
:108A100008223946FFF79AFBE06808223146FFF743
:108A2000A3FB94F88D30EBB194F88E30D3B194F869
:108A30008F30BBB194F89030A3B160686FF0010142
:108A400000F089FE23696068198F00F09AFD606864
:108A500000F007FE2069012100F016FD2068FDF7F7
:108A60006BFAA2E704F11405284601F0A1FF38B122
:108A7000E068FFF79CFBB4F8AC10284601F089FFD2
:108A800094ED297AD4ED0C7AA068B4EEE77AF1EE91
:108A900010FA02DDFEF7DAF987E7F1EE676AB4EE65
:108AA000E67AF1EE10FA02D5FEF768F97DE794ED6B
:108AB0002A7AF4EEC77AF1EE10FAEBD4F4EEC76A34
:108AC000F1EE10FA02DDFEF755FA6EE7FEF783F8D5
:108AD000A068FEF786FF68E75AE901006AE901002D
:108AE00038B500F138050446002128460CF096FC04
:108AF00028460CF0BBFC284684ED250A0CF0B9FC96
:108B0000284684ED260A0CF0B7FC284684ED270A97
:108B10000CF0B5FC284684ED280A0CF0B3FC28467E
:108B200084ED290A0CF0B1FC284684ED2A0A0CF0E9
:108B300059FC84F88D0028460CF05BFC84F88E000C
:108B400028460CF05DFC84F88F0028460CF05FFC92
:108B500084F8900038BD38B5037F0446CBB1436834
:108B600093F840300BB10123437704F1380004F14E
:108B700084050CF072FB284601F01AFF48B120462C
:108B8000FFF7AEFF94F88C102846BDE8384001F09E
:108B900000BF38BD2DE9F04100251E4601230446E3
:108BA0000375C0E90055C0E9025505611830174644
:108BB00088460CF06DFC04F164000CF069FC4FF485
:108BC000C873A4F8B0301E4BC4F8CC304FF07C52C0
:108BD000C4F8FC304FF4FA63C4F8D420A4F8103180
:108BE000184A069BC4F8DC20002041F28832E3607A
:108BF000079BC4F8BC00C4F8C000C4F8C400C4F8A3
:108C0000C800C4F8D000C4F8D800C4F8EC00C4F818
:108C1000F000C4F8F400C4F8F800C4F80001C4E996
:108C20002D55C4E93955C4E94255C4E90087A4F873
:108C3000E02084F80451A66023612046BDE8F0815D
:108C4000CDCC4C3E0000A04110B5B0F8E010044679
:108C5000E43001F09EFED4ED317A37EEE77AC4EDD0
:108C60003B7AC4ED3C7A77EEA77A84ED3E7AB6EE95
:108C7000007A67EE877A94ED3F7AC4ED3D7A67EE2D
:108C8000277A002384F80431C4ED407A10BD000037
:108C900090ED327AD0ED346AB5EEC07AF1EE10FA8A
:108CA000D4BFF1EE477AF0EE477AF4EEE76AF1EEE0
:108CB00010FA10B5044646D9D0ED366A9FED350A54
:108CC000F4EEE76ADFED347AF1EE10FA88BFB0EE29
:108CD000670A94BF01230023D4ED3E7A94ED406AE5
:108CE000F5EEC07AF1EE10FAD4BFF1EE676AF0EE5D
:108CF000676AB4EEE66AF1EE10FA2BD8F5EEC07AA8
:108D0000F1EE10FA23DD00293ED02046FFF79CFF4C
:108D1000B4F8101104F5847001F03BFE012384F8CF
:108D200004319FED1E0AA068FEF7F2FDA36893F8D8
:108D3000323323B904F5847001F03AFE10B10023F8
:108D400084F8043110BD9FED140A0123C4E701D556
:108D50000029DAD094F80421002AE2D1A0687BB17E
:108D6000B5EEC07AF1EE10FA04DD29B1BDE810408D
:108D7000FEF7B2B80029F9D0BDE81040FEF76CB993
:108D8000BDE81040FDF7FABFF5EEC07AF1EE10FA3B
:108D9000E0D5BAE76666663F9A99193F000034430A
:108DA00010B50446406800F071FC237D2BB12046CD
:108DB0000121BDE81040FFF76BBF10BD10B50446A0
:108DC000406800F077FC237D2BB120460021BDE8F0
:108DD0001040FFF75DBF10BD38B5084C0546702147
:108DE000204601F077FE0121A9402046C9B201F0DA
:108DF000C6FE2046BDE8384001F01DBF28360020E1
:108E000070B5044604F118060120FFF7E5FF21497B
:108E100030460CF0A8FB054620B91F491F480CF04E
:108E200017FE25751E491D480CF012FE3046002124
:108E30000CF077FB0122114630460CF05DFB04F18B
:108E400064060020FFF7C8FF124930460CF08BFB88
:108E5000054620B9134911480CF0FAFD2575124951
:108E60000E480CF0F5FD304600210CF05AFB0122B3
:108E7000114630460CF040FBB4F8B01004F1B400D9
:108E800001F087FDB4F8E01004F1E400BDE87040A3
:108E900001F07FBD283600207AE901001C42002045
:108EA000A6E90100CEE90100FBE9010038B5037D28
:108EB0000446002B69D000F1B405284601F078FD86
:108EC00090B3B4F8B010284601F063FD0120FFF71D
:108ED00083FF032104F118000CF016FD002084ED3F
:108EE0002F0AFFF779FF032104F164000CF00CFD59
:108EF000D4ED2F7A84ED300A37EEC07A30EE270AAF
:108F0000F6EE007A20EE270AD4ED337A84ED310AAA
:108F100067EE807A84ED327AC4ED347AD4ED357A16
:108F200027EE800A84ED360A04F1E405284601F0B4
:108F30003FFDF0B1B4F8E010284601F02AFDD4ED71
:108F40003C7A94ED317AC4ED3B7A77EE676A77EE3E
:108F5000877A84ED3C7AB6EE007A67EE877A94EDF4
:108F60003F7AC4ED3D7A67EE277AC4ED3E6AC4EDE0
:108F7000407A23695B7943B16068052100F0EBFB1F
:108F80002068BDE83840FCF7D7BF38BD70B5012573
:108F900005614FF4FA760F4D456186844FF07D559B
:108FA0000D4E85610025C0E90C65C0E90755C0E993
:108FB0000A55C0E91055856344F620664FF47A657A
:108FC0008360049B8687C0E90012A0F84850C36004
:108FD00070BD00BF000096427017030038B5114DF8
:108FE00004461121284601F075FDE17C284601F078
:108FF000C6FD284601F01FFE04F11C00002101F00F
:10900000C8FC04F12800002101F0C3FC04F1340085
:10901000002101F0BEFC04F140000021BDE8384011
:1090200001F0B7BC2836002038B5074C05461121A1
:10903000204601F04FFDE97C204601F0A0FD2046CE
:10904000BDE8384001F0F7BD2836002038B5084C9F
:10905000C57C1121204645F0400501F03BFD294625
:10906000204601F08CFD2046BDE8384001F0E3BD0C
:1090700028360020F0B504468BB0406800F02EFB87
:10908000237C002B50D0637C04F1400663B10023A5
:1090900063742046FFF7DAFFE068FFF788F8B4F85A
:1090A0004810304601F075FC042200230DEB02014C
:1090B000E0680193FFF73DF8214B02AA03F1100786
:1090C000944618685968154603C50833BB422A46BA
:1090D000F7D11C4B06AA03F1100E17461868596801
:1090E000154603C5083373452A46F7D16146E06843
:1090F0000822FFF72BF8E06808223946FFF734F81A
:10910000304601F055FC38B1E068FFF750F8B4F88C
:109110004810304601F03DFCA37CA068022B05D12D
:1091200094ED060AFDF7D8FE0BB0F0BD032B04D179
:1091300094ED060AFDF790FFF6E7FDF71FFEF3E753
:1091400024EA010034EA010038B501220446112165
:109150000648064D01F010FD044801F056FC20B110
:10916000284601F06BFDA074F6E738BD28360020D4
:1091700038B5037C0446002B47D000F11C05284677
:1091800001F016FC90B1A18C284601F002FC2046AB
:10919000FFF7DAFF2046FFF747FFA37C013B022BD6
:1091A0009EBF94F83330013384F83330636893F909
:1091B0000030042B2AD004F12805284601F0F8FBE2
:1091C00080B1218E284601F0E4FB94F8332094F816
:1091D00032309A4203D36068042100F0BCFA0023C5
:1091E00084F8333004F13405284601F0E1FB30B156
:1091F0002846A18F01F0CDFB2046FFF727FF6368CB
:1092000093F840300BB10123637438BD002384F818
:109210003330F4E770B541F65836868383600E4EDE
:10922000059B866240F201154FF4FA66C360049B09
:1092300005838685002547F230560361069B8576B7
:10924000C0E90855C0E90C55C0E90F55C0E9001246
:109250000687436170BD00BFF401F40110B5002121
:109260000446203001F095FB04F130000021BDE8F8
:10927000104001F08EBB037E10B504466BB143690C
:109280009B7953B140686FF0010100F064FA218FBF
:109290006068BDE8104000F074B910BD2DE9F041E0
:1092A00004468AB0406800F0DCF9637E04F13C05B6
:1092B00004F1200703B30026A0686676FDF72EFBB5
:1092C000A0683146303001F064FB6069FEF70CFFA6
:1092D0006369218FDE71284601F05BFB0123A18BBE
:1092E000A376384601F055FB04F13000A18D01F062
:1092F00050FB2069FEF75BFF042240F202230DEBD6
:10930000020120690193FEF714FF5C4B02AA03F1EE
:10931000100E944618685968164603C608337345FC
:109320003246F7D1564B06AA03F1100E9046186844
:109330005968164603C6083373453246F7D161466D
:1093400020690822FEF702FF206908224146FEF745
:109350000BFF384601F02CFB68B10123A18BA376EB
:10936000384601F016FB04F13000A18D01F011FB2D
:109370002069FEF71CFFA37E002B74D004F130009F
:1093800001F016FB002868D00023A3766069FEF781
:109390007BFE6069C27A037A9A423DD301266676E3
:1093A000FEF7A2FE63696421DE7100200EF02FFC3F
:1093B00040B25028CCBF314602212068FCF784FE21
:1093C0002068FCF7B9FD6068022100F0C4F9E36889
:1093D0006668D3ED087AB1EE007A67EE877AF5EE2B
:1093E000C07AF1EE10FA17EE900A40DB11F0FEFCA5
:1093F000244B002211F09CFB12F000F8014630468D
:1094000000F0BFF86368002283F84120E36801227E
:1094100083F83C2083F83F20284601F0C9FAC8B100
:10942000012560696576FEF75FFE63696421DD7181
:1094300000200EF0ECFB40B24B28D4BF032129469C
:109440002068FCF741FE2068FCF786FD606800217B
:1094500000F081F90AB0BDE8F081628D218DA0682D
:10946000FDF794FD92E7A068FDF758FA8EE711F03A
:10947000BDFC044B002211F059FBBDE744EA01009A
:1094800054EA01000000E03F43694176D97070471B
:109490002F4A034670B5002420F8024B1568C3F824
:1094A0000250958885809579857115466420C3F8AA
:1094B0000940587255F8070F1861A8799875192056
:1094C000D8752448C3F81A4098610F2018771046C1
:1094D000AE8850F80E5FC3F81E508588807983F8F7
:1094E000240010465D8450F8155FC3F82550858828
:1094F0008079DC609E82A3F8295083F82B0052F813
:109500001C0FD86290889279188683F8322041F631
:10951000583041F28832C3E90D0243F69822DA63EB
:1095200001220D48A3F8402083F85C204FF4FA7222
:10953000A3F85E204FF47A72C3E91204C3E914441D
:109540005C649C65A3F860205966184670BD00BF36
:1095500064EA01000514140F0000551510B56421CC
:10956000044600200EF053FB616B607004F14C0068
:1095700001F00FFA04F154000021BDE8104001F0A1
:1095800008BA41634C3001F004BA10B504464FF4F8
:109590007F02406E002102F0E9FA606E4FF47F0214
:1095A000032102F0E3FA606EBDE8104002F0DCB97E
:1095B00010B50446074A406E002102F0D7FA606EEB
:1095C000044A032102F0D2FA606EBDE8104002F0B6
:1095D000CBB900BF00FFFF0013B504460A46019156
:1095E000406E002102F0C2FA019A606E012102F081
:1095F000BDFA019A606E022102F0B8FA606E019A1B
:10960000032102F0B3FA606E02B0BDE8104002F030
:10961000ABB910B504464FF47F42406E002102F012
:10962000A5FA606E4FF47F42032102F09FFA606E4C
:10963000BDE8104002F098B9FFF7A7BF10B5044687
:109640004FF0FF12406E002102F090FA606E4FF072
:10965000FF12032102F08AFA606EBDE8104002F0AA
:1096600083B910B504464FF6FF72406E002102F038
:109670007DFA606E4FF6FF72032102F077FA606E9A
:10968000BDE8104002F070B9FFF7C3BF10B5044643
:109690006FF07F42406E002102F068FA606E6FF05A
:1096A0007F42032102F062FA606EBDE8104002F0D2
:1096B0005BB9000010B50446074A406E002102F075
:1096C00055FA606E044A032102F050FA606EBDE85C
:1096D000104002F049B900BF5555550010B5044679
:1096E000FF22406E002102F041FA606EFF2203214A
:1096F00002F03CFA606EBDE8104002F035B938B5B2
:1097000000F154050446284601F052F950B1B4F86E
:109710005E10284601F03DF994F85C3083F00103B7
:1097200084F85C3094F85C10606E71B14FF47F0285
:10973000002102F01BFAFF22606E032102F016FAEC
:10974000606EBDE8384002F00FB9FF2202F00EFA59
:109750004FF47F02F0E790F900308B4210B50446D9
:1097600063D0012380F840300170D0E90E010EF083
:109770004EFA94F9003007330E2B4FD8DFE803F090
:10978000084E4E4747401D50151724392B324B00C9
:1097900047F2305363632046FFF7B1FF616B04F17A
:1097A0004C00BDE8104001F0F4B86063F6E7636C6C
:1097B00063632046FFF72DFFF0E7B4F8483063639A
:1097C0002046FFF7E2FEE9E744F6206363632046A4
:1097D000FFF734FFE2E744F6206363632046FFF7B8
:1097E00055FFDBE744F6206363632046FFF762FF23
:1097F000D4E744F6206363632046FFF76FFFCDE7AD
:1098000044F6206363632046FFF72BFFC6E74EF65E
:1098100060236363C2E744F62063FAE70023237002
:1098200060632046FFF7C4FEB8E710BD10B5002204
:1098300004461146406E02F099F9606E0022032141
:1098400002F094F9606EBDE8104002F08DB838B5B2
:1098500000F154050446284601F0AAF850B1B4F8C6
:109860005E10284601F095F894F85C3083F001030F
:1098700084F85C3094F85C3083B1606E4FF47F0202
:10988000002102F073F9606E4FF47F02032102F0B1
:109890006DF9606EBDE8384002F066B82046BDE85C
:1098A0003840FFF7C3BF2DE9F843D0F864909DF826
:1098B000247005464FF00C080C4610049DF820104B
:1098C0009DF82820B0FBF8F080B21E4602F07EF929
:1098D00002F0D8F900210246484602F047F9240474
:1098E0003A463146B4FBF8F4A0B2D5F8649002F0E1
:1098F0006DF902F0C7F903210246484602F036F935
:10990000686EBDE8F84302F02FB810B56421044634
:1099100000200EF07CF9002340B2984284F84130D8
:10992000607094F902300CDB83420EDD002120468A
:10993000FFF711FF616B04F14C00BDE8104001F02E
:1099400028B8834294F9031005DC94F9033083426C
:1099500005DD0121EBE7884294F9042008DB94F946
:109960000430834208DD012384F841300221DEE720
:10997000904294F9053005DB94F90530834205DD0A
:109980000321D4E7984294F9062005DB94F90630C8
:10999000834205DD0421CAE7904294F9073005DBD4
:1099A00094F90730834203DD0521C0E79842BDDB0F
:1099B00094F908308342B9DD0621B8E710B50446B2
:1099C0004C3000F0F5FF20B12046BDE81040FFF715
:1099D0009CBF10BDFFF799BF10B54A1E023006317B
:1099E000002412F9013F23448A4200F8013B1CB2D3
:1099F000F7D110BD052904D8DFE801F01303070AE9
:109A00000D1000F11001FFF7E7BF00F11701FAE7B1
:109A100000F11E01F7E700F12501F4E700F12C0148
:109A2000F1E700F10901EEE710B507EE901A2DED10
:109A3000028BF8EE677A9FED218A9FED217A78EE0E
:109A4000677A00F15404C7EE278A204600F0A9FF88
:109A500007EE900AF8EE677AB0EE487AA7EEA87A99
:109A60002046B4EEC87AF1EE10FA15DB00F099FF4B
:109A700007EE900AF8EE677AA7EEA88A18EE100AA9
:109A800011F0B4F90F4B002211F052F811F0B6FCAE
:109A9000BDEC028BC0B210BD00F083FF07EE900A50
:109AA000F8EE677AA7EEA88A18EE100A11F09EF970
:109AB000044B002211F03AF8E8E700BF0000000074
:109AC00000007FC30000E03F37B500F154050446B5
:109AD0002846019100F06CFF019918B1284600F06A
