:1040000000000320757B0100617B0100617B0100E2
:10401000617B0100617B0100617B01000000000009
:10402000000000000000000000000000617B0100B3
:10403000617B010000000000617B0100F57B010055
:10404000617B0100617B0100617B0100617B0100FC
:10405000617B0100617B0100617B0100617B0100EC
:10406000617B0100617B0100617B0100617B0100DC
:10407000B97A0100BF7A0100C57A0100CB7A01004C
:10408000D17A0100D77A0100DD7A0100E37A0100DC
:10409000E97A0100EF7A0100F57A0100FB7A01006C
:1040A000017B0100077B01000D7B0100137B0100F8
:1040B000617B0100617B0100617B010079BC000034
:1040C00079BC000079BC000079BC000079BC00001C
:1040D000617B0100617B0100617B0100617B01006C
:1040E000617B0100617B0100617B0100617B01005C
:1040F00000000000617B0100617B0100617B010029
:10410000617B0100617B0100617B0100617B01003B
:10411000617B0100617B0100617B0100617B01002B
:10412000617B0100617B01009D580100A9580100DD
:10413000AD580100B1580100617B0100617B0100B5
:10414000617B0100617B010045AC000051AC0000C7
:1041500055AC000059AC0000617B0100617B01009F
:10416000617B0100617B0100617B0100617B0100DB
:10417000617B0100617B0100617B0100617B0100CB
:10418000657B0100077C01000B7C01000F7C0100B6
:10419000617B0100617B0100617B0100617B0100AB
:1041A000617B0100617B0100617B0100617B01009B
:1041B000617B0100617B0100617B0100617B01008B
:1041C000617B0100617B0100617B0100617B01007B
:1041D000617B0100617B0100617B0100617B01006B
:1041E000617B0100617B0100617B0100F9630100DB
:1041F000C5F3000000000000617B0100617B01004D
:10420000617B0100617B0100617B0100617B01003A
:10421000617B0100617B0100617B0100617B01002A
:10422000617B0100617B0100617B0100617B01001A
:10423000617B0100617B0100617B0100617B01000A
:10424000617B0100617B0100617B0100617B0100FA
:10425000617B0100617B0100617B0100617B0100EA
:10426000617B010010B5054C237833B9044B13B1C1
:104270000448AFF300800123237010BD60090020C3
:10428000000000008C08020008B5034B1BB1034975
:104290000348AFF3008008BD00000000640900205F
:1042A0008C080200014801F052BA00BFA02900208A
:1042B000014801F04CBA00BF602A0020014801F01B
:1042C0005EBA00BFA0290020014801F058BA00BF23
:1042D000602A002010B50446383010F04BFF20460D
:1042E00010BD00230022C26002614261C0E90033B8
:1042F000C0E906330372038480F8223000F1230200
:104300002D3002F8013B8242FBD1704738B50C4694
:10431000054613F085FC20606B685B7823716B6841
:1043200093F907306371AB6893F90030A371EB68C0
:1043300093F91630E371EB6893F917302372EB6849
:104340009B6FE360EB68DB68D3E9200117F032F87C
:104350002061EB68DB68D3E9200117F02BF860617E
:10436000EB68DB681B68A361EB681B691B68E36192
:1043700038BD000038B54FF4E1315D485D4D5E4C0D
:1043800012F0FEF85D4806F0EDFA4FF4FA6013F013
:1043900087FC574811F0E8FA5949554811F0ECFAF2
:1043A0005849534811F0E8FA0F2013F0ADFE13F00E
:1043B000B3FB554807F066F9534807F04DFA5348E8
:1043C00004F0B2FC524801F091FD284605F05AF87D
:1043D000504801F0ADFF504800F0C0FF4F4803F0D7
:1043E0008DFD4F4803F0FCFC4E4803F056FF4E484D
:1043F00001F094FA4D4803F087FA04F12000FFF72A
:1044000070FF04F120012046FFF780FFB4F866102A
:1044100004F1680008F040F82368454803F5A1530B
:104420000C33A36104F00EFA4248394C04F0AAFEA2
:10443000414805F0C3FB414805F0E0FD404805F068
:104440000FFB40483E23C37404F05CFD3E4B3F48E5
:104450009B6A6B643E4B00211B8DA5F8483008F029
:104460001BF83C48002108F017F83B4B3B48196803
:1044700008F012F802221046394913F025FA39499A
:104480000222042013F020FA37490222032013F0FD
:104490001BFA36490222052013F016FA344B1B781A
:1044A00023B1344B2046197801F00AFD324B1B78BA
:1044B0002BB1324B0F4893F9001005F0E0F8304B68
:1044C0001B782BB12F4B134893F9001002F093FA8D
:1044D0006178084805F022FA124B054800221A714B
:1044E00011F042FABDE838402749044806F05ABAAC
:1044F0001C420020043400206430002028360020B4
:10450000A8E50100B4E50100202B00206032002066
:10451000582B0020102C00203C150020DC300020FF
:104520004830002048310020800900200830002059
:10453000B0310020C03300209434002038350020F2
:104540006C340020743300207031002034150020BA
:10455000F83500202C15002008000020241500202C
:10456000A5420000C9420000BD420000B142000067
:104570000400002006000020050000202215002075
:104580002115002007000020801A060013B50B4CEF
:104590000B4804F08EFF204600F002FFA37C43B1DD
:1045A000042240F20223074801930DEB020103F0BD
:1045B000BCFC024800F0FCFE02B010BD3C1500201F
:1045C00004340020DC300020F0B53E4C3E488BB077
:1045D00004F06FFF204600F0D5FF3C4801F081FF5A
:1045E0003A4802F097F80023A37441F2F533E35CF4
:1045F0008BB301233648A37403F0D5FC042240F2A8
:1046000002230DEB02013248019303F08EFC314B83
:1046100002AA03F11007164618685968154603C523
:104620000833BB422A46F7D108223146284803F016
:1046300089FC294B06AA03F1100716461868596829
:10464000154603C50833BB422A46F7D12048082245
:10465000314603F085FC1C4D2A78053A012A02D820
:104660001E4804F085FA95F90030072B13D11C4D34
:10467000AB7D022B0FD1284605F0C1FC1148B5F9DE
:10468000966000F037FF032806BF714209B2314639
:10469000284605F0BDFC0B4800F082FEA38A1148B5
:1046A000013390F822209BB29342A38208D30023C7
:1046B000A38206F0FDF804484FF0FF3104F0DFFF5D
:1046C0000BB0F0BD3C15002004340020102C00205D
:1046D000DC300020D4E50100E4E501006032002078
:1046E00038350020F83500202DE9FF47C04BDFF8B2
:1046F000A483C04DC04F0026C3E90066BF4BC3E989
:104700000066BF4B0622C3E90066042152234046DF
:1047100006F000FFBB4ABC49404613F029FF602168
:10472000BA4806F023FB03220221B94800F088FFB3
:1047300005220421B74800F083FFB64BB44AB349C1
:10474000B54801F049FC40F201104FF48033C5E94F
:1047500000034CF60A632B813223AB7242F6E0640D
:1047600042F21073C5E9054349F64043EB613B79DA
:1047700085F824303B46386833F8052FA5F8252006
:104780009B7885F827303B4607F1100C33F8082F4B
:104790002A859B7885F82A303B46286253F80B2FF0
:1047A000C5F82B201B7985F82F30BCE80F0005F1E8
:1047B0003004C5E903660FC4DCF8003023604146CD
:1047C0009648C5F84480964C04F0F6FD924B934A07
:1047D0009448294600F068FC4FF4A013236040F28F
:1047E0000B236381904BA680C4E90333C4F80660B1
:1047F0002683636104F11A0207F124032E4634373D
:1048000053F8041B42F8041BBB42F9D1874B636485
:104810004FF47A73A4F84A30854BE3641923A4F863
:1048200052304FF4FA63A4F85E30824BDFF86882AE
:104830002366814B636600254FF001094FF48373B3
:10484000C4E90B55C4E90D55C4E90F55C4E9155524
:1048500084F8489084F8509084F85C90A4F868300C
:10486000082140460AF0BDFC744F754BA8F8029031
:104870004FF08072C8E901233846724B00F8019B63
:104880004FF00A11C8E90313C8E905550AF0A2FD63
:104890003223FB804FF05A133B611E23FB824FF4FF
:1048A000C8733B83684B3D71C7E90255C7E907559B
:1048B00087F814907B62654F654AA7F800900A2339
:1048C000BB703B8100237B61BB61FB61C7E9035582
:1048D0007A606049604ADFF8C491DFF848A107F1C7
:1048E00020000FF09DFF5D4907F148000FF0E4FE46
:1048F0005B4B3B6707F50B600BF044F9414A5949A4
:10490000384613F035FE3B46424A4149484602F0DC
:10491000DFFF554B37499D61C3E900A6C3E91A552E
:104920003D4E83F86450C3E91C55C3F814903B4DC9
:10493000DFF86C919D6040F201129A836522C3E911
:104940000367A3F86620484633462A46009403F0DE
:104950003DFD464F2749009433462A46444805F01A
:10496000ADFE33462A4623490094424805F00AFF2B
:1049700033462A46CDE901981E490094384604F092
:10498000DDFB33462A46CDE900471A493A4803F091
:104990000DFF1C4A3949384813F0EAFD33462A46D0
:1049A000CDE900481349364804F088F833462A46D2
:1049B00010490094334804F07DFA2B465146CDE966
:1049C00001480C4A0096304805F07EF82B465146C7
:1049D000CDE90064074A2D4805F0A6FA0094334655
:1049E0002A4651462A4805F027F804B0BDE8F0876A
:1049F00034150020582B0020F4E501002C15002070
:104A0000241500200000002035B50000A02B002058
:104A1000A0290020602A0020102C0020043400204F
:104A2000DC3000203C1500200B020B0201000001CD
:104A30007B00F70006017B0004568EBD4831002044
:104A4000030205005A0088130400A00F800900200B
:104A50000000C8420A7008000B7008002C002100FA
:104A600040F90100B94D000064300020C03300203F
:104A7000D8350020F8350020B0310020D5420000A4
:104A80006032002074330020943400203835002038
:104A90006C340020202B00204830002008300020FB
:104AA000703100202DE9FF41A34C13F0BFF82046E0
:104AB00001F02EFAA379A3B1002361789F48A37176
:104AC00004F02CFF63789E48234493F92B1001F0E7
:104AD000F5FC63789A4804EB830393ED0C0A02F02B
:104AE000F2FE984B1B7823B1974B9348197801F04D
:104AF000E7F9924D284604F0F5FE95F840301BB1D9
:104B000061788D4801F0BDF9904B1B784BB1904B0B
:104B100093F9001095F900308B4202D0874804F0D9
:104B2000AEFD8C4F3B7813B18B4B00221A7313F000
:104B30007DF88948894E00F073FC13F077F88848B7
:104B400003F06EFB874803F077F9874803F00AFC0F
:104B5000864800F021FF864800F02AFE854800F0D4
:104B600027FE854802F0E8FE337F0BB306F16800AC
:104B700007F0A1FCE0B1B6F8661006F1680007F096
:104B80008BFC002106F1700007F086FC06F1200185
:104B90003046FFF7BBFB7948092105F013FF774842
:104BA000442206F1200105F088FE744805F0BBFFA1
:104BB000734803F01CFD734803F061FF724804F072
:104BC00009F9724804F068FA714804F0E8FA71488B
:104BD00004F04AFF704805F033F8704805F0C3FD53
:104BE00000236F4885F8403007F065FC20B16D4B1D
:104BF0006B48198807F050FC59485B4E4FF000088D
:104C0000042203A9CDF80C8003F08FF995F9003048
:104C100086F80480D81D04D0012B19D15F4805F017
:104C20005DFD6378022B0AD10323337106230093C1
:104C30004D484FF47A631E22C82103F0BEFB95F95C
:104C40000030012B04BF0023337104B0BDE8F081B4
:104C5000191D03D14F4804F01CFFE2E7DA1C03D111
:104C60004D4805F00DF8DCE7023303D1484804F065
:104C7000A9FAD6E7384800F09EFB20B13B7813B97B
:104C8000FFF784FCCDE7344B5B7B0BB13B7883B102
:104C900095F90030022B0FD195F841302BB1384AED
:104CA000002385F8413082F83F30354803F01EFD7F
:104CB000B7E7FFF789FCB4E7032B03D1314803F0D2
:104CC000FDFDAEE7052B03D12F4803F0FDFFA8E75C
:104CD000062B03D12C4804F005F8A2E7042B03D1DE
:104CE0002A4804F05BF99CE7072B03D12E4805F016
:104CF00085FC96E701330AD12C4890F821301BB18E
:104D00000E4804F0FBFD8CE705F05AFD89E70B48DF
:104D100004F0E2FB264B1B784BB1264B084893F975
:104D2000001001F068FE064802F057FD79E70448DC
:104D300001F04DFEF7E700BF582B0020043400209F
:104D4000102C002004000020060000200500002098
:104D500022150020201500203C1500206430002082
:104D6000DC3000204830002048310020800900203D
:104D7000A0290020602A00200830002028360020CA
:104D800070310020B03100206032002074330020E8
:104D9000C03300206C34002094340020D83500202B
:104DA0002C1500200C00002038350020F83500209C
:104DB000211500200700002010B5044648300FF0F0
:104DC00045FB04F120000FF0ADFC204610BD7047FC
:104DD000012906D801448B79002B0CBF0020032049
:104DE000704700207047002343718371C37170477F
:104DF000037870B50446002B2DD01748164E0122BB
:104E0000092105F031FE0025304605F075FD20B181
:104E1000304605F08BFEC5B2F6E7A3782571234432
:104E20001A7AAA4304BF01229A71E37823441A7ABA
:104E3000AA4304BF01229A71A3790BB101236371C4
:104E4000E3792BB101236371A37A0133A37202E0EA
:104E50006379002BF8D170BD2836002001607047BF
:104E600010B503790446006843B994ED030A02F0D3
:104E70002BFA002801DD0123237110BD012B07D17E
:104E800094ED020A02F031FA0028F6DD0223F3E77E
:104E9000BDE8104001F03EBC007901288CBF002025
:104EA0000120704708B50221002012F044FEC0B274
:104EB0000128FFEE007AB7EE000A18BFB0EE670ACD
:104EC00008BD00000000000038B52DED028B0B7806
:104ED000032B04460D4608D1002303718369C36088
:104EE000D4ED057AF1EE677A4FE04B78032B08D1C9
:104EF000002303718369C36043698360BDEC028B47
:104F000038BD8B79012B12D9032B0BBF0023012352
:104F1000237123710CBFA3690023E360FFF7C2FF75
:104F2000D4ED057A27EE800A84ED020AE6E7CB7815
:104F3000012B34D9032B90ED048A29D1002303716E
:104F4000806915F0E7FE36A3D3E9002315F03AFF98
:104F500016F030FAFFEE047A28EE278AE06084ED3E
:104F6000028A2B79012B4CD92046FFF79BFF2D217C
:104F70000020B0EE408A12F0DEFD07EE900AB8EE97
:104F8000E77ADFED297AE8EE077AC4ED027AB5E731
:104F9000012303710023C360B1EE488ADFE70B7978
:104FA000012B33D9032B90ED048A25D10023037103
:104FB000806915F0AFFE1AA3D3E9002315F002FFB4
:104FC00016F0F8F9F7EE047A28EE278AE06084ED0F
:104FD000028AEB78012B14D92046FFF763FF2D21BD
:104FE0000020B0EE408A12F0A6FD07EE900AB8EE5F
:104FF000E77ADFED0E7AC6E7012303710023C36071
:10500000E5E7AB78012B3FF66BAF77E78B78012BA9
:105010003FF67AAF4B79012B3FF676AF6EE700BFD4
:105020009A9999999999E93F000034C30000344353
:1050300010B50446FFF748FFD4ED027AF5EEC07ACA
:10504000F1EE10FACCBF0320042010BDF8B50546E0
:1050500040F2011325F8043B04460F461646002192
:105060004FF4E872284616F06FFD00236422C4E96D
:10507000783323710435A4F8D42184F8DA314FF65B
:10508000FF72A4F8DC3184F8DE31064BC4F86C51B1
:10509000A4F8D821C4F8E83184F8D67184F8DB612B
:1050A0002046F8BD2800D0072DE9F04F1E465023BA
:1050B00003829F4B036283629E4BC3629E4B0363DA
:1050C0009E4B436389B003F5A0138363CDE90512BA
:1050D0009B4B9C494162F0210025C0E90F1301223E
:1050E00003278C330446828107774364C0E9005567
:1050F00085608573857485828561934B9348C4E987
:105100001203934B23657823A4F8543004F134033D
:10511000049304F15803312118460793FFF796FFD3
:1051200004F511732A46302118460093FFF78EFFCD
:1051300004F586630222322118460193FFF786FFA9
:1051400004F21C633A46332118460293FFF77EFFB0
:1051500004F6080318460422342104F6F41B0393D2
:1051600004F53E6AFFF772FF052235215846FFF726
:105170006DFF04F6CC59062236215046FFF766FF34
:1051800004F6B878072237214846FFF75FFF082268
:1051900038214046FFF75AFF049B03F58B57103721
:1051A000092239213846FFF751FF41F29032079B1F
:1051B000A35041F29433009AE25041F29833019A9D
:1051C000E25041F29C33029AE25004F59D53039A57
:1051D0001A6041F2A43341F2A83044F803B041F21E
:1051E000AC3344F800A044F8039041F2B033B4F972
:1051F0003A2044F8038041F2B433E75041F2B83327
:10520000E118B4F93870E7524A8041F2BC316318B2
:10521000B4F93CC067525A80A3F804C041F2C233CB
:10522000E218B4F94410B4F84670E752518041F2E4
:10523000C632A318B4F94AC0B4F94C70B4F9481096
:10524000B4F84EE024F802E0A3F802C09F80D980B1
:1052500041F2CE33B4F84070B4F94210E752E2188C
:105260003C4F518041F2D23162183B6863507B68F9
:1052700053603B891381049B184407F028F941F2DD
:10528000E4333322E25241F2E833E218E55055604C
:1052900041F2F0323049A150A31841F2F4323146C4
:1052A000A5527A891A810D22DA72DD809D7241F24F
:1052B0000A433222E25241F20C43E218E55041F235
:1052C000144355604FF4FA72E25241F21843E21867
:1052D000E55004F5A153556065221A8041F224433C
:1052E000E218E55004F5A15355600022DA631A6410
:1052F00083F83850059B2360069B04F11800C4E92D
:105300000136FFF7ABFD04F59F5304F5A0521C33A3
:10531000063203F8015B9342FBD141F2064320467B
:10532000E55241F20843E55409B0BDE8F08F00BFF3
:10533000000034420000B442000034C35000640056
:105340005000B40000003443A0004600AA005A00F8
:10535000D007140028E601000101000110B5044641
:1053600000F5A1500021043007F096F804F5A05094
:105370000021183007F090F804F1340000F082FBAF
:1053800004F59F501030BDE81040FFF720BD08B570
:105390000921343000F0FCFB003818BF012008BDA3
:1053A00000234373837300F59F501030FFF71BBD3C
:1053B0001830FFF755BD1830FFF76EBD2DE9F041ED
:1053C000002500F5A05600F59F57044645738573E8
:1053D000063610374FF00108E9B23846FFF7F8FCFF
:1053E0000135022806F8010B88BF84F80E80032DD2
:1053F000F2D104F59F561C36002504F1340801272C
:10540000E9B2404600F0C4FB06F8010B18B10128D0
:10541000A77388BF677301350A2DF1D1BDE8F0810C
:10542000436893F8403070B504460BB10123037311
:1054300004F5A15504F13400043500F085FB28463D
:1054400007F039F8C8B104F5A153284604F59F5573
:10545000B3F90010103507F01FF82846FFF7C8FC15
:1054600095F90A2095F90B309A4206DB206800F086
:105470006FFC41F2FA330022E25404F5A0560C36D8
:10548000304607F018F804F5A055183510B341F26E
:105490000A433046E15A06F0FFFF2046FFF78EFF31
:1054A000A37B2BB9284607F006F898B100210AE043
:1054B000284607F000F850B141F214432846E15A5B
:1054C00006F0EAFF0121A06802F0F1F902E0A37BF7
:1054D000002BE7D0284606F0EEFF18B9A06801219E
:1054E00002F0E5F9237B23B92046BDE87040FFF7C1
:1054F00057BF70BD10B50446FFF760FF04F59F511C
:1055000004F118001C31BDE81040FFF791BD2DE9F2
:10551000F04100F59F551C35044629461830FFF729
:10552000D3FC04F5A15704F59F580C37002608F169
:105530001008F1B24046FFF74BFC0136032E07F886
:10554000010BF6D104F59C5204F5A15304F5A050CB
:10555000294610321A33063011F8015B81F83250B7
:1055600052F8045BB5F9D86123F8026B814295F8D3
:10557000DE5181F85150EFD141F25843227FE2547D
:10558000BDE8F08110B50446FFF718FF2046BDE8DE
:105590001040FFF7BCBF00290ADBB0F900308B4296
:1055A00008DAB0F902008842ACBF02200020704740
:1055B000002070470320704700290EDBB0F900304F
:1055C0008B420CDAB0F902308B420ADAB0F90400EF
:1055D0008842B4BF0020012070470020704703209C
:1055E00070470220704700290ADBB0F900308B4277
:1055F00008DDB0F902008842D4BF032000207047C4
:105600000020704702207047002912DBB0F90430F7
:105610008B4212DDB0F900308B420CDAB0F9023067
:105620008B420ADAB0F906008842D4BF032000207A
:105630007047002070470320704702207047000029
:105640004FF47F432DE9F0478380FF2383712C4B78
:1056500090460022C0E9042323A3D3E90023C0E934
:105660000623284B0022C0E90823274B0022C0E96B
:105670000A23264B0022C0E90C231DA3D3E90023F3
:10568000C0E90E23224B0025C0E910350A23044649
:1056900080F848301F4BC36400260027C0E902553C
:1056A0009FED150B89465030052100F0CFF8E06CD6
:1056B000B4F842A0C4E91E67C4E9206715F02AFBCC
:1056C00041EC100B514604F1880000F0BFF8C4E92A
:1056D0002C67C4E92E6784F8059084F8068025605D
:1056E0002046BDE8F08700BF46EAFF9EDB8F67409B
:1056F000E0F09C762F1BD43F000000A09999B93FA1
:1057000000004E40000049400000284000C0824098
:105710000A000500CDCCCC3D10B50446002190F91F
:10572000050012F097FD94F90600002112F092FD99
:1057300004F10800002106F0AFFE04F1500000F073
:1057400093F804F18800BDE8104000F08DB838B53A
:10575000044690F9050012F0EBFD054694F90600A9
:1057600012F0E6FD2368854215BF013303F1FF33D4
:105770002360236014BF00230123237138BD38B593
:10578000044690F9050012F0D3FD054694F9060091
:1057900012F0CEFD236885420BBF013303F1FF33C6
:1057A000236023600CBF00230123237138BD000058
:1057B0002DE9F84300F108050446284606F07BFE73
:1057C00000283ED0284606F06FFE15F081FA1E4BE9
:1057D000002215F021FC06460F462846B4F840107A
:1057E00006F05AFE2068656C401B15F081FAD4E97A
:1057F0000E2315F0E7FA80462068401B894615F015
:1058000077FA32463B4615F007FCC4E92C0141EC1F
:10581000100B04F1880000F02BF83B4684ED2E0BB2
:1058200032464046494615F0F7FBC4E91E0141ECFB
:10583000100B04F1500000F01BF884ED200B2368DE
:105840006364BDE8F88300BF00408F4030B500229C
:1058500000240025C0E90022C0E90645C0E908454A
:1058600080ED040B018130BD002106F015BE000063
:105870002DE9F04757EC106B824606F01CFE10B382
:10588000DAE90489124942464B46002015F0E2F855
:10589000DAE9062315F096FA324604460D463B46F1
:1058A0004046494615F08EFA02460B4620462946E8
:1058B00015F0D2F8CAE90801CAE90601BAF80810D9
:1058C000504606F0E9FD9AED080BBDE8F08700BFF1
:1058D0000000F03FF8B500F1200604460E4A1F21F3
:1058E00030460FF099FA10B900252846F8BD04F1AA
:1058F0004807094A212138460EF0E6FE05460028F1
:10590000F2D030460FF067F9C4E9190730460FF0BE
:1059100064F9E066E9E700BF2836002038B50022C8
:1059200000F50B650446114628460AF045F9D0B942
:105930001349144810F020F82046FFF7CBFF054626
:10594000C8B911490F4810F017F8257004F170001C
:1059500094ED010A0DF07CFA04F10C000021BDE881
:10596000384006F099BD28460AF0CCFD08B9074931
:10597000DFE70749DDE7074902480FF0FDFFE5E7EC
:1059800034E601001C4200209DE6010056E60100BD
:1059900078E60100BDE601000378F7B50446002B68
:1059A0006CD000F10C05284606F085FD002865D076
:1059B0002846B4F9081006F06FFD606E036804F520
:1059C00033673946DB689847A06E036804F654369F
:1059D0003146DB689847E06E036804F67831DB688F
:1059E000019104F50B6598470199284609F02EFEB0
:1059F0003946284609F02AFE04F53767314628461D
:105A000009F024FE97ED001ADFED1D7A04F66C37DD
:105A1000D7ED000A04F6683797ED000A04F648321D
:105A200004F6443304F68C3004F64C3104F6943614
:105A300004F5396590ED003A92ED002AD3ED001A95
:105A400096ED004AD5ED003AD1ED002A21EE271A55
:105A500060EEA70A20EE270A04F170000DF0D0FBDB
:105A6000636FA361A36FE361E36F636163785A1CA3
:105A70006270A2789A429CBF0023637003B0F0BDAD
:105A8000E02E654270B5044604F59D5500F59D5025
:105A900000211430083506F0FFFC274A2121284652
:105AA00006F018FD20B9254925480FF06FFFFEE7E5
:105AB000244923480FF06AFF0026F1B2012228464C
:105AC000013606F038FD082EF7D10026F1B200228B
:105AD0002846013606F015FD082EF7D1608812F031
:105AE000DFF80026F1B201222846013606F009FD52
:105AF000082EF7D1608812F0D3F80026F1B2002208
:105B00002846013606F0FDFC082EF7D1608812F019
:105B1000C7F804F59A541C340026072EF1B203D8B6
:105B20000122284606F0EDFC54F8040B013600F083
:105B300077F80A2EF1D170BD28360020D7E6010093
:105B40001C420020FAE6010070B500F59D551435A1
:105B50000446284606F0AFFC064628B141F2B033B1
:105B60002846E15A06F098FC04F59A5504F59C5431
:105B70001C35043455F8040B037833B10EB100F032
:105B800087F855F8040C00F092F8A542F2D170BDE8
:105B9000421841F29E33D35C042B3FD8DFE803F078
:105BA000030F1B26320001F2D64100EB810100F504
:105BB0009C504B68B3F9D8110430FFF7ECBC01F2EC
:105BC000D64100EB810100F59C504B680830B3F9D9
:105BD000D811FFF7F1BC01F2D64100EB810100F5CD
:105BE0009C504B680E30B3F9D811E6E701F2D6416C
:105BF00000EB810100F59C504B681230B3F9D811CD
:105C0000FFF702BD01F2D64100EB810100F59C5087
:105C10004B681A30B3F9D811FFF7E5BC0020704784
:105C200037B50446B0F8D40112F03AF80022144B0C
:105C300094F8D6110092201D06F0BAFD054688B9E9
:105C4000104911480FF085FE94F8DB110E480A2226
:105C50000FF0E7FE2570B4F8D40103B0BDE8304082
:105C600012F01EB8094908480FF073FE94F8DB11D2
:105C700005480A220FF0D5FE01232370EBE700BF91
:105C8000283600201FE701001C42002040E70100E9
:105C9000037810B504464BB1043006F081FC11F0D6
:105CA000BFFF0023C4F8E00184F8DD3110BD0378A4
:105CB00070B5044613B90025284670BD061D304650
:105CC00006F082FC05460028F5D094F8DD31002B63
:105CD000F1D184F8DC31304606F05FFC84F8DE0157
:105CE000304606F087FC012384F8DD3194F8DC317E
:105CF000A4F8D8011BB14FF6FF73A4F8D83194F97A
:105D0000DE311BB14FF6FF73A4F8D831B4F9E83196
:105D1000B4F9D8219A42DCBF4FF6FF73A4F8D8310A
:105D200011F07EFFD4F8E031C01AC4F8E401C3E7F3
:105D300090F9083090F907201A4490F909309342FD
:105D400004DC90F90A309342A8BF1346C371704730
:105D500090F9083090F90720D21A90F9093093424F
:105D600004DC90F90A309342A8BF1346C371704710
:105D700013B5C279333AD2B20446130243EA02425F
:105D8000406C0192012105F069FE606C019A0221CC
:105D900005F064FE606C02B0BDE8104005F05CBD2B
:105DA00013B5C279333A0446D2B21202406C019262
:105DB000012105F053FE606C019A022105F04EFEB0
:105DC000606C02B0BDE8104005F046BD13B5C27965
:105DD000333A0446D2B21204406C0192012105F01C
:105DE0003DFE606C019A022105F038FE606C02B045
:105DF000BDE8104005F030BD13B5C2790446333A12
:105E0000D2B2406C0192012105F028FE606C019A2B
:105E1000022105F023FE606C02B0BDE8104005F0E1
:105E20001BBD13B5C279333A0446D2B242EA02220C
:105E3000406C0192012105F011FE606C019A022173
:105E400005F00CFE606C02B0BDE8104005F004BD2A
:105E500013B5C279333AD2B21302044643EA02437D
:105E60001A43406C0192012105F0F8FD606C019A23
:105E7000022105F0F3FD606C02B0BDE8104005F0B2
:105E8000EBBC052904D8DFE801F01703070B0F135B
:105E900001234370FFF76CBF02234370FFF780BFFD
:105EA00003234370FFF7A8BF04234370FFF78EBF9F
:105EB00005234370FFF7B5BF00234370FFF7C8BF4A
:105EC00043788B4210B504460FD0FFF7DAFF012369
:105ED000D4E90601A37111F02EFE6061014604F1C0
:105EE0000C00BDE8104006F0D7BA10BD10B5642113
:105EF0000446002011F01FFE012160802046FFF7BC
:105F0000DFFF04F10C000021BDE8104006F0C4BA28
:105F1000037810B50446002B5BD00C3006F0CBFAAA
:105F2000002856D06421002011F005FE40B20A2856
:105F300029DC2046FFF70CFF6421002011F0FBFD57
:105F400094F9072013181BB2642BA8BF642394F99B
:105F5000202023EAE3739A4263802EDD642100202F
:105F600011F0E9FD94F90730184400B20028A08030
:105F70000FDB94F9203083420BDB03212046BDE880
:105F80001040FFF79DBF5928D6DD2046FFF7D0FE11
:105F9000D2E7B4F9023094F9211094F92220994201
:105FA00003DC934203DC0421E8E79342E5DB94F948
:105FB00023209A42E1DB0521E0E794F921209A426F
:105FC00001DB0121DAE794F922209A42F9DB022170
:105FD000D4E710BD000000002DE9F04F2DED048B3B
:105FE00083B09046019340F20113436141F288323D
:105FF0004FF47A630025C0E9072342F6E063C0E965
:106000000935B14B056104460126C0E917334FF04D
:10601000050B4FF61973C0E90055C0E90255C0E9F8
:106020000B55C0E90D55C0E91155C0E91355C0E93C
:10603000155580F818B0C56380F84060A0F864304A
:10604000A24AA348A34BA0668946A349E1662267FA
:106050006367C4F88430A14BC4F89030A04BC4F8F7
:106060009830A04BC4F89C309F4BC4F8A0309F4B95
:10607000C4F8A430C4F8A8309D4BC4F8AC304FF03D
:1060800080439FED850B9FED861B9FED872BC4F80A
:106090008020C4F8B03086A3D3E900239FED868B1F
:1060A0004FF07E579FED869BC4E9342384ED2E0B81
:1060B00084ED301B84ED322BA067E167C4F8887053
:1060C000C4F88C70C4F8947029460A2204F1D800F0
:1060D00001F0B2FC94ED322B94ED301B94ED2E0BBD
:1060E00029460A2204F5B47001F0A6FCB0EE482A55
:1060F000F0EE682AB0EE481AF0EE681AB0EE490ADF
:10610000F0EE690A2946142204F5FC7001F094FCB3
:10611000B0EE482AF0EE682AB0EE481AF0EE681A9F
:10612000B0EE490AF0EE690A1422294604F52270FD
:1061300001F082FC6F4BC4F818336F4BC4F81C336A
:106140006E4BC4F824336E4BC4F828336D4BC4F83F
:106150002C331E2384F860336B4BD4ED1A8AC4F8B9
:106160006833B6EE009A03F21D239FED688AC4F8E7
:106170005C7328EE899A94F85C70C4F86C334FF421
:1061800048734FF0030AF1EE049AA4F870334FF409
:106190007A73C4F8743327FA06F0C4E9CD55C4E91C
:1061A000CF55C4E9D155A4F820A3A4F8305384F8FE
:1061B000325384EDD38A84EDD48AC4EDD59A84ED2C
:1061C000D68A84EDD99A84F8725384F878A314F0AF
:1061D0008FFD4F4B002214F03FFC15F0A3F844F65E
:1061E0002063C4E9E23594F86430D4ED267A84F86B
:1061F0007903FF1A474BC4F8B0334FF4167378EEA7
:10620000E78AA4F8B433444BC4F8B8334FF4FA73B4
:10621000A4F8BC33294684EDDF9A84F88063C4F87F
:10622000845384F890A3C4EDE59A84EDE68AC4ED26
:10623000E78A84EDE88A84F8A4B384EDEA8A84F8D6
:10624000AC7384F8AD5384F8AE6384F8B66384F815
:10625000BE63202204F5747015F076FC2F49304B94
:10626000C4F80090C4E9F2132E4BC4F8D0332E4B7F
:10627000C4F8D83342F63023A4F8F033019BC4F8B5
:106280000C802046C4E9F055236103B0BDEC048BBB
:10629000BDE8F08FAFF30080B81E85EB51B8DE3F4C
:1062A0009A9999999999993F9A9999999999793F30
:1062B000D9CEF753E3A5DB3F00000000000000004B
:1062C000333333333333E33F7878645000007A4319
:1062D0000000AF4300803B43000061C3CDCC4C3F86
:1062E0000000484200007A44E7FB293E9A99B541F4
:1062F000008098440000C8420000484300002C433E
:10630000A71607443720C03F030120030000000008
:106310000000E03F58025802F401F4019808F4012B
:10632000000004080000F0410000F0C1000000007F
:1063300070B504462DED028B5F4A00684FF4C861CA
:1063400004F09BFC2068012104F0DEFC0221A06027
:10635000206804F0D9FC94F85C106060A06804F038
:106360004BFDA068012104F021FDA068042104F088
:106370001DFD94F85C10606804F03EFD606801212A
:1063800004F014FD6068042104F010FD94F9181065
:10639000002011F0D0FBE075D4E9080111F0CBFB2F
:1063A0000146E06104F1280006F076F804F13000BF
:1063B000002106F071F804F57070002106F06CF809
:1063C000002104F1380006F067F8E068FFF7A4F94F
:1063D00004F1D8062069FFF79FF904F5B47530463B
:1063E00001F070FB284601F06DFB94F8640014F096
:1063F0006FFC9FED2F8B41EC100BB0EE481AF0EEC6
:10640000681A304601F01FFC94F8640014F060FC38
:10641000B0EE481AF0EE681A41EC100B284601F075
:1064200012FCE3683046B3F8401001F067FB2369C3
:1064300004F5FC76B3F84010284601F05FFB04F544
:106440002275304601F03EFB284601F03BFBD4F8B4
:106450001C0314F05FFC024601F1004343EC102BD7
:1064600041EC110B304601F0EEFBD4F81C0314F0A4
:1064700051FC024601F1004341EC110B43EC102B9F
:10648000284601F0E0FBE368B3F8401030464900CD
:1064900001F034FBBDEC028B2369B3F840102846B1
:1064A0004900BDE8704001F029BB00BFAFF3008098
:1064B0000000000000E06F402836002090F85C30BB
:1064C00053FA81F380F8603090F85D3053FA81F32D
:1064D00080F8613090F85E3053FA81F180F86210F4
:1064E000704790F99033032B0CBF0423032380F8EB
:1064F000903390F96833032B0CBF0423032380F8F7
:10650000683370472DE9D043B5EEC00AD0ED2B7A41
:10651000F1EE10FA2DED048BF0EE408AD8BFF1EECB
:10652000408A88EEA79A0446F5EEC00AF1EE10FA0A
:10653000B0EE608AD8BFB1EE608A38EE080A80EE0D
:10654000270A12F0FFF9B4EEC09AF1EE10FA33DC2C
:1065500019EE100A14F0DEFB064618EE100A0F467C
:1065600014F0D8FB8046D4F8AC00894614F0D2FB76
:106570001B4B002214F026FC32463B4614F022FC52
:1065800032463B4614F01EFC02460B464046494646
:1065900014F060FA064618EE900A0F4614F0BAFBA3
:1065A00002460B463046394614F036FD14F002FF21
:1065B00007EE900A37EE890AD4ED2C7A60EE277A3E
:1065C00017EE900A14F0A6FB064B002214F0FAFB1B
:1065D00014F0D0FEBDEC048B80B2BDE8D08300BFC8
:1065E0000000E03F00408F4010B5044604214068A1
:1065F00004F0DCFBA068042104F0D8FB60680021F3
:1066000004F0FAFBA0680021BDE8104004F0F4BBE0
:10661000F8B52DED028B9FED268B0025044600F585
:10662000FC7704F5227680ED928BB0EE480AF0EE0E
:10663000680A80EDB68BC0F83853C0F8445338462A
:1066400001F0DCFAB0EE480AF0EE680A304601F0DC
:10665000D5FA2946384601F04CFB2946304604F16C
:10666000D80601F046FBB0EE480AF0EE680A84ED69
:106670004A8B84ED6E8BA4F8305384F83253304645
:1066800004F5B47401F0BAFAB0EE480AF0EE680A04
:10669000204601F0B3FA2946304601F02AFBBDEC52
:1066A000028B29462046BDE8F84001F022BB00BF1E
:1066B000000000000000000010B5012380F8CC337A
:1066C00090F8CD33B0F8C8130133044680F8CD33C9
:1066D00000F5707005F0E0FE2046BDE81040FFF7C1
:1066E00097BF012280F8BE23002280F8CD23FFF758
:1066F0008FBF90F916208A420BD0012280F84020EB
:10670000C268817512684264026912688264FFF788
:106710007FBF704710B504460021FFF7EAFF6068AD
:10672000042104F043FBA068042104F03FFB6068EF
:10673000002104F061FBA0680021BDE8104004F0D6
:106740005BBB38B504460D460021FFF7D2FF6068F9
:10675000012104F02BFBA068012104F027FB6068F5
:10676000294604F049FBA0682946BDE8384004F0FA
:1067700043BB38B504460D460121FFF7BAFF6068F8
:10678000022104F013FBA068022104F00FFB6068F3
:10679000294604F031FBA0682946BDE8384004F0E2
:1067A0002BBB38B504460D460321FFF7A2FF6068F6
:1067B000022104F0FBFAA068012104F0F7FA6068F6
:1067C000294604F019FBA0682946BDE8384004F0CA
:1067D00013BB38B504460D460421FFF78AFF6068F5
:1067E000012104F0E3FAA068022104F0DFFA6068F6
:1067F000294604F001FBA0682946BDE8384004F0B2
:10680000FBBAF8B504460E4605211546FFF771FFA1
:106810006068012104F0CAFA6F08A0680121A6EBA4
:10682000550504F0C3FA6068E9B204F0E5FAB91955
:10683000A068C9B2BDE8F84004F0DEBAF8B5044675
:106840000D4606211646FFF754FF6068012104F04B
:10685000ADFAA068012104F0A9FA05EB56016068C1
:106860007708C9B204F0C8FAE91BA068C9B2BDE84C
:10687000F84004F0C1BA032BD2B201D1FFF7C1BF77
:10688000FFF7DCBF90F8803370B504460D4600F189
:1068900030061BB990F91730032B1FD0002384F862
:1068A0008033032394F8A423E37594F8603094EDC7
:1068B000E27AD4F888139B1ADBB207EE903AF8EE2E
:1068C000476AF8EE677A84F8AC3387EEA67A84F8E4
:1068D000AD33304684EDEA7A05F0DEFD304605F052
:1068E000E3FD07EE900AD4EDEA6A94EDE77AC4F886
:1068F0008C03F8EE677AA6EEE77AB5EEC07AF1EE91
:1069000010FA17EE100A1CDB14F004FA154B0022E3
:1069100014F0A2F814F006FD94F86030C0B283427F
:1069200038BF94F8A42384F8AD033CBF9B1A84F8C5
:10693000AD33304605F0BFFD50B1012384F88033FC
:1069400070BD14F0E7F9074B002214F083F8E1E77B
:1069500094F9AD2394F860102B462046BDE87040B2
:10696000FFF789BF0000E03F10B50446D0E90801F9
:1069700011F0E1F894F91710E06103290CD101231B
:1069800084F880330221002011F0D5F8D4F8883340
:1069900084F89003E36106E0022910D1002011F091
:1069A000CAF884F86803E16904F1280005F074FD71
:1069B00004F130000021BDE8104005F06DBD042950
:1069C000F1D1012384F8BE33B4F8F033E2E7037D5C
:1069D00010B5044673B1283005F06DFD50B194F93F
:1069E0001810002011F0A7F8E0752046BDE810400F
:1069F000FFF7BABF10BD38B5037D04460D464BB155
:106A0000283005F058FD28B1E5752046BDE838402E
:106A1000FFF7AABF38BDF8B590F8E0702DED028BF6
:106A20000446F0EE408AB0EE608A00F1D80600F528
:106A3000B4752FBB0121304601F05BF994ED340BA6
:106A4000304601F040F8F5EEC08AF1EE10FA13D5A9
:106A50000121304601F07AF8B5EEC08AF1EE10FA65
:106A60000ED594ED340B284601F02DF894ED340B3F
:106A7000304601F028F803E03946304601F066F868
:106A800094F870712FBB0121284601F032F994ED82
:106A9000340B284601F017F8B5EEC08AF1EE10FA73
:106AA00013D50121284601F051F8F5EEC08AF1EE28
:106AB00010FA0ED594ED340B284601F004F894ED4D
:106AC000340B304600F0FFFF03E03946284601F062
:106AD0003DF818EE900A14F01DF9C4E94A0118EEC9
:106AE000100A14F017F9C4E96E01E368304693ED1B
:106AF000200B01F05AF92369284693ED200B01F091
:106B000054F9F5EEC08AF1EE10FA4CBF02210121D2
:106B1000606804F04BF9B5EEC08AF1EE10FA4CBF94
:106B200002210121A06804F041F9D4E94C0114F0DC
:106B3000F9FBC1B2606804F05FF9D4E9700114F0A8
:106B4000F1FBBDEC028BC1B2A068BDE8F84004F0D7
:106B500053B913B5002104468DED010AFFF7C9FDB5
:106B6000DDED010A2046B0EE600A02B0BDE810403B
:106B7000FFF751BF90F91520012A03D190ED1E0AAD
:106B8000FFF7E7BF90F86010FFF7DBBDFFF7E1BF4D
:106B900013B5012104468DED010AFFF7AAFDDDEDD5
:106BA000010A2046B0EE600A02B0BDE81040FFF7CF
:106BB00032BF90F91520012A03D190ED1F0AFFF78B
:106BC000E7BF90F86110FFF7D4BDF8B500F13007CA
:106BD000044638460D46164605F06DFC78B1204651
:106BE000FFF798FD94F8B6338BB1002384F8B633E1
:106BF000A4F8BC63B4F8BC13384605F04DFC94F817
:106C0000B63320464BB1BDE8F840FFF7B3BF0123D0
:106C100084F8B633A4F8BC53ECE7BDE8F840FFF7BE
:106C2000C8BF13B5032104468DED010AFFF761FDCE
:106C3000DDED010A2046B1EE600A02B0BDE8104069
:106C4000FFF7E9BE90F91520012A03D190ED200A43
:106C5000FFF7E7BF90F86210FFF7A3BD2DE9F04101
:106C600010EE104A2DED028B052110EE906A804641
:106C7000FFF73FFD204614F04DF8044630460D4620
:106C800014F048F8114B002214F09CF802460B4611
:106C900006460F462046294613F0DEFE14F08AFB16
:106CA000324608EE100A3B462046294613F0D2FE33
:106CB00014F080FBF0EE480ABDEC028B00EE100AE7
:106CC0004046BDE8F041FFF7A6BE00BF0000E03F30
:106CD00038B52DED028B90F91530012B0446B0EE3E
:106CE000408A09D190ED1E0A60EE080ABDEC028BC5
:106CF000BDE83840FFF7B2BF90F8605007EE905AF9
:106D0000F8EE677A27EE808A18EE100A14F002F87F
:106D1000B5EEC08AF1EE10FA094B4FF000020CDB21
:106D200013F09AFE14F0FEFABDEC028BC2B22946B3
:106D30002046BDE83840FFF764BD13F08BFEF1E755
:106D40000000E03F10B52DED028B0421B0EE408A2B
:106D50000446FFF7CEFCF1EE480AB0EE480ABDEC5F
:106D6000028B2046BDE81040FFF755BE90F9152074
:106D7000012A03D190ED200AFFF7E4BF90F86210DA
:106D8000FFF727BDF8B500F13007044638460D4639
:106D9000164605F090FB78B12046FFF7BBFC94F84F
:106DA000AE338BB1002384F8AE33A4F8B463B4F8E7
:106DB000B413384605F070FB94F8AE3320464BB15F
:106DC000BDE8F840FFF73EBF012384F8AE33A4F8D6
:106DD000B453ECE7BDE8F840FFF7C8BF2DE9F04138
:106DE00010EE104A2DED028B062110EE906A8046BF
:106DF000FFF77FFC204613F08DFF044630460D461A
:106E000013F088FF114B002213F0DCFF02460B4603
:106E100006460F462046294613F01CFE14F0CAFA17
:106E2000324608EE100A3B462046294613F014FE6F
:106E300014F0C0FAF0EE480ABDEC028B00EE100A26
:106E40004046BDE8F041FFF7E6BD00BF0000E03F6F
:106E500038B52DED028B90F91530012B0446B0EEBC
:106E6000408A09D190ED1E0A60EE080ABDEC028B43
:106E7000BDE83840FFF7B2BF90F8605007EE905A77
:106E8000F8EE677A27EE808A18EE100A13F042FFB8
:106E9000B5EEC08AF1EE10FA094B4FF000020CDBA0
:106EA00013F0DAFD14F03EFABDEC028BC2B22946B3
:106EB0002046BDE83840FFF7C1BC13F0CBFDF1E739
:106EC0000000E03F032901D1FFF7C8BEFFF786BFEE
:106ED00090F9152090F96833012A10B408D1D0ED4B
:106EE000D90A90ED200A5DF8044B1946FFF7EABF76
:106EF00090F9602390F862105DF8044BFFF7BBBC7B
:106F000090F8803370B504460D4600F130061BB989
:106F100090F91730032B1BD094EDE57AD4ED1E7A4F
:106F2000D4F8881377EEC77A94EDE27AC4EDE77A65
:106F3000F8EE476A002387EEA67A84F880330323AD
:106F4000E3753046C4EDE87A84EDE67A05F0A4FAFC
:106F5000304605F0A9FA07EE900AD4EDE66A94ED02
:106F6000E77AC4F88C03F8EE677A3046A6EEE77A43
:106F7000D4ED1E7A84EDE87AB4EEE77AF1EE10FAF9
:106F8000C2BF94ED267A77EEC77AC4EDE87A05F0B1
:106F900092FA18B1012384F8803370BDD4EDE80A69
:106FA00094ED1E0A29462046BDE87040FFF78ABFCF
:106FB00090F91530012B01D1FFF7A2BFFFF762BC9A
:106FC00090F99013FFF7F4BF38B590F86933044691
:106FD000A3B100F13005284605F06DFA94F9783335
:106FE000A8BB032B94F915201FD1012A15D1D4ED8C
:106FF000DF0A94ED200A2046FFF730FE94F8723342
:10700000002B4CD004F13005284605F054FAC8BBDB
:107010002046BDE83840FFF7ADBD94F8792394F8D9
:1070200062102046FFF7EDFBE8E7012A07D1D4ED17
:10703000DF0A94ED200A2046FFF7D0FEDEE794F841
:10704000792394F862102046FFF7F8FBD6E7032B6C
:107050000BBF0423032384F8783384F878330CBF00
:10706000B4F86E33B4F86C33A4F87033002384F8AA
:1070700069330123D4F8741384F87233284605F079
:107080000BFABBE7012384F869330023B4F87013CB
:1070900084F872332846BDE8384005F0FDB938BDA4
:1070A00070B50A212DED048B0446F0EE419AB0EE46
:1070B000408AF0EE608AB0EE619AFFF71AFBD4EDD9
:1070C000D37A94EDD57A77EEC76AF4EEE96AF1EEF9
:1070D00010FA06D877EE877AF4EEE97AF1EE10FA34
:1070E00006DAC4EDD39A4FF0FF312046FFF701FBDB
:1070F000D4EDD47A94EDD57A77EEC76AF4EEC96A06
:10710000F1EE10FA06D877EE877AF4EEC97AF1EE4E
:1071100010FA06DA84EDD49A4FF0FF312046FFF7DB
:10712000E8FA94F8403004F13806002B37D0F0EE3E
:10713000690AB0EE480A2046FFF7E4F9F0EE490A82
:10714000B0EE680A05462046FFF7DCF985420146A5
:1071500088BF2946304605F09FF9002384F8403067
:1071600019EE900A13F0D6FDE368D3E90E2313F06D
:1071700053FF14F0D7F80546606519EE100A13F0B6
:10718000C9FD2369D3E90E2313F046FF14F0CAF8B2
:10719000636CA0651D44A36CE5641844206530460B
:1071A00005F089F9002866D1F5EEC09AF1EE10FAE3
:1071B0001DDDB5EEC09AF1EE10FA7ADDE368E26CFF
:1071C0001B689A4204DA2369226D1B689A4207DB26
:1071D000B5EEC08AF1EE10FA1EDCB1EE488A1BE073
:1071E0002046FFF701FA0120BDEC048B70BD1BD5D2
:1071F000B5EEC09AF1EE10FA3FDDE368E26C1B6871
:107200009A4204DD2369226D1B689A42E8DBB5EEE1
:10721000C08AF1EE10FAE0DCF5EEC08AF1EE10FA69
:1072200020DCF1EE688A1DE0F5EEC09AF1EE10FA6E
:10723000D6D5B5EEC09AF1EE10FAD1D5E368E26C7E
:107240001B689A4204DD2369226D1B689A42C7DCE1
:10725000B5EEC08AF1EE10FA28DCF5EEC08AF1EE48
:1072600010FADEDC2046F0EE680AB0EE480AFFF7BE
:10727000D2FB0020B8E70220B6E7F5EEC09AF1EEA7
:1072800010FAD6DDB5EEC09AF1EE10FACCD5E3686F
:10729000E26C1B689A4204DA2369226D1B689A42E9
:1072A0009EDCB5EEC08AF1EE10FAD6DCB1EE488A6B
:1072B000D3E7F5EEC09AF1EE10FAE3D5B5EEC09A39
:1072C000F1EE10FA99DCDDE7B5EEC00AF1EE10FA46
:1072D0004CBFD0ED1F0AD0ED1E0AF0EE401AB0EE02
:1072E000401AB0EE600AFFF7DBBED0EDCB1AB5EE68
:1072F000C00AF1EE10FA60EE211A07DDD0ED200A87
:10730000B1EE611AB1EE600AFFF7CABE06D590ED84
:10731000200AB1EE611AF1EE400AF5E7012070474C
:107320002DE9F04F2DED028B90F8003283B010EE76
:10733000108A0446CDED010A00F5FC7700F1D8066D
:107340003BB90121384600F0D4FC0121304600F061
:10735000D0FC04F5227308EE103A94F8903204F54C
:10736000B47543B918EE100A012100F0C2FC0121E6
:10737000284600F0BEFCD4F80CA0404613F0CAFC2E
:10738000DAE90E2313F048FE0022002380468946E6
:1073900013F09EFFCA4B0022002800F033814046C4
:1073A000494613F059FB13F0BDFFD4F8383383423C
:1073B0000ED007EE900AF8EEE77ADAF80030C4F85B
:1073C0003803636417EE900A13F0A4FCC4E9920139
:1073D000D4F810B0019813F09DFCDBE90E2313F0F4
:1073E0001BFE002200238046894613F071FFB44B38
:1073F0000022002800F00B814046494613F02CFB88
:1074000013F090FFD4F8443383420ED007EE900A75
:10741000F8EEE77ADBF80030C4F84403A36417EE13
:10742000900A13F077FCC4E9B601DAF80000636C47
:10743000C01AC4F83C0313F05BFC41EC100B384657
:1074400000F0B3FC23691868A36CC01AC4F84803A1
:1074500013F04EFC41EC100B18EE100A00F0A5FCE6
:10746000E368304693ED200B00F09FFC236928462B
:1074700093ED200B00F099FCD4E994AB002200239B
:107480005046594613F02EFF002840F0C5800022D8
:10749000002350465946D0460BF1004913F00EFF29
:1074A000002800F0BC80864B00224046494613F07D
:1074B000D3FA13F037FF07EE900A94EDC67AF8EE90
:1074C000E77AB4EEE77AF1EE10FA16DD17EE100A5D
:1074D00013F020FC0022804689460023504659467E
:1074E00013F0E2FE002800F0A180424609F10043BB
:1074F00043EC102B384600F081FBD4E9B8AB0022F6
:1075000000235046594613F0EDFE002840F09180CC
:107510000022002350465946D0460BF1004913F093
:10752000CDFE002800F08880654B00224046494689
:1075300013F092FA13F0F6FE07EE900A94EDC67A75
:10754000F8EEE77AB4EEE77AF1EE10FA16DD17EE10
:10755000100A13F0DFFB00228046894600235046C4
:10756000594613F0A1FE00286DD0424609F10043B0
:1075700043EC102B18EE100A00F040FBD4E9CE3299
:10758000B4F92013581A824260DAD4E99423002116
:10759000C4E94A23304600F0D9FA0121606803F0BB
:1075A00005FCD4E94C0113F0BDFEC1B2606803F0E4
:1075B00023FCD4E9D132B4F92013581A82426CDA90
:1075C000D4E9B8230021C4E96E23284600F0BEFAAE
:1075D0000121A06803F0EAFBD4E9700113F0A2FED8
:1075E000C1B2A06803F008FC94F830332BB194F8D2
:1075F000313313B1012384F8323303B0BDEC028B75
:10760000BDE8F08F4046494613F024FACBE64046E9
:10761000494613F01FFAF3E6D046D94643E7284B14
:1076200000225046494613F015FA42E749EC108B08
:1076300060E7D046D94677E7214B002250464946BD
:1076400013F008FA76E749EC108B93E70B449A4263
:1076500009DDD4E994230121C4E94A23304600F02E
:1076600075FA02219AE79FED140B384600F0C6FA2E
:107670009FED110B304600F0C1FA9FED0F7B606863
:1076800084ED4A7B042103F091FB6068002103F044
:10769000B3FB012384F830338BE70B449A4211DDAE
:1076A000D4E9B8230121C4E96E23284600F04EFA3C
:1076B00002218EE7AFF30080000000000000000010
:1076C0000000E03F9FED0E0B18EE100A00F096FA56
:1076D0009FED0B0B284600F091FA9FED097BA06807
:1076E00084ED6E7B042103F061FBA068002103F0B0
:1076F00083FB012384F8313376E700BFAFF30080CA
:10770000000000000000000010B50B212DED028BE1
:107710000446B0EE408AFEF7ECFFD4EDCB0A68EEEB
:10772000200ABDEC028B2046B1EE600ABDE8104095
:10773000FFF7F6BD38B590F8BE33044600F5707516
:1077400003B30423C375002380F8BE33B0F8C81315
:10775000284604F0A1FE0123A4F8CC332046FEF70E
:1077600057FF94F8CC339BB394F8CD3394F8CE23E1
:107770009A422DD31BBB94EDF40A2046BDE8384055
:10778000FFF7C2BF284604F096FE0028E9D094F81F
:10779000CC3383F0010384F8CC3353B1B4F8C8136D
:1077A000284604F079FE94F8CD33013384F8CD33C4
:1077B000D7E7B4F8CA13284604F06EFED1E704EB0D
:1077C000830393EDF40AD3EDF37A30EE670AD4E73E
:1077D0002046BDE83840FEF79DBF027D9AB190F982
:1077E0001730012B01D1FFF7EFBB032B01D1FFF7BE
:1077F000E7BB022B01D1FFF76BBB042B01D1FFF7D5
:1078000099BFFFF7B7B97047D0ED226A90ED1A6AB9
:1078100090ED235A90ED267A26EE866A26EE056ACA
:10782000B4EEC76AF1EE10FA32D4D0ED275AB4EEB6
:10783000E56AF1EE10FAD8BFF0EE465AD0ED1B7AA9
:10784000C0ED1E5A66EEA77A67EE857AF0EEE77A0B
:10785000B4EEE77AF1EE10FA1DDDF1EE477AC0EDF5
:107860001F7AD0ED1C7A66EEA77A67EE857AB4EEC1
:10787000E77AF1EE10FA08DC90ED277AF4EEC77A99
:10788000F1EE10FAD8BFB0EE677A80ED207A70473B
:10789000F0EE475AD2E790ED276AB4EEE76AF1EED0
:1078A00010FA4CBFF1EE467AF1EE677AD7E7D0EDE9
:1078B000247A90ED257A002908BFF0EE477AC0EDD2
:1078C000237AFFF7A1BF80ED220AFFF79DBF0000DA
:1078D00030B5012505800A25857014250582094DDE
:1078E00045610025C0E906550025C0E90112056281
:1078F00045628562C562056345638563C563C36090
:1079000030BD00BF0AD7A33CC3681B7810B504463E
:1079100053B9064906480EF02FF804F1180000216B
:10792000BDE8104004F0B8BD0249F3E75EE701008E
:107930001C42002086E70100F8B503782DED068B88
:107940000446002B6AD000F11805284604F0B3FD68
:10795000002863D02846B4F9101004F09DFDD4E946
:107960000113D4ED0C8A94ED0D8AC4ED0E8AD3E98F
:107970002023D1E9200184ED0F8A13F06DF8002255
:107980002B4B13F01FFA13F015FDE36820625D69BD
:10799000E56213F0BFF9064628460F4613F0BAF920
:1079A000244B002213F038FB1FA3D3E9002313F06C
:1079B00009FA41EC100B41EC1A0B10F0E1FD3046D6
:1079C00053EC102B394613F0FDF913F0F3FCB0EE35
:1079D0004A0AF0EE6A0A606209EE100A10F0A8FE88
:1079E000304653EC102B394613F0ECF913F0E2FC5F
:1079F000637894ED057AA06207EE900A5A1C6270D3
:107A0000E9EE078AA278A7EE878A9A4298BF0023F8
:107A1000C4ED0C8A84ED0D8A98BF6370BDEC068BB3
:107A2000F8BD00BFAFF3008000000060FB210940FB
:107A30000000E03F008066402DE970430FF27009BE
:107A4000D9E90089C0E91A89DFF8749041724FF0D2
:107A50000008C0E91C890FF26009D9E900890024F7
:107A600000250026C0E90066C0E90A45C0E90C45CA
:107A7000C0E90E45C0E91045C0E91245C0E914450A
:107A8000C0E91645C0E91845C0E91E89C0E920458E
:107A900080ED040B80ED061B80ED082B067280F84C
:107AA0008A60A0F88820BDE8708300BFAFF3008033
:107AB0000000000000E06F400000000000C05F40D8
:107AC00000C05FC07047D0B557EC106B0446002271
:107AD00010EE100A0023394613F0E6FB68B994F85B
:107AE0008A30012BC4E9046707D132463B460020A7
:107AF000002112F0AFFFC4E90401D0BDF8B50D1E9E
:107B0000044622DD284613F0F3F80646B4F8880050
:107B10000F4613F0DDF802460B463046394613F0A7
:107B20007BFA02460B4606460F46D4E9060113F0DF
:107B300049F93246C4E906013B46D4E9080113F08D
:107B40006BFAC4E90801A4F88850F8BD38B590F87C
:107B50008A308B4204460D4617D0D0E90423002119
:107B6000002012F077FFD4E90623C4E904010020C5
:107B7000002112F06FFFD4E90823C4E906010020B8
:107B8000002112F067FFC4E9080184F88A5038BD6B
:107B90002DE9F843437A55EC104B0646C3B1D0E9C2
:107BA0001C89294610EE100A42464B4613F07CFB16
:107BB00008BBD6E91E67204632463B46294613F0ED
:107BC00091FB08B134463D4645EC104BBDE8F883C7
:107BD000D0E9188910EE102A2B464046494613F08A
:107BE00081FB40B9D6E91A6722462B463046394612
:107BF00013F05AFBE5E744464D46E5E72DE9D0434F
:107C0000D0E9186759EC108B044610EE102A4B4649
:107C10003046394613F066FB50B9D4E91A6742463C
:107C20004B463046394613F03FFB08B946464F46AF
:107C300094ED0E0BC4E916672046FFF7A9FF84ED0B
:107C40000E0BBDE8D0832DE9F04757EC106B55ECD7
:107C5000114B824611EE102A10EE100A2B463946BF
:107C600013F040FBF0B9DAE91689CAE91867CAE9E6
:107C70001A4532463B464046494613F015FB98B933
:107C800022462B464046494613F02CFB08B9444691
:107C90004D469AED0E0BCAE916455046FFF778FFA0
:107CA0008AED0E0BBDE8F08734463D46F1E7D0E99A
:107CB000122390ED160B10B50446C0E90A2380ED9F
:107CC0000E0BFFF765FF637A84ED0E0B4BB10022BC
:107CD0000023C4E91223C4E90A23C4E90E23C4E93A
:107CE000162394ED0E0B2046FFF752FF84ED0E0B8A
:107CF00010BD012938B504460CBF0125002503D16C
:107D0000037A0BB9FFF7D3FF257238BD2DE9F3478E
:107D100055EC104B824610EE102AD0E914012B4688
:107D200012F098FE80468946CAE92089DAE90423E0
:107D300013F048F806460F46DAE90623CAE90C674D
:107D40004046494613F03EF8DAE90E2312F084FE6D
:107D5000CAE90E0141EC100B5046FFF719FFDAE9B2
:107D60000A238AED0E0B204629468DED000B12F0FA
:107D700071FEDAE9082313F025F880468946DDE92B
:107D80000023CAE910893046394612F065FE4246A2
:107D90004B4612F061FE41EC100B5046FFF7F8FE27
:107DA000CAE90A4502B0BDE8F08713B5037A8DED44
:107DB000000B04468BB104F07EFB9DED000B60B11F
:107DC0002046FFF7A3FFB4F88810204684ED160B79
:107DD00002B0BDE8104004F05FBB02B010BD00006F
:107DE00010B508210446104802F0ECFD0E4802F0E0
:107DF0009AFE90B10D490E480DF0BEFD0023A17A08
:107E0000607AA37001310FF096FE0021207204F118
:107E10001400BDE8104004F03FBB064904480DF0D3
:107E2000ABFD0123EBE700BF28360020AAE70100E5
:107E30001C420020D8E70100837813B50446A3B1A3
:107E4000C379DBB100230DF107018DF8073007F08E
:107E5000F9F904F1140004F02EFB30B19DF807305D
:107E6000DA0704D50123E370637102B010BD13F08B
:107E7000020303D00123E370A371F6E76371FBE70C
:107E8000837813B5044603B300230DF107018DF881
:107E9000073007F0DEF9B4F91030B4F90C209DF882
:107EA00007109818814210DC981A81420DDBE18995
:107EB0005B1A1BB2991A0029D7BFE37A2382C2F159
:107EC00064020133DCBF2282E37202B010BD10B540
:107ED000817A04460131407A0FF02DFE207210BDE8
:107EE00010B500230446C370C372FFF7F0FF618A28
:107EF00004F11400BDE8104004F0CEBA10B5002122
:107F000004460E2010F0EAF904F12C00002104F0E0
:107F1000C3FA04F13C00002104F0BEFA04F134007D
:107F20000021BDE8104004F0B7BA10B506300023B8
:107F3000DCB2A24205D9CC5C00F8014B0133052B21
:107F4000F6D110BD10B50A300023DCB2A24206D92A
:107F500031F8134020F8024B0133092BF5D110BD45
:107F600010B51A300023DCB2A24206D931F8134012
:107F700020F8024B0133092BF5D110BD00F11A0294
:107F800000F12A03002032F8021B9A420844FAD179
:107F9000704708B50E200EF057F9BDE808400021E3
:107FA0000E2010F09BB9012343700023838070479B
:107FB00000220E200EF05EB938B53C302DED028B5C
:107FC0001D4608EE902A08EE101A04F06DFA0446D9
:107FD000284612F08DFE02460B460020002112F0CA
:107FE00039FD13F0E7F9B8EE488AF8EE688A07EE33
:107FF000900A78EE688AA4B288EEA77A07EE904AD3
:10800000F8EE677AA7EE278AB5EEC08AF1EE10FA8D
:1080100018EE100A10DB12F07DFE0B4B002212F05E
:108020001BFD13F07FF9BDEC028B81B2BDE8384037
:1080300000220E200EF01EB912F06CFE024B002240
:1080400012F008FDEDE700BF0000E03F90F8482087
:1080500082F0010280F848202AB1B0F84C100022CA
:108060000E200EF007B9B0F84E10F9E7F8B500F1A0
:108070005407064638460C46154604F01CFAB8B1BB
:10808000B6F85210384604F007FAAC420AD9214635
:1080900028460FF050FD81B2BDE8F84000220E20C6
:1080A0000EF0E8B802D229462046F2E70021F3E7B5
:1080B000F8BD000038B5B0F8603000F13C052DED9A
:1080C000028B0446D0ED198A284608EE103A04F0D7
:1080D000EBF907EE900AB8EE488AF8EE677AB4F842
:1080E0006030A8EEA78A284607EE903AB5EEC08A1F
:1080F000F1EE10FAD4ED198AB8EE678A1CDB04F0B1
:10810000D3F907EE900AF8EE677AA8EEA78A18EE80
:10811000100A12F0FFFD114B002212F09DFC13F02B
:1081200001F9BDEC028B81B2A4F868100022BDE811
:1081300038400E200EF09EB804F0B6F907EE900A13
:10814000F8EE677AA8EEA78A18EE100A12F0E2FDA0
:10815000024B002212F07EFCE1E700BF0000E03F8E
:108160002DE9F74316461A464378BDF82880BDF836
:108170002C7004460D4600F13C0943B100234370C6
:10818000437141464846019204F086F9019A0192F2
:10819000484604F090F9019A50B161790131C9B2B1
:1081A000012961710ED13946484604F075F9019AEA
:1081B000637953B9013D042D2CD8DFE805F009108F
:1081C00025181E00F4D90223637103B0BDE8F083C3
:1081D0003146204603B0BDE8F043FFF7E9BE434611
:1081E0003146204603B0BDE8F043FFF7E5BE204628
:1081F00003B0BDE8F043FFF729BF3146204603B086
:10820000BDE8F043FFF732BF204603B0BDE8F043BE
:10821000FFF750BF204603B0BDE8F043FFF7B9BEFB
:1082200037B54379022B04460CD101234370002358
:10823000437103790133DBB2032B037184BF40F236
:108240000323838004F12C05284604F034F9D8B1C7
:108250006188284604F020F923795A002344D2B2D9
:1082600099792170032911D1B4F85E0004EB42031F
:10827000588304EB42022046938B0193538B009367
:1082800093895289FFF76CFF03B030BD0429F0D108
:10829000B4F84A0004EB4203EAE710B508210446AB
:1082A000013007F05FF904F11C000021BDE8104027
:1082B00004F0F2B838B500F11C050446284604F075
:1082C000FAF8A8B1218B284604F0E6F8227DB4F92B
:1082D0001210B4F91630601C32B100222275C91A8E
:1082E000BDE8384007F06CB9012222751944F7E760
:1082F00038BD70B500F11C060446304604F0DBF8CA
:1083000020B394F8252094F824309A4204F1010512
:108310001DD2218B304604F0BFF8227DB4F9121033
:10832000B4F916303AB1002222752846C91ABDE8C0
:10833000704007F045B9012219442275284607F01C
:108340003FF994F82530013384F8253070BDE18C75
:10835000304604F0A1F8B4F91210284607F030F9BD
:108360000023F1E738B5037804462BB300F1080584
:10837000284604F0A0F8F8B1E188284604F08CF80B
:108380002379022B0BD0032B0ED0012B04F101001B
:108390000FD1B4F91010BDE8384007F011B92046EC
:1083A000BDE83840FFF786BF2046BDE83840FFF7FC
:1083B000A0BFB4F91210EEE738BDC3849DF80030B9
:1083C0000183C28280F824307047000070B50E46E9
:1083D0000021C0E90411104981611049C1611049AF
:1083E0000162082180F824100E49044643F292509D
:1083F000C4E90A014FF0006121630B49086849682C
:1084000004F1340503C50949A360049BE163C4E991
:108410000062E360204670BD00000C432549D6434E
:108420002549D6447800B400FEE7010001030300AB
:10843000F0B52DED028B90ED088A002380F83C30DA
:108440008BB0044600F1100518EE100A12F062FC21
:10845000B5EEC08AF1EE10FA2A4B4FF000024EDB67
:1084600012F0FAFA12F05EFF0146284604F014F802
:10847000A06894F8343084F83030002184F831104A
:1084800084F83210303004F007F82068FDF750FC13
:1084900094F83F307BB3E068FFF785FD042240F29B
:1084A00002230DEB0201E0680193FFF73EFD164B3E
:1084B00002AA03F11006174618685968154603C545
:1084C0000833B3422A46F7D1104B06AA03F1100C29
:1084D000164618685968154603C5083363452A4689
:1084E000F7D1E06808223946FFF72CFDE068082242
:1084F0003146FFF735FD0BB0BDEC028BF0BD12F03D
:10850000A9FAAFE70000E03F06E8010016E8010025
:1085100010B5B0F92E100446B0F92C000FF00BFB8B
:1085200007EE900AF8EEE77A17EE900AC4ED067AA5
:1085300012F0F0FB02460B4600200F4912F06CFDD2
:108540000E4B002212F03EFC12F034FF94F824305F
:10855000E06107EE900AB1EE007A27EE877A07EE27
:10856000903AF8EE677A84ED087A67EE877AFCEE47
:10857000E77AC4ED0A7A10BD00004E4000408F40FB
:108580002DE9F0410321044601200FF0D4FA022125
:1085900000200FF0D0FA032101200FF0CCFA0025C3
:1085A000C6B24FF0010894F83320EBB29A421CD9BE
:1085B000022E04EB03070CD1B3EB520F4FEA52012A
:1085C00007D35B1A234493F8343087F834300135ED
:1085D000E9E7DB0702D487F83480F8E706210120B9
:1085E0000FF0A9FA87F83400F1E7BDE8F08143689D
:1085F00093F8402010B5044692B193F9003001225F
:10860000022B80F83C200BD1FFF782FF2046FFF7BA
:10861000B7FF6068A16A4164BDE8104000F045BF43
:1086200010BD000038B52DED028B90ED088A044690
:1086300000F1100518EE100A12F06CFBB5EEC08ABE
:10864000F1EE10FA284B4FF0000232DB12F004FA80
:1086500012F068FE0146284603F01EFF94F83230FF
:1086600094F8332094F824000133DBB29A4284F862
:1086700032309CBF002384F8323094F832106218F4
:1086800092F8343084F8303094F831300133DBB272
:10869000984284F831309FBF012384F83C30002396
:1086A00084F8313041B9032384F83D3084F83E30FA
:1086B0000EE012F0CFF9CBE792F83330052B0ED154
:1086C00094F93D30042B0CBF0323042384F83D3080
:1086D000BDEC028BE068BDE83840FFF764BC042BBA
:1086E000F6D10323E2E700BF0000E03F90F83C3002
:1086F00013B504460BB1FFF79BFE606800F01DFF49
:1087000094F83F3043B1042240F20223E068019321
:108710000DEB0201FFF709FC04F1100003F0CBFEA2
:1087200010B12046FFF77EFF94F83030A0681BB9E7
:10873000FDF7F0FF02B010BD022B0AD1D4ED077A8D
:10874000FDEEE77A17EE903A9AB21146FEF73DFA3F
:10875000F0E7032B02D1FEF7BBFBEBE7052B0AD1B9
:1087600094F93D30042B0CBF9FED0E0A9FED0E0ACD
:10877000FEF7BBFDDEE7042B09D194F93E30042B54
:1087800002D1FEF7F3FAD5E7FEF75CFAD2E7D4EDB3
:10879000077AFDEEE77A17EE903A9AB21146FEF7A5
:1087A000F1FAC7E70000B4420000B4C22DE9F84373
:1087B00000251E4600F1200901230446C0E90055AA
:1087C000C0E90255C0E90455884685618383642168
:1087D000484617460CF04CFB194B2363B2EE080ACF
:1087E000F2EE070A1E2284ED0A0AC4ED0B0AA286E5
:1087F000494604F138000CF095FC3223C4F88C3063
:1088000041F28833A4F8AC30089BE3600020099B58
:10881000C4F89400C4F89800C4F89C00C4F8A00000
:10882000C4F8A400C4F8A800C4E92155C4E900872D
:1088300084F89050A66023612046BDE8F88300BF0D
:108840009A99394030B5044695B004F120054FF4AB
:10885000FA700FF025FAD4ED0B0A94ED0A0AA28EF5
:10886000294601A80CF05EFC4C2201A904F1380055
:1088700013F05CF901A80CF07DFC28460CF02AFCF2
:10888000054620B90A490B480DF076F825770A49C4
:1088900008480DF071F8002184F88D10A4F88E10AE
:1088A00084F8901004F1840003F0F6FD15B030BD9B
:1088B00026E801001C4200205BE80100F0B50446F8
:1088C0008BB0406800F04EFE237F23B9606801F052
:1088D00015F80BB0F0BD637F53B10023E0686377F8
:1088E000FFF761FBB4F8AC1004F1140003F0D4FD01
:1088F000042240F202230DEB0201E0680193FFF72E
:1089000014FB3F4B02AA03F110061746186859687A
:10891000154603C50833B3422A46F7D1394B06AA98
:1089200003F1100C164618685968154603C508333C
:1089300063452A46F7D1E06808223946FFF702FB73
:10894000E06808223146FFF70BFB94F88D30EBB15D
:1089500094F88E30D3B194F88F30BBB194F8903046
:10896000A3B160686FF0010100F089FE23696068BF
:10897000198F00F09AFD606800F007FE2069012160
:1089800000F016FD2068FDF7D3F9A2E704F1140505
:10899000284603F090FD38B1E068FFF704FBB4F817
:1089A000AC10284603F078FD94ED297AD4ED0C7ACA
:1089B000A068B4EEE77AF1EE10FA02DDFEF742F9B4
:1089C00087E7F1EE676AB4EEE67AF1EE10FA02D5C7
:1089D000FEF7D0F87DE794ED2A7AF4EEC77AF1EE4F
:1089E00010FAEBD4F4EEC76AF1EE10FA02DDFEF7EE
:1089F000BDF96EE7FDF7EBFFA068FEF7EEFE68E756
:108A00008AE801009AE8010038B500F1380504460B
:108A1000002128460CF096FC28460CF0BBFC2846AA
:108A200084ED250A0CF0B9FC284684ED260A0CF0EA
:108A3000B7FC284684ED270A0CF0B5FC284684EDE7
:108A4000280A0CF0B3FC284684ED290A0CF0B1FC8E
:108A5000284684ED2A0A0CF059FC84F88D0028463B
:108A60000CF05BFC84F88E0028460CF05DFC84F86A
:108A70008F0028460CF05FFC84F8900038BD38B5B4
:108A8000037F0446CBB1436893F840300BB1012318
:108A9000437704F1380004F184050CF072FB28469A
:108AA00003F009FD48B12046FFF7AEFF94F88C10A3
:108AB0002846BDE8384003F0EFBC38BD2DE9F04151
:108AC00000251E46012304460375C0E90055C0E990
:108AD000025505611830174688460CF06DFC04F10C
:108AE00064000CF069FC4FF4C873A4F8B0301E4B5E
:108AF000C4F8CC304FF07C52C4F8FC304FF4FA6329
:108B0000C4F8D420A4F81031184A069BC4F8DC201D
:108B1000002041F28832E360079BC4F8BC00C4F82F
:108B2000C000C4F8C400C4F8C800C4F8D000C4F839
:108B3000D800C4F8EC00C4F8F000C4F8F400C4F89D
:108B4000F800C4F80001C4E92D55C4E93955C4E959
:108B50004255C4E90087A4F8E02084F80451A660D7
:108B600023612046BDE8F081CDCC4C3E0000A04101
:108B700010B5B0F8E0100446E43003F08DFCD4EDFD
:108B8000317A37EEE77AC4ED3B7AC4ED3C7A77EE82
:108B9000A77A84ED3E7AB6EE007A67EE877A94ED96
:108BA0003F7AC4ED3D7A67EE277A002384F80431DA
:108BB000C4ED407A10BD000090ED327AD0ED346AF9
:108BC000B5EEC07AF1EE10FAD4BFF1EE477AF0EECE
:108BD000477AF4EEE76AF1EE10FA10B5044646D98A
:108BE000D0ED366A9FED350AF4EEE76ADFED347AB0
:108BF000F1EE10FA88BFB0EE670A94BF012300239C
:108C0000D4ED3E7A94ED406AF5EEC07AF1EE10FABA
:108C1000D4BFF1EE676AF0EE676AB4EEE66AF1EE91
:108C200010FA2BD8F5EEC07AF1EE10FA23DD002908
:108C30003ED02046FFF79CFFB4F8101104F5847075
:108C400003F02AFC012384F804319FED1E0AA0687A
:108C5000FEF75AFDA36893F8323323B904F5847004
:108C600003F029FC10B1002384F8043110BD9FEDFE
:108C7000140A0123C4E701D50029DAD094F80421AD
:108C8000002AE2D1A0687BB1B5EEC07AF1EE10FA0D
:108C900004DD29B1BDE81040FEF71AB80029F9D06B
:108CA000BDE81040FEF7D4B8BDE81040FDF762BF44
:108CB000F5EEC07AF1EE10FAE0D5BAE76666663FE7
:108CC0009A99193F0000344310B50446406800F0FB
:108CD00071FC237D2BB120460021BDE81040FFF739
:108CE0006BBF10BD10B50446406800F077FC237DD3
:108CF0002BB120460121BDE81040FFF75DBF10BD3C
:108D000038B5084C05467021204601F05BFE012174
:108D1000A9402046C9B201F0AAFE2046BDE838406D
:108D200001F001BF2836002070B5044604F1180692
:108D30000120FFF7E5FF214930460CF0A8FB05466E
:108D400020B91F491F480CF017FE25751E491D4804
:108D50000CF012FE304600210CF077FB0122114688
:108D600030460CF05DFB04F164060020FFF7C8FFFD
:108D7000124930460CF08BFB054620B913491148C7
:108D80000CF0FAFD257512490E480CF0F5FD304641
:108D900000210CF05AFB0122114630460CF040FB3A
:108DA000B4F8B01004F1B40003F076FBB4F8E010AE
:108DB00004F1E400BDE8704003F06EBB28360020EB
:108DC000AAE801001C420020D6E80100FEE80100EC
:108DD0002BE9010038B5037D0446002B69D000F172
:108DE000B405284603F067FB90B3B4F8B0102846EA
:108DF00003F052FB0120FFF783FF032104F1180069
:108E00000CF016FD002084ED2F0AFFF779FF0321F7
:108E100004F164000CF00CFDD4ED2F7A84ED300ADF
:108E200037EEC07A30EE270AF6EE007A20EE270AF7
:108E3000D4ED337A84ED310A67EE807A84ED327AAC
:108E4000C4ED347AD4ED357A27EE800A84ED360A03
:108E500004F1E405284603F02EFBF0B1B4F8E0106D
:108E6000284603F019FBD4ED3C7A94ED317AC4ED39
:108E70003B7A77EE676A77EE877A84ED3C7AB6EED6
:108E8000007A67EE877A94ED3F7AC4ED3D7A67EE1B
:108E9000277AC4ED3E6AC4ED407A23695B7943B119
:108EA0006068052100F0EBFB2068BDE83840FCF766
:108EB0003FBF38BD70B5012505614FF4FA760F4DFF
:108EC000456186844FF07D550D4E85610025C0E9D2
:108ED0000C65C0E90755C0E90A55C0E9105585631E
:108EE00047F230564FF47A658360049B8687C0E969
:108EF0000012A0F84850C36070BD00BF0000964249
:108F00007017030038B5114D04461121284601F0B1
:108F100059FDE17C284601F0AAFD284601F003FE38
:108F200004F11C00002103F0B7FA04F1280000212D
:108F300003F0B2FA04F13400002103F0ADFA04F1B9
:108F400040000021BDE8384003F0A6BA28360020D2
:108F500038B5074C05461121204601F033FDE97C68
:108F6000204601F084FD2046BDE8384001F0DBBD1D
:108F70002836002038B5084CC57C1121204645F024
:108F8000400501F01FFD2946204601F070FD2046F6
:108F9000BDE8384001F0C7BD28360020F0B50446D2
:108FA0008BB0406800F02EFB237C002B50D0637CFC
:108FB00004F1400663B1002363742046FFF7DAFF33
:108FC000E068FEF7F0FFB4F84810304603F064FAAA
:108FD000042200230DEB0201E0680193FEF7A5FFD8
:108FE000214B02AA03F110079446186859681546E8
:108FF00003C50833BB422A46F7D11C4B06AA03F12E
:10900000100E174618685968154603C5083373458E
:109010002A46F7D16146E0680822FEF793FFE06830
:1090200008223946FEF79CFF304603F044FA38B177
:10903000E068FEF7B8FFB4F84810304603F02CFAA9
:10904000A37CA068022B05D194ED060AFDF740FE33
:109050000BB0F0BD032B04D194ED060AFDF7F8FE2A
:10906000F6E7FDF787FDF3E754E9010064E9010045
:1090700038B50122044611210648064D01F0F4FCE2
:10908000044801F039FC20B1284601F04FFDA074DE
:10909000F6E738BD2836002038B5037C0446002B9F
:1090A00047D000F11C05284603F005FA90B1A18CC9
:1090B000284603F0F1F92046FFF7DAFF2046FFF7D4
:1090C00047FFA37C013B022B9EBF94F83330013352
:1090D00084F83330636893F90030042B2AD004F10C
:1090E0002805284603F0E7F980B1218E284603F0D1
:1090F000D3F994F8332094F832309A4203D360685D
:10910000042100F0BCFA002384F8333004F1340564
:10911000284603F0D0F930B12846A18F03F0BCF9FE
:109120002046FFF727FF636893F840300BB1012317
:10913000637438BD002384F83330F4E770B541F62A
:109140005836868383600E4E059B866240F2011579
:109150004FF4FA66C360049B05838685002547F2B9
:1091600030560361069B8576C0E90855C0E90C5569
:10917000C0E90F55C0E900120687436170BD00BF0A
:10918000F401F40110B500210446203003F084F905
:1091900004F130000021BDE8104003F07DB9037EEA
:1091A00010B504466BB143699B7953B140686FF0C9
:1091B000010100F064FA218F6068BDE8104000F002
:1091C00074B910BD2DE9F04104468AB0406800F042
:1091D000DCF9637E04F13C0504F1200703B30026AB
:1091E000A0686676FDF796FAA0683146303003F045
:1091F00053F96069FEF774FE6369218FDE712846BA
:1092000003F04AF90123A18BA376384603F044F911
:1092100004F13000A18D03F03FF92069FEF7C3FE91
:10922000042240F202230DEB020120690193FEF7B4
:109230007CFE5C4B02AA03F1100E94461868596834
:10924000164603C6083373453246F7D1564B06AA75
:1092500003F1100E904618685968164603C6083385
:1092600073453246F7D1614620690822FEF76AFE4F
:10927000206908224146FEF773FE384603F01BF9C9
:1092800068B10123A18BA376384603F005F904F1F8
:109290003000A18D03F000F92069FEF784FEA37E63
:1092A000002B74D004F1300003F005F9002868D0D9
:1092B0000023A3766069FEF7E3FD6069C27A037A52
:1092C0009A423DD301266676FEF70AFE6369642161
:1092D000DE7100200EF02FFC40B25028CCBF31468A
:1092E00002212068FCF7ECFD2068FCF721FD606896
:1092F000022100F0C4F9E3686668D3ED087AB1EEA4
:10930000007A67EE877AF5EEC07AF1EE10FA17EE82
:10931000900A40DB11F0FEFC244B002211F09CFB74
:1093200012F000F80146304600F0BFF863680022F2
:1093300083F84120E368012283F83C2083F83F2032
:10934000284603F0B8F8C8B1012560696576FEF7D4
:10935000C7FD63696421DD7100200EF0ECFB40B2B3
:109360004B28D4BF032129462068FCF7A9FD2068BB
:10937000FCF7EEFC6068002100F081F90AB0BDE85E
:10938000F081628D218DA068FDF7FCFC92E7A0685A
:10939000FDF7C0F98EE711F0BDFC044B002211F07F
:1093A00059FBBDE774E9010084E901000000E03FDA
:1093B00043694176D97070472F4A034670B500243F
:1093C00020F8024B1568C3F802509588858095797E
:1093D000857115466420C3F80940587255F8070F87
:1093E0001861A87998751920D8752448C3F81A40CF
:1093F00098610F2018771046AE8850F80E5FC3F8BA
:109400001E508588807983F8240010465D8450F8CA
:10941000155FC3F8255085888079DC609E82A3F8AB
:10942000295083F82B0052F81C0FD862908892794B
:10943000188683F8322041F6583041F28832C3E969
:109440000D0243F69822DA6301220D48A3F840206A
:1094500083F85C204FF4FA72A3F85E204FF47A721E
:10946000C3E91204C3E914445C649C65A3F860205A
:109470005966184670BD00BF94E901000514140F29
:109480000000551510B56421044600200EF053FB72
:10949000616B607004F14C0002F0FEFF04F15400B7
:1094A0000021BDE8104002F0F7BF41634C3002F0EC
:1094B000F3BF10B504464FF47F02406E002102F066
:1094C000CDFA606E4FF47F02032102F0C7FA606E9E
:1094D000BDE8104002F0C0B910B50446074A406E1E
:1094E000002102F0BBFA606E044A032102F0B6FAD2
:1094F000606EBDE8104002F0AFB900BF00FFFF0092
:1095000013B504460A460191406E002102F0A6FA06
:10951000019A606E012102F0A1FA019A606E0221A7
:1095200002F09CFA606E019A032102F097FA606ED5
:1095300002B0BDE8104002F08FB910B504464FF4F8
:109540007F42406E002102F089FA606E4FF47F4244
:10955000032102F083FA606EBDE8104002F07CB98E
:10956000FFF7A7BF10B504464FF0FF12406E002171
:1095700002F074FA606E4FF0FF12032102F06EFAEF
:10958000606EBDE8104002F067B910B504464FF6B2
:10959000FF72406E002102F061FA606E4FF6FF72BA
:1095A000032102F05BFA606EBDE8104002F054B98E
:1095B000FFF7C3BF10B504466FF07F42406E002135
:1095C00002F04CFA606E6FF07F42032102F046FA1F
:1095D000606EBDE8104002F03FB9000010B50446CF
:1095E000074A406E002102F039FA606E044A0321F6
:1095F00002F034FA606EBDE8104002F02DB900BFF1
:109600005555550010B50446FF22406E002102F06A
:1096100025FA606EFF22032102F020FA606EBDE899
:10962000104002F019B938B500F154050446284637
:1096300002F041FF50B1B4F85E10284602F02CFF52
:1096400094F85C3083F0010384F85C3094F85C108B
:10965000606E71B14FF47F02002102F0FFF9FF222A
:10966000606E032102F0FAF9606EBDE8384002F046
:10967000F3B8FF2202F0F2F94FF47F02F0E790F91D
:1096800000308B4210B5044663D0012380F840308F
:109690000170D0E90E010EF04EFA94F90030073354
:1096A0000E2B4FD8DFE803F0084E4E4747401D50C1
:1096B000151724392B324B0047F230536363204691
:1096C000FFF7B1FF616B04F14C00BDE8104002F000
:1096D000E3BE6063F6E7636C63632046FFF72DFF2C
:1096E000F0E7B4F8483063632046FFF7E2FEE9E7AD
:1096F00044F6206363632046FFF734FFE2E744F655
:10970000206363632046FFF755FFDBE744F62063E1
:1097100063632046FFF762FFD4E744F62063636388
:109720002046FFF76FFFCDE744F6206363632046D2
:10973000FFF72BFFC6E74EF660236363C2E744F6EC
:109740002063FAE70023237060632046FFF7C4FE1E
:10975000B8E710BD10B5002204461146406E02F075
:109760007DF9606E0022032102F078F9606EBDE899
:10977000104002F071B838B500F15405044628468F
:1097800002F099FE50B1B4F85E10284602F084FE53
:1097900094F85C3083F0010384F85C3094F85C301A
:1097A00083B1606E4FF47F02002102F057F9606EC2
:1097B0004FF47F02032102F051F9606EBDE838409A
:1097C00002F04AB82046BDE83840FFF7C3BF2DE994
:1097D000F843D0F864909DF8247005464FF00C08CB
:1097E0000C4610049DF820109DF82820B0FBF8F0DE
:1097F00080B21E4602F062F902F0BCF90021024676
:10980000484602F02BF924043A463146B4FBF8F4FA
:10981000A0B2D5F8649002F051F902F0ABF903213F
:109820000246484602F01AF9686EBDE8F84302F0B5
:1098300013B810B56421044600200EF07CF9002313
:1098400040B2984284F84130607094F902300CDBE9
:1098500083420EDD00212046FFF711FF616B04F10A
:109860004C00BDE8104002F017BE834294F903108B
:1098700005DC94F90330834205DD0121EBE78842E2
:1098800094F9042008DB94F90430834208DD0123B5
:1098900084F841300221DEE7904294F9053005DB7F
:1098A00094F90530834205DD0321D4E7984294F909
:1098B000062005DB94F90630834205DD0421CAE762
:1098C000904294F9073005DB94F90730834203DDB9
:1098D0000521C0E79842BDDB94F908308342B9DD29
:1098E0000621B8E710B504464C3002F0E4FD20B183
:1098F0002046BDE81040FFF79CBF10BDFFF799BFA1
:1099000010B54A1E02300631002412F9013F2344EB
:109910008A4200F8013B1CB2F7D110BD052904D8DA
:10992000DFE801F01303070A0D1000F11001FFF743
:10993000E7BF00F11701FAE700F11E01F7E700F1B8
:109940002501F4E700F12C01F1E700F10901EEE750
:1099500010B507EE901A2DED028BF8EE677A9FEDA9
:10996000218A9FED217A78EE677A00F15404C7EEE0
:10997000278A204602F098FD07EE900AF8EE677AF3
:10998000B0EE487AA7EEA87A2046B4EEC87AF1EE97
:1099900010FA15DB02F088FD07EE900AF8EE677A00
:1099A000A7EEA88A18EE100A11F0B4F90F4B0022A6
:1099B00011F052F811F0B6FCBDEC028BC0B210BD34
:1099C00002F072FD07EE900AF8EE677AA7EEA88A19
:1099D00018EE100A11F09EF9044B002211F03AF82B
:1099E000E8E700BF0000000000007FC30000E03F88
:1099F00037B500F1540504462846019102F05BFD9D
:109A0000019918B1284602F047FD01992046FFF759
:109A10009FFF020242EA00420021606E019202F0C2
:109A20001DF8606E019A032102F018F8606E03B011
:109A3000BDE8304001F010BF70B50025C0E9065503
:109A40004560064D0562C0E902230126049B0675A8
:109A50004FF47A6585840160036170BDD007D0073B
:109A60000021183002F018BD037D10B504467BB10B
:109A7000836893F840305BB1818C408C0EF05BF8CA
:109A8000208481B204F11800BDE8104002F004BD4A
:109A900010BD38B5037D0446A3B1183002F00BFDAC
:109AA000054620B1A068BDE83840FFF727BFA06891
:109AB000218CFFF79DFF2368E0681D73BDE83840E7
:109AC000FCF728BE38BD0000F0B504460F46012162
:109AD00081614FF4FA612184A1853049A16301F6C7
