:1040000000000320D9800100C5800100C5800100A7
:10401000C5800100C5800100C580010000000000CE
:10402000000000000000000000000000C58001004A
:10403000C580010000000000C58001005981010019
:10404000C5800100C5800100C5800100C580010058
:10405000C5800100C5800100C5800100C580010048
:10406000C5800100C5800100C5800100C580010038
:104070001D80010023800100298001002F800100A4
:10408000358001003B800100418001004780010034
:104090004D80010053800100598001005F800100C4
:1040A000658001006B800100718001007780010054
:1040B000C5800100C5800100C580010049C2000023
:1040C00049C2000049C2000049C2000049C20000C4
:1040D000C5800100C5800100C5800100C5800100C8
:1040E000C5800100C5800100C5800100C5800100B8
:1040F00000000000C5800100C5800100C5800100EE
:10410000C5800100C5800100C5800100C580010097
:10411000C5800100C5800100C5800100C580010087
:10412000C5800100C5800100ED5D0100F95D010061
:10413000FD5D0100015E0100C5800100C580010038
:10414000C5800100C580010019B2000025B2000041
:1041500029B200002DB20000C5800100C580010019
:10416000C5800100C5800100C5800100C580010037
:10417000C5800100C5800100C5800100C580010027
:10418000C98001006B8101006F8101007381010012
:10419000C5800100C5800100C5800100C580010007
:1041A000C5800100C5800100C5800100C5800100F7
:1041B000C5800100C5800100C5800100C5800100E7
:1041C000C5800100C5800100C5800100C5800100D7
:1041D000C5800100C5800100C5800100C5800100C7
:1041E000C5800100C5800100C58001005D69010036
:1041F00015F9000000000000C5800100C580010025
:10420000C5800100C5800100C5800100C580010096
:10421000C5800100C5800100C5800100C580010086
:10422000C5800100C5800100C5800100C580010076
:10423000C5800100C5800100C5800100C580010066
:10424000C5800100C5800100C5800100C580010056
:10425000C5800100C5800100C5800100C580010046
:10426000C580010010B5054C237833B9044B13B158
:104270000448AFF300800123237010BD60090020C3
:1042800000000000E40E020008B5034B1BB1034917
:104290000348AFF3008008BD00000000640900205F
:1042A000E40E0200014801F036BE00BF602000208D
:1042B000014801F030BE00BF20210020014801F07C
:1042C00042BE00BF60200020014801F03CBE00BF9C
:1042D0002021002010B50446383011F0F3F92046B3
:1042E00010BD00002DE9F0472DED028B1F464378ED
:1042F000BDF828A0BDF82C6004468946154600F19B
:104300003C0833B10023437043715146404606F0E8
:104310007AFD404606F086FD48B163790133DBB291
:10432000012B637111D13146404606F06CFD667970
:1043300076B9B9F1010F16D132462946BDEC028B90
:104340000E20BDE8F04712F047BAF0D9022363719E
:104350000E2012F02BFABDEC028B0021BDE8F047D5
:104360000E2014F0B5BAB9F1020F3CD1404606F068
:1043700052FD07EE905AB8EE678A07EE907A04462F
:104380005046F8EE678A16F0ABFF02460B46002057
:10439000002116F057FE17F005FB78EE688A07EE4D
:1043A000900A88EEA77AA4B207EE904AF8EE677AF0
:1043B000A7EE278AB5EEC08AF1EE10FA18EE100AC1
:1043C0000ADB16F09FFF454B002216F03DFE17F06A
:1043D000A1FA81B20022B1E716F094FF3F4B002210
:1043E00016F030FEF3E7B9F1040F0DD194F8482030
:1043F00082F0010284F848201AB1B4F84C10324619
:104400009CE7B4F84E1099E7B9F1050F18D104F103
:104410005408404606F006FD00285AD0B4F8521061
:10442000404606F0F0FCBD4204D92946384613F058
:1044300034FECEE702D239462846F8E73146C9E7CE
:10444000B9F1030F84D1B4F86030D4ED198A404635
:1044500008EE103A06F0DFFC07EE900AB8EE488A44
:10446000F8EE677AB4F86030A8EEA78A404607EE07
:10447000903AB5EEC08AF1EE10FAD4ED198AB8EE92
:10448000678A15DB06F0C7FC07EE900AF8EE677A3C
:10449000A8EEA78A18EE100A16F034FF0F4B002280
:1044A00016F0D2FD17F036FA81B2A4F8681091E741
:1044B00006F0B1FC07EE900AF8EE677AA8EEA78A3C
:1044C00018EE100A16F01EFF044B002216F0BAFD7B
:1044D000E8E7BDEC028BBDE8F08700BF0000E03FDD
:1044E00070B5002200F50B650446114628460BF016
:1044F0000BFE68BB1E491F4804F1200511F0E4FCC7
:104500001D4A1F21284610F02FFF48B304F148062A
:10451000194A2121304610F07FFB08B3284610F0DD
:1045200002FEC4E91906284610F0FFFD1349E066B3
:10453000104811F0C9FC04F1700094ED010A0EF06E
:104540002FFF04F10C000021BDE8704006F05BBCB9
:1045500028460CF07FFA08B90949CCE70949CAE7AF
:104560000949044811F0B0FC00232370E3E700BFC1
:1045700098EB01004C3800205C2C002001EC01007D
:10458000BAEB0100DCEB01001BEC01000023C0E9E9
:104590000033C0E903330381837283820023836184
:1045A000C3610362704738B50C46054613F0EAFD57
:1045B0002246002342F8040BA969C95C02F8011BDA
:1045C0000133072BF8D1AB691B89A381AB695B89E8
:1045D000E381AB699B892382AB69DB896382AB6929
:1045E0001B8AA382AB699B7D07EE903AF8EE677A4F
:1045F000C4ED067AAB699B69E361AB69DB69236251
:1046000038BD000010B54FF4E1316D4812F06AFA80
:104610006C4806F091FC4FF4FA6013F0F3FD684823
:1046200011F04AFC6849664811F04EFC674964483D
:1046300011F04AFC0F2014F061F813F01FFD6448DC
:1046400007F008FB624807F0EFFB624804F030FD1A
:10465000614802F0CCF8614805F02CF9604802F09E
:10466000EFFA604801F09CF900210E2014F030F9B7
:104670005D48002106F0C7FB5C48002106F0C3FB43
:1046800000215B4806F0BFFB5A4803F09DFF08215C
:1046900059480BF00FFA5948002106F0B4FB58486E
:1046A000FFF71EFF574BDB681B78002B40F086801E
:1046B0005549564C424811F007FC0021544806F079
:1046C000A2FB04F12000FFF761FF04F12001204666
:1046D000FFF769FFB4F8461004F1480006F093FBB9
:1046E00023684C4803F69823A36104F051FA4A4822
:1046F00004F03EFF494805F0A1FC494805F0F6FEEC
:10470000484805F0D1FB48483E23C37404F0CEFD71
:10471000464A324B926A5A64454A4648128DA3F87B
:104720004820002106F06FFB4348002106F06BFB98
:10473000424B4348196806F066FB02221046414985
:1047400013F074FB40490222042013F06FFB3F4931
:104750000222032013F06AFB3D490222052013F0D8
:1047600065FB3C4B1B782BB13B4B1B4893F900106E
:1047700002F025F8394B1B782BB1394B174893F9C8
:10478000001005F022FA374B1B782BB1364B14483A
:1047900093F9001002F0B9FD0F4B104893F9011086
:1047A00005F09FF8314B064800221A7111F084FB86
:1047B000BDE810402E49034806F0DEBB2D4978E7DE
:1047C0004C3800205C2C0020D1EC010045EC0100AD
:1047D000E02100209028002018220020342A002008
:1047E00060220020A815002038270020482700203C
:1047F00040270020982600207927002094270020B9
:10480000E809002058260020DDEC0100B426002035
:1048100070260020E0270020F0290020C42A002074
:10482000682B00209C2A0020A4290020A02700201B
:104830002C2C0020A015002094150020080000203A
:104840008C150020A5420000C9420000BD420000B6
:10485000B1420000040000208A150020050000205D
:104860008B150020891500200600002078270020E5
:10487000801A060005ED010010B50A4C0A4805F043
:1048800052F8204601F0AFF8A37C2BB1074B40F261
:104890000222DA8000221A81BDE81040014801F0AE
:1048A000A9B800BFA8150020342A00200C2700203A
:1048B000F0B5414C414889B005F035F8204601F08B
:1048C00095FA3F4802F095FA3D4802F0ABFB94F8A8
:1048D000593A0022A274A3B33A4B01215970A17432
:1048E00039491A815960394B6D4603F110072A4640
:1048F000186859682E4603C60833BB423546F7D1BF
:1049000033490823013B32F8020B21F8020B13F064
:10491000FF03F7D12F4B04AD03F110072A461868A7
:1049200059682E4603C60833BB423546F7D12A499B
:104930000823013B32F8020B21F8020B13F0FF03AE
:10494000F7D11E4D2A78053A012A02D8234804F0EF
:10495000D3FA95F90030072B14D1214D95F9163073
:10496000022B0FD1284605F0C2FD1348B5F99A6015
:1049700001F0F6F8032806BF714209B23146284615
:1049800005F0BFFD0C4801F02EF8A38A154801334D
:1049900090F822209BB29342A3820BD30023A382E0
:1049A00006F02AFA05484FF0FF3109B0BDE8F040A3
:1049B00005F00BB909B0F0BDA8150020342A00207D
:1049C000602200200C270020000002022CED0100D4
:1049D000162700203CED010026270020902800200B
:1049E000682B00202C2C002070B5164E164C13F0AE
:1049F000C9FB31680A220546411A204611F0D7FA50
:104A00003560124D2046294611F04FFA104B022115
:104A100093ED200B204611F0A5FB2946204611F00E
:104A200044FA0C4B022193ED200B204611F09AFB27
:104A30002946204611F039FA2046BDE8704011F0B1
:104A40003BBA00BF9C1500204C3800209AEC0100B6
:104A5000602000202021002037B5044629488DED34
:104A6000010A06F0DFF9002833D0274B274D1A78CA
:104A70009DED010A52B100221A70254B2548198874
:104A800006F0C1F901239DED010A2B708DED010A9D
:104A9000FFF7AAFF1F4806F0C5F99DED010A68B1AE
:104AA0001D4B1B78A3B11A4B1A48198806F0ABF9B5
:104AB0002B789DED010A83F001032B702B7843B115
:104AC000012C16480BD103B0BDE8304002F033BDD5
:104AD0002B70124803B0BDE8304002F0A3BA032C9B
:104AE00004D103B0BDE8304002F044BD042C04D131
:104AF00003B0BDE8304002F0FFBD03B0BDE8304078
:104B000002F0CEBC8C150020070000200F00002012
:104B100010000020A01500200E00002060220020C0
:104B20002DE9F04FC748DFF8D083C74DC74E85B099
:104B300006F065F9C64806F062F9C64806F05FF966
:104B4000522306220421404606F0CCFFC24AC34944
:104B5000404614F007F86021C14806F0F1FB03223B
:104B60000221C04801F04CF905220421BE4801F0A1
:104B700047F9BC4ABA49BC4BBC4801F0ADFEBC4B3E
:104B80000120C5E90003BB4BAB6005F10C0006F04A
:104B900036F942F6E06442F21073C5E9054349F67E
:104BA0004043EB61337985F824303346306833F87D
:104BB000052FA5F825209B7885F82730334606F188
:104BC000100733F8082F2A859B7885F82A3033465A
:104BD000286253F80B2FC5F82B201B7985F82F304E
:104BE0000FCF05F130040FC43B6823604146A24853
:104BF000C5F84480A14C04F0F3FD9C4B9E4AA048AC
:104C0000294600F047FE4FF4A01323600023A38041
:104C1000C4F80630238340F20B236381994B636110
:104C2000C4E9033304F11A0206F12403343653F8BD
:104C3000041B42F8041BB342F9D19348DFF8BC923D
:104C4000924EDFF8BC82924F06F0D9F8914806F0F8
:104C5000D6F8914806F0D3F8904B63644FF47A731A
:104C6000A4F84A308E4BE3644FF0010B192384F80B
:104C700048B084F850B0A4F852308A4806F0BFF823
:104C80004FF4FA63A4F85E30874B2366874B636664
:104C90004FF4837384F85CB0A4F868300821484668
:104CA0000AF048FD824BA9F802B04FF08072C9E9C2
:104CB0000123804B4FF00A1109F11400C9E90313D5
:104CC00006F09DF830464FF0000A00F801BB0AF0EC
:104CD00029FE322386F804A0F38006F1080006F0CE
:104CE0008EF84FF05A1333611E23F3824FF4C873CA
:104CF00086F814B0338306F11C0006F080F86E4B82
:104D00006E4A73620A23002688F80230A8F8083039
:104D1000A8F800B0C8F8042008F10C0006F06FF8FD
:104D2000674AC8F81460C8F81860C8F81C6065497C
:104D300008F1200010F01CF8634908F148000FF05A
:104D400063FF624AC8F8702008F50B600BF0C2F9E7
:104D5000414A5F49404613F005FF0A23BB70142304
:104D60003B825C4BA7F800B07B6107F1180006F0AE
:104D700046F83C4B7B603C4B3E627E62BE62FE620C
:104D80003E637E63BE63FE63534EDFF8E0B0C6F859
:104D900018A0C7E9023840F20113B3836523A6F8CF
:104DA0004630C6E900AAC6E902AAC6E904AA86F8FE
:104DB00044A006F14800DFF8C8A006F020F806F18C
:104DC000500006F01CF8C6E900A577612A4D434F54
:104DD000B560C6E903B85B462A461B4900943846CD
:104DE00003F080FC3E4E184900945B462A463D483D
:104DF00005F0ECFE5B462A46134900943A4805F05C
:104E000053FF5B462A46CDE901790F4900943046AD
:104E100004F07AFB5B462A46CDE900460A4933484E
:104E200003F068FE0C4A3249304813F09BFE5B46A3
:104E30002A46CDE9004904492E4803F0FBFF5B46B2
:104E40002A465FE0A0150020182200204CED01004A
:104E5000941500208C1500200000002005BB0000E8
:104E60007C090020602000202021002060220020FA
:104E700000000501000ACE32342A00200C27002051
:104E8000A81500200B020B023827002078270020ED
:104E9000582600204027002048270020010000015C
:104EA0007B00F7006027002006017B0004568EBDC2
:104EB000030205005A0088130400A00F0000C84236
:104EC0000B7008000A7008002C00210098FF0100F8
:104ED000D95500000AD7A33CB4260020A027002003
:104EE000F02900200C2C00202C2C0020E027002092
:104EF000D542000090280020E021002098260020C4
:104F0000E809002010490094104804F097F92B4656
:104F10005146CDE901490C4ACDF800B00C4805F0E6
:104F200003F82B465146CDE900B4074A094805F07D
:104F30005BFA00945B462A465146074804F094FF0A
:104F400005B0BDE8F08F00BF18220020A429002082
:104F5000C42A0020682B00209C2A002000000000AA
:104F60002DE9F0472DED068B634D82B013F010F95B
:104F7000284601F04EFCEB79BBB1002395F90110F6
:104F80005E48EB7104F0ADFC95F901305C482B44B0
:104F900093F92B1001F01AFF95F90130584805EBF1
:104FA000830393ED0C0A03F022F9564B1B782BB1C7
:104FB000554B514893F9001001F001FC4F4E30461B
:104FC00004F0D4FE96F8403023B195F901104A4818
:104FD00001F0D5FB4D4B1B784BB14D4B93F90010B5
:104FE00096F900308B4202D0444804F0EEFD494F60
:104FF0003B7813B1484B00221A73484C13F0C8F8A1
:10500000454800F03EFD13F0C3F86379022B0CD144
:10501000012363700023637123790133DBB2032B17
:10502000237184BF40F20323A3803D4805F0FAFEBC
:1050300018B361883A4805F0E6FE2279530022440D
:10504000DBB291792170032903F10C022ED1B4F85F
:105050005EC004EB4200A0F802C004EB430C04EB7A
:105060004204BCF81C30019363880093BCF80C30F8
:10507000BCF80A202948FFF735F92A4C2A4803F0E2
:10508000CFFA2378002B77D004F1080005F0CAFE90
:10509000002871D0E18804F1080005F0B4FE2379FE
:1050A000012B0AD1B4F91010601C21E00429D4D1DD
:1050B000B4F84AC004EB4200CDE7022B36D104F12C
:1050C0001C0005F0AFFE002856D0218B04F11C0017
:1050D00005F099FE227DB4F91210B4F916301AB118
:1050E00000222275C91ADFE7012222751944A0188F
:1050F0000AF00EFD40E000BF18220020342A0020F4
:1051000060220020040000208A15002005000020F5
:105110008B15002088150020A81500200C270020E2
:10512000382700207827002098260020032B40F005
:105130008D8104F11C0005F075FEE8B194F825207E
:1051400094F824309A4280F07581218B04F11C0080
:1051500005F059FE227DB4F91210B4F91630002A78
:10516000BED101221944A01822750AF0D1FC94F88E
:105170002530013384F82530C54C2378002B6DD0C1
:1051800004F10C0005F04EFE002867D0B4F90810B9
:1051900004F10C0005F037FE606E036804F533611E
:1051A000DB689847A06E036804F65431DB689847C3
:1051B000E06E036804F67831DB68984704F67831CE
:1051C00004F50B600AF0EAFC04F5336104F50B60AA
:1051D0000AF0E4FC04F5376804F6543104F50B607A
:1051E0000AF0DCFC98ED001ADFEDAA7A04F66C38C0
:1051F000D8ED000A04F6683898ED000A04F6483243
:1052000004F6443304F6943E04F5396C04F68C300D
:1052100004F64C3190ED003A92ED002AD3ED001ADD
:105220009EED004ADCED003AD1ED002A21EE271A6E
:1052300060EEA70A20EE270A04F170000EF088FA4B
:10524000636FA361A36FE361E36F636163785A1CCB
:105250006270A2789A429CBF002363708E488F4C84
:1052600000F08AFE8E4800F087FE2378002B6CD079
:1052700004F1180005F0D6FD002866D0B4F910102E
:1052800004F1180005F0BFFDD4E90113D4ED0C8A38
:1052900094ED0D8AC4ED0E8AD3E9202384ED0F8AA4
:1052A000D1E9200115F0D0FE00227E4B16F082F8E5
:1052B00016F078FBE3682062D3F814A0C4F82CA0A1
:1052C00016F020F880465046894616F01BF8764BBB
:1052D000002216F099F96CA3D3E9002316F06AF8BE
:1052E00041EC100B41EC1A0B13F042FC404653EC1E
:1052F000102B494616F05EF816F054FBB0EE4A0A41
:10530000F0EE6A0A09EE100A606213F009FD4046E9
:1053100053EC102B494616F04DF816F043FB63781A
:1053200094ED057AA06207EE900A5A1C6270E9EECD
:10533000078AA278A7EE878A9A4298BF0023C4ED15
:105340000C8A84ED0D8A98BF6370584C237F0BB391
:1053500004F1480005F066FDE0B1B4F8461004F130
:10536000480005F050FD002104F1500005F04BFD10
:1053700004F120012046FFF716F94D48092105F0F8
:105380000BFE4B48242204F1200105F080FD484823
:1053900005F0B3FE474803F0CAFA474803F02BFD77
:1053A000464803F0DBFE464804F05CF8454804F04C
:1053B000ECF8454804F07CFD444804F081FE444884
:1053C00005F063FC0023434886F8403005F02AFDD1
:1053D00020B1414B3F48198805F015FD3F4B404C2B
:1053E0000020D880188196F900302071DA1D30D164
:1053F0003C4B93ED000AFFF72FFB95F90130012B91
:105400000BD103232371C82323831E23E3824FF48C
:105410007A63E384062384F8243096F90030012B64
:1054200004BF0023237102B0BDEC068BBDE8F0473A
:1054300012F0AEBEE18C04F11C0005F0E4FCB4F9FE
:105440001210601C0AF064FB002393E6B4F91210FA
:105450002AE6012B03D11E4805F0D4FBCDE7191D28
:1054600003D1194804F039FDC7E7DA1C03D1174806
:1054700004F046FEC1E7023336D1124804F098F832
:10548000BBE700BFAFF3008000000060FB210940D4
:10549000E8090020E02E6542602000205826002008
:1054A000202100200000E03F00806640B42600205C
:1054B0005C2C0020A0270020E0270020902800205E
:1054C000A4290020F02900209C2A0020C42A0020C2
:1054D0000C2C0020941500200C0000200C2700202C
:1054E0007827002014000020304800F086FA20B110
:1054F0003B7813B9FFF7C0F97FE72C4B5B7B0BB10F
:105500003B7883B196F90030022B0FD196F84130E9
:105510002BB1274A002386F8413082F83F302448D7
:1055200003F084FA69E7FFF7C3F966E7032B03D1B9
:10553000204803F069FB60E7052B03D11E4803F008
:1055400087FD5AE7062B03D11B4803F08FFD54E774
:10555000042B03D1194803F0F5FE4EE7072B03D1C6
:10556000174805F0CDFA48E701330AD1154890F8FD
:1055700021301BB1144804F003FC3EE705F0C0FBEA
:105580003BE7114804F0E2F9104B1B784BB1104B8C
:10559000104893F9001001F0B8FE0E4802F0B1FD7A
:1055A0002BE70C4801F09DFEF7E700BFA81500208F
:1055B000A0270020E027002090280020A429002018
:1055C000682B00202C2C0020342A00208915002074
:1055D000060000206022002010B5044648300FF07D
:1055E000DDF904F120000FF045FB204610BD00005E
:1055F000012101704170C170054900220988827043
:1056000002714271C28082720D220181C2727047A2
:1056100080ED01007047012906D801448B79002BE9
:105620000CBF002003207047002070470023437107
:105630008371C37170470000037870B50446002B76
:105640002DD01748164E0122092105F0F7FC002540
:10565000304605F03BFC20B1304605F051FDC5B2A7
:10566000F6E7A378257123441A7AAA4304BF0122DE
:105670009A71E37823441A7AAA4304BF01229A71EB
:10568000A3790BB101236371E3792BB1012363711A
:10569000A37A0133A37202E06379002BF8D170BDC5
:1056A0005C2C00200160704710B503790446006847
:1056B00043B994ED030A02F097FA002801DD0123B3
:1056C000237110BD012B07D194ED020A02F09DFA5F
:1056D0000028F6DD0223F3E7BDE8104001F0A2BC8C
:1056E000007901288CBF00200120704708B50221F5
:1056F000002012F0D2FCC0B20128FFEE007AB7EE13
:10570000000A18BFB0EE670A08BD000000000000E4
:1057100038B52DED028B0B78032B04460D4608D1CE
:10572000002303718369C360D4ED057AF1EE677AD3
:105730004FE04B78032B08D1002303718369C360CA
:1057400043698360BDEC028B38BD8B79012B12D984
:10575000032B0BBF00230123237123710CBFA3690B
:105760000023E360FFF7C2FFD4ED057A27EE800A3D
:1057700084ED020AE6E7CB78012B34D9032B90EDB8
:10578000048A29D100230371806915F0BBFD36A37B
:10579000D3E9002315F00EFE16F004F9FFEE047AAB
:1057A00028EE278AE06084ED028A2B79012B4CD900
:1057B0002046FFF79BFF2D210020B0EE408A12F01B
:1057C0006CFC07EE900AB8EEE77ADFED297AE8EE96
:1057D000077AC4ED027AB5E7012303710023C360A1
:1057E000B1EE488ADFE70B79012B33D9032B90ED1B
:1057F000048A25D100230371806915F083FD1AA363
:10580000D3E9002315F0D6FD16F0CCF8F7EE047AB4
:1058100028EE278AE06084ED028AEB78012B14D908
:105820002046FFF763FF2D210020B0EE408A12F0E2
:1058300034FC07EE900AB8EEE77ADFED0E7AC6E7A1
:10584000012303710023C360E5E7AB78012B3FF62A
:105850006BAF77E78B78012B3FF67AAF4B79012B53
:105860003FF676AF6EE700BF9A9999999999E93F0B
:10587000000034C30000344310B50446FFF748FF6E
:10588000D4ED027AF5EEC07AF1EE10FACCBF032027
:10589000042010BD2DE9F8431E46012383815023C7
:1058A000038203230377374B03628362364BC36261
:1058B0000025364B85601746354A42620446C0E9EA
:1058C000005585738574858285610363343088460D
:1058D00000F01CFC40F201130721A4F8403A04F642
:1058E000442009F0FCFE2B4BC4F8483A2A4BC4F87C
:1058F0004C3A2A4BC4F8503A04F65420FFF778FE8D
:10590000072384F8603A3223C4F8615AA4F8683A4D
:10591000C4F8645A04F66C2005F071FA4FF4FA7377
:10592000A4F8743A4FF0650904F6782005F067FA98
:10593000A4F8809A04F6842005F061FAA4F88C9A01
:1059400004F5296005F05BFA04F698230022C4F8F8
:10595000985AC4F8A05AC4F89B5AC4F8A45AC4F878
:10596000A85AA4F8AC5A84F8AE5A04F118009A6107
:10597000DA613146C4E90087A660FFF793FE20464E
:10598000BDE8F883000034420000B442000034C394
:10599000000034435000D007080010001800040035
:1059A00010B50021044600F5296005F02CFA04F634
:1059B0008420002105F027FA04F67820002105F064
:1059C00022FA04F1340000F033FD04F65420BDE85F
:1059D0001040FFF71FBE08B5343000F0E3FC00387C
:1059E00018BF012008BD00234373837300F65420C1
:1059F000FFF71CBE1830FFF757BE1830FFF770BE18
:105A000038B500F65425044600212846FFF703FE6A
:105A1000012184F8610A2846FFF7FDFD84F8620A37
:105A200004F5246005F01CFA04F1340584F8630AD7
:105A3000284600F08BFC84F8640A284600F094FCA9
:105A400084F8650A284600F064FC84F8660A284653
:105A500000F0C9FC002394F8605A84F8670A637365
:105A6000A37304F661220121D8B2854208D912F845
:105A7000010B18B10128A17388BF61730133F3E7EB
:105A800038BD436893F8403070B504460BB101232C
:105A9000037304F52965284605F0C4F940B128468A
:105AA000B4F98C1A05F0AFF904F5246005F0C6F9D5
:105AB00004F1340004F6842500F010FC284605F0BB
:105AC000B1F9A0B1B4F9801A284605F09CF904F6A2
:105AD0005420FFF7B1FD94F95E2A94F95F3A9A4297
:105AE00005DB206800F0B2FD002384F85E3A04F67E
:105AF0006C26304605F096F904F6782500B3B4F824
:105B0000681A304605F07FF92046FFF779FFA37B3E
:105B10002BB9284605F086F990B1002109E0284606
:105B200005F080F948B1B4F8741A284605F06BF90D
:105B30000121A06802F04FFB02E0A37B002BE8D01C
:105B4000284605F06FF918B9A068012102F043FB5F
:105B5000237B23B92046BDE87040FFF744BF70BDEA
:105B600010B50446FFF74CFF04F6612104F118005C
:105B7000BDE81040FFF780BE2DE9F84300F661252F
:105B8000044629461830FFF7C3FD94F8600A2946F9
:105B90000023DAB2904205D911F8012B81F83620A2
:105BA0000133F6E7B4F84A3A7F48DFF838927E4F7F
:105BB000DFF8348203EB83035B00A4F8A03AB4F867
:105BC0000C32A4F8A23AB4F8F833A4F8A43AB4F822
:105BD000D037A4F8A63AB4F8BC39A4F8A83A94F897
:105BE000123284F8AA3A94F8FE3384F8AB3A94F867
:105BF000D63784F8AC3A94F8C23984F8AD3A237FAA
:105C000084F8AE3A10F058F96849674810F05CF92A
:105C10006749654810F058F96649634810F045F93E
:105C2000002694F8603AF5B2AB4210D925444946B3
:105C3000384610F03AF995F8611A0A22384610F001
:105C4000C3F94146384610F030F90136E9E75A49C0
:105C5000554810F043F9544810F02EF9574952486E
:105C600010F023F9B4F9A01A4F480A2210F089F96C
:105C700053494D4810F032F952494B4810F015F98C
:105C800094F9AA1A48480A2210F07BF94E4946486E
:105C900010F00BF9B4F9A21A43480A2210F071F976
:105CA0004749414810F01AF948493F4810F0FDF8BB
:105CB00094F9AB1A3C480A2210F063F942493A4879
:105CC00010F0F3F8B4F9A41A37480A2210F059F981
:105CD0003B49354810F002F93D49334810F0E5F8EA
:105CE00094F9AC1A30480A2210F04BF936492E4884
:105CF00010F0DBF8B4F9A61A2B480A2210F041F98B
:105D00002F49294810F0EAF83249274810F0CDF819
:105D100094F9AD1A24480A2210F033F92A4922488E
:105D200010F0C3F8B4F9A81A1F480A2210F029F994
:105D300023491D4810F0D2F81B4810F0BDF8264941
:105D4000194810F0B2F80A2294F8AE1A164810F06A
:105D50003BF92249144810F0A8F804F52B6304F627
:105D6000B424186815F0CEFA41EC100B02210E484D
:105D700010F0F8F91A490C4810F097F8206815F05F
:105D8000C1FA41EC100B0221074810F0EBF906486C
:105D900010F092F80549044810F096F8BDE8F84371
:105DA000014810F089B800BF4C38002082ED010096
:105DB0006EEC01008FEC01008DEC0100AAED0100FA
:105DC000AFED0100B3ED0100A2EC0100B8ED010060
:105DD000BDED0100C2ED0100B5EC0100C0EC010019
:105DE000C8EC0100340C02009AEC010010B5044626
:105DF000FFF706FE2046BDE81040FFF7BDBE0000DD
:105E00004FF646732DE9F0478380FF2304468371E4
:105E100008308846154604F0F2FF2B4B0022C4E9F7
:105E2000042323A3D3E90023C4E90623274B00223C
:105E3000C4E90823264B0022C4E90A23254B00228B
:105E4000C4E90C231CA3D3E90023C4E90E23224B8D
:105E50004FF00009C4E910390A2384F848301F4B79
:105E6000E364002600279FED160B052104F1500086
:105E700000F0D0F8E06CB4F842A0C4E91E67C4E9B1
:105E8000206715F03FFA41EC100B514604F18800F1
:105E900000F0C0F8C4E92C67C4E92E6784F80580D7
:105EA000A571C4F800902046BDE8F087AFF30080EC
:105EB00046EAFF9EDB8F6740E0F09C762F1BD43FC5
:105EC000000000A09999B93F00004E4000004940F1
:105ED0000000284000C082400A000500CDCCCC3D27
:105EE00010B50446002190F9050012F0ADFC94F9BC
:105EF0000600002112F0A8FC04F10800002104F0C3
:105F000082FF04F1500000F09DF804F18800BDE824
:105F1000104000F097B838B5044690F9050012F02B
:105F200001FD054694F9060012F0FCFC2368854249
:105F300015BF013303F1FF332360236014BF4623F1
:105F40004223237138BD38B5044690F9050012F09C
:105F5000E9FC054694F9060012F0E4FC236885424A
:105F60000BBF013303F1FF33236023600CBF4623D3
:105F70004223237138BD00002DE9F84300F10805E4
:105F80000446284604F04EFF00283ED0284604F080
:105F900042FF15F095F91E4B002215F035FB064621
:105FA0000F462846B4F8401004F02DFF2068656CB9
:105FB000401B15F095F9D4E90E2315F0FBF9804646
:105FC0002068401B894615F08BF932463B4615F098
:105FD0001BFBC4E92C0141EC100B04F1880000F01C
:105FE00035F83B4684ED2E0B32464046494615F0C7
:105FF0000BFBC4E91E0141EC100B04F1500000F052
:1060000025F884ED200B23686364BDE8F88300BFA6
:1060100000408F4038B52DED028BB0EE408AF0EE97
:10602000608A04460D4604F0EAFE84ED048BBDEC64
:10603000028B002200232046C4E90623C4E908237A
:10604000258138BD002104F0DEBE00002DE9F047B7
:1060500057EC106B824604F0E5FE10B3DAE90489D0
:10606000124942464B46002014F0ECFFDAE90623C1
:1060700015F0A0F9324604460D463B4640464946D7
:1060800015F098F902460B462046294614F0DCFF2D
:10609000CAE90801CAE90601BAF80810504604F036
:1060A000B2FE9AED080BBDE8F08700BF0000F03F9C
:1060B000F8B5054640F2011325F8043B04460F46A7
:1060C000164600214FF4E872284616F035F80023F2
:1060D0006422C4E9783323710435A4F8D42184F808
:1060E000DA314FF6FF72A4F8DC3184F8DE31064B6A
:1060F000C4F86C51A4F8D821C4F8E83184F8D671FA
:1061000084F8DB612046F8BD2800D00738B54C2262
:1061100004463121FFF7CCFF5222322104F5F670FC
:10612000FFF7C6FF4122332104F57670FFF7C0FF69
:106130005522342104F2C450FFF7BAFF442235211E
:1061400004F5F660FFF7B4FF2A4BC4F89C3900232E
:1061500084F8A039C4F8B039A4F8B439C4F8B63911
:10616000A4F8BA39C4F8BC39A4F8C039C4F8C239A3
:10617000A4F8C639A4F8C83984F8CA39A4F8CB39C8
:1061800084F8CD39A4F8CE3984F8D039A4F8D139BF
:1061900084F8D339184BC4F8D439184BC4F8D8391B
:1061A0005022174BA4F8A229C4F8DC39154A164B23
:1061B0001649C4F8A429C4F8E0392822144BC4F8BD
:1061C000A829C4F8AC19C4F8E439A4F8E82965256D
:1061D00004F6EC1004F013FEA4F8F45904F6F810D9
:1061E00004F00DFEA4F8005A04F6042004F007FEA3
:1061F000204638BD50006400DC00B4002800AA002E
:106200005A00A0007800F0004600D0075000B4000B
:1062100014007800037870B50446EBB190F8EC31C7
:10622000D3B100F6EC16304604F0FCFD04F5F6752B
:1062300050B1B4F8E819304604F0E5FD204600F00E
:10624000A5F9284600F0A2F9204600F0AEF928464C
:10625000BDE8704000F0A9B970BD90F8D83370B5B2
:106260000446A3B100F6F816304604F0DBFD04F551
:10627000767538B13046B4F8F41904F0C4FD2846F8
:1062800000F084F92846BDE8704000F08EB970BD7A
:10629000F8B590F8C4350446FBB190F8B037E3B1D7
:1062A00000F60427384604F0BDFD04F2C45604F598
:1062B000F66550B1B4F8001A384604F0A4FD304633
:1062C00000F064F9284600F061F9304600F06DF9FD
:1062D0002846BDE8F84000F068B9F8BD10B504469E
:1062E000FFF798FF2046FFF7B8FF2046BDE81040B3
:1062F000FFF7CEBFB1F9D801002806DB824206DAEB
:106300008342ACBF0220002070470020704703206A
:106310007047B0F9D439B0F9D62900F2C451FFF76B
:10632000E9BFB1F9D81100290ADB8A420ADA8B42A7
:106330000ADABDF900008842B4BF0020012070478E
:1063400000207047032070470220704707B5B0F95E
:10635000A6390093B0F9A439B0F9A2290146FFF794
:10636000E0FF03B05DF804FB07B5B0F9A639009370
:10637000B0F9A439B0F9A22900F5F671FFF7D1FF01
:1063800003B05DF804FBB1F9D801002806DB8242B6
:1063900006DD8342D4BF03200020704700207047F1
:1063A00002207047B0F9AE39B0F9AC2900F576712A
:1063B000FFF7E9BFB1F9D81100290EDBBDF90000E4
:1063C00088420EDD8A420ADA8B420ADABDF90400FD
:1063D0008842D4BF0320002070470020704703206C
:1063E00070470220704707B5B0F9DA390193B0F968
:1063F000DE390093B0F9DC39B0F9E02900F5F66137
:10640000FFF7D8FF03B05DF804FB000038B5074C78
:106410001546204604F0C0FD2946204604F011FE32
:106420002046BDE8384004F068BE00BF5C2C002068
:1064300070B50021044600F6EC1004F0E4FC04F60C
:10644000F810002104F0DFFC002604F604200021EF
:1064500004F0D9FC32461121204684F8A069FFF7E8
:10646000D5FF3E25B4F89E0911F0CCFE2A46112135
:10647000204684F8A059FFF7C9FFB4F89E0911F02F
:10648000C1FE022284F8A02911212046FFF7BEFF99
:10649000B4F89E0911F0B6FE204600F041F806223D
:1064A00084F8A02911212046FFF7B0FFB4F89E0917
:1064B00011F0A8FE04F5F67000F032F80E2284F810
:1064C000A02911212046FFF7A1FFB4F89E0911F081
:1064D00099FE04F5767000F023F81E2284F8A029B6
:1064E00011212046A4F8C065FFF790FFB4F89E097B
:1064F00011F088FE04F2C45000F012F82A4620463B
:1065000084F8A0591121FFF781FFB4F89E0911F01A
:1065100079FE04F5F660BDE8704000F001B80000B7
:1065200037B50446B0F8D40111F06CFE0022134BCD
:1065300094F8D6110092201D06F0B8FB054680B9EC
:106540000F4910480FF0ADFC94F8DB110D480FF027
:10655000CFFC2570B4F8D40103B0BDE8304011F091
:1065600051BE094907480FF09CFC94F8DB1105481F
:106570000FF0BEFC01232370ECE700BF5C2C002071
:10658000C7ED01004C380020E8ED0100037810B59C
:1065900004464BB1043006F082FA11F0F3FD0023FB
:1065A000C4F8E00184F8DD3110BD037870B504460D
:1065B00013B90025284670BD061D304606F083FA43
:1065C00005460028F5D094F8DD31002BF1D184F890
:1065D000DC31304606F060FA84F8DE01304606F021
:1065E00088FA012384F8DD3194F8DC31A4F8D8016D
:1065F0001BB14FF6FF73A4F8D83194F9DE311BB10B
:106600004FF6FF73A4F8D831B4F9E831B4F9D821C2
:106610009A42DCBF4FF6FF73A4F8D83111F0B2FDF7
:10662000D4F8E031C01AC4F8E401C3E790F90930A6
:1066300090F908201A4490F90A30934204DC90F94A
:106640000B309342A8BF13460372704790F909308C
:1066500090F90820D21A90F90A30934204DC90F99C
:106660000B309342A8BF13460372704713B5027AEA
:10667000333AD2B20446130243EA0242406C01921A
:10668000012105F0D3FC606C019A022105F0CEFCDB
:10669000606C02B0BDE8104005F0C6BB13B5027ACD
:1066A000333A0446D2B21202406C0192012105F045
:1066B000BDFC606C019A022105F0B8FC606C02B070
:1066C000BDE8104005F0B0BB13B5027A333A04467A
:1066D000D2B21204406C0192012105F0A7FC606C5B
:1066E000019A022105F0A2FC606C02B0BDE81040E6
:1066F00005F09ABB13B5027A0446333AD2B2406C25
:106700000192012105F092FC606C019A022105F0D2
:106710008DFC606C02B0BDE8104005F085BB13B580
:10672000027A333A0446D2B242EA0222406C019223
:10673000012105F07BFC606C019A022105F076FCDA
:10674000606C02B0BDE8104005F06EBB13B5027A74
:10675000333AD2B21302044643EA02431A43406C6E
:106760000192012105F062FC606C019A022105F0A2
:106770005DFC606C02B0BDE8104005F055BB0346FF
:1067800021B900225A701846FFF770BF012902D1C3
:106790004170FFF783BF022902D14170FFF7AABF02
:1067A000032902D14170FFF78FBF042902D1417044
:1067B000FFF7B5BF4A1CE4D14170FFF7C7BF10B562
:1067C00090F901308B42044610D049B2FFF7D7FF51
:1067D0000123D4E90601E37111F05FFC6061014619
:1067E00004F10C00BDE8104004F00DBB10BD10B565
:1067F00064210446002011F050FC01B26180204663
:10680000FFF7DDFF616904F10C00BDE8104004F002
:10681000FABA037810B50446002B5BD00C3004F0B4
:1068200001FB002856D06421002011F036FC40B254
:106830000A2829DC2046FFF709FF6421002011F017
:106840002CFC94F9082013181BB2642BA8BF6423F6
:1068500094F9202023EAE3739A4263802EDD6421B9
:10686000002011F01AFC94F90830184400B20028F6
:10687000A0800FDB94F9203083420BDB02212046FD
:10688000BDE81040FFF79BBF5928D6DD2046FFF733
:10689000CDFED2E7B4F9023094F9211094F9222008
:1068A000994203DC934203DC0321E8E79342E5DBF2
:1068B00094F923209A42E1DB0421E0E794F92120B6
:1068C0009A4201DB0021DAE794F922209A42F9DBAF
:1068D0000121D4E710BD00002DE9F04F2DED048B10
:1068E00083B09046019340F2011341F28832436134
:1068F0004FF47A630025C0E907234FF0050B42F6F9
:10690000E06304464362C0E90055C0E902550561F1
:1069100080F818B02830894604F071FA04F130008C
:1069200004F06DFA04F1380004F069FAAA4BAB4A9E
:106930002267C4E917334FF61973A4F86430A84BE3
:106940006367C4F88430A74BC4F89030A64BC4F8F2
:106950009830A64BC4F89C30A54BC4F8A030A54B8A
:10696000C4F8A430C4F8A830A34BC4F8AC304FF03E
:1069700080439FED8D0B9FED8E1B9FED8F2BC4F8F9
:106980008020C4F8B0308EA3D3E9002301269FED08
:106990008E8B4FF07E579FED8E9B98489849A0664E
:1069A00084ED2E0B84ED301B84ED322BE166A06765
:1069B000E167C4F88870C4F88C70C4F894702946F4
:1069C000C4E91155C4E91355C4E9155584F840606C
:1069D00004F1D800C4E934230A2201F00DFC94ED3F
:1069E000322B94ED301B94ED2E0B29460A2204F530
:1069F000B47001F001FCB0EE482AF0EE682AB0EE67
:106A0000481AF0EE681AB0EE490AF0EE690A294613
:106A1000142204F5FC7001F0EFFBB0EE482AF0EE12
:106A2000682AB0EE481AF0EE681AB0EE490AF0EEA5
:106A3000690A1422294604F5227001F0DDFB714B2E
:106A4000C4F81833704BC4F81C33704BC4F83C3393
:106A50006F4BC4F840336F4BC4F844331E2384F8A3
:106A600060336D4BD4ED1A8AC4F86833B6EE009AE1
:106A700003F21D239FED698AC4F85C7328EE899A9E
:106A800094F85C70C4F86C334FF448734FF0030A09
:106A9000F1EE049AA4F870334FF47A73C4F87433A7
:106AA00027FA06F0C4E9C955C4E9CB55C4E9CD5568
:106AB000A4F820A3A4F8485384F84A5384EDD38A59
:106AC00084EDD48AC4EDD59A84EDD68A84EDD99A22
:106AD00084F8725384F878A314F002FC0022504B1F
:106AE00014F0B2FA14F016FF44F62063C4E9E2355C
:106AF00094F86430D4ED267A84F87903FF1A494B70
:106B0000C4F8B0334FF4167378EEE78AA4F8B433C0
:106B1000454BC4F8B8334FF4FA73A4F8BC3384ED92
:106B2000DF9A84F88063C4F8845384F890A3C4ED9A
:106B3000E59A84EDE68AC4EDE78A84EDE88A84F874
:106B4000A4B384EDEA8A84F8AC7384F8AD5384F876
:106B5000AE6384F8B66384F8BE6304F5707004F025
:106B60004EF92946202204F5747015F0E5FA2F49F4
:106B70002F4BC4F80090C4E9F2132E4BC4F8D03365
:106B80002D4BC4F8D83342F63023A4F8F033019BE0
:106B9000C4F80C802046236103B0BDEC048BBDE833
:106BA000F08F00BFAFF30080B81E85EB51B8DE3F19
:106BB0009A9999999999993F9A9999999999793F17
:106BC000D9CEF753E3A5DB3F000000000000000032
:106BD000333333333333E33F7878645000007A4300
:106BE00000803B43CDCC4C3F0000484200007A443B
:106BF000E7FB293E9A99B541008098440000AF43D5
:106C0000000061C30000C8420000484300002C435C
:106C1000A71607443720C03F0301200300000000EF
:106C20000000E03F58025802F401F4019808F40112
:106C3000000004080000F0410000F0C10000000066
:106C400070B504462DED028B5F4A00684FF4C861B1
:106C500004F0FDFA2068012104F040FB0221A0604D
:106C6000206804F03BFB94F85C106060A06804F0BE
:106C7000ADFBA068012104F083FBA068042104F0AF
:106C80007FFB94F85C10606804F0A0FB6068012151
:106C900004F076FB6068042104F072FB94F918108C
:106CA000002011F0FAF9E075D4E9080111F0F5F9C6
:106CB0000146E06104F1280004F0A5F804F1300079
:106CC000002104F0A0F804F57070002104F09BF896
:106CD000002104F1380004F096F8E068FFF700F9AD
:106CE00004F1D8062069FFF7FBF804F5B4753046C7
:106CF00001F0DCFA284601F0D9FA94F8640014F0A7
:106D0000DFFA9FED2F8B41EC100BB0EE481AF0EE3E
:106D1000681A304601F08BFB94F8640014F0D0FA46
:106D2000B0EE481AF0EE681A41EC100B284601F05C
:106D30007EFBE3683046B3F8401001F0D3FA2369D4
:106D400004F5FC76B3F84010284601F0CBFA04F5C0
:106D50002275304601F0AAFA284601F0A7FAD4F8C5
:106D60001C0314F0CFFA024601F1004343EC102B50
:106D700041EC110B304601F05AFBD4F81C0314F01F
:106D8000C1FA024601F1004341EC110B43EC102B18
:106D9000284601F04CFBE368B3F840103046490048
:106DA00001F0A0FABDEC028B2369B3F8401028462D
:106DB0004900BDE8704001F095BA00BFAFF3008014
:106DC0000000000000E06F405C2C002090F85C3078
:106DD00053FA81F380F8603090F85D3053FA81F314
:106DE00080F8613090F85E3053FA81F180F86210DB
:106DF000704790F99033032B0CBF0423032380F8D2
:106E0000903390F96833032B0CBF0423032380F8DD
:106E1000683370472DE9D043B5EEC00AD0ED2B7A28
:106E2000F1EE10FA2DED048BF0EE408AD8BFF1EEB2
:106E3000408A88EEA79A0446F5EEC00AF1EE10FAF1
:106E4000B0EE608AD8BFB1EE608A38EE080A80EEF4
:106E5000270A12F06FF8B4EEC09AF1EE10FA33DCA4
:106E600019EE100A14F04EFA064618EE100A0F46F4
:106E700014F048FA8046D4F8AC00894614F042FA7F
:106E80001B4B002214F096FA32463B4614F092FA5D
:106E900032463B4614F08EFA02460B4640464946BF
:106EA00014F0D0F8064618EE900A0F4614F02AFAAD
:106EB00002460B463046394614F0A6FB14F072FD2C
:106EC00007EE900A37EE890AD4ED2C7A60EE277A25
:106ED00017EE900A14F016FA064B002214F06AFA24
:106EE00014F040FDBDEC048B80B2BDE8D08300BF40
:106EF0000000E03F00408F4010B504460421406888
:106F000004F03EFAA068042104F03AFA6068002117
:106F100004F05CFAA0680021BDE8104004F056BA05
:106F2000F8B52DED028B9FED268B0025044600F56C
:106F3000FC7704F5227680ED928BB0EE480AF0EEF5
:106F4000680A80EDB68BC0F82853C0F83453384631
:106F500001F048FAB0EE480AF0EE680A304601F057
:106F600041FA2946384601F0B8FA2946304604F17C
:106F7000D80601F0B2FAB0EE480AF0EE680A84EDE5
:106F80004A8B84ED6E8BA4F8485384F84A533046FC
:106F900004F5B47401F026FAB0EE480AF0EE680A7F
:106FA000204601F01FFA2946304601F096FABDEC62
:106FB000028B29462046BDE8F84001F08EBA00BF9A
:106FC000000000000000000010B5012380F8CC3361
:106FD00090F8CD33B0F8C8130133044680F8CD33B0
:106FE00000F5707003F00FFF2046BDE81040FFF77A
:106FF00097BF012280F8BE23002280F8CD23FFF73F
:107000008FBF90F916208A420BD0012280F84020D1
:10701000C268817512684264026912688264FFF76F
:107020007FBF704710B504466FF00901FFF7E9FF15
:107030006068042104F0A4F9A068042104F0A0F918
:107040006068002104F0C2F9A0680021BDE810408A
:1070500004F0BCB938B504460D460021FFF7D1FF56
:107060006068012104F08CF9A068012104F088F91E
:107070006068294604F0AAF9A0682946BDE83840AE
:1070800004F0A4B938B504460D460121FFF7B9FF55
:107090006068022104F074F9A068022104F070F91C
:1070A0006068294604F092F9A0682946BDE8384096
:1070B00004F08CB938B504460D460321FFF7A1FF53
:1070C0006068022104F05CF9A068012104F058F91D
:1070D0006068294604F07AF9A0682946BDE838407E
:1070E00004F074B938B504460D460421FFF789FF52
:1070F0006068012104F044F9A068022104F040F91D
:107100006068294604F062F9A0682946BDE8384065
:1071100004F05CB9F8B504460E4605211546FFF7A4
:1071200070FF6068012104F02BF96F08A06801214D
:10713000A6EB550504F024F96068E9B204F046F9BD
:10714000B919A068C9B2BDE8F84004F03FB9F8B574
:1071500004460D4606211646FFF753FF60680121DD
:1071600004F00EF9A068012104F00AF905EB5601BC
:1071700060687708C9B204F029F9E91BA068C9B2B0
:10718000BDE8F84004F022B9032BD2B201D1FFF7D9
:10719000C1BFFFF7DCBF000090F8803370B5044634
:1071A0000D4600F130061BB990F91730032B1FD0A4
:1071B000002384F88033032394F8A423E37594F820
:1071C000603094EDE27AD4F888139B1ADBB207EEB4
:1071D000903AF8EE476AF8EE677A84F8AC3387EEB7
:1071E000A67A84F8AD33304684EDEA7A03F00BFEDC
:1071F000304603F010FE07EE900AD4EDEA6A94EDF3
:10720000E77AC4F88C03F8EE677AA6EEE77AB5EE73
:10721000C07AF1EE10FA17EE100A1CDB14F072F8C7
:10722000154B002213F010FF14F074FB94F860303B
:10723000C0B2834238BF94F8A42384F8AD033CBFA6
:107240009B1A84F8AD33304603F0ECFD50B10123B6
:1072500084F8803370BD14F055F8074B002213F00A
:10726000F1FEE1E794F9AD2394F860102B46204637
:10727000BDE87040FFF788BF0000E03F10B504464E
:10728000D0E9080110F009FF94F91710E061032913
:107290000CD1012384F880330221002010F0FDFE80
:1072A000D4F8883384F89003E36106E0022910D112
:1072B000002010F0F2FE84F86803E16904F1280070
:1072C00003F0A1FD04F130000021BDE8104003F0FF
:1072D0009ABD0429F1D1012384F8BE33B4F8F03308
:1072E000E2E7037D10B5044673B1283003F09AFD40
:1072F00050B194F91810002010F0CFFEE075204630
:10730000BDE81040FFF7BABF10BD38B5037D044695
:107310000D464BB1283003F085FD28B1E5752046B8
:10732000BDE83840FFF7AABF38BDF8B590F8E07067
:107330002DED028B0446F0EE408AB0EE608A00F13B
:10734000D80600F5B4752FBB0121304601F0C5F811
:1073500094ED340B304600F0AAFFF5EEC08AF1EE52
:1073600010FA13D50121304600F0E4FFB5EEC08AD3
:10737000F1EE10FA0ED594ED340B284600F097FF8D
:1073800094ED340B304600F092FF03E0394630466E
:1073900000F0D0FF94F870712FBB0121284601F056
:1073A0009CF894ED340B284600F081FFB5EEC08ABE
:1073B000F1EE10FA13D50121284600F0BBFFF5EEDF
:1073C000C08AF1EE10FA0ED594ED340B284600F089
:1073D0006EFF94ED340B304600F069FF03E0394650
:1073E000284600F0A7FF18EE900A13F08BFFC4E9BF
:1073F0004A0118EE100A13F085FFC4E96E01E36834
:10740000304693ED200B01F0C4F82369284693ED34
:10741000200B01F0BEF8F5EEC08AF1EE10FA4CBF79
:1074200002210121606803F0ABFFB5EEC08AF1EEE6
:1074300010FA4CBF02210121A06803F0A1FFD4E99A
:107440004C0114F067FAC1B2606803F0BFFFD4E9E1
:10745000700114F05FFABDEC028BC1B2A068BDE808
:10746000F84003F0B3BF13B5002104468DED010AC7
:10747000FFF7C7FDDDED010A2046B0EE600A02B05D
:10748000BDE81040FFF751BF90F91520012A03D144
:1074900090ED1E0AFFF7E7BF90F86010FFF7DABD26
:1074A000FFF7E1BF13B5012104468DED010AFFF797
:1074B000A8FDDDED010A2046B0EE600A02B0BDE88D
:1074C0001040FFF732BF90F91520012A03D190ED4B
:1074D0001F0AFFF7E7BF90F86110FFF7D3BDF8B5BB
:1074E00000F13007044638460D46164603F09AFC74
:1074F00078B12046FFF796FD94F8B6338BB10023A0
:1075000084F8B633A4F8BC63B4F8BC13384603F06F
:107510007AFC94F8B63320464BB1BDE8F840FFF74B
:10752000B3BF012384F8B633A4F8BC53ECE7BDE83D
:10753000F840FFF7C8BFFFF7B5BF13B503210446F6
:107540008DED010AFFF75DFDDDED010A2046B1EE8C
:10755000600A02B0BDE81040FFF7E7BE90F91520C1
:10756000012A03D190ED200AFFF7E7BF90F86210DF
:10757000FFF7A0BDFFF7E1BF2DE9F04110EE104A83
:107580002DED028B052110EE906A8046FFF739FD44
:10759000204613F0B7FE044630460D4613F0B2FE07
:1075A000114B002213F006FF02460B4606460F461B
:1075B0002046294613F048FD14F0F4F9324608EE4F
:1075C000100A3B462046294613F03CFD14F0EAF928
:1075D000F0EE480ABDEC028B00EE100A4046BDE812
:1075E000F041FFF7A2BE00BF0000E03F38B52DED2F
:1075F000028B90F91530012B0446B0EE408A09D178
:1076000090ED1E0A60EE080ABDEC028BBDE8384022
:10761000FFF7B2BF90F8605007EE905AF8EE677A25
:1076200027EE808A18EE100A13F06CFEB5EEC08AC1
:10763000F1EE10FA094B4FF000020CDB13F004FDE1
:1076400014F068F9BDEC028BC2B229462046BDE8B1
:107650003840FFF75FBD13F0F5FCF1E70000E03FB5
:1076600010B52DED028B0421B0EE408A0446FFF7E1
:10767000C8FCF1EE480AB0EE480ABDEC028B204689
:10768000BDE81040FFF751BE90F91520012A03D143
:1076900090ED200AFFF7E4BF90F86210FFF722BDDB
:1076A000F8B500F13007044638460D46164603F09B
:1076B000B9FB78B12046FFF7B5FC94F8AE338BB137
:1076C000002384F8AE33A4F8B463B4F8B413384696
:1076D00003F099FB94F8AE3320464BB1BDE8F84077
:1076E000FFF73CBF012384F8AE33A4F8B453ECE7B2
:1076F000BDE8F840FFF7C8BFFFF7B2BF2DE9F04182
:1077000010EE104A2DED028B062110EE906A804695
:10771000FFF777FC204613F0F5FD044630460D4692
:1077200013F0F0FD114B002213F044FE02460B460D
:1077300006460F462046294613F084FC14F032F921
:10774000324608EE100A3B462046294613F07CFCE0
:1077500014F028F9F0EE480ABDEC028B00EE100A96
:107760004046BDE8F041FFF7E0BD00BF0000E03F4C
:1077700038B52DED028B90F91530012B0446B0EE93
:10778000408A09D190ED1E0A60EE080ABDEC028B1A
:10779000BDE83840FFF7B2BF90F8605007EE905A4E
:1077A000F8EE677A27EE808A18EE100A13F0AAFD29
:1077B000B5EEC08AF1EE10FA094B4FF000020CDB77
:1077C00013F042FC14F0A6F8BDEC028BC2B22946BD
:1077D0002046BDE83840FFF7BABC13F033FCF1E7B0
:1077E0000000E03F032901D1FFF7C6BEFFF786BFC7
:1077F00090F9152090F96833012A10B408D1D0ED22
:10780000D90A90ED200A5DF8044B1946FFF7EABF4C
:1078100090F9602390F862105DF8044BFFF7B4BC58
:1078200090F8803370B504460D4600F130061BB960
:1078300090F91730032B1BD094EDE57AD4ED1E7A26
:10784000D4F8881377EEC77A94EDE27AC4EDE77A3C
:10785000F8EE476A002387EEA67A84F88033032384
:10786000E3753046C4EDE87A84EDE67A03F0CBFAAE
:10787000304603F0D0FA07EE900AD4EDE66A94EDB4
:10788000E77AC4F88C03F8EE677A3046A6EEE77A1A
:10789000D4ED1E7A84EDE87AB4EEE77AF1EE10FAD0
:1078A000C2BF94ED267A77EEC77AC4EDE87A03F08A
:1078B000B9FA18B1012384F8803370BDD4EDE80A19
:1078C00094ED1E0A29462046BDE87040FFF78ABFA6
:1078D00090F91530012B01D1FFF7A2BFFFF75CBC77
:1078E00090F99013FFF7F4BF38B590F86933044668
:1078F000A3B100F13005284603F094FA94F97833E7
:10790000A8BB032B94F915201FD1012A15D1D4ED62
:10791000DF0A94ED200A2046FFF72EFE94F872331A
:10792000002B4CD004F13005284603F07BFAC8BB8D
:107930002046BDE83840FFF7A7BD94F8792394F8B6
:1079400062102046FFF7E6FBE8E7012A07D1D4EDF5
:10795000DF0A94ED200A2046FFF7D0FEDEE794F818
:10796000792394F862102046FFF7F1FBD6E7032B4A
:107970000BBF0423032384F8783384F878330CBFD7
:10798000B4F86E33B4F86C33A4F87033002384F881
:1079900069330123D4F8741384F87233284603F052
:1079A00032FABBE7012384F869330023B4F870137B
:1079B00084F872332846BDE8384003F024BA38BD55
:1079C00070B50A212DED048B0446F0EE419AB0EE1D
:1079D000408AF0EE608AB0EE619AFFF712FBD4EDB8
:1079E000D37A94EDD57A77EEC76AF4EEE96AF1EED0
:1079F00010FA06D877EE877AF4EEE97AF1EE10FA0B
:107A000006DAC4EDD39A4FF0FF312046FFF7F9FABA
:107A1000D4EDD47A94EDD57A77EEC76AF4EEC96ADC
:107A2000F1EE10FA06D877EE877AF4EEC97AF1EE25
:107A300010FA06DA84EDD49A4FF0FF312046FFF7B2
:107A4000E0FA94F8403004F13806002B37D0F0EE1D
:107A5000690AB0EE480A2046FFF7DCF9F0EE490A61
:107A6000B0EE680A05462046FFF7D4F98542014684
:107A700088BF2946304603F0C6F9002384F8403019
:107A800019EE900A13F03EFCE368D3E90E2313F0DD
:107A9000BBFD13F03FFF0546606519EE100A13F0B9
:107AA00031FC2369D3E90E2313F0AEFD13F032FF4E
:107AB000636CA0651D44A36CE564184420653046E2
:107AC00003F0B0F9002866D1F5EEC09AF1EE10FA95
:107AD0001DDDB5EEC09AF1EE10FA7ADDE368E26CD6
:107AE0001B689A4204DA2369226D1B689A4207DBFD
:107AF000B5EEC08AF1EE10FA1EDCB1EE488A1BE04A
:107B00002046FFF7F9F90120BDEC048B70BD1BD5B1
:107B1000B5EEC09AF1EE10FA3FDDE368E26C1B6847
:107B20009A4204DD2369226D1B689A42E8DBB5EEB8
:107B3000C08AF1EE10FAE0DCF5EEC08AF1EE10FA40
:107B400020DCF1EE688A1DE0F5EEC09AF1EE10FA45
:107B5000D6D5B5EEC09AF1EE10FAD1D5E368E26C55
:107B60001B689A4204DD2369226D1B689A42C7DCB8
:107B7000B5EEC08AF1EE10FA28DCF5EEC08AF1EE1F
:107B800010FADEDC2046F0EE680AB0EE480AFFF795
:107B9000CCFB0020B8E70220B6E7F5EEC09AF1EE84
:107BA00010FAD6DDB5EEC09AF1EE10FACCD5E36846
:107BB000E26C1B689A4204DA2369226D1B689A42C0
:107BC0009EDCB5EEC08AF1EE10FAD6DCB1EE488A42
:107BD000D3E7F5EEC09AF1EE10FAE3D5B5EEC09A10
:107BE000F1EE10FA99DCDDE7B5EEC00AF1EE10FA1D
:107BF0004CBFD0ED1F0AD0ED1E0AF0EE401AB0EED9
:107C0000401AB0EE600AFFF7DBBED0EDD11AB5EE38
:107C1000C00AF1EE10FA60EE211A07DDD0ED200A5D
:107C2000B1EE611AB1EE600AFFF7CABE06D590ED5B
:107C3000200AB1EE611AF1EE400AF5E70120704723
:107C40002DE9F04F2DED028B90F8003283B010EE4D
:107C5000108A0446CDED010A00F5FC7700F1D80644
:107C60003BB90121384600F038FC0121304600F0D4
:107C700034FC04F5227308EE103A94F8903204F5BF
:107C8000B47543B918EE100A012100F026FC012159
:107C9000284600F022FCD4F80CA0404613F032FB3A
:107CA000DAE90E2313F0B0FC002200238046894657
:107CB00013F006FECC4B0022002800F0378140462E
:107CC000494613F0C1F913F025FED4F82833834256
:107CD0000FD007EE900AF8EEE77ADAF80030C4F831
:107CE0002803C4F8243317EE900A13F00BFBC4E901
:107CF0009201D4F810B0019813F004FBDBE90E23D5
:107D000013F082FC002200238046894613F0D8FD40
:107D1000B54B0022002800F00E814046494613F082
:107D200093F913F0F7FDD4F8343383420FD007EE04
:107D3000900AF8EEE77ADBF80030C4F83403C4F8B0
:107D4000303317EE900A13F0DDFAC4E9B601DAF821
:107D50000000D4F82433C01AC4F82C0313F0C0FA7E
:107D600041EC100B384600F014FC23691868D4F875
:107D70003033C01AC4F8380313F0B2FA41EC100BD8
:107D800018EE100A00F005FCE368304693ED200B76
:107D900000F0FFFB2369284693ED200B00F0F9FB70
:107DA000D4E994AB002200235046594613F092FDCB
:107DB000002840F0C5800022002350465946D04696
:107DC0000BF1004913F072FD002800F0BC80864BD7
:107DD00000224046494613F037F913F09BFD07EEA9
:107DE000900A94EDC67AF8EEE77AB4EEE77AF1EE0F
:107DF00010FA16DD17EE100A13F084FA00228046FE
:107E0000894600235046594613F046FD002800F0ED
:107E1000A180424609F1004343EC102B384600F0A4
:107E2000E1FAD4E9B8AB002200235046594613F0DA
:107E300051FD002840F09180002200235046594611
:107E4000D0460BF1004913F031FD002800F0888086
:107E5000654B00224046494613F0F6F813F05AFDF0
:107E600007EE900A94EDC67AF8EEE77AB4EEE77A78
:107E7000F1EE10FA16DD17EE100A13F043FA0022A5
:107E80008046894600235046594613F005FD0028D8
:107E90006DD0424609F1004343EC102B18EE100A56
:107EA00000F0A0FAD4E9CA32B4F92013581A824279
:107EB00060DAD4E994230021C4E94A23304600F073
:107EC00039FA0121606803F05BFAD4E94C0113F040
:107ED00021FDC1B2606803F079FAD4E9CD32B4F97A
:107EE0002013581A82426CDAD4E9B8230021C4E97D
:107EF0006E23284600F01EFA0121A06803F040FA24
:107F0000D4E9700113F006FDC1B2A06803F05EFA77
:107F100094F848332BB194F8493313B1012384F812
:107F20004A3303B0BDEC028BBDE8F08F40464946B2
:107F300013F088F8C7E64046494613F083F8F0E6A8
:107F4000D046D94643E7284B00225046494613F015
:107F500079F842E749EC108B60E7D046D94677E7DD
:107F6000214B00225046494613F06CF876E749EC65
:107F7000108B93E70B449A4209DDD4E99423012145
:107F8000C4E94A23304600F0D5F902219AE79FED73
:107F9000140B384600F026FA9FED110B304600F026
:107FA00021FA9FED0F7B606884ED4A7B042103F08A
:107FB000E7F96068002103F009FA012384F84833E7
:107FC0008BE70B449A4211DDD4E9B8230121C4E9BF
:107FD0006E23284600F0AEF902218EE7AFF3008051
:107FE00000000000000000000000E03F9FED0E0BCD
:107FF00018EE100A00F0F6F99FED0B0B284600F082
:10800000F1F99FED097BA06884ED6E7B042103F0FC
:10801000B7F9A068002103F0D9F9012384F84933A6
:1080200076E700BFAFF30080000000000000000012
:1080300010B50B212DED028B0446B0EE408AFEF701
:10804000E0FFD4EDD10A68EE200ABDEC028B204699
:10805000B1EE600ABDE81040FFF7F2BD38B590F808
:10806000BE33044600F5707503B30423C3750023C3
:1080700080F8BE33B0F8C813284602F0C4FE0123CE
:10808000A4F8CC332046FEF74BFF94F8CC339BB3D7
:1080900094F8CD3394F8CE239A422DD31BBB94EDA4
:1080A000F40A2046BDE83840FFF7C2BF284602F078
:1080B000B9FE0028E9D094F8CC3383F0010384F8AA
:1080C000CC3353B1B4F8C813284602F09CFE94F8A0
:1080D000CD33013384F8CD33D7E7B4F8CA1328463B
:1080E00002F091FED1E704EB830393EDF40AD3EDA4
:1080F000F37A30EE670AD4E72046BDE83840FEF751
:1081000091BF027D9AB190F91730012B01D1FFF791
:10811000EBBB032B01D1FFF7E3BB022B01D1FFF730
:1081200067BB042B01D1FFF799BFFFF7ADB97047CB
:10813000D0ED226A90ED1A6A90ED235A90ED267ADE
:1081400026EE866A26EE056AB4EEC76AF1EE10FAEC
:1081500032D4D0ED275AB4EEE56AF1EE10FAD8BF6A
:10816000F0EE465AD0ED1B7AC0ED1E5A66EEA77AA5
:1081700067EE857AF0EEE77AB4EEE77AF1EE10FA80
:108180001DDDF1EE477AC0ED1F7AD0ED1C7A66EE68
:10819000A77A67EE857AB4EEE77AF1EE10FA08DC9A
:1081A00090ED277AF4EEC77AF1EE10FAD8BFB0EE70
:1081B000677A80ED207A7047F0EE475AD2E790ED6B
:1081C000276AB4EEE76AF1EE10FA4CBFF1EE467A98
:1081D000F1EE677AD7E7D0ED247A90ED257A002981
:1081E00008BFF0EE477AC0ED237AFFF7A1BF80ED1C
:1081F000220AFFF79DBF00002DE970430FF2980996
:10820000D9E900892DED068BB0EE40AAF0EE60AA08
:10821000B0EE419AF0EE619A04460E46B0EE428A04
:10822000F0EE628A154602F0EAFDC4E91A8984ED8F
:1082300004ABDFF87490667284ED069B84ED088BC6
:10824000BDEC068B4FF00008C4E91C890FF2500901
:10825000D9E90089002000210023C4E90A01C4E90A
:108260000C01C4E90E01C4E91001C4E91201C4E91A
:108270001401C4E91601C4E91801C4E92001C4E9E4
:108280001E892046237284F88A30A4F88850BDE8FD
:10829000708300BFAFF300800000000000E06F407B
:1082A0000000000000C05F4000C05FC07047D0B554
:1082B00057EC106B0446002210EE100A00233946DA
:1082C00013F0EAFA68B994F88A30012BC4E904671C
:1082D00007D132463B460020002112F0B3FEC4E92C
:1082E0000401D0BDF8B50D1E044622DD284612F06B
:1082F000F7FF0646B4F888000F4612F0E1FF024689
:108300000B463046394613F07FF902460B460646C7
:108310000F46D4E9060113F04DF83246C4E90601D0
:108320003B46D4E9080113F06FF9C4E90801A4F849
:108330008850F8BD38B590F88A308B4204460D4617
:1083400017D0D0E904230021002012F07BFED4E9ED
:108350000623C4E904010020002112F073FED4E9D1
:108360000823C4E906010020002112F06BFEC4E9D5
:10837000080184F88A5038BD2DE9F843437A55EC5A
:10838000104B0646C3B1D0E91C89294610EE100AED
:1083900042464B4613F080FA08BBD6E91E672046DA
:1083A00032463B46294613F095FA08B134463D461D
:1083B00045EC104BBDE8F883D0E9188910EE102A7F
:1083C0002B464046494613F085FA40B9D6E91A676C
:1083D00022462B463046394613F05EFAE5E744461E
:1083E0004D46E5E72DE9D043D0E9186759EC108BED
:1083F000044610EE102A4B463046394613F06AFA0E
:1084000050B9D4E91A6742464B463046394613F014
:1084100043FA08B946464F4694ED0E0BC4E9166779
:108420002046FFF7A9FF84ED0E0BBDE8D0832DE9B0
:10843000F04757EC106B55EC114B824611EE102AA9
:1084400010EE100A2B46394613F044FAF0B9DAE977
:108450001689CAE91867CAE91A4532463B464046BA
:10846000494613F019FA98B922462B464046494628
:1084700013F030FA08B944464D469AED0E0BCAE99E
:1084800016455046FFF778FF8AED0E0BBDE8F087E2
:1084900034463D46F1E7D0E9122390ED160B10B5B6
:1084A0000446C0E90A2380ED0E0BFFF765FF637AEF
:1084B00084ED0E0B4BB100220023C4E91223C4E962
:1084C0000A23C4E90E23C4E9162394ED0E0B2046BB
:1084D000FFF752FF84ED0E0B10BD012938B504469D
:1084E0000CBF0125002503D1037A0BB9FFF7D3FF99
:1084F000257238BD2DE9F34755EC104B824610EE3E
:10850000102AD0E914012B4612F09CFD80468946C2
:10851000CAE92089DAE9042312F04CFF06460F4627
:10852000DAE90623CAE90C674046494612F042FFE1
:10853000DAE90E2312F088FDCAE90E0141EC100BB6
:108540005046FFF719FFDAE90A238AED0E0B2046A1
:1085500029468DED000B12F075FDDAE9082312F0C3
:1085600029FF80468946DDE90023CAE910893046A3
:10857000394612F069FD42464B4612F065FD41EC6A
:10858000100B5046FFF7F8FECAE90A4502B0BDE8F5
:10859000F08713B5037A8DED000B04468BB102F022
:1085A00041FC9DED000B60B12046FFF7A3FFB4F83E
:1085B0008810204684ED160B02B0BDE8104002F092
:1085C00022BC02B010BD000010B5082104461048BE
:1085D00002F0E2FC0E4802F090FD90B10D490E4809
:1085E0000DF072FC0023A17A607AA37001310FF0C4
:1085F00054FD0021207204F11400BDE8104002F087
:1086000002BC064904480DF05FFC0123EBE700BF04
:108610005C2C002006EE01004C38002034EE0100F6
:10862000837813B50446A3B1C379DBB100230DF100
:1086300007018DF8073007F0ADF804F1140002F0DF
:10864000F1FB30B19DF80730DA0704D50123E37060
:10865000637102B010BD13F0020303D00123E37075
:10866000A371F6E76371FBE7837813B5044603B3A0
:1086700000230DF107018DF8073007F092F8B4F9E7
:108680001030B4F90C209DF807109818814210DCC6
:10869000981A81420DDBE1895B1A1BB2991A0029F5
:1086A000D7BFE37A2382C2F164020133DCBF2282A6
:1086B000E37202B010BD10B5817A04460131407AF0
:1086C0000FF0EBFC207210BD10B500230446C37000
:1086D000C372FFF7F0FF618A04F11400BDE8104097
:1086E00002F091BB2DE9F04104460020C4E90000EE
:1086F000C4E9020004F11000884617461E4602F045
:108700007EFB104BA361104BE361104B23620823E7
:1087100084F824300E4B43F29252C4E90A234FF0FE
:10872000006323630B4B186859680B4B04F1340545
:1087300003C5E363069BA660C4E90087E3602046A7
:10874000BDE8F08100000C432549D6432549D644B5
:108750007800B4005AEE010001030300F0B52DEDDE
:10876000028B90ED088A002380F83C3089B00446E3
:1087700000F1100518EE100A12F0C4FDB5EEC08A23
:10878000F1EE10FA2F4B4FF0000257DB12F05CFCB9
:1087900013F0C0F80146284602F035FBA06894F8B3
:1087A000343084F8303000252946303084F8315098
:1087B00084F8325002F027FB2068FDF737FF94F869
:1087C0003F30002B36D0E36801229D805A70E36869
:1087D00040F20222DA801D811B4B6A4603F110072A
:1087E000164618685968154603C50833BB422A4621
:1087F000F7D1164B04AA03F1100C154618685968F6
:10880000174603C7083363453A46F7D1E268314655
:1088100002F10A0002F11A0331F8024B20F8024B70
:108820008342F9D129462A3231F8020B23F8020B90
:108830009A42F9D109B0BDEC028BF0BD12F002FCF6
:10884000A6E700BF0000E03F62EE010072EE01000B
:1088500010B5B0F92E100446B0F92C000FF01DFC35
:1088600007EE900AF8EEE77A17EE900AC4ED067A62
:1088700012F048FD02460B4600200F4912F0C4FEDC
:108880000E4B002212F096FD13F08CF894F8243071
:10889000E06107EE900AB1EE007A27EE877A07EEE4
:1088A000903AF8EE677A84ED087A67EE877AFCEE04
:1088B000E77AC4ED0A7A10BD00004E4000408F40B8
:1088C0002DE9F0410321044601200FF0E6FB0221CF
:1088D00000200FF0E2FB032101200FF0DEFB00255A
:1088E000C6B24FF0010894F83320EBB29A421CD97B
:1088F000022E04EB03070CD1B3EB520F4FEA5201E7
:1089000007D35B1A234493F8343087F834300135A9
:10891000E9E7DB0702D487F83480F8E70621012075
:108920000FF0BBFB87F83400F1E7BDE8F081436846
:1089300093F8402010B5044692B1012280F83C2003
:1089400093F90030022B0BD1FFF782FF2046FFF78F
:10895000B7FF6068A16A4164BDE8104000F0BDBF88
:1089600010BD000038B52DED028B90ED088A04464D
:1089700000F1100518EE100A12F0C4FCB5EEC08A22
:10898000F1EE10FA284B4FF0000232DB12F05CFBE4
:1089900012F0C0FF0146284602F035FA94F8323052
:1089A00094F8332094F824000133DBB29A4284F81F
:1089B00032309CBF002384F8323094F832106218B1
:1089C00092F8343084F8303094F831300133DBB22F
:1089D000984284F831309FBF012384F83C30002353
:1089E00084F8313041B9032384F83D3084F83E30B7
:1089F0000EE012F027FBCBE792F83330052B0FD1B6
:108A000094F93D30042B0CBF0323042384F83D303C
:108A1000E36801225A7000229A80BDEC028B38BDB7
:108A2000042BF5D10323E1E70000E03F90F83C3050
:108A300010B504460BB1FFF791FE606800F0B7FF78
:108A400094F83F302BB1E36840F20222DA80002232
:108A50001A8104F1100002F0E5F910B12046FFF789
:108A600081FF94F83030A0681BB9BDE81040FEF7D4
:108A7000D9BA022B0BD1D4ED077AFDEEE77ABDE827
:108A8000104017EE903A9AB21146FEF728BD032B1C
:108A900003D1BDE81040FEF7ABBE052B0BD194F916
:108AA0003D30042BBDE810400CBF9FED100A9FED38
:108AB000100AFFF7AAB8042B0BD194F93E30042B0F
:108AC00003D1BDE81040FEF7DFBDBDE81040FEF762
:108AD00045BDD4ED077AFDEEE77ABDE8104017EE0C
:108AE000903A9AB21146FEF7DBBD00BF0000B442D7
:108AF0000000B4C22DE9F84300250446C0E9005542
:108B0000C0E9025505611430174688461E4604F137
:108B1000200902F074F90123A383642148460CF074
:108B20004FFC1A4B2363B2EE080AF2EE070A1E222C
:108B300084ED0A0AC4ED0B0AA286494604F1380006
:108B40000CF098FD04F1840002F059F93223C4F8C6
:108B50008C3041F28833A4F8AC30089BE3600020ED
:108B6000099BC4F89400C4F89800C4F89C00C4F8A9
:108B7000A000C4F8A400C4F8A800C4E9008784F8E1
:108B80009050A66023612046BDE8F8839A99394049
:108B900030B5044695B004F120054FF4FA700FF09B
:108BA00031FBD4ED0B0A94ED0A0AA28E294601A8E6
:108BB0000CF060FD4C2201A904F1380013F0AEFA6C
:108BC00001A80CF07FFD28460CF02CFD054620B9CD
:108BD0000A490B480DF078F925770A4908480DF045
:108BE00073F9002184F88D10A4F88E1084F8901089
:108BF00004F1840002F007F915B030BD82EE0100E7
:108C00004C380020B7EE0100F0B5044689B040684A
:108C100000F0E2FE237F2BB9606809B0BDE8F040A8
:108C200001F0AEB8637F5BB1E36800226277012197
:108C30009A80597004F11400B4F8AC1002F0E3F813
:108C4000E36840F20222DA8000221A814A4B6A4627
:108C500003F11007164618685968154603C508330E
:108C6000BB422A46F7D1454B04AA03F1100C154626
:108C700018685968174603C7083363453A46F7D161
:108C8000E268314602F10A0002F11A0331F8026B80
:108C900020F8026B8342F9D129462A3231F8020BBF
:108CA00023F8020B9342F9D194F88D30FBB194F87C
:108CB0008E30E3B194F88F30CBB194F89030B3B1EB
:108CC00060686FF0010100F080FF23696068198F10
:108CD00000F003FE606800F092FE2069012100F0C0
:108CE0006DFD206809B0BDE8F040FDF79FBC04F1C0
:108CF0001405284602F096F848B1E36801225A703C
:108D000000229A80B4F8AC10284602F07CF894ED6A
:108D1000297AD4ED0C7AA068B4EEE77AF1EE10FA75
:108D200004DD09B0BDE8F040FEF718BCF1EE676A5B
:108D3000B4EEE67AF1EE10FA04D509B0BDE8F040E1
:108D4000FEF7A2BB94ED2A7AF4EEC77AF1EE10FAA0
:108D5000E7D4F4EEC76AF1EE10FA04DD09B0BDE81D
:108D6000F040FEF791BCFEF7BCFAA06809B0BDE880
:108D7000F040FFF7C6B900BFE6EE0100F6EE0100D5
:108D800038B500F138050446002128460CF082FD74
:108D900028460CF0A7FD284684ED250A0CF0A5FD19
:108DA000284684ED260A0CF0A3FD284684ED270A08
:108DB0000CF0A1FD284684ED280A0CF09FFD284602
:108DC00084ED290A0CF09DFD284684ED2A0A0CF05A
:108DD00045FD84F88D0028460CF047FD84F88E0090
:108DE00028460CF049FD84F88F0028460CF04BFD16
:108DF00084F8900038BD38B5037F0446CBB1436892
:108E000093F840300BB10123437704F1380004F1AB
:108E100084050CF05EFC284602F004F848B12046B8
:108E2000FFF7AEFF94F88C102846BDE8384001F0FB
:108E3000EABF38BD2DE9F04700261F46012304464E
:108E40000375C0E90066C0E902660661183089460C
:108E500090460CF059FD04F164000CF055FD4FF400
:108E6000C873A4F8B03004F1B40001F0C8FF4FF0AB
:108E70007C53C4F8D4301E4BDFF878A0C4F8DC3043
:108E8000002541F28833A4F8E030C4F8BC50C4F89F
:108E9000C050C4F8C450C4F8C850C4F8CCA0C4F83A
:108EA000D050C4F8D85004F1E40001F0A8FFC4F891
:108EB000EC50C4F8F050C4F8F450C4F8F850C4F8BA
:108EC000FCA0C4F8005184F8046104F5847001F03A
:108ED00096FF4FF4FA63A4F81031089BE360099BF6
:108EE000A760C4E9009823612046BDE8F08700BF71
:108EF0000000A041CDCC4C3E10B5B0F8E0100446C7
:108F0000E43001F080FFD4ED317A37EEE77AC4ED3A
:108F10003B7AC4ED3C7A77EEA77A84ED3E7AB6EEE2
:108F2000007A67EE877A94ED3F7AC4ED3D7A67EE7A
:108F3000277A002384F80431C4ED407A10BD000084
:108F400090ED327AD0ED346AB5EEC07AF1EE10FAD7
:108F5000D4BFF1EE477AF0EE477AF4EEE76AF1EE2D
:108F600010FA10B5044646D9D0ED366A9FED350AA1
:108F7000F4EEE76ADFED347AF1EE10FA88BFB0EE76
:108F8000670A94BF01230023D4ED3E7A94ED406A32
:108F9000F5EEC07AF1EE10FAD4BFF1EE676AF0EEAA
:108FA000676AB4EEE66AF1EE10FA2BD8F5EEC07AF5
:108FB000F1EE10FA23DD00293ED02046FFF79CFF9A
:108FC000B4F8101104F5847001F01DFF012384F83A
:108FD00004319FED1E0AA068FFF72AF8A36893F8F2
:108FE0004A3323B904F5847001F01CFF10B100234B
:108FF00084F8043110BD9FED140A0123C4E701D5A4
:109000000029DAD094F80421002AE2D1A0687BB1CB
:10901000B5EEC07AF1EE10FA04DD29B1BDE81040DA
:10902000FEF7E4BA0029F9D0BDE81040FEF7A0BB76
:10903000BDE81040FEF728BAF5EEC07AF1EE10FA5E
:10904000E0D5BAE76666663F9A99193F0000344357
:1090500010B50446406800F053FD237D2BB1204637
:109060000121BDE81040FFF76BBF10BD10B50446ED
:10907000406800F059FD237D2BB120460021BDE85A
:109080001040FFF75DBF10BD38B5084C0546702194
:10909000204601F081FF0121A9402046C9B201F01C
:1090A000D0FF2046BDE8384002F027B85C2C0020F5
:1090B00070B5044604F118060120FFF7E5FF2149C9
:1090C00030460CF08CFC054620B91F491F480CF0B7
:1090D000FBFE25751E491D480CF0F6FE30460021AA
:1090E0000CF05BFC0122114630460CF041FC04F10F
:1090F00064060020FFF7C8FF124930460CF06FFCF1
:10910000054620B9134911480CF0DEFE25751249B9
:109110000E480CF0D9FE304600210CF03EFC012236
:10912000114630460CF024FCB4F8B01004F1B40041
:1091300001F069FEB4F8E01004F1E400BDE870400D
:1091400001F061BE5C2C002006EF01004C380020CD
:1091500032EF01005AEF010087EF010038B5037DBF
:109160000446002B69D000F1B405284601F05AFEF0
:1091700090B3B4F8B010284601F045FE0120FFF787
:1091800083FF032104F118000CF0FAFD002084EDA8
:109190002F0AFFF779FF032104F164000CF0F0FDC2
:1091A000D4ED2F7A84ED300A37EEC07A30EE270AFC
:1091B000F6EE007A20EE270AD4ED337A84ED310AF8
:1091C00067EE807A84ED327AC4ED347AD4ED357A64
:1091D00027EE800A84ED360A04F1E405284601F002
:1091E00021FEF0B1B4F8E010284601F00CFED4EDF9
:1091F0003C7A94ED317AC4ED3B7A77EE676A77EE8C
:10920000877A84ED3C7AB6EE007A67EE877A94ED41
:109210003F7AC4ED3D7A67EE277AC4ED3E6AC4ED2D
:10922000407A23695B7943B16068052100F0CDFC89
:109230002068BDE83840FDF7F9B938BDF8B50446F7
:109240001D4601232361174B636100204FF07D53BE
:10925000C4E90000C4E90200A36104F11C000F4648
:10926000164601F0CCFD4FF4FA73A38404F12800F4
:1092700001F0C5FD0C4B236304F1340001F0BFFD88
:1092800044F62063A38704F1400001F0B8FD4FF4D9
:109290007A63A4F84830069BA560C4E90076E360D1
:1092A0002046F8BD000096427017030038B5114DF6
:1092B00004461121284601F06FFEE17C284601F0AA
:1092C000C0FE284601F019FF04F11C00002101F046
:1092D0009AFD04F12800002101F095FD04F134000D
:1092E000002101F090FD04F140000021BDE838406C
:1092F00001F089BD5C2C002038B5074C05461121D2
:10930000204601F049FEE97C204601F09AFE204605
:10931000BDE8384001F0F1BE5C2C002038B5084CA7
:10932000C57C1121204645F0400501F035FE294657
:10933000204601F086FE2046BDE8384001F0DDBE43
:109340005C2C0020F0B5044689B0406800F000FCB9
:10935000237C002B6BD0637C04F140066BB10025AD
:1093600020466574FFF7DAFFE36801229D80B4F8B8
:1093700048105A70304601F046FDE3680022DA805A
:109380001A812C4B6A4603F1100C1746186859686D
:10939000154603C5083363452A46F7D1264B04AA70
:1093A00003F1100E1546186859689446ACE803009E
:1093B000083373456246F6D1E268394602F10A0382
:1093C00002F11A0031F8027B23F8027B8342F9D1C3
:1093D00029462A3231F8020B23F8020B9A42F9D1BE
:1093E000304601F01FFD48B1E36801225A700022A7
:1093F0009A80B4F84810304601F005FDA37CA068BF
:10940000022B06D194ED060A09B0BDE8F040FEF744
:10941000EDB8032B06D194ED060A09B0BDE8F04083
:10942000FEF7A6B909B0BDE8F040FEF72DB809B0C7
:10943000F0BD00BFB0EF0100C0EF010038B5012260
:10944000044611210648064D01F0F8FD044801F0DC
:109450003DFD20B1284601F053FEA074F6E738BD6B
:109460005C2C002038B5037C0446002B47D000F16B
:109470001C05284601F0D6FC90B1A18C284601F0CD
:10948000C2FC2046FFF7DAFF2046FFF735FFA37C3A
:10949000013B022B9EBF94F83330013384F8333004
:1094A000636893F90030042B2AD004F1280528467C
:1094B00001F0B8FC80B1218E284601F0A4FC94F89C
:1094C000332094F832309A4203D36068042100F0CC
:1094D0007CFB002384F8333004F13405284601F086
:1094E000A1FC30B12846A18F01F08DFC2046FFF78A
:1094F00015FF636893F840300BB10123637438BDE6
:10950000002384F83330F4E7F8B504461D4640F2F2
:1095100001130020238341F65833C4E90000C4E955
:109520000200C4E90400A076A38304F120000F46E2
:10953000164601F064FC0D4BA3624FF4FA63A38559
:1095400004F1300001F05BFC47F23053238704F153
:109550003C0001F054FC079BE360069B2361089BE1
:10956000A560C4E9007663612046F8BDF401F4010A
:1095700010B500210446203001F045FC04F1300014
:109580000021BDE8104001F03EBC037E10B504464A
:109590006BB143699B7953B140686FF0010100F0F2
:1095A00014FB218F6068BDE8104000F096B910BD33
:1095B0002DE9F041044688B0406800F020FA637E4F
:1095C00004F13C0504F120061BB30027A068677670
:1095D000FDF728FDA0683946303001F014FC6069C1
:1095E000FFF772F86369218FDF7128464FF0010899
:1095F00001F009FCA18B84F81A80304601F003FCCD
:10960000A18D04F1300001F0FEFB236983F8018095
:109610009F80236940F20222DA8000221A81644B83
:109620006A4603F1100E944618685968174603C736
:10963000083373453A46F7D15E4B04AA03F110088C
:109640001746186859689646AEE803000833434544
:109650007246F6D12269614602F10A0002F11A034C
:1096600031F802CB20F802CB8342F9D139462A32B5
:1096700031F8020B23F8020B9342F9D1304601F086
:10968000D1FB70B10127A18BA776304601F0BBFB5F
:10969000A18D04F1300001F0B6FB236900225F7058
:1096A0009A80A37E002B74D004F1300001F0BAFB45
:1096B000002868D00023A3766069FEF7D5FF6069B3
:1096C000C27A037A9A423DD301266676FEF7FCFF02
:1096D00063696421DE7100200EF0DFFC40B2502887
:1096E000D4BF314600212068FDF769F82068FCF7F7
:1096F0009DFF6068022100F068FAE3686668D3EDB8
:10970000087AB1EE007A67EE877AF5EEC07AF1EE6C
:1097100010FA17EE900A40DB11F0F4FD264B002200
:1097200011F092FC12F0F6F80146304600F0D5F840
:109730006368002283F84120E368012283F83C201B
:1097400083F83F20284601F06DFB68B3012560696E
:109750006576FEF7B9FF63696421DD7100200EF0C4
:109760009CFC40B24B28D4BF022100212068FDF7A9
:1097700026F82068FCF76AFF6068002108B0BDE8A1
:10978000F04100F022BA628D218DA068FDF788FFBC
:1097900092E7A068FDF746FC8EE711F0B3FD064B9B
:1097A000002211F04FFCBDE708B0BDE8F08100BF1A
:1097B000D0EF0100E0EF01000000E03F4369417697
:1097C000D970704710B54A1E02300631002412F9D4
:1097D000013F23448A4200F8013B1CB2F7D110BD7F
:1097E000314B70B5002204460E4620F8022B196852
:1097F000C4F802101D46998881809979817155F8C5
:10980000070FC4F8092064216172A9792061A1754C
:10981000A888A08219211846E1752449C4F81A20A5
:10982000A1610F21217750F80E1FC4F81E10818806
:109830006184817984F824101846E26050F8151F7D
:10984000C4F825108188A4F82910817984F82B1098
:1098500053F81C0FE06299889B79218684F8323096
:1098600041F6583141F28833C4E90D1343F6982389
:10987000E36301250E4BA3646264A4F8405004F135
:109880004C0001F0BCFA04F1540001F0B8FA4FF4B6
:10989000FA73A4F85E304FF47A7384F85C50A4F83D
:1098A00060306666204670BDF0EF01000514140FAD
:1098B0000000551510B56421044600200EF0EDFBA4
:1098C000616B607004F14C0001F09DFA04F15400EA
:1098D0000021BDE8104001F096BA41634C3001F020
:1098E00092BA08B5034629B903F110011846FFF7EB
:1098F00069FF08BD012902D100F11701F7E702292C
:1099000002D100F11E01F2E7032902D100F1250185
:10991000EDE7042902D100F12C01E8E70131E3D1A0
:1099200000F10901E3E710B504464FF47F02406EF1
:10993000002102F07BFB606E4FF47F02032102F0F6
:1099400075FB606EBDE8104002F06EBA10B50446BB
:10995000074A406E002102F069FB606E044A032151
:1099600002F064FB606EBDE8104002F05DBA00BF1B
:1099700000FFFF0013B504460A460191406E002126
:1099800002F054FB019A606E012102F04FFB019A34
:10999000606E022102F04AFB606E019A032102F020
:1099A00045FB606E02B0BDE8104002F03DBA10B554
:1099B00004464FF47F42406E002102F037FB606E98
:1099C0004FF47F42032102F031FB606EBDE810408E
:1099D00002F02ABAFFF7A7BF10B504464FF0FF12F6
:1099E000406E002102F022FB606E4FF0FF12032157
:1099F00002F01CFB606EBDE8104002F015BA10B515
:109A000004464FF6FF72406E002102F00FFB606EBD
:109A10004FF6FF72032102F009FB606EBDE81040B3
:109A200002F002BAFFF7C3BF70B52DED028B00F153
:109A3000540682B0054630460C4601F0F3F918B1E1
:109A40002146304601F0DFF907EE904A9FED298A62
:109A50009FED297AF8EE677A304678EE677AC7EE9E
:109A6000278A01F0D8F907EE900AF8EE677AB0EE8F
:109A7000487AA8EEA77A3046B4EEC87AF1EE10FA2A
:109A800027DB01F0C8F907EE900AF8EE677AA8EE36
:109A9000A78A18EE100A11F035FC184B002211F0BD
:109AA000D3FA11F037FFC2B2100240EA024200219D
:109AB000686E019202F0BAFA686E019A032102F010
:109AC000B5FA686E02B0BDEC028BBDE8704002F0E2
:109AD000ABB901F0A0F907EE900AF8EE677AA8EEAC
