:1020000000800020495C0000E55B0000315C0000BE
:1020100000000000000000000000000000000000C0
:10202000000000000000000000000000315C000023
:102030000000000000000000315C00009D5C00001A
:10204000315C0000315C0000315C0000315C00005C
:10205000AD5B0000315C0000752B0000355C0000BA
:10206000315C0000315C0000315C0000A128000000
:10207000315C0000953B0000315C0000315C0000E9
:10208000315C0000315C0000E1340000315C000094
:1020900000000000315C0000315C0000315C000099
:1020A000315C0000315C0000315C0000315C0000FC
:1020B0000000000010B5064C2378002B07D1054B1B
:1020C000002B02D0044800E000BF0123237010BDA4
:1020D000800200200000000064D80000044B10B50E
:1020E000002B03D00349044800E000BF10BDC046E8
:1020F000000000008402002064D800000023C21CFD
:10210000036043600372C360036143618361C36121
:102110000384D3772D302032137001328242FBD1F9
:1021200070470000F7B506005E4C0227200001F062
:10213000AFFD5D49200001F0B3FD5C49200001F0D6
:102140009AFD0A223168200001F005FE584D20005A
:10215000290001F090FD5749200001F08CFD042179
:102160000A227156200001F0F2FD2900200001F042
:1021700082FD5149200001F07EFD05210A227156A1
:10218000200001F0E4FD2900200001F074FD4B491E
:10219000200001F070FD06210A227156200001F096
:1021A000D6FD2900200001F066FD200001F070FD41
:1021B0004349200001F05FFD07210A2271562000EB
:1021C00001F0C5FD2900200001F055FD3D4920002A
:1021D00001F051FD08210A227156200001F0B7FDDF
:1021E0002900200001F047FD200001F051FD364993
:1021F000200001F040FDF06806F0ACF80097020006
:102200000B00200001F06AFE2900200001F033FDE0
:102210002E49200001F02FFD306906F09BF8009751
:1022200002000B00200001F059FE2900200001F0FF
:1022300022FD2749200001F01EFD706906F08AF892
:1022400000970B000200200001F048FE290020004A
:1022500001F011FD200001F01BFD1E49200001F0DE
:102260000AFD0A22B169200001F052FD2900200078
:1022700001F001FD1849200001F0FDFC0A22F1697E
:10228000200001F045FD2900200001F0F4FC2000B1
:1022900001F0FEFC0449200001F002FD200001F0E5
:1022A000F7FCF7BDF4090020E8CC000011CD0000D8
:1022B00018CD00001BCD000022CD00002BCD00006A
:1022C00039CD000041CD000049CD000054CD0000C3
:1022D0005FCD00006ACD000074CD000070B5040031
:1022E00003F0EAFCE8235B00E0502000D03B211D16
:1022F000B830FF3B442200F079FE0C4D002803D19A
:102300000B49280001F0CCFC03F0D6FCEA235B006B
:10231000E050043BE1580A22411A280001F01BFD5D
:10232000280001F0B5FC002070BDC046F409002073
:102330007ECD0000F8B505002E000121062003F037
:10234000CDFE0021062003F0F9FE334C3349200076
:1023500001F0A6FC200001F09BFC0121062003F007
:10236000EDFE0A2003F0DEFC0021062003F0E6FE6D
:10237000B8360A2003F0D6FC300000F055FC071EEA
:1023800005D12749200001F08BFC2F70F8BD2549AD
:10239000200001F085FCE7235B00E95A300000F0E3
:1023A0000AFEE62330002E005B00E95C483600F0B0
:1023B00004FE1D4A1D49300001F08AF9002803D1AE
:1023C0001B49200001F076FC01223000142101F0AD
:1023D000C7FA1849200001F052FCD9210A2249000D
:1023E000200001F0B4FC1449200001F063FC2E1D14
:1023F0001249200001F054FC3000FFF77FFE30004E
:10240000FFF790FE2800FFF769FF0028BED10C49B6
:10241000200001F045FCB9E7F40900209ACD000046
:10242000B3CD0000CFCD0000CDCC4C3D9A19D9439F
:10243000E3CD0000FECD000013CE000018CE00005A
:102440002CCE0000E12110B54902124802F056F8E6
:102450001148FFF76FFF0221012003F03FFE022128
:10246000002003F03BFE00210C4800F02DFA002173
:102470000B4800F029FA0B4C00222000112100F03B
:1024800025F92000084900F041F90849200000F032
:1024900039F910BDF4090020B00200209C02002090
:1024A000A8020020C4040020BD250000D52500009E
:1024B00010B51F4C200000F00EFA002816D01D4B5E
:1024C0002000198800F000FA002003F063FE0400E9
:1024D000012003F05FFE64B26342634140B2DBB2AD
:1024E000002801D102221343134A137013480378C2
:1024F000002B06D08378002B03D000238370FFF7D6
:10250000EDFE0F4B1B78002B11D00E4C200000F07D
:10251000E2F900280BD00C4B2000198800F0D4F908
:102520000A490B4801F0BCFB0A48FFF7FBFD10BD50
:102530009C02002000000020A4020020B002002025
:1025400002000020A8020020040000204DCE000060
:10255000F4090020B402002070B50024114B124D84
:102560001C605C600123114E2B706B703000104BAF
:1025700003220721AC7001F021F8310002220D483E
:1025800000F006FDE62302225B00EA549B180B32A2
:10259000EA520233EC500433EC50074B1C605C6091
:1025A00070BDC0469C020020B0020020F80200204E
:1025B0007C07002068030020A802002010B5034B10
:1025C0000348197800F0B3F810BDC046A4020020FB
:1025D000C404002070B500240C4D280000F03CF825
:1025E00000280DDD2800432C07D800F0C5F8084B63
:1025F0001B191871013424B2EEE700F0BDF8F9E7B9
:10260000432C02D90122024B9A7070BDC4040020F1
:10261000B002002000207047F8B505000E0017003A
:102620000024BC4208D02B68315D1B682800984705
:10263000002801D00134F4E72000F8BD7047030002
:10264000FC33196ADA69914203D01B6AC018007E14
:10265000704701204042FBE70300FC33D8691B6A46
:10266000C01A01D50130FF3070470000F7B5019363
:10267000FA238026002504009B008360124B76001D
:1026800008330F00456029000092036032001830C3
:1026900005F0ECFF23002000FC332130DD61320027
:1026A0001D622900FF3005F0E1FF87239B00E3183E
:1026B0005D609D606B461B78276123756B461B79B7
:1026C000A57520006375FEBD64CE000070B50600E0
:1026D0001825006901F043FE306901F0EFFC2B0082
:1026E0000821307D064C4343E318595603F06AFD38
:1026F0000821707D45436419615603F063FD70BD88
:1027000000D200008C239B00C15070478B239B009C
:10271000C1507047020010B5FC3253689468013311
:10272000DBB29C4202D054680155536010BD0022B8
:1027300010B5837D93420DD087239B00C418636836
:10274000A4680133DBB2A34204D02130FF30FFF78D
:10275000E1FF0122100010BD0300FC3399685A68A4
:10276000914206D09A68805C9A680132D2B29A602F
:10277000704701204042FBE710B51830FFF7ECFF2F
:1027800010BD70B50400006901F0E4FC002814D00D
:10279000206901F0EDFC002810D0206901F0ACFCAC
:1027A0000321206901F0B2FC8C239B00E558002D29
:1027B00039D10023FC34E361236270BD206901F04C
:1027C000E1FC002809D0206901F0D7FC002804D0E2
:1027D000206901F0DCFC0028DFD0206901F0D2FC88
:1027E000002826D1206901F0BEFC0028E5D0206930
:1027F00001F0CDFC002837D087239B00E2185368F6
:1028000092689B1A01D50133FF33FF21002B05D0BD
:1028100020002130FF30FFF79FFFC1B2206901F097
:102820008BFCA075C9E7236820001B699847A8475F
:10283000BFE7206901F060FC2069032101F066FC1C
:10284000206901F0A4FC0028B7D0872300229B0058
:10285000E3185A609A600123A3758B239B00E35809
:102860009342AAD09847A8E72200FC32D369126AA3
:102870000133DBB22069934206D101F034FC03211D
:10288000206901F043FC98E701F086FC010020007C
:102890001830FFF73FFF206901F02EFCEFE7000042
:1028A00010B50248FFF76DFF10BDC046C4040020FC
:1028B00010B50523042202490248FFF7D7FE10BDD8
:1028C000E4090020C404002070B50D00040003F0EA
:1028D000F3F921C470BD10B5040003F0EDF92368CD
:1028E000C31A606898428041404210BDF0B50400B0
:1028F00085B01E000AAB1B78103001930BAB1B7820
:10290000170002930CAB1B780D00039300F0FEF848
:102910002000243000F0FAF8220000234032A363A4
:10292000E363137063729D4205D10A4B0A4A222168
:102930000A4805F003FE6B461B79200063716B4665
:102940001B7A2560E3716B461B7B2771A67123728E
:1029500005B0F0BD88CE0000EECE000099CE00009C
:10296000437A002B04D18372C372C3600133437274
:10297000704730B5040085B002AD00680291039243
:1029800001F057FB6B79227AE179009320680023EC
:1029900001F0BCFC2979029A206801F06FFB2068E5
:1029A00001F03DFB05B030BD70B518260400FFF7FF
:1029B000D7FF3300082120790D4D4343EB185956BA
:1029C00003F000FC33000821A0794343EB1859566B
:1029D00003F0F8FB082160794643AD19695603F00E
:1029E000F1FB044B200006CBFFF7C3FF70BDC046D0
:1029F00000D200003C07002010B50400006801F080
:102A000001FB0023637210BD07B5837A0091019228
:102A1000002B07D09A070AD5EFF310835A4253418F
:102A2000C37272B60099019AFFF7A3FF07BDDB07D7
:102A3000F8D5C368014A9BB29360F3E700180040E1
:102A4000837A002B05D09A0704D5C37A002B00D0D7
:102A500062B67047DB07FCD5C368024A9BB2D360FD
:102A6000F7E7C0460018004010B5006801F0EAFA28
:102A700010BD7047704700001FB5094B094A0A494D
:102A80001A6000225A711A710123029301930933CB
:102A900000930932023B0548FFF728FF05B000BD4F
:102AA0003C07002000093D00DC090020F80600205A
:102AB000094B1868002809D1EFF310820749002A52
:102AC00008D172B6BFF35F8F01320A701A68013203
:102AD0001A6070470870F9E7480700204407002093
:102AE000084B1A68002A0CD01A68013A1A601B6851
:102AF000002B06D1044B1B78002B02D0BFF35F8F55
:102B000062B670474807002044070020FF230021D9
:102B100010B504000370FC3B41708170C1700171FD
:102B200043710C22083005F0A1FD200010BD00000B
:102B300001220B0010B5134008D00D4B1A7004236E
:102B400043708368002B00D0984710BD02221142C9
:102B500004D007490A704370C368F3E7042319429D
:102B6000F3D0034A1370033343700369EAE7C046A6
:102B70004E48004110B5FFF79BFF0C4B1B8C1B0709
:102B80001B0F0B2B0FD80A4A9900885800280AD02F
:102B90000F2408490A78A24313430B70064B197897
:102BA000C9B2FFF7C5FFFFF79BFF10BD004800410A
:102BB0004C0700203F4800414E480041016002712F
:102BC000704710B5006803689B69984710BD10B541
:102BD000006803681B6A984710BD10B50068036859
:102BE0001B6B984710BD70B504000D00160019004E
:102BF000FFF7F3FF2068320003682900DB6898477D
:102C000070BD10B5006803685B6B984710BD70B568
:102C10000D00040000680368DB6A98472900200063
:102C2000FFF7EFFF257170BD70B504000068036801
:102C30001B689847051E03D021792000FFF7E7FFA6
:102C4000280070BD10B5006803689B6B984710BDE5
:102C500010B500680368DB6B984710BD10B50068BD
:102C600003685B6C984710BD10B5006803689B6CE7
:102C7000984710BD10B500680368DB6C984710BD1D
:102C800010B5006803681B6D984710BDF8B50400C7
:102C900000681E000368069F9B689847051E1BD0AE
:102CA000002E03D02000FFF7DFFF3070002F03D08D
:102CB0002000FFF7D3FF3870079B002B04D02000C3
:102CC000FFF7D8FF079B1870089B002B04D020004B
:102CD000FFF7D6FF089B18702800F8BD0120704749
:102CE000002070478171704741717047C172704711
:102CF0000173704741737047837B9343194381731A
:102D00007047C079C0B27047007AC0B27047407A4D
:102D1000C0B27047807AC0B27047008A00B2704774
:102D20000079C0B2704701717047408A80B2704725
:102D3000808A80B27047C08A80B2704710B50400A4
:102D4000236820005B689847002802D103F00CF844
:102D5000F6E710BD10B504002379032B02D103F070
:102D600003F8F9E7012010BD70B504000E0002F071
:102D7000A3FF050002F0A0FF401BB04208D2236869
:102D800020005B689847002803D102F0EDFFF1E7CF
:102D9000002070BD70B505000E0002F08DFF04002C
:102DA00002F08AFF001BB04205D22B79032B04D11D
:102DB00002F0DAFFF4E7002070BD0120FCE7C369F0
:102DC00070B50400002B17D002F076FF64250600D2
:102DD000236820009B6A984700280DD002F06CFF02
:102DE000E369801B984209D80A21012002F015FFEF
:102DF000684302F097FFEBE7012070BD0020FCE77D
:102E0000074BFF2208330360002342710371C27233
:102E100043820273838243738373C382C3617047A7
:102E200044CF00007047704770477047704741714A
:102E300070478171704701717047000010B5034CF5
:102E40000171083404604271837110BDBCCF000071
:102E50007047000010B50248FFF706FE10BDC046DF
:102E6000F806002010B50248FFF703FE10BDC0466B
:102E7000F806002010B50248FFF7FCFD10BDC04663
:102E8000F806002010B50379042B38D0032B38D076
:102E9000022B38D0013B5A4253411C4A5B4213403B
:102EA0009B18827941790224002A09D00024012A42
:102EB00006D00334022A03D0033A541EA241541C04
:102EC000134A934200D9130001394A42514100226A
:102ED000C9B2022C06D00232032C03D00132012CDD
:102EE00000D0023A1C0A037244721C0C1B0E84723E
:102EF000C372027341730748FFF756FD10BD064BBE
:102F0000CFE7064BCDE7064BCBE7C04640420F006C
:102F1000808D5B00F80600200024F40000127A0087
:102F200000093D0010B50248FFF766FD10BDC04620
:102F3000F806002010B58168C2680248FFF764FDFA
:102F400010BDC046F806002010B50248FFF778FD16
:102F500010BDC046F806002010B50400FFF76EFF54
:102F6000044B200008332360034BA36000236373EA
:102F7000237310BDF0CF000000093D00002310B501
:102F80001A0019000148FFF7E7FF10BD7C07002079
:102F900010B50400FFF712FEC82300212000802294
:102FA000E381C53BA160217323745200113005F009
:102FB0005DFB200010BDC18170470174704737B5BB
:102FC00004001500FFF73EFE802120000022FFF7DD
:102FD0003FFE6B46D91D212301220B7020002B00E0
:102FE000FFF701FE2000FFF7ECFD37BDF0B58DB017
:102FF000089109920493037B07000133DDB200239B
:1030000005735A1CD2B205923A7C9A4200D275E0FE
:1030100029003800FFF716FE802200213800FFF754
:1030200017FE049B099A08993800FFF7DCFD380069
:10303000FFF7C7FD049BFF2B62D0059B012B02D934
:10304000BB680133BB6002F037FE80210690490067
:103050000020FC8902F0E1FD0300FF226343D81742
:103060001040C01800122418A3B2079302F024FEE7
:10307000079B069A9918091A00293BDD89B2380086
:10308000FFF7A5FD002832D01726162406ABF61848
:10309000E418152306AA9B180022009302960194B7
:1030A0000BAB11003800FFF7F1FD00281FD006AB75
:1030B0001A7D00230499F3568A420BD106A93E7962
:1030C000497D8E4206D1002B06DA2378AB420ED121
:1030D0000DB0F0BD002B0ADB162106A8BB1809189D
:1030E0005B7C0978994202D13800FFF768FF02F053
:1030F0003BFEBBE702F038FE059B82E70020E7E7D6
:103100000120E5E772B6BFF35F8FBFF34F8FBFF3C8
:103110006F8F0120704710B50400006A0534036802
:10312000DB689847E07F012102F0D8FFE07F0121B2
:1031300003F004F8642002F0F5FD012010BD80F3D7
:103140001088BFF35F8FBFF34F8FBFF36F8FBFF355
:103150005F8FBFF34F8FBFF36F8F704770B5040061
:103160000D001600FFF74CFE034B26620833236068
:10317000631DDD77200070BD24D00000F7B504008A
:103180000191EFF31087FFF7BDFF00281ED0206AE2
:10319000651D03681B6A9847E87F002102F0CEFF97
:1031A0007F21019B206A0B40190003681B68984728
:1031B000206A002103681B68984701210600E87F08
:1031C00002F0BCFF206A03685B6A98473800FFF78B
:1031D000B6FF3000FEBDF7B5040000910192EFF399
:1031E0001087FFF78FFF0025A8421ED0206A661DBA
:1031F00003681B6A98472900F07F02F09FFF802137
:10320000009B206A0B43190003681B689847050060
:10321000206A019903681B689847F07F012102F03A
:103220008DFF206A03685B6A98473800FFF787FFC5
:103230002800FEBDF0B585B004000F000192029396
:10324000EFF31086FFF75EFF0025A84229D0206A21
:1032500003681B6A9847631D0393D87F290002F017
:103260006DFF8021206A4942036839431B68C9B257
:1032700098470500019F029BFB180193019BBB42ED
:1032800006D0206A3978036801371B689847F5E74C
:10329000039B0121D87F02F051FF206A03685B6A1B
:1032A00098473000FFF74BFF280005B0F0BD10B580
:1032B000006A03689B6A984710BD10B5C31C0400E0
:1032C000D87F02F067FF431E98410634E37F5840E1
:1032D00010BD10B50430C07F02F030FF10BD10B536
:1032E000C31DDB7F05305940C07F02F027FF10BDB2
:1032F00010B503790400022B08D00021FFF7EFFF7F
:1033000000212000FFF7E5FF0223237110BD00001C
:10331000082388101840030010B5064A0833984265
:1033200005D0145C8C4203D00130C0B2F7E7002016
:1033300010BDC0469CD00000F8B50400FFF7BDFFEB
:10334000002805D022002A3213780133DBB2137033
:103350002100230029310A782B33824252D01A7877
:103360000B254F2A00D912351A785219D2B21A7089
:1033700008701A789F2A44D92100E28D2A31520818
:10338000E2850A78042A04D98022E08D12010243E2
:10339000E2851A7825006032D2B21A7000232C35EB
:1033A0000B702B78DBB2002B49D0260030363378F7
:1033B0000133DBB233700B2B23D93F23E18D200087
:1033C0001940FFF7A5FFE18D07008909C9B2200068
:1033D000FFF79EFF2100220075313F010B78384333
:1033E000C0B27432002B12D110701378062B02D9A0
:1033F0001378432B0BD900232B70638A01339BB2C4
:103400006382F8BD1A781432D2B21A70B1E70B7821
:10341000DBB25F1CE3183133FFB20F70187009780C
:103420001378994208D300232B702300012208331C
:10343000DA772000FFF75CFF00233370E1E7E18DCE
:10344000054A9142DDD101222A70220075343032C2
:1034500013702370D5E7C046380B0000F7B50500A0
:1034600078352F7804007B1C2B70002F0ED10300C1
:10347000020076330193FF321B78127A9A420BD8FE
:10348000FFF736FFE38A01339BB2E3822B78072BE9
:1034900001D900232B70F7BD0600C31877367933A6
:1034A000197833785A1C1941012332701940FFF7FB
:1034B00010FF3378052BE9D9019B37701B78019AEF
:1034C00001331370E2E7037910B5042B02D1FFF743
:1034D00033FF10BD0379032BFBD1FFF7BFFFF8E7E4
:1034E000102310B5044A917B0B439373034B186868
:1034F000FFF7E9FF10BDC046002C00428C070020FA
:1035000072B6BFF35F8FBFF34F8FBFF36F8F012092
:1035100070473C20704780F31088BFF35F8FBFF384
:103520004F8FBFF36F8FBFF35F8FBFF34F8FBFF32B
:103530006F8F704710B503790400012B05D000226E
:103540000121FFF748FE01232371012010BDF7B5CB
:10355000036804005B680F0015009847061E1ED024
:10356000002F19D0002D17D0EFF310830193FFF730
:10357000C7FF00280DD023002B331A7829789142F9
:1035800001D91B782B7021002A782C31380005F0E6
:1035900051F80198FFF7BFFF002368342370300013
:1035A000FEBD10B53D210400FFF7E8FDFE223D21E0
:1035B00002402000FFF70FFE10BD000070B50400B0
:1035C00015001A00FFF7CAFD22000421054B28321E
:1035D00008332360E31DDD771170FF2201332000E3
:1035E000DA7770BD88D10000F7B50400EFF31087DB
:1035F000FFF786FF002866D0631D0193D87F002166
:1036000002F09CFD206A03681B6A9847206A00212B
:1036100003681B689847206A002103681B68984765
:10362000031FDBB206003C2B44D8206A002103684C
:103630001B689847A379E071002B06D1E379627982
:103640009A4202D0E379FF2B34D1206A002103682B
:103650001B6898472072206A002103681B689847FE
:103660006072206A002103681B68984723000022CB
:103670002B33A0721A7025002B352A78331F9A42FB
:1036800010DA2B78206ADBB20093036800211B68F4
:103690009847009BE3182C3318702B780133DBB26A
:1036A0002B70E8E7A38A012201339BB2A382230097
:1036B00068331A70019B0121D87F02F03FFD206A18
:1036C00003685B6A98473800FFF725FFF7BD0000E5
:1036D00070B50500081C04F03DFE00220E4B03F0FF
:1036E000C1FF0E4B002203F0B3FB03F077F8040098
:1036F000020CD2B228000721FFF76DFD220A280034
:10370000D2B20821FFF767FD2800E2B20921FFF7D6
:1037100062FD012070BDC04680842E4180844E40F1
:1037200070B50D0001210400FFF728FD1C2398430C
:10373000C2B21D402A4301212000FFF74CFD272182
:103740002000FFF71BFD0306F9D570BD10B5037906
:103750000400022B16D003002A331B785BB2112B16
:1037600008DD55225A21FFF736FD70225C2120002A
:10377000FFF731FD2300283319782000FFF7D0FF31
:103780000223237110BD70B504002821FFF7F6FC59
:1037900023790500032B08D1030706D52000FFF786
:1037A000D5FFE38A01339BB2E3822379DBB2042B9A
:1037B00012D11D4210D024212000FFF7DFFC401061
:1037C000404200B2208202F077FAE0662000FFF764
:1037D000BDFF2000FFF708FF70BD0000034B10B5D0
:1037E0001868002801D0FFF7CEFF10BD9407002015
:1037F000034B10B55868002801D0FFF7C4FF10BD77
:1038000094070020034B10B59868002801D0FFF7FB
:10381000BAFF10BD9407002010B503790400042BF3
:1038200019D003002A331B785BB2112B08DD552217
:103830005A21FFF7D0FC70225C212000FFF7CBFC5F
:10384000402225212000FFF7C6FC10212000FFF7B1
:1038500067FF0423237110BD10B503790400002015
:10386000032B05D020006834FFF7D6FF2078C0B2C4
:1038700010BD10B503790400032B19D003002A33BF
:103880001B785BB2112B08DD5D225A21FFF7A3FCE8
:103890007C225C212000FFF79EFC002225212000D5
:1038A000FFF799FC0C212000FFF73AFF0323237157
:1038B00010BDF7B504000D0016003C2A02D9002700
:1038C0003800FEBD03689B6998472000FFF73EFF64
:1038D000236820005B6A9847071EF0D0EFF310833F
:1038E0000093FFF70DFE002833D0631D0193D87FAE
:1038F000002102F023FC206A802103681B6898479E
:10390000206A311D0368C9B21B689847206AE17AB2
:103910000368AE191B689847206A217B03681B68FF
:103920009847206A617B03681B689847206AA17BDF
:1039300003681B689847AE4206D0206A297803685E
:1039400001351B689847F6E7019B0121D87F02F0FB
:10395000F5FB0098FFF7DFFD2000FFF78AFFAFE7D8
:1039600003002A3310B51970002A1CD08A1C01DA12
:10397000FE221A7000215956CBB20D2905DC1F22F8
:103980001233134021321A4309E06022112903DD6A
:103990001F210B330B40F6E70E331A43D2B211212D
:1039A000FFF719FC10BD123101DAEE221A70002265
:1039B0009A560D2A01DD0D221A701A781F23123231
:1039C0001A406133DFE770B50D0004000A000523DB
:1039D0000221FFF72FFC6A1D022319212000FFF7A7
:1039E00029FCEA7937212000FFF7F5FB70BD0000C4
:1039F00013B5040000201B290BD8064BC900591829
:103A00000822684604F016FE20006946FFF7DBFF37
:103A1000012016BDAED0000070B505000C000A0AEA
:103A20002C21FFF7D8FB2800E2B22D21FFF7D3FBB2
:103A300070BDF7B517000E002E210500FFF79EFBA5
:103A40007B1E04000193002E18D06B461B79032BBC
:103A500014D832003B002F212800FFF7EBFB802217
:103A600052421443E4B2019B2800DA0038239C43FD
:103A70002243D2B22E21FFF7AEFBF7BD7F221440C6
:103A8000F1E70000F7B50400FFF745FB061E02D181
:103A900000263000FEBDE71DFD7F20002900FFF756
:103AA00006FC10212000FFF769FB23002933187062
:103AB0000138C0B2FD28EBD8F87F002102F00EFBE0
:103AC00023000833DA7FFF2A06D12A490A78032A1D
:103AD000DED8501C0870DA77DB7F274A99008C50BB
:103AE000002B3BD104222549280001F0A3FF200030
:103AF000FFF72CFE8F223C212000FFF76CFB3022C9
:103B00006F212000FFF767FB55225A212000FFF7A5
:103B100062FB70225C212000FFF75DFB0222184946
:103B200001A804F087FD022201A92000FFF781FF10
:103B300012212000FFF75CFF20000421FFF76CFF3B
:103B4000104A11492000FFF7C3FD2000FFF729FDAF
:103B500000220D212000FFF703FF9AE7012B02D17D
:103B600004220A49C0E7022B00D091E70422084949
:103B7000BAE7C0469007002094070020DD37000018
:103B8000ACD00000CDCC4C3D0000D943F137000053
:103B90000538000010B5024801F08BFE10BDC0468C
:103BA000A007002013B51249124800F0A2F91249EB
:103BB000124800F09EF91249124800F09AF9124991
:103BC000124800F096F9124C1249200000F091F9C9
:103BD0001149124800F08DF900230193013300933D
:103BE0000722053321000E4801F0D2FD13BDC04667
:103BF00000080042DC090020000C0042E00900201F
:103C000000100042E409002000140042E8090020EE
:103C1000EC09002000180042001C0042F0090020BE
:103C2000A0070020F7B506000D000C008B180193CB
:103C3000019B671B9C4207D0336821781B683000CA
:103C4000984701340028F3D13800FEBD70B5040058
:103C500008000D0005F0BCFD2368020029005B6828
:103C60002000984770BD10B50B1E02D0FFF7EEFF85
:103C70000300180010BD10B5FFF7F5FF10BD10B51B
:103C8000FFF7F1FF10BD10B503681B68984710BD22
:103C900010B50249FFF7DAFF10BDC046A4D30000FB
:103CA00070B50400FFF7DFFF05002000FFF7F0FF0D
:103CB000401970BD70B50400FFF7D5FF0500200066
:103CC000FFF7E6FF401970BDF0B58BB06B461500ED
:103CD000002205330600DA770800012D00D80A25F6
:103CE00009AC290002F04CFCCAB2130037330700BC
:103CF000DBB2092902D813003033DBB2013C237058
:103D0000002FEED121003000FFF7ADFF0BB0F0BD6A
:103D1000F8B506000C00151E04D10368C9B21B6873
:103D20009847F8BD0A2A0CD100290BDA2D21FFF79C
:103D3000AAFF614207002A003000FFF7C5FF3818CC
:103D4000EFE7D2B221003000FFF7BEFFE9E710B580
:103D5000FFF7DEFF10BD10B5002A04D10368C9B219
:103D60001B68984710BDD2B2FFF7AEFFFAE700001C
:103D7000F7B51E0008AB1B78310001930500330036
:103D80001000170004F028FA4B49002814D1012232
:103D9000740064085242494B3800210004F01CFAB8
:103DA00000280FD10122454B52423800210002F079
:103DB000F7FC002806D142492800FFF747FF04001E
:103DC0002000FEBDE0223F4B12063800310002F019
:103DD000F1FC002801D03C49EEE7E0223B4B120603
:103DE0003800310002F0D2FC0028F4D10022002378
:103DF0003800310002F0CAFC041E07D02D21280033
:103E0000FFF741FF802304001B06F6180023002063
:103E10002F490093019B009A934208D02D4B00221A
:103E200003F016F8009B0133DBB20093F2E7330096
:103E30003A0002F0F1FC0F00060002F0CFFC0A226B
:103E4000019001002800FFF73FFF009B0419002BA1
:103E5000B6D0019804F04CFA02000B003000390093
:103E600003F072FE06000F0028001B49FFF7EEFE6C
:103E70002418009B013BDBB20093FF2BA0D0154B15
:103E800000223000390003F0EDFB0F00060002F0C5
:103E9000A5FC0A22010001902800FFF715FF241855
:103EA000019804F025FA02000B003000390003F0FD
:103EB0004BFE06000F00DCE798D30000FFFFEF7F0A
:103EC0009CD30000FFFFEF41A0D30000FFFFEFC134
:103ED0000000E03F00002440E1CD000037B51D00A8
:103EE000069BDBB200932B00FFF742FF3EBD1000A4
:103EF0007047016070479446F0B59E1E721E964151
:103F00006246056892072F6836063A4332432A60B4
:103F1000072505AC24780068A401294021434268A4
:103F20000024022B00D05C03114321434160F0BD0B
:103F300030B5C0250368AD031C6812052A40224332
:103F4000C0240904A40221401143196003685A687F
:103F500014435C6030BD0123026811680B43136099
:103F600003681A68D207FCD4DA69D207F9D470471B
:103F70000223026811680B4313600268D3699B0730
:103F8000FCD4704703681A7ED20702D41A7E9207C7
:103F9000FCD57047002203685A8370470368187E77
:103FA0004007C00F70470368187EC0097047802320
:103FB00002685B42117E0B43137670470368588B8F
:103FC0008007C00F704702230268518B0B43538355
:103FD00070470368187EC007C00F70470368188DCC
:103FE000C0B2704703681A7ED207FCD589B201209F
:103FF00019857047012203689A757047012203688A
:104000001A7570470123026811680B431360036837
:104010001A68D207FCD4DA69D207F9D470470223B0
:10402000026811680B4313600268D3699B07FCD4D4
:1040300070470368DA699207FCD402211A688A4340
:104040001A6070470268936A5B0A5B0219439162C7
:1040500003681A7E5207FCD5986AC0B27047000008
:1040600010B54900044802F005FA80B2002801D0DA
:10407000013880B2C0B210BD006CDC0270B54B08D4
:104080000C00012105680B400C402E6824075B07DB
:10409000234333432B6011000468FFF7E1FF2073D3
:1040A00070BD0123026811680B43136003681A682E
:1040B000D207FCD4DA69D207F9D470470223026828
:1040C00011680B4313600368DA699207FCD430214E
:1040D0005A8B8A43110010220A435A830268D3691B
:1040E0005B07FCD4704780230268DB0211685168CB
:1040F0000B43536070470000036803491A685A680D
:104100000A405A607047C046FFFFFBFF032230B5EC
:10411000036811401C68074D5A6809042A40E406E8
:104120001143640F5960052C03D10268D3695B0702
:10413000FCD430BDFFFFFCFF03682833197003680F
:1041400000201A7E520704D5588B01234007C00F68
:104150005840704703681868C006400F043843424F
:104160005841C0B270470368187E4007C00F7047BF
:104170000368187EC007C00F70470368588BC006DD
:10418000C00F70470368187E8007C00F7047036830
:10419000588B0007C00F704703681A68D206520F89
:1041A000052A02D11A7E9207FCD528331878C0B2AE
:1041B000704700000368104A934213D00F4A93429D
:1041C00012D00F4A934211D00E4A934210D00E4A99
:1041D00093420FD001200D4A4042934201D1063054
:1041E00040B270470020FBE70120F9E70220F7E723
:1041F0000320F5E70420F3E700080042000C00422A
:10420000001000420014004200180042001C00424E
:10421000F8B5FFF7CFFF00282CDBC3001C48FF22B6
:10422000C01805230479C35603201840C0008240FB
:10423000C021D2438140002B1DDB1F2501201D40E2
:10424000C026A840134D7600A851C0269B089B00AD
:104250005B19B6009F593A401143995128603F239A
:1042600023408024E4011C430B4B5C805A7852B2FB
:10427000002AFBDBF8BD0F200340083B07489B08E2
:104280009B001B18D86902401143D961E7E7C0467B
:10429000A8D3000000E100E0000C004000ED00E0C9
:1042A000F8B504000F0016001D00FFF7B1FF200055
:1042B000FFF751FE1C21BB000B4071072268090C5F
:1042C0000B431360842322689375012F1AD11021A8
:1042D000012E00D008390C4B69431868C00002F069
:1042E000C9F80722216802408B895203DB04DB0CEA
:1042F00013438B81226803049089DB0C400B40033D
:1043000018439081F8BDC04684000020F7B5040032
:10431000019308AB0D0016001F78FFF773FE200015
:10432000FFF776FFC0223605920332400C26164373
:10433000C0222D0492021540072223683543BF078F
:104340002F431F60019B216813401A0080239B02AA
:1043500013434B602268D3695B07FCD4F7BD70B58B
:1043600004000D001600FFF753FF2000FFF799FE31
:104370001C2221686D000B6893431A00102313431D
:10438000FF220B60236815405D62002E04D00123DC
:104390002268516A0B43536207232268937522688F
:1043A000D3695B07FCD470BD3F20704713B56B46E3
:1043B0000268D9710733546819000122A04716BD5D
:1043C00010B50221006900F00BFD034B1B6801339F
:1043D0005A1E9341181810BD5800002010B5032133
:1043E000006900F013FD10BD10B50321006900F055
:1043F000DBFC10BD10B5054C23685A1C04D10368C2
:104400005B69984703002060180010BD5800002029
:10441000074B0200186810B5411C03D0012252421C
:104420001A6010BD0221106900F0DAFDF9E7C046FC
:104430005800002010B51300094A0400D079C0B21A
:10444000002805D1627E002A02D00123636006E0C5
:104450000A002069032100F0D1FD0028F5D010BD2D
:104460000C00002010B50378422202330370024989
:10447000024800F06FFE10BD14000020100A00205A
:1044800010B50178020043780020A12908D1212B22
:1044900005D107221649174800F05CFE012010BD27
:1044A0002129FCD1202B13D107221149114800F0FA
:1044B000F1FC96220E4BD200196891420ED10124D4
:1044C000D87904400AD1FA2001F0DEFE0020E6E7A8
:1044D000222B06D19278064BDA71EAE701F0DAFE78
:1044E000F4E7232BDBD15288034B1A60D7E7C04691
:1044F0000C000020100A0020080000200123437651
:1045000070470000FA220021054B92009A60054A8C
:10451000596008321A60044A19761A617047C04619
:10452000F4090020D8D30000100A0020704770471B
:1045300070B50F26CB1D013902003240D5B22C00D8
:1045400000093034092A00DD07341C70013B8B421E
:10455000F2D170BDA02110B50400490001F07CFF2C
:10456000200010BDF8B5032908D1304B8000C05899
:10457000002802D003689B689847F8BD822919D1AA
:10458000C3B22B4D5A01AA1891692A4C80010C40E4
:10459000C0218905214391612749083340187021C2
:1045A000506128685B011A5C8A43110030220A437B
:1045B0001A54E2E70029E0D1C026C1B21C4C4B01DD
:1045C000E3189A681B4DB6052A4032439A601B4A8D
:1045D000800182185A600A000727246808325201B5
:1045E000115DB9430F000121394311559F691249EB
:1045F0003D4040182E439E6158617020115D8143FB
:10460000080010210143115599680D48A21808406F
:1046100080214903014399609968890B8903996056
:10462000402311790B431371A7E7C046140A0020F9
:10463000C80E0020FFFFFF8F3C0A0020FC0B00206B
:10464000FF3F00F0EFF3108303600123436072B675
:1046500070470368002B02D162B6BFF36F8F7047BB
:10466000F7B50500FC35EB690600002B18D196273D
:104670007F00C45D6846FFF7E5FF019BE4B2013BA4
:1046800002D3F45DE4B2FAE768460193FFF7E1FF75
:10469000002C01D10020FEBDE86AAB6AC01AFAE71F
:1046A0006846FFF7CFFF9E220024019B5200013B8A
:1046B00002D3B45CE4B2FAE768460193FFF7C9FF9E
:1046C000002CE7D0E86BAB6BE8E7000030B544683E
:1046D000FC3043698069DBB25A01A2189168094D28
:1046E0008004294000090143916091680833890BD7
:1046F0008903916022685B01D318402219790A432B
:104700001A7130BDFF3F00F0F7B50500FF21FC3501
:104710006A6943680A401B68083252019A18D379C3
:104720000400DB0754D50126D6716B6962680B4023
:104730005B01D318286A9A689204920C002822D14F
:10474000EA62EA6A002A40D06A6B2E6268465A60C2
:10475000FFF778FF9E273E21019B7F00013BFF3141
:104760005A1C2ED096225200A654E25D581ED2B298
:10477000002A05D0665468460193FFF76AFFF7BD2B
:1047800062540300ECE7EA63EA6B002A1DD00022C2
:104790002A626A6A68465A60FFF754FF96273E21EC
:1047A000019B7F00013BFF315A1C0AD09E22520020
:1047B000A654E25D581ED2B2002ADBD16254030037
:1047C000F2E768460193FFF744FF2000FFF77EFF02
:1047D00063681A686B69DBB208335B01D3187F2208
:1047E000DA71CCE7F7B5070068463C00FFF72AFF0F
:1047F0000026FF22019BFC34013B0DD3E0682169B8
:10480000884204DBE6682069961B3618F4E72669BF
:10481000E168761A013EEFE768460193FFF719FF5A
:10482000E3696846002B52D1FFF70CFF9621019BEC
:104830004900013B5A1C0CD07D5C5A1EEDB2002D84
:1048400005D168460193FFF704FF2800FEBD130061
:10485000F0E7684601930025FFF7FBFEFF21A36AFE
:10486000B54214D0E26A9A4211D95A1CA262626A15
:10487000D3181878E36822690133C0B20B40934221
:1048800003D0E268BA181072E3600135E7E7E26A24
:104890009A42DAD10023A3620133E3616846962489
:1048A000FFF7D0FE64003E220021019BFF32013B56
:1048B000581CC6D03955B85C5E1E002805D0B954C6
:1048C00038000193FFF702FFEDE73300F0E7FFF751
:1048D000B9FE9E21019B4900013B5A1C06D07D5C1C
:1048E0005A1EEDB2002DACD01300F6E768460193D6
:1048F0000025FFF7AEFEFF21A36BB54202D0E26BAD
:104900009A421DD8E26B9A429FD100236846A36366
:10491000E3619E24FFF796FE64003E220021019B86
:10492000FF32013B581C00D18BE73955B85C5E1E45
:10493000002817D0B95438000193FFF7C7FEECE701
:104940005A1CA263626BD3181878E368226901339A
:10495000C0B20B40934203D0E268BA181072E36011
:104960000135C9E73300DDE710B50400FFF73AFF72
:104970002300FC331969DA68914203D01B69E418FB
:10498000207A10BD01204042FBE710B50400FC3442
:10499000FFF728FFE0682369C01A01D50130FF3016
:1049A00010BDF0B585B0019200910500FFF71AFF28
:1049B00002A8FFF747FE01200024FF26039B404288
:1049C0005A1E531C1FD02B00FC3301998C4218D265
:1049D000D9681F69C91B01D50131FF31002910D0E9
:1049E0001969DF688C460100BC4506D019691F694A
:1049F000691801373740097A1F61009F3955013422
:104A0000E3E7013ADDE702A80392FFF722FE200068
:104A100005B0F0BD37B56B46DC1D00230D0020004E
:104A20002370FFF71FFD2B681818286001F0BAFCEF
:104A3000210001F073FC2B681818286020783EBD17
:104A400002220B0010B593430C00012B0BD10D4B30
:104A500008341B6864011C19802321795B420B43D5
:104A60002371E27110BD01F09DFC210001F08AFC70
:104A70000028F7D0034B08341B6864011C197F23FE
:104A8000E371EFE7C80E002070B50024374B012119
:104A900005000B201C7001F021FB01210B2001F00F
:104AA0004DFB334B01210C201C7001F017FB012141
:104AB0000C2001F043FB20232E4A0F20D1690B4329
:104AC000D36101222C490B7813430B702B4B1978BF
:104AD0008143197006211C782143197028490C78EC
:104AE00022430A701A7802401A70602219780A4329
:104AF0001A70244B244A5A805A78D209FCD1234890
:104B000001F0D4F8224C7F26200001F05DFC20004B
:104B100001F072FC0C2108232068C2788A431343F9
:104B20000322C3702068C3789343013A1343C370D0
:104B300020680378334003700423206806783343E9
:104B40000370206803898B430381C12011498000D1
:104B50000B581B021B0A0B5080230B60236819782B
:104B60000A431A7001232B7070BDC046310A002021
:104B7000300A002000040040584400413C440041F9
:104B800059440041000C004006400000C55500009B
:104B9000C80E002000E100E00078002810D00121BC
:104BA000084B1B681A898A431A810822198B0A4309
:104BB0001A830422198B0A431A830022024B1A60BB
:104BC0007047C046C80E0020C00E002010B50F4A26
:104BD00093699B0B9B03936113680222FF331A7244
:104BE0009879823A02439A711A7A9207FCD57F2407
:104BF000074A2140937A0800A34319008023014308
:104C00009172917A5B420B43937210BDC80E0020E3
:104C10000050004110B50B790C00002B0CD108009E
:104C2000FFF72EFC002801D0012010BD094A93692E
:104C30009B0B9B039361F7E701F0B4FB210001F0AC
:104C400091FB0028F0D1034A93699B0B9B0393616E
:104C5000EBE7C046C80E0020F8B50D00832A19D135
:104C6000CBB2434C5A01A21891694248AD010840A9
:104C7000C0218905014391613F4920686D18702169
:104C8000083355615B011A5C8A43110040220A43D4
:104C90001A54F8BD022A65D1384B8A00D058002832
:104CA00002D003689B699847A020400001F08CF86F
:104CB00080270600324B7F0003602D4B00214360AC
:104CC0003A00083003F0D2FC340096220023FC3472
:104CD0005200E360A36223616561E361A76123621F
:104CE000E362B3541032A363E363B3543E2238004B
:104CF000FF32B35403F078FC6062380003F074FCB8
:104D00002B006063FF201A4903405A018A189168FA
:104D1000184F08330F40C021890539430727916098
:104D2000134A5B011168AD005A5CBA4317000322B5
:104D30003A435A5461697368014049015918636ADA
:104D40004B60736862691B68024052019B18012224
:104D50001B18997A30000A439A72FFF7B7FC074B89
:104D6000EE5096E711002800FFF7FCFB91E7C046E4
:104D7000C80E0020FFFFFF8F3C0A0020140A00200D
:104D800008D4000070B505000124064BA200D258DB
:104D9000002A06D0210028000134FFF75DFF0A2C0D
:104DA000F3D170BD5C0000200B4BCAB20B488901E7
:104DB000C9185301C318596199690832890B8903CD
:104DC0009961036852019A180223D3715179823B89
:104DD0000B4353717047C0463C0A0020C80E0020A8
:104DE000084B8A00D05810B5002803D00368DB6850
:104DF000984710BDC9B2044B49015918886880040E
:104E0000800CF6E7140A0020C80E002010B50C0034
:104E1000FFF7E6FF00280CD0064BE4B21B6808340D
:104E200064011C19802362795B421343637102237E
:104E3000E37110BDC80E002070B5CBB2124A134802
:104E40005C0189018918021951609168104D08337D
:104E50000D40802189022943402591609168890B8A
:104E60008903916001685A018A18167935431571D2
:104E700095796D06FCD55B01C918CB79DB07FCD5AC
:104E800000198068C0B270BDFC0B0020C80E002065
:104E9000FF3F00F070B5140040220B4B0D001B6863
:104EA000FF3359790A435A710021FFF7C5FFA04229
:104EB00000D9200000230549A34203D0CA5CEA546C
:104EC0000133F9E770BDC046C80E0020FC0B00207E
:104ED00010B5C9B20B484901421893689B049B0C5A
:104EE0003F2B0BD99468403B9B04A40B9B0CA40361
:104EF0002343936041188868C0B210BD93689B0B30
:104F00009B03F6E7C80E0020F0B51C002F4B85B0C0
:104F10001B6806000D000192002B54D02C4F3978ED
:104F2000C9B2002902D10C2001F008F964233B70BA
:104F3000284BAA00D058002808D0036822005B68DC
:104F4000019998470400200005B0F0BD2900300009
:104F5000FFF746FF844204D929003000FFF740FFE5
:104F6000040029003000FFF7B3FF0121EBB21A4F14
:104F700003935B010293029A3B6801989B18FF33ED
:104F80005A7A0A435A72154BA901C918220003F034
:104F900051FB002CD7D029003000FFF721FF00285B
:104FA000D1D14021039B3A6808335B01D3181879AB
:104FB000014319710121D971029BD318FF339A7AE9
:104FC0000A439A72BFE701246442BCE7C00E002086
:104FD000300A0020140A0020C80E0020FC0B00201C
:104FE00013B56B46DC1D22000123FFF78DFF01285E
:104FF00001D1207816BD01204042FBE7F0B51E002C
:105000003A4B85B01B680F000192002B3FD08023E4
:10501000DB019E423BD8364C2178C9B2002902D12F
:105020000B2001F08BF8642300252370314BBA016B
:10503000D3180293002E2CD02F4B1B680393FF2311
:105040003B401C0000930834039B64011C19A379A6
:10505000DB0921D0294B2A49186801F00BFA294BAA
:105060001721584301F006FA274BE279920713D42F
:10507000DA5D002A01D10138F7D20122DA55009B0E
:105080005A011D4B9B189A69920B92039A61012554
:105090006D42280005B0F0BD00221B4B3400DA55EC
:1050A000402E00D9402422000199029803F0C2FA50
:1050B000009BA1045A01104B890C9B18029A2D19D0
:1050C0005A619A69361B920B92030A439A61009BBC
:1050D000039A08335B01D3180222DA715979823AB4
:1050E0000A435A71019B1B190193A3E7C00E0020CC
:1050F000310A00203C0A0020C80E00208400002055
:1051000040420F0070110100330A002070B50D00FD
:105110001C000D4BAE01F61811003000220003F008
:1051200089FAEDB209496D014D196E61AB69084A02
:1051300020001340AB61AB69A2049B0B920C9B0354
:105140001343AB6170BDC0463C0A0020C80E00206E
:10515000FF3F00F0F7B5104B01901B780F001500D2
:10516000002B0CD10D4B16001C78002C09D00C4ED6
:105170000C4834882018641903F05CFA3480280045
:10518000FEBD002EFBD03A19330000210198FFF735
:10519000BDFF2418361AF4E7BC0D0020BD0E002018
:1051A000BE0E0020BD0D0020F8B5002000AF0E009F
:1051B0001500012A27D9D31D6A46DB08DB00D31A64
:1051C0009D46080004F004FB6C46032302220021E4
:1051D0000130400020706370AA420DD23078002860
:1051E0000AD0531CDBB20136A0549D4203D00232D8
:1051F000E154D2B2F0E72A0021000448FFF7AAFFE9
:10520000431E9841C0B2BD46F8BDC046100A0020FA
:10521000F0B50024012685B0184B0F0069461E70BA
:1052200005000094FFF7F6FB154B01A90B806A3BC4
:10523000FF3BCB716E3B0B72009B8C7109334B8033
:105240000E4B4E7108711C703A00092F0FD00D4F94
:1052500009223E700C4E280000943480FFF77AFF3C
:1052600069462800FFF7D6FB328808493C702800C1
:10527000FFF770FF012005B0F0BDC046BC0D002057
:1052800009020000BD0E0020BE0E0020BD0D002052
:10529000F0B5CF7893B005000E00022F09D1C98870
:1052A0002D48FFF7B5FF441EA041C4B2200013B043
:1052B000F0BD01F077F8310001F044F8002803D088
:1052C000C417241AE40FF1E7012F0FD1F288082A3E
:1052D0000AD02249112A13D8D2B2002A10D02800AD
:1052E000FFF738FF0124E1E71D49F5E70400032F2C
:1052F000DCD1B378002B05D1F2881A49032AEBD907
:105300000A78ECE7022B06D1B27917492800FFF79B
:105310004BFF0400CAE7012B02D1B2791349F5E72C
:10532000032BC3D1124B01A91868FFF701F9114BE8
:1053300003A91868FFF7FCF80F4B05A91868FFF7D9
:10534000F7F80E4B07A91868FFF7F2F86B4605331C
:10535000DC77B27901A9D9E7100A002040D4000017
:1053600052D4000036D4000028D400003AD4000003
:105370000CA0800040A0800044A0800048A08000D5
:1053800037B5040048780D000B2810D801F068F8F4
:10539000061B0F2B0F40456D494C6669097801AA21
:1053A000002906D1022311802000FFF7AFFE012063
:1053B0003EBD002313802E4B1B78012B00D11370B0
:1053C00002230021F0E78A780023012A03D101AAF1
:1053D0001380284BF0E7264A1370274A93699B0BEA
:1053E0009B039361E3E78D78012D06D10021214BCA
:1053F00001AA1D7011702B00D6E70120002DD7D116
:105400001B4B1D4A187093699B0B9B039361CFE75D
:1054100089782000FFF7DAFBC9E72000FFF738FFA3
:10542000C6E70123154ACCE70B780020DB06BFD185
:105430002000FFF7A7FC2A20AA78104BFF301A6043
:1054400002230D4A11680C5C23434A240B54FF3499
:105450000B5D2938FF3803430B55D4E70123084A75
:10546000AFE78A78064B1A60B7E70020A0E7C0468E
:10547000320A00203A0A0020C80E0020C00E002088
:10548000C40E0020474BF7B51C780600002C7CD1D9
:10549000454D2B689B8B1B070ED521002000FFF785
:1054A00061F82A6810231100FF31887A03438B7258
:1054B0003E4B1C60082393832B689A8B52071FD5A1
:1054C00004229A833A4A1378002B0AD01378013BBE
:1054D000DBB213701378002B03D101210B2000F0F5
:1054E0002DFE344A1378002B0AD01378013BDBB22F
:1054F00013701378002B03D101210C2000F01EFE45
:105500002B68FF331A7AD2061ED510221A725979E7
:1055100030320A435A716023274930000A781A4210
:1055200034D1FFF72DFF2B68FF33002831D08022C4
:10553000997952420A439A711A7A520604D5402246
:105540001A72597A0A435A72012427002B681B8C5D
:10555000A343DBB20193019B23413B4212D02300C2
:105560002A6808335B01D318DA79D20702D4DB79D1
:105570009B0707D5114BA200D05800280DD0036817
:105580001B6898470134082CE5D1F7BDFFF742FBB3
:10559000C9E720210A4A9171CEE7E1B23000FFF756
:1055A0004FFAEFE7BD0E0020C80E0020C00E00200D
:1055B000310A0020300A0020FC0B0020140A0020D1
:1055C000FF50004110B50248FFF75CFF10BDC04618
:1055D000100A0020014B024A1A607047C80E0020D2
:1055E000005000410120704710B50368014A1B6A52
:1055F000984710BD130400000300FC33D9699A6971
:10560000914203D0DB69C018007D70470120404201
:10561000FBE710B504000069FEF79DFC22000023A3
:10562000FC329361D36186229200A4186360A36068
:1056300010BDF02001403039484248417047F02306
:105640001B011940802306209B0099420AD0013398
:10565000FF330130994205D0802302385B00994224
:1056600000D0002070470F2001400020012903D006
:105670000239481E8141481C704700008923F0B55B
:10568000182685B002919B000400C05C33000821FD
:105690004343324D1700EB18595600F093FD304B41
:1056A0000821E05C33004343EB18595600F08AFDB3
:1056B0002C4BE25C0393022A09D11133E05CFF28F2
:1056C00005D008214643AE19715600F07BFD8A26AD
:1056D000B600A05DFF2819D0012100F0FFFC1822C0
:1056E000A35D21495A43AB56AD18DB0158188B21F5
:1056F000890060501D4901225B188C21890063508C
:1057000069688A408D21890062501A600122029BDB
:1057100011002069FEF7C4FD39002000FFF78FFF5C
:10572000390005002000FFF79EFF39000600200029
:10573000FFF77FFF33000090290020690122FEF768
:10574000DAFB0B4B2069E25C039BE15CFEF7F0FBAC
:105750002069FEF70DFC05B0F0BDC04600D2000088
:1057600025020000270200001844004114440041B3
:1057700026020000802210B504005200002102F031
:1057800075FF23000022FC335A6020009A6010BD90
:10579000F7B51D0008AB1B780400009309AB1B781C
:1057A0001600019300234360FA239B008360114B92
:1057B0000F00083303601430FFF7DCFF20001D30BA
:1057C000FF30FFF7D7FF89236A469B002761E65425
:1057D000094B1278E554094B2000E2546A46084B05
:1057E0001279E2548A22293BFF3B9200A3541032E3
:1057F000A354FEBD64D40000250200002602000070
:10580000270200000300FC3359689A68914204DBC8
:105810005A689868801AFF30704798685B68C01AA9
:105820000138F9E710B51D30FF30FFF7EBFF10BD71
:10583000030070B5FC33D9699A69040091421AD00B
:10584000DA698218157DDA690132D2B2DA618A2307
:105850009B00E35CFF2B0CD020001430FFF7D2FF3D
:105860000A2806DD8C238D229B009200E358A25863
:105870001A60280070BD01256D42E8E70300FC3383
:1058800058689B68C01A01D50130FF30704710B5C9
:10589000040020001D30FF30FFF7F0FF0028F8D192
:1058A0002069FEF76FFB10BD10B51430FFF7E6FF5F
:1058B00010BD10B504000069FEF780FB002805D07C
:1058C0002069FEF78BFB2069FEF77DFB2069FEF760
:1058D00065FB002820D02069FEF780FB2200FC3207
:1058E0009369D1690133DBB28B4203D091696118AE
:1058F000087593618A239B00E35CFF2B0CD020008A
:105900001430FFF77FFF092806DC8B238D229B00D4
:105910009200E358A2581A602069FEF75AFB00284B
:105920001AD020001D30FF30FFF7A8FF002822D03A
:1059300086239B00E31899685A68914218D08E21FB
:105940009A684900A218515C9A680132D2B29A60F2
:10595000C9B22069FEF746FB2069FEF724FB002848
:1059600005D02069FEF723FB2069FEF713FB10BD6D
:1059700001214942ECE72069FEF740FBECE700001B
:1059800070B5040000690D00FEF723FB00283ED12E
:10599000FF2686239B00E3185A689968013232403B
:1059A0008A4223D1EFF31083DB070DD41E4B5B68D3
:1059B000DB05DB0DEDD0103B5BB2002B0DDB9B0854
:1059C000C0331A4A9B009B582069FEF702FB00284F
:1059D000DFD02000FFF76DFFDBE70F221340083B0D
:1059E0009B08134A9B009B181B68EDE75A6801321D
:1059F00016409A68964205D08E215A684900A2182E
:105A000055545E602069FEF7F5FA012070BD200054
:105A10001D30FF30FFF732FF0028B9D1290020697F
:105A2000FEF7E0FAF1E7C04600ED00E000E100E03B
:105A30001CED00E0F7B50092182216254243514BA9
:105A400007009B185D5701916B1C52D04E4B4F4C79
:105A50001E68002E2BD1310044224D4802F006FE74
:105A6000310044224B4802F001FE10224A4B4B49C0
:105A70001E604B4BCA67BFF34F8FBFF36F8FC021C0
:105A8000C12049005A5080001958FF36B1431950BF
:105A90001A60444B444A5A800223227813432370ED
:105AA0006378DB09012BFBD00122374B1A600123FD
:105AB0001E00AE40626932436261019A002A18D02A
:105AC000102D1FD1E2781343E370009B042B0BD8F9
:105AD00018000723A2789A4300F0C2FC030C0E10B2
:105AE000120005231343A3702A4B019A1A64B6B21D
:105AF000E660F7BD0423F5E70323F3E70223F1E7AC
:105B00000123EFE738000027002100F05BFB224B68
:105B10001F499C461B68BA00BB421DD16046013339
:105B200003608E501B4B01999950072D19DD0123FD
:105B3000083DAD000721A940144A9B009B189A69B3
:105B40008A439A61009A042AD1D81000996900F01A
:105B500087FC0B10121416008858B042E1D00137B0
:105B6000D9E7AD000023E5E70522AA400A439A6180
:105B7000BDE70422F9E70322F7E70222F5E7012255
:105B8000F3E7C04600D20000541000200018004087
:105B900010100020CC0F00205810002004E100E07D
:105BA00000E100E0000C00400540000010B50024BA
:105BB000084B1B68A34200D810BD074A0749A30041
:105BC00010695958014203D01161054A9B58984702
:105BD0000134EDE75810002000180040101000209C
:105BE000CC0F0020054B10B51B6C002B00D0984744
:105BF0000123034AD1780B43D37010BDCC0F002092
:105C00000018004010B5041E05D003F079FD2100F6
:105C100000F0A0FD0C00200010BD10B5040088426B
:105C200003DA081AFFF7EEFF2418200010BDFEE784
:105C3000FEE70000034B10B51B68002B00D098470F
:105C400010BDC0465C10002070B50F490F4CA1423A
:105C500004D100F0DFF800F09FF8FEE70C4D0023C0
:105C60008D42F6D0CA18E818A24205D3094B8242E9
:105C7000EFD00949002204E0006804331060F1E726
:105C800004C38B42FCD3E4E7000000208002002024
:105C900068D80000800200208010002010B500F0BD
:105CA00064F8002801D100F055F810BD014B1860D0
:105CB0007047C0465C100020014B18687047C04612
:105CC00060100020F7B51348012284461249134C96
:105CD0008E68636805689B0E13400192886862684D
:105CE000019F920E3A4067463F6893420ED1BD42F3
:105CF0000CD186420AD35B19FA254868AD00861B91
:105D000007486B437043000DC018FEBD3D001300F3
:105D10000600E3E76010002010E000E000ED00E086
:105D20005555000070B5041E10D0FFF7CBFF0500DD
:105D300000F01AF8FFF7C6FF054B401B9842F7D951
:105D4000FA23013C9B00ED18002CF3D170BDC04636
:105D5000E703000010B5034A13680133136000F035
:105D6000A1FA10BD601000207047002070477047F6
:105D700010B5FCF767FBFCF79BFBFFF7F5FF034B48
:105D8000002BF8D000E000BFF5E7C046000000009F
:105D900010B5FFF7EDFF000010B500F0EBF802F0D2
:105DA000FBFBFFF7E4FF0120FFF7BCFF054C2000E1
:105DB000FEF76AFE2000FEF7EFFEFFF7E9FF002086
:105DC00010BDC046100A002010B502F00DFC10BD39
:105DD00010B502F013FC10BD10B50200EFF31081F6
:105DE00072B60A4B1868002801D109481860186873
:105DF0008218EFF30884A24204D21A60002900D16D
:105E000062B610BD01204042F8E7C0466410002091
:105E1000801000201E2270B54648474943689343CE
:105E20001C3A1343436008238C6923438B61434C22
:105E3000434B9C829C8A14439C82DC681442FCD0B5
:105E40000124404A14701578254203D055786DB26C
:105E5000002DF8DB01249460547864B2002CFBDB45
:105E6000394C5460547864B2002CFBDB8224E4018A
:105E70005480547864B2002CFBDB02249C840E34E2
:105E8000DD682542FCD0314CDC621024DD682542FF
:105E9000FCD09D8C2E4C2C439C841024DD68254224
:105EA000FCD002249D8C80262C439C844024DD68F9
:105EB0003542FCD0DD682542F9D01024DD6825424A
:105EC000FCD000249460547864B2002CFBDB214C9D
:105ED0005460547864B2002CFBDB1C6A1E4D2C40CD
:105EE00080251C621C6AAC431C62032393601B4B1D
:105EF000536053785BB2002BFBDB0023FF240B7253
:105F0000174A4B728B72CB72164B1A60164B174A9C
:105F10001B6811689A065B01C90E2340520F1202DA
:105F20000B431343124A1385802342681343436093
:105F300070BDC04600400041000400400C06000057
:105F400000080040000C004001050100B905FF7D7C
:105F5000040A000000070300FFFCFFFF0306010026
:105F6000006CDC028400002024608000206080003F
:105F700000400042FA212D4B10B51868890000F04E
:105F800079FA2B4B013898424FD82A492A4A48605F
:105F9000C020136A00061B021B0A0343136200237E
:105FA0008B6007330B608021136A09061B021B0AF2
:105FB0000B431362FC22214B196A0A431A62FF2227
:105FC000196A12020A431A62A022196AD2020A430B
:105FD0001A621B4B1C005A7852B2002AFBDB194A8A
:105FE0005A80194B1A00597EC9090129FBD0C821D2
:105FF000890099800521D970537EDB09012BFBD0E4
:10600000C02300205B011361907000F023F86378D7
:106010005BB2002BFBDB0D4B0D4A6380D379DB09B0
:10602000012BFBD04123537010BDFEE784000020FC
:10603000FFFFFF0010E000E000ED00E00004004082
:10604000000C00401E4000000040004221400000C3
:10605000004800421F4900B50B004A7ED209012AC0
:10606000FBD001380A282FD800F0FAF91B2E2E2E6B
:106070002E2E062E2E2411001A6917490A400F21D0
:106080001A615A788A43110001220A4310E01A6902
:1060900011490A400F211A615A788A4311000322DC
:1060A000F3E71A690C490A400F211A615A788A43AA
:1060B0005A7000BD1A6908490A400F211A615A78BE
:1060C0008A4311000222E0E7F022196912050A430F
:1060D000F3E7C04600400042FFFFFFF0182310B571
:1060E00008244343134AD0180457013412D0012422
:1060F0009A5643689C4003290CD808000E49D201E7
:106100005218D318403300F0ABF90210060B0221ED
:106110001970546010BD0621197054609461F9E73C
:106120000621197054605461F4E7022119709460DB
:10613000F0E7C04600D20000004400411823F0B54B
:1061400008245843114A13181C5701341BD0012648
:1061500035005F688356BD400D4ADB019A18906890
:1061600005420BD10C00601E8441D21940321078D8
:1061700034400336A400B04320431070044A9B18F7
:10618000002901D15D61F0BD9D61FCE700D20000F6
:1061900000440041182310B5082443430749002058
:1061A000CA181457013408D05B560549DB015B1847
:1061B000186A5368D8400123184010BD00D200006F
:1061C000004400411822424370B52D4E0300B2181E
:1061D000127A52B2140001320ED0481C00240C284E
:1061E0000AD800F03DF9071F1F1F1F1F1F1F1F0B9D
:1061F0000B0B0B0001246442200070BD092905D15E
:1062000000211800FFF76AFF0024F5E70A2901D1F1
:106210000839F6E700240B29EED10A391800FFF7F8
:106220005DFFE9E7182201205343F218F356556841
:10623000144ADB016C089B18C9B228401C190028BD
:106240000ED00F2030342278090102401143412240
:10625000C9B25B192170403319780A431A70D3E729
:1062600022000F26303214785B19B4432143117099
:1062700041224033197804000A431A70BCE7C04633
:1062800000D2000000440041014B18607047C04636
:10629000880000200122024B52421A607047C0461B
:1062A00088000020164A10B51368591C26D0013BFF
:1062B0001360002B22D172B6124B134A043393425F
:1062C00013D9124A01211000147D0C42FCD0202168
:1062D000148BFF319B085B0021431183D3610C4B6E
:1062E00013800123027D1A42FCD0BFF34F8F094B6C
:1062F000094ADA60BFF34F8FC046FDE710BDC046C4
:10630000880000200020000003020000004000413F
:1063100002A5FFFF00ED00E00400FA0570B50E00D5
:1063200000254468002C0BD0236831005B682000F6
:106330009847002802DB2D18E468F3E701256D4239
:10634000280070BD70B50D004468002C08D023688B
:1063500029009B6820009847002802D1E468F4E7F0
:10636000200070BD70B50D004468002C08D0236873
:1063700029001B6820009847002802D1E468F4E750
:10638000200070BD70B50D004468002C08D0236853
:106390002900DB6820009847002802D1E468F4E770
:1063A000200070BD0121054A10B5136804480B4058
:1063B00003D1044C43600480116010BD68100020BC
:1063C0006C1000200204000070B50400012304CC0E
:1063D0000500117820000B43137080220021520029
:1063E00002F044F92B689A78D207FCD49A78920785
:1063F000F9D45C6270BD00001F22144BF0B51B681D
:10640000590B9C0C9B01114014405B0F914200D131
:1064100005211F2C00D1023C072B00D1043B026850
:106420008F01158D0A491F262940394311850568BA
:106430003440298D0A00B24322432A85006819039B
:10644000028D044B13400B430385F0BD2460800094
:106450003FF8FFFFFF8FFFFF10B5FFF7B9FC10BD3E
:1064600002B4714649084900095C49008E4402BCE7
:106470007047C046002243088B4274D303098B4205
:106480005FD3030A8B4244D3030B8B4228D3030C04
:106490008B420DD3FF22090212BA030C8B4202D3A6
:1064A0001212090265D0030B8B4219D300E0090ACE
:1064B000C30B8B4201D3CB03C01A5241830B8B42D7
:1064C00001D38B03C01A5241430B8B4201D34B03C0
:1064D000C01A5241030B8B4201D30B03C01A524125
:1064E000C30A8B4201D3CB02C01A5241830A8B42AA
:1064F00001D38B02C01A5241430A8B4201D34B0293
:10650000C01A5241030A8B4201D30B02C01A5241F6
:10651000CDD2C3098B4201D3CB01C01A52418309AA
:106520008B4201D38B01C01A524143098B4201D3E4
:106530004B01C01A524103098B4201D30B01C01A0F
:106540005241C3088B4201D3CB00C01A5241830889
:106550008B4201D38B00C01A524143088B4201D3B6
:106560004B00C01A5241411A00D201465241104616
:106570007047FFE701B5002000F0F0F802BDC0460B
:106580000029F7D076E7704703460B437FD40022FB
:1065900043088B4274D303098B425FD3030A8B42B7
:1065A00044D3030B8B4228D3030C8B420DD3FF2221
:1065B000090212BA030C8B4202D31212090265D0EF
:1065C000030B8B4219D300E0090AC30B8B4201D3A2
:1065D000CB03C01A5241830B8B4201D38B03C01AE9
:1065E0005241430B8B4201D34B03C01A5241030B60
:1065F0008B4201D30B03C01A5241C30A8B4201D311
:10660000CB02C01A5241830A8B4201D38B02C01ABB
:106610005241430A8B4201D34B02C01A5241030A32
:106620008B4201D30B02C01A5241CDD2C3098B4217
:1066300001D3CB01C01A524183098B4201D38B0194
:10664000C01A524143098B4201D34B01C01A524137
:1066500003098B4201D30B01C01A5241C3088B427C
:1066600001D3CB00C01A524183088B4201D38B0067
:10667000C01A524143088B4201D34B00C01A524109
:10668000411A00D201465241104670475DE0CA0FE0
:1066900000D04942031000D34042534000229C46A0
:1066A00003098B422DD3030A8B4212D3FC228901AA
:1066B00012BA030A8B420CD3890192118B4208D380
:1066C000890192118B4204D389013AD0921100E0E2
:1066D0008909C3098B4201D3CB01C01A52418309F6
:1066E0008B4201D38B01C01A524143098B4201D323
:1066F0004B01C01A524103098B4201D30B01C01A4E
:106700005241C3088B4201D3CB00C01A52418308C7
:106710008B4201D38B00C01A5241D9D243088B421D
:1067200001D34B00C01A5241411A00D201466346C0
:1067300052415B10104601D34042002B00D5494224
:10674000704763465B1000D3404201B5002000F063
:1067500005F802BD0029F8D016E770477047C0461B
:106760008446101C62468C46191C634600E0C046F5
:106770001FB500F00FFF002801D40021C8421FBD43
:1067800010B500F067FE4042013010BD10B500F0BA
:1067900001FF002801DB002010BD012010BDC04614
:1067A00010B500F0F7FE002801DD002010BD01202B
:1067B00010BDC04610B500F089FE002801DC0020A5
:1067C00010BD012010BDC04610B500F07FFE0028AE
:1067D00001DA002010BD012010BDC04670B50022B6
:1067E0000C4B04000D00FFF7EFFF002804D1200040
:1067F000290001F00DFD70BD064B0022200029008C
:1068000001F0A2F901F004FD80231B069C466044C0
:10681000F1E7C0460000E041F0B54F464646D64697
:106820000C000903C0B5490A470F5E0039431F0336
:10683000DB0F9C4665007B0A570F1F436D0DE40F6D
:10684000760DA146C000B846D200AB1B64457BD094
:10685000002B5FDD002E00D0A4E03E00164300D1E7
:1068600012E15E1E002E00D09EE1871A4346B84218
:1068700080410125C91A4042091A0B0200D431E1B6
:1068800049024E0A002E00D16EE1300001F038FEC0
:106890000300083B1F2B00DD61E120223900D21AE2
:1068A0009E40D1409F400E439D4200DD51E15D1B63
:1068B0006B1C1F2B00DD7CE12021C91A3D0030003C
:1068C0008F408840DD40791E8F41310007222843E8
:1068D000D940002507433A40002A09D00F233B4006
:1068E000042B05D03B1DBB42BF417F42C9191F008D
:1068F0000B0200D426E26A1CC64B55056D0D9A4268
:1069000000D106E1C44AFF080A40530752023B4344
:10691000120B8EE0002B00D0B8E06B1C5B055B0D0A
:10692000012B00DC30E1871A4346B842B641CB1A4E
:1069300076429E1B330200D54CE13B003343A1D18C
:1069400000220024002570E0002B00DCE5E0002E92
:1069500000D183E0AF4EB54260D080263604374385
:10696000B846382B00DC3EE1434613431F007A1E35
:1069700097413F1887428041404209180B0200D4DA
:10698000B0E0A44B01359D4200D1C3E0A24A7B0890
:106990000A4001210F401F435108D30707221F431C
:1069A0003A4099E79B4EB54238D0802636043743AB
:1069B000B846382B00DDDCE01F2B00DC30E11E0088
:1069C0004746203EF740BC46202B04D04026F31A11
:1069D00046469E403243170063467A1E97411F4346
:1069E000CCE0002B00D104E24346134300D159E12F
:1069F0004B07C00818438023C9081B03194208D05D
:106A00004546ED081D4204D14346D00859070843C6
:106A10002900420FC9007F4D1143C0004B07CA082F
:106A20007C49C00803438D4268D012036D05120BE8
:106A30006D0D002112031800130B0A0D12051A43E5
:106A4000764B2D0513402B435B00E4075B08234383
:106A500019001CBC90469946A246F0BD3E00164364
:106A600012D05E1E002E00D000E1871887428041C0
:106A700041444042091801250B0233D5022585E720
:106A800064463300414610001D00C7E7002D00D0CA
:106A9000DAE00C000443F3D05C1C00D19FE15D4CB4
:106AA000A64200D12FE1DB43382B00DD66E11F2B2E
:106AB00000DD83E120240500E41A0F00DD40D94009
:106AC000A0404346A7405B1A441EA04198462F436E
:106AD0003843171ABA42924143465242991A6446C1
:106AE0003500CAE607223A40002A00D0F6E64B07F6
:106AF000CA084849FF083B438D4296D1190011430B
:106B000000D19EE1802109030A431203120B414D7B
:106B10008FE71500002200238BE7002B00D0C7E091
:106B20006B1C5F057F0D012F00DCF1E0394DAB429E
:106B300000D1B9E085180A008542894142444942A2
:106B400051180722CF076D082F4349083A401D000E
:106B5000C2E607223049ED1A31403A40BCE63E0019
:106B60002838864000279FE6380001F0C9FC203015
:106B70008EE6434613431F007A1E9741C71BB84257
:106B800080414042091A78E60E003B000643134359
:106B9000002D61D1002E00D0F4E0002B00D11BE1CC
:106BA00064463900100039E71A4FBB427AD03300EF
:106BB000FFE630001F3DE840202B03D04021CB1AD8
:106BC0009E4037437B1E9F41072207433A400021E6
:106BD000002589E7171A4346BA42B641591A764248
:106BE0008E1B64464EE61F2B00DDADE02026474697
:106BF000F61AB740B9461700B246DF404E463E434C
:106C000037005646B240561EB24117434246DA405C
:106C10008918AEE6FF070000FFFF7FFFFFFF0F8030
:106C200020264746F61AB740B9461700B246DF405D
:106C30004E463E4337005646B240561EB2411743B9
:106C40004246DA40891A99E77F4CA6425BD08024FD
:106C500024045B42214327E7002E0CD1002B00D1F6
:106C6000CBE0644639001000774DD7E6764FBB4243
:106C700018D0330075E6002B14D04B07C00818431A
:106C80008023C9081B03194207D0FC081C4204D109
:106C90007907D0080843E14621004C46420FC9005D
:106CA0001143C000684DB9E61D0000220023C0E674
:106CB000002D5BD10D00054300D1E2E65D1C00D143
:106CC000B0E0614DAE421FD0DB43382B71DC1F2B8F
:106CD00000DD96E020250F00ED1AAF40B946070011
:106CE000AA46DF404D463D432F005546A840D940B7
:106CF000451EA84188440743BF189742924151421C
:106D0000414435003AE6644635004146100085E6C8
:106D10000B000343002D00D063E6002BF5D0434663
:106D2000134300D17AE68718874280410722414405
:106D3000404209183A400B0200D4D5E6434B0135D6
:106D40001940C9E5380069E61E004746203EF74075
:106D5000BC46202B04D04026F31A46469E403243C0
:106D6000170063467A1E97411F4302E6364DAE4236
:106D7000CAD080252D045B422943A6E70843411E63
:106D80008841A6E6002B00D148E6871A4346B84260
:106D9000B641CB1A76429E1B33024BD5171A434697
:106DA000BA429241591A5242891A072264463A401D
:106DB00092E501430F00791E8F419DE71C000F00F3
:106DC000203CE740202B03D04024E31A994008439D
:106DD000411E884138437CE60022002425E6171A2C
:106DE0004346BA429241591A5242891A64463500C2
:106DF00043E541461000144D10E6802200241203A2
:106E000080E61D000F00203DEF40BC46202B03D044
:106E10004025EB1A9940084307006346781E8741D6
:106E20001F4369E7871897429B4141445B42C91859
:106E30003500A3E53B003343CED0072231003A4072
:106E400052E600231A00F4E5FF070000FFFF7FFF72
:106E5000F0B55746DE464E464546E0B58346070048
:106E60000E03480085B092461C00360B400DCD0F36
:106E7000002800D19DE0954B984239D08023F60040
:106E80001B041E43924A7B0F3343994694460300EA
:106E90006344009300230026FF00029323031B0B8F
:106EA00098466300E40F52465B0D019400D1B3E0B5
:106EB00086498B4200D19EE04246D10080221204D6
:106EC0000A435146490F11438B46814952468C462D
:106ED00000996344CB1A0021D20000932B00634039
:106EE0009A460F2E00D905E17A4BB6009B599F4672
:106EF0005B463343994600D0B8E0022308260027BA
:106F000000900293CAE7CB463A0002990195019B93
:106F10009A46022927D0032900D180E2012944D0D2
:106F20006D49009B8C4663441C00002C38DD5307E0
:106F300000D013E2D2085B46DB0109D55946674B06
:106F400019408B468021C9008C46009B63441C007D
:106F5000634B9C4207DC5B4664055F075B0217439B
:106F60001B0B620D02E000230027584A00211B037F
:106F70001C0B0B0D1B05234314055A4A3800134004
:106F80001C4353466400DB0764081C43210005B022
:106F90003CBC90469946A246AB46F0BD0122524207
:106FA00001231B1B382B00DCADE10022002300274E
:106FB000DCE75B46334399465ED0002E00D18AE180
:106FC000300001F09DFA03000B3B1C2B00DD7BE140
:106FD0001D22D31A5A460100DA4008398E401300A8
:106FE0005F46334399468F403F4B00261B1A009360
:106FF0000023029352E7414653460B433B499B46CD
:107000008C46009B634400935B46002B3BD10223DC
:1070100000221E43022161E7434613439B4637D0BB
:107020004346002B00D162E1404601F069FA0300BB
:107030000B3B1C2B00DD53E102004146083A914016
:1070400088461D21CB1A5146D9400B0041460B43BF
:107050009B46534693401A00009B25499C4660443A
:1070600003008C4663440093002137E70323B146B5
:1070700000900C26029311E70023009301330426AD
:10708000002702930AE70323C3461E43032125E793
:1070900001331E430022012120E700239A4680236A
:1070A00000271B03094A61E7802349461B03194255
:1070B00000D1E2E05946194200D0DEE00B431B0349
:1070C00017001B0BA246014A50E7C046FF0700000D
:1070D00001FCFFFF98D40000FF030000FFFFFFFE4C
:1070E000FE070000FFFF0F800DFCFFFF01F8FFFF10
:1070F000F3030000D94500D9CBE000D1C6E03C0045
:1071000048460027009B013B00935B46160E1B027E
:107110001E431302984633041B0C9946310C01910F
:10712000FFF72EFA4A4642430B04210C050019438F
:107130008A4207D98919013D8E4203D88A4201D972
:10714000851E8919881A0199FFF71AFA09048C46D5
:107150004A46210464464243090C030021438A4203
:1071600004D98919013B8E4200D8F1E02D041D435A
:10717000AB464346891A4246280C12041D0C5B4656
:10718000140C22001B041B0C5A4303946B4344430E
:10719000029568431B19150CEB189C4203D98024F7
:1071A0006402A44660441C0C15041B042D0C20181A
:1071B0005D19814277D373D00C1AA24A7D1BAF426E
:1071C000BF419446009B7F426344E01B1C00864203
:1071D00000D1DBE00199FFF7D3F94A4642430B04A3
:1071E000290C070019438A4207D98919013F8E42A9
:1071F00003D88A4201D9871E8919881A0199FFF795
:10720000BFF909044A46894629044D464243090C00
:10721000030029438A4207D98919013B8E4203D8CA
:107220008A4201D9831E89193F04891A3A00039FB3
:107230001A43380013041B0C584381460298150C5E
:107240006F43434345434846000C8446DB1963447F
:107250009F4203D9802040028446654448461F0C63
:1072600000041B04000C7D191818A94200D284E008
:1072700000D17FE001231A4357E680234A461B03CF
:1072800013431B031B0BAA466F4A6FE6BA4200D991
:1072900035E74B46DC0758087B081C43FF0734E7FB
:1072A0000024AF4289D247444745A4415B4664422B
:1072B000A4196418013BA6421ED2A0426DD800D189
:1072C000B6E0241A9B4678E703005A46283B9A40CA
:1072D0000027914688E6584601F012F9203072E600
:1072E00003005246283B9A4093460022B4E650469B
:1072F00001F006F920309AE6A642E2D1B845DCD981
:10730000341A9B4659E71F2B65DC504C0099A44664
:107310005C46614408008C4011008240D940501EF8
:1073200082410C4314435A46DA401300620709D0E5
:107330000F222240042A05D02200141D94428941C4
:1073400049425B181A0262D50122002300270DE68C
:107350008A4200D80AE7831E891907E70F231340E2
:10736000042B00D1E6E5171D9742924153429B44FE
:10737000FA08E0E5002800D1D7E57118531EB142A4
:1073800027D3A94215D358D01A0073E7002B00DC8D
:1073900004E6012300229B44CDE5022347444745F0
:1073A00089415B429C46494289190C19E344241ADD
:1073B00003E743465F0047459B41B8465B429E1941
:1073C000023A8919A94200D054E7404500D051E75C
:1073D000ABE51A00F6E71F215F4649420C1BE74068
:1073E000202B07D01A49009B8C46634418005B464B
:1073F00083401A43501E82413A4307270023174017
:1074000009D00F21002311401400042995D1220036
:107410005F075B021B0BD20817430022A6E58023FF
:1074200059461B030B431B0317001B0B064A9DE524
:10743000BD42B2D89B460024BFE68045B9D31A00AE
:10744000C3E7C046FF030000FF0700001E04000062
:107450003E040000F0B54F464646D6468446C0B5C9
:107460008046194E18030F034D00000B5C00824646
:107470003F0B6D0DC90F9146640DDB0F0120B54226
:107480000AD0B44203D0A54201D157450CD01CBC50
:1074900090469946A246F0BD66463E43F7D1AC42BF
:1074A000F5D154461443F2D10120C845EFD1994299
:1074B00007D0002DEBD163461F433800471EB8416B
:1074C000E5E70020E3E7C046FF070000F0B54F46C0
:1074D0004646D6464D00C0B50E03C90F8A462C4914
:1074E0001F035C008046360B6D0D91463F0B640D0B
:1074F000DB0F8D421ED08C4216D0002D1ED13043A2
:107500008446002C01D13A4323D06246002A1AD087
:107510009A4529D0514602200139084001381CBC47
:1075200090469946A246F0BD39001143E5D00220AD
:107530004042F4E73043FAD1AC420FD0002C0FD1D7
:107540003A43E7D00CE00122013B9343180001309D
:10755000E5E763460020002BE1D0DBE73A43E6D1C4
:107560009A45D7D1A542D5DCA54205DBBE42D1D88C
:1075700008D00020BE42D2D25046012301389843A1
:107580000130CCE7C845C5D80020C845F4D3C6E7CC
:10759000FF070000F0B54F464646D6464D00C0B541
:1075A0000E03C90F8A462E491F035C008046360B26
:1075B0006D0D91463F0B640DDB0F8D4218D08C4250
:1075C00011D0002D18D130438446002C1ED13A43EF
:1075D0001CD163460020002B30D0514602200139D7
:1075E000084001382AE039001143EAD0022025E0A2
:1075F0003043FBD1AC4226D0002C26D13A4324D1D3
:107600005146022001390840013817E06246002A3D
:107610000FD09A45E1D1A54205DBBE42DDD819D095
:107620000020BE420AD2504601230138984301305F
:1076300004E00122013B9343180001301CBC90463A
:107640009946A246F0BD3A43D0D19A45C5D1A5424C
:10765000C3DCE0E7C845C0D80020C845E3D3EDE768
:10766000FF070000F0B55746DE464E464546E0B5FA
:10767000834606000F03480087B092461D003F0B6B
:10768000400DCC0F002800D16FE0DE4B984238D07F
:107690008023FF001B041F43730F3B430193DA4B0E
:1076A0000027994600239B46F60081442B0369007E
:1076B0001B0B52469846490DED0F002900D185E07D
:1076C000D04B994200D173E04346DA0080231B047B
:1076D00013435246CC48520F84461343524600206F
:1076E0006144D20089442100694000918C46012107
:1076F00049448A460F2F00D990E0C449BF00CF59B2
:10770000BF465B463B43019300D06AE10223082752
:10771000002681469B46C9E732005846019B6146D8
:107720000091022800D175E0032800D1FEE1012874
:1077300000D02CE100230027002600253F032A0D5E
:107740003F0BB34812053A4302401B051343009A0E
:107750005B00D1075B080B433000190007B03CBC4D
:1077600090469946A246AB46F0BD5B463B4301932B
:1077700000D12FE1002F00D1A5E1380000F0C0FEBC
:1077800003000B3B1C2B00DD96E11D22D31A5A4649
:107790000100DA405E4608398F4013008E403B43BB
:1077A00001939C4B00271B1A994600239B467DE7BB
:1077B000414653460B4393498C46E144002B00D08D
:1077C0001AE102220220174300228CE7134300D162
:1077D0000DE14346002B00D181E1404600F090FED0
:1077E00002000B3A1C2A00DD72E101004346083911
:1077F0008B4098461D239A1A5346D3401A0043469D
:10780000134352468A404946081A824989468144B0
:10781000002068E77B4B002700268EE7140C12043B
:10782000120C1100370C3604350C794328008C46B5
:107830002E0060436044834656432100300C80464E
:107840005846794340440291844506D988468021B0
:1078500049028C46E044414602913604010C360C44
:1078600000048B4681191E0C1B041B0C039119008C
:1078700079438C46280075436544A8465843050C57
:1078800045447743A94203D9802149028C46674485
:10789000290C8C4639000004000C2D042D1861447D
:1078A000AB4405915946049101990F043F0C080C13
:1078B000390051434243904602008C46090C8B46E6
:1078C00062437C4344445C44A04503D9802149027F
:1078D00088464244210C884661460904090C8C46BE
:1078E00039005943434370437E430F0CF618240478
:1078F000BE19644442448C46B34203D980235B02E0
:1079000098464044029B61469846049B3704434492
:107910009B46AB45AD416B420D0405992D0C8C4641
:107920007F196744FD18A8465D462D19A542A4415C
:1079300093466442A446C344DC448F42BF41984509
:107940009B4193459241A445A4415B427F421F4322
:10795000360C52426442BF192243BF18624638189F
:107960004302D20D039913436A020A43501E824117
:107970006146ED0D2A434E023243D90100D4B3E0F3
:107980000126500832400243DE0732435B08224C96
:107990005444002C62DD510709D00F201040042808
:1079A00005D0101D9042924152429B180200D9010D
:1079B00004D580241948E400034054441848844204
:1079C00000DD27E75E075B02D2081F0B6305164345
:1079D0005B0DB2E6002399460133042700269B463F
:1079E00064E60323019781460C279B465EE601224D
:1079F00001201743002276E6032303201F4343465A
:107A000071E6C046FF07000001FCFFFFD8D400006C
:107A1000FFFF0F800DFCFFFFFF030000FFFFFFFED5
:107A2000FE0700000023802700933F030026434BFE
:107A300083E6019B3200A446584670E6AC466EE6EB
:107A4000802701993F0339422DD03B422BD11F4360
:107A50003F033F0B00951600384B6EE601252D1BAA
:107A6000382D00DD66E61F2D40DC35481C005044F3
:107A7000160082408440EE40501E8241344314433D
:107A8000EB40620709D00F222240042A05D02200D1
:107A9000141D9442804140421B181A023ED5012316
:107AA0000027002649E68027019B3F031F433F0331
:107AB0003F0B0094214B40E603005A46283B9A4076
:107AC000002601926DE6584600F01AFD203057E678
:107AD00003005246283B9A401300002293E650468A
