:1020000000800020F5780000DD780000DD78000019
:1020100000000000000000000000000000000000C0
:10202000000000000000000000000000DD7800005B
:102030000000000000000000DD7800004979000089
:10204000DD780000DD780000DD780000DD7800003C
:10205000DD780000DD780000892D0000E1780000C7
:10206000DD780000DD780000DD780000AD2A00009A
:10207000DD780000795B0000DD780000DD7800008D
:10208000DD780000DD780000DD780000DD780000FC
:1020900000000000DD780000DD780000DD78000041
:1020A000DD780000DD780000DD780000DD780000DC
:1020B0000000000010B5064C2378002B07D1054B1B
:1020C000002B02D0044800E000BF0123237010BDA4
:1020D0003005002000000000A0F10000044B10B506
:1020E000002B03D00349044800E000BF10BDC046E8
:1020F0000000000034050020A0F10000F8B5012325
:102100001600E8220400051D0F00037043709A407A
:102110000021280007F0AFFF220000230435FC3225
:1021200023711567EA2264215200A15204326539F5
:10213000A1520232A3540232A354DE22FF32A3542E
:102140000132A3540232A3500432A350054AE933AA
:10215000FF33E250123BE754DC23FF33E654200008
:10216000F8BDC0462800D007F7B5040027002600B8
:102170000837F53600F0AEFCFF3638004322312137
:10218000FFF7BCFF300055223021FFF7B7FFF823DF
:102190009B00E3184822322118000093FFF7AEFF9E
:1021A000354B4B22E318332118000193F625FFF736
:1021B000A5FFF7236D00DB0039002A00E01807F0C7
:1021C00051FF2E4B31002A00E01807F04BFFB923D6
:1021D0001B012A000099E01807F044FF284B0199E1
:1021E0002A00E01807F03EFF264B274A883DE250C0
:1021F000264B274AFF3DE250264A0433E250A022F4
:10220000254BD203E250B422244BE2500023244A4F
:10221000A3500432A350234AA350234AA350234A75
:10222000A3500432A350224AA350224AA350DC22D6
:10223000214B1204E250214A0433E250204B214A40
:10224000E250214B214AE250214B224AE250224ADD
:102250000433E250214BE01800F000FA204BE55225
:102260000433E01800F0FAF91E4BE5521E4BE0185B
:1022700000F0F4F92000FEBDCC050000A409000028
:102280007C0D0000680F0000500064006C0F00001F
:1022900050007800F0002800740F0000780F000054
:1022A0007C0F0000840F0000880F00008C0F0000DE
:1022B000940F0000980F00009C0F0000B40028004D
:1022C000A40F0000AA005A00A80F0000A0004600BA
:1022D000AC0F0000D007140078002800B40F0000F5
:1022E000BC0F0000C80F0000CC0F00003C4B70B5C5
:1022F00000210400C01800F0B5F9FC231B01E01810
:10230000002100F0AFF9374B0021E01800F0AAF9E6
:10231000354A2121200000F0E0FB031E334803D1A1
:10232000334903F0B9FCFEE7324903F0B5FC002560
:102330002900013501222000EDB200F0FBFB082D41
:10234000F6D100252900013500222000EDB200F071
:10235000DAFB082DF6D1284D0026605B05F038FB2E
:102360003100013601222000F6B200F0CCFB082E2D
:10237000F6D1605B05F02CFB00263100013600220F
:102380002000F6B200F0BFFB082EF6D1605B05F02E
:102390001FFB01220021200000F0B5FB605B05F06F
:1023A00017FB2000F530FF3000F0C8F801222000B4
:1023B000110000F0A8FB605B05F00AFBF8239B000E
:1023C000E01800F0BBF801220221200000F09BFB86
:1023D000605B05F0FDFA094BE01800F0AFF870BD46
:1023E000B40F0000CC0F0000201500202C1A002094
:1023F00031E8000054E800006A0F0000CC0500003E
:10240000F8B5F8239B00C35C0400002B76D03C4B4E
:10241000C35C002B72D03B4BC718380000F029F981
:10242000F8239B00E518364BE61800280AD0364BF7
:102430003800E15A00F016F9280000F0B7F8300033
:1024400000F0B4F8280000F0C3F8002828D02F4D81
:102450002F49280003F005FC2E4B0A22E1562800E4
:1024600003F071FC2C4F2800390003F0FAFBB7236E
:10247000DB00E15E0A22280003F065FC2749280002
:1024800003F0EFFB3900280003F0EBFB244B0A229A
:10249000E158280003F065FC2249280003F0FCFB0A
:1024A000300000F095F8002828D0184D1E4928006B
:1024B00003F0D7FB1D4B0A22E156280003F043FC32
:1024C000154E2800310003F0CCFB194B0A22E15EC7
:1024D000280003F038FC1149280003F0C2FB31004A
:1024E000280003F0BEFBF623DB00E1580A22280097
:1024F00003F037FC0B49280003F0CEFBF8BDC046C3
:10250000CC050000B40F0000B20F00002C1A002010
:102510001CE80000BE05000021E8000024E80000DF
:10252000C405000028E800002CE80000AA0700000D
:10253000A407000010B5FFF763FF10BDEA23F7B54D
:102540005B000400C05A05F043FAEB2300225B0055
:10255000E15C201D0092114B00F068FDDC260700B5
:102560000F4DFF3600280ED10E49280003F075FBF1
:10257000A15D280003F09AFB2770EA235B00E05A74
:1025800005F026FAF7BD0849280003F066FBA15DB7
:10259000280003F08BFB01232370EEE720150020B9
:1025A0002C1A002079E800009AE8000010B50378A2
:1025B0000400002B0BD0043000F027FC05F0D2F90A
:1025C000F0235B00E050DE230022FF33E25410BD15
:1025D000F8B503780400002B02D100252800F8BDCF
:1025E000061D300000F026FC051EF6D0DE27FF3762
:1025F000E35D002BF1D1EE225200A354300000F035
:1026000000FCEF235B00E054300000F02BFCEC23D7
:1026100001225B00E052E255DC32FF32A15C023263
:10262000002902D001214942E152A256002A02D0DB
:1026300001225242E252E15EF4225200A25E914235
:1026400002DC01225242E25205F08CF9F0235B00D9
:10265000E358C01AF2235B00E050BFE70023036099
:102660004360704770B50D00040005F07BF921C48C
:1026700070BD10B5040005F075F92368C31A6068D1
:1026800098428041404210BDE12170B5124C490290
:10269000200003F06DFE200003F06EFE0028FAD04B
:1026A0000E4D280000F090F8FA20400005F090F957
:1026B000200003F0DFFA0A49200003F0E3FA094999
:1026C000200003F0DFFA0848FFF710FE2800074952
:1026D00000F09AF870BDC0462C1A0020201500208A
:1026E000B8E80000D9E800004C050020801A060078
:1026F00010B50248FFF71EFF10BDC0464C05002074
:1027000010B50248FFF730FD10BDC0464C05002053
:1027100000207047F8B505000E0017000024BC42E9
:1027200008D02B68315D1B6828009847002801D02D
:102730000134F4E72000F8BD70470300FC33196A48
:10274000DA69914203D01B6AC018007E70470120ED
:102750004042FBE70300FC33D8691B6AC01A01D56D
:102760000130FF3070470000F7B50193FA2380264F
:10277000002504009B008360124B760008330F0095
:1027800045602900009203603200183007F073FCA6
:1027900023002000FC332130DD6132001D6229005E
:1027A000FF3007F068FC87239B00E3185D609D60A5
:1027B0006B461B78276123756B461B79A575200036
:1027C0006375FEBDFCE8000070B5060018250C49D5
:1027D000006903F0F9FC306903F075FB2B00082158
:1027E000307D084C4343E318595605F029FB082176
:1027F000707D45436419615605F022FB70BDC046EB
:10280000A08601003CEB000070B504000D000069DB
:1028100003F06EFB2900206903F0D6FC206903F069
:1028200052FB70BD8A2300229B00C1540C3BC3188D
:102830005A609A60012383757047020010B5FC321C
:10284000536894680133DBB29C4202D0546801554E
:10285000536010BDF7B50024050017000193200058
:10286000A24227D02B00FC33DC611C6201222869C4
:1028700003F070FBA0421CD02E001836286903F02C
:10288000E9FB013401003000FFF7D7FF2869A742B8
:1028900006D003F03FFB0221286903F045FBEDE77A
:1028A00003F030FB019B002B03D00321286903F0C8
:1028B0003BFBE0B2FEBD10B50123FFF7CBFF10BD1F
:1028C000002210B5837D93420DD087239B00C4184E
:1028D0006368A4680133DBB2A34204D02130FF3027
:1028E000FFF7ABFF0122100010BD0300FC33996815
:1028F0005A68914206D09A68805C9A680132D2B2D6
:102900009A60704701204042FBE700228A2370B59D
:102910009B00827505000E00C15C006903F01AFB84
:10292000002806D10321286903F0FEFA02242000C2
:1029300070BD872328009B00EA18536894682130F3
:10294000FF301C1B01D50134FF34002C0ED02C6944
:10295000FFF7CBFFC1B2200003F03AFB0028E8D11B
:102960000321286903F0E0FA0324E0E7002EDED01B
:102970000321286903F0D8FAD9E710B50121FFF740
:10298000C4FF10BD10B51830FFF7AFFF10BD70B514
:102990000400006903F03CFB002814D0206903F018
:1029A00045FB002810D0206903F0B4FA0321206908
:1029B00003F0BAFA8C239B00E558002D39D100238F
:1029C000FC34E361236270BD206903F039FB002809
:1029D00009D0206903F02FFB002804D0206903F000
:1029E00034FB0028DFD0206903F02AFB002826D121
:1029F000206903F016FB0028E5D0206903F025FBD1
:102A0000002837D087239B00E218536892689B1AEE
:102A100001D50133FF33FF21002B05D020002130E9
:102A2000FF30FFF762FFC1B2206903F0E3FAA0753F
:102A3000C9E7236820001B699847A847BFE72069BA
:102A400003F068FA2069032103F06EFA206903F0AD
:102A5000FCFA0028B7D0872300229B00E3185A60B5
:102A60009A600123A3758B239B00E3589342AAD05D
:102A70009847A8E72200FC32D369126A0133DBB21F
:102A80002069934206D103F03DFA0321206903F047
:102A90004BFA98E703F0DEFA010020001830FFF748
:102AA000CCFE206903F036FAEFE7000010B50248CB
:102AB000FFF76DFF10BDC0462015002010B505239F
:102AC000042202490248FFF74FFE10BD1C1A0020E5
:102AD00020150020002303807047F8B505000E0084
:102AE00040681021170005F0F5FA102004F0C2FF2D
:102AF00004003A00310000F035F86C60012120003C
:102B000000F04DF8F8BD13B50C0001210123A140E0
:102B1000C35649B2002A0BD00B43437000230193E4
:102B200000930133411C1A00406800F046F816BDBE
:102B30008B43F2E713B50C0001210123A1400224CD
:102B4000C35649B2A2430BD10B43437000230193F8
:102B500000930133411C1A00406800F02EF816BDA6
:102B60008B43F2E700230372FA3301704260C360C3
:102B7000704710B5037A0400002B0AD021786068F2
:102B8000FFF750FE6068FFF7F8FE43425841C0B2BD
:102B900010BD012100F003F80028EFD1F8E770B56F
:102BA000040040680D00FFF70FFE01202072002D89
:102BB00002D02000FFF7DDFF70BDF7B5099D1600BC
:102BC00001935319C26804000F00934201D90020F9
:102BD000FEBD01784068FFF725FE002D0FD160682B
:102BE0003200036839005B6898478642EFD101994B
:102BF0006068FFF78AFE43425841C0B2E8E7089B8D
:102C0000002BECD060682A00036808995B6898473D
:102C1000A842DCD1E3E70000F0B5040085B01E0057
:102C20000AAB1B78103001930BAB1B781700029393
:102C30000CAB1B780D00039300F072F820002430D9
:102C400000F06EF8220000234032A363E3631370A8
:102C500063729D4205D10A4B0A4A22210A4807F0B5
:102C60009BF96B461B79200063716B461B7A2560CC
:102C7000E3716B461B7B2771A671237205B0F0BD13
:102C800020E9000086E9000031E900001FB5094B8A
:102C9000094A0A491A6000225A711A7101230293E3
:102CA0000193093300930932023B0548FFF7B4FF53
:102CB00005B000BD9817002000093D00141A00203F
:102CC00054170020094B1868002809D1EFF310822F
:102CD0000749002A08D172B6BFF35F8F01320A702C
:102CE0001A6801321A6070470870F9E7A4170020CB
:102CF000A0170020084B1A68002A0CD01A68013A65
:102D00001A601B68002B06D1044B1B78002B02D0E5
:102D1000BFF35F8F62B67047A4170020A017002092
:102D2000FF23002110B504000370FC3B417081704B
:102D3000C170017143710C22083007F09CF920002A
:102D400010BD000001220B0010B5134008D00D4B40
:102D50001A70042343708368002B00D0984710BD7D
:102D60000222114204D007490A704370C368F3E796
:102D700004231942F3D0034A1370033343700369E9
:102D8000EAE7C0464E48004110B5FFF79BFF0C4BE9
:102D90001B8C1B071B0F0B2B0FD80A4A9900885856
:102DA00000280AD00F2408490A78A24313430B7065
:102DB000064B1978C9B2FFF7C5FFFFF79BFF10BD9F
:102DC00000480041A81700203F4800414E480041FC
:102DD00070B506007F24FC360C4005006100F06EE3
:102DE00000F058FA28700A2004F0F2FD00230020B9
:102DF000EB56834204D1AE23F26E5B00D454013013
:102E000070BDD023FF33C05C704770B50500FC3542
:102E100004000021E86E00F043FA2070002803D17E
:102E2000E86E00F0F7FD2070002020564342584124
:102E3000C0B270BD37B56B46DC1D002323700300A4
:102E4000FC3305002100D86E01F00EF80123287034
:102E5000002804D12378013B58424341DBB21800DB
:102E60003EBD0000F0B5070089B001AEFC3704009C
:102E70003100F86ED02500F0D7FC337EFF3520708E
:102E8000011E635503D1F86E00F043FE207000234D
:102E9000E356002B05D1635D042B02D0308909B0C5
:102EA000F0BD0148FBE7C046FFFF0000030010B57E
:102EB000FC330400D86E00F010FA207043425841F1
:102EC000C0B210BD030010B5FC330400D86E00F092
:102ED00026FB207043425841C0B210BD70B50500BA
:102EE000FC3504000E0001220021E86E00F0C7FA54
:102EF0002070002805D10122E86E110000F0BFFA11
:102F0000207000230020E356834219D1032E12D8EB
:102F1000300005F0E3F80216445C01220321E86E5C
:102F200000F0ADFA2070002805D1394A0321E86E7F
:102F300000F0F5FA20700020205643425841C0B2FC
:102F400070BD3449344802F0A7FE0121334AE86ECF
:102F500000F0E5FA011E207005D1F022E86E920320
:102F600000F0DDFA20700023E356002B04D12C4939
:102F7000E86E00F0B2F9207000216156002904D1FA
:102F80001222E86E00F0ADF920700023E356002B0A
:102F9000D1D10E220121E86E00F0A3F9CAE7802208
:102FA0000121D201E86E00F0BAFA011E207005D1AD
:102FB0008022E86E920300F0B2FA20700023E356FC
:102FC000002BB8D11749E86E00F087F9B2E78022EC
:102FD0000121D2012000FFF775FF00216156002971
:102FE00004D1902220005203FFF76CFF0023E35628
:102FF000002B03D10C492000FFF758FF0022A256F6
:10300000002A00D097E70321E86E00F038FA91E734
:10301000D4080000DAE900002C1A002099190000F9
:10302000E880000030750000400D0300F0B587B067
:1030300017000CAA127805000392AE2201912921F3
:10304000FC350400E86E520081545E22E86EFF32C7
:1030500028398154E86E9031FF3101328152EA6E95
:10306000261DFC325366EB6EFC33586EFFF7ACFB4B
:10307000300000F011FB019920702000FFF7A8FE3E
:103080000190002804D100230193019807B0F0BDFE
:1030900023006D33FF3319003000029300F0F6F87F
:1030A000207000285BD1002F36D0674E6749300072
:1030B00002F0E8FD6649300002F0CFFD02993000D1
:1030C00002F0CFFD6349300002F0C7FD21008D31D1
:1030D000FF31300002F0C5FD5F49300002F0BDFD58
:1030E0002100AD31FF31300002F0D6FD5B493000E8
:1030F00002F0B3FDCE23FF33E15C0A22300002F080
:103100003CFE5749300002F0A8FDE7235B00E15C7C
:103110000A22300002F035FEE6235B00514AE358F4
:103120001340514A93421AD0002F16D0464E4F49B1
:10313000300002F092FDCE23FF33E15C0A22300022
:1031400002F01BFE2C21300002F08FFDE7235B0014
:10315000E15C0A22300002F014FEFB2323700023FE
:10316000E356002B09D1002F03D04149364802F025
:1031700089FDE86E00F0A6FD20700023E356002BC9
:1031800022D1002F03D03B492F4802F07BFD04AB36
:103190005E1C320005A9E86E00F085FE2070002F4D
:1031A00012D0294D3449280002F057FD0A22059912
:1031B000280002F0D6FD3149280002F04EFD31789A
:1031C0000A22280002F0DDFD0023E356002B0ED179
:1031D000002F03D02A491C4802F054FD04ABDA1C2E
:1031E000991C2300FC33D86E00F018FB20700023DC
:1031F000E356002B0CD1002F03D02249124802F0D5
:1032000041FD2300FC330021D86E00F049F8207006
:103210000023E356002B03D103992000FFF75EFE45
:103220000023E356002B00D12FE7002F00D12AE71F
:10323000054D1549280002F010FD00210A226156B3
:10324000280002F084FD1EE72C1A0020F5E900009A
:1032500003EA000011EA00001AEA000021EA000077
:103260002DEA000000FFFF000001010037EA000026
:1032700059EA00006DEA00008FEA00009FEA0000B2
:10328000B4EA0000D3EA0000EAEA000010B502F058
:1032900007FB10BD10B54A088A2102F0EDFB10BDF6
:1032A000152907D801238B40044A134202D0017428
:1032B0000020704708204042FBE7C0460B0030006A
:1032C00010B50A000C00092102F01BFC002803D1F4
:1032D000012223781340237010BD10B501F0F6FED3
:1032E00010BD10B501F0C6FD10BD10B501F0D2FE45
:1032F00010BDF0B585B002ABDF1D002301920E00BA
:103300003A00012105003B7002F0FBFB041E1DD1B9
:10331000019A3B78012A24D1042E37D8300004F0DA
:10332000DDFE03181A1C1E0010261E43B3420DD0EA
:1033300032000121280002F09FFB041E06D19823D1
:103340005B00EE5469692800FFF7C7FF200005B055
:10335000F0BD2826E9E70426E7E74026E5E78026D2
:10336000E3E7042E12D8300004F0B8FE0307090B7F
:103370000D0010221E009643D8E72822FAE7042207
:10338000F8E74022F6E77F261E40CFE70424644298
:10339000DCE737B56B46DD1D00230C002A00012158
:1033A0002B7002F0AEFB00280FD101222B781911EF
:1033B00011402170D9101140A17099101140617015
:1033C00099110A40DB09E27023713EBDF7B5160082
:1033D00001AA01F0A5FC041E16D1FA21019D890065
:1033E000280004F00BFF0804401AFA21F530890088
:1033F000FF3004F07DFEFA2107008900280004F068
:1034000077FE00043F1837602000FEBDF7B56B461D
:103410009F1C0E003A00F821050002F081FB041EFB
:103420000FD101AA0421280002F089FB041E08D153
:103430003988002903D0019804F05AFE30603368BF
:10344000AB612000FEBD037F00200B70704773B599
:103450006B469E1D0D0032002021040002F060FB2F
:10346000002805D13388002B03D1236A2B602077F5
:1034700076BDDB002B60236201232377F8E770B56C
:1034800004000E001500052939D8002A0ED00B00C3
:103490000C339B00C3185A6801210023701E0428B6
:1034A00007D804F01BFE10191C1F26001100012371
:1034B000F4E7230028331970A4192834002D1BD1F8
:1034C0002570002007E0520A92B24421200002F049
:1034D000E2FA0028F0D070BD23002A33EBE7230086
:1034E0002B33E8E7FE225B006021200002F0E2FAC5
:1034F000EFE71B01EF22F7E701232370E1E7042048
:103500004042E8E7052904D9002304201370404213
:10351000704740182830037800201370F8E770B522
:1035200043182833050018780C001600002804D131
:103530000C34A4002D196A6070BD05291DD808003F
:1035400004F0CCFD030A131517176A630C34A400AA
:103550002D196E600020EFE74421520A92B2280034
:1035600002F099FA0028F1D0E6E7EA63EEE72A6470
:10357000ECE7520A92B26421F1E704204042DBE713
:1035800073B504001500052930D8080004F0A6FD25
:1035900003071A1C1E1E636B2B60002025E06B4680
:1035A0009E1D32004421200002F0BAFA00281CD1EE
:1035B0002200338829325B0214D02B60A3630123DD
:1035C000137012E0E36BE7E7236CE5E76B469E1DA3
:1035D00032006421200002F0A3FA002805D13388CC
:1035E0005B02D9E7A36B2B60107076BD04204042CC
:1035F000FBE773B56B46DE1D0D00320001210400B0
:1036000002F07FFA00280BD1982233785200A3549D
:103610005BB2002B05DA01232B702B784C3423701E
:1036200076BD2870F9E7F8B5037C0C000B70083103
:103630000500FFF7EBFE00282CD12100207310318C
:103640002800FFF704FF002824D1210028001431AE
:1036500000F02EFC00281DD1270006002437B1B24F
:103660003A002800FFF78CFF002813D133002833DD
:10367000EA5CA31901361A760437062EEFD1210031
:1036800028003C31FFF7B5FF002803D1211D280099
:1036900001F08CFDF8BD0000F0B5FE2295B00123CD
:1036A0008921050002F006FA021E03D188212800B4
:1036B00002F0E2F902ABDA1DC021280002F021FA83
:1036C0002B00002210330193E0331A70FA21A92352
:1036D00089005B00E952C8212F0002334900E952FA
:1036E0004B4BFC37FB652B004A49D43304AE1960C1
:1036F00028002A623100FFF796FF041E05D13080B2
:1037000040223100019806F0ADFC434BFA22BB6326
:103710002B005200FE335A87A0221201DA87A82319
:1037200001265B00EE5432008021280002F0A4F94B
:1037300032000700FF21280002F09EF90022074313
:103740001100280002F098F93C4302AB9F1D64B2BF
:1037500004433A009121280002F0D3F99D233A78DE
:103760005B0064B2EA54044332000021280002F0F6
:1037700083F964B204430022FF21280002F07CF99F
:1037800064B2044300228021280002F075F964B27B
:103790002043002440B2002837D1A1B201222800E2
:1037A0000134FFF76CFE062CF5D100282DD1688579
:1037B000020004212800FFF762FE002825D1020044
:1037C00005212800FFF75BFE00281ED190238022F0
:1037D0005B036B63D20101212800FFF7A0FE0028E4
:1037E00013D18C239B03EB639823FF225B00286497
:1037F0000121EA54280002F03FF9992301225B00DD
:10380000EA54002801D1FF35A87515B0F0BDC046B7
:10381000856B0100A47009006400840310B50123C6
:1038200000F08BFD10BD0000F0B591B006AF0C00AC
:103830000C233A001421029002F00AF98446002871
:103840006DD1A0752060BA7AFB7A120260609B1875
:10385000BA79FD791202AD18ADB26D02E560397A20
:103860007A7A0902521892B252022261BA78FE782C
:103870001202B6183A7802990392A922B6B2A68229
:103880005200885A3222FF328F5CFA219BB28900A3
:1038900088420AD05843F530FF3004F0B3FC029B55
:1038A000196A1B7F002B3DD183B2002F42D09A10A2
:1038B00022819B010F27E37502ABFF18019700944B
:1038C00033002A000399029801F0C4FE84460028C0
:1038D00025D109AB19003878029A20765032E0CA17
:1038E000E0C1E0CAE0C115680D60E57D2789039558
:1038F000E56866890C9525690D95A58A64685E81E1
:103900000A946C46247B9D821F81DC751876029890
:10391000503070CB70C070CB70C00B6813606046C5
:1039200011B0F0BD89B2714309128D4205D1002F4B
:1039300009D1064B23810023BCE780B26843691A92
:1039400004F0D6FBB0E7024BB1E7C046E08A0000C6
:10395000B8220000F0B585B0019302AB9C1D1700A2
:103960000E212200060002F0DBF82388084D5B04DC
:103970002B403B60002809D122000C21300002F0CE
:10398000CFF823885B041D40019B1D6005B0F0BD8E
:103990000000FE1F030073B5DA331B780500013BFE
:1039A0000E000020022B16D801AB6A460121280028
:1039B000FFF7D0FFFF22009903001204914202D8C2
:1039C0000199914207D9002B05D1002E04D010494E
:1039D000280001F057FC76BD0422FF21280002F0E8
:1039E0004BF8320004007021280002F045F8320044
:1039F0000443FF21280002F03FF864B20443320080
:103A00008021280002F038F864B2204340B2E2E797
:103A1000F3000020F7B5040001228021057C02F0AC
:103A20002BF80122FF21200002F026F800222000BE
:103A3000110002F021F89D235B00E25C912120003F
:103A400002F01AF801220021200002F015F80022ED
:103A5000FF21200002F010F800228021200002F057
:103A60000BF8012D24D0002D04D0032D32D00820D6
:103A700040420AE001222900200001F0FDFF6B46D0
:103A80000126DF1D3E70002805D0FEBD01003A0072
:103A9000200002F036F83B780135334205D000288B
:103AA00003D1C82DF2D10720E2E7C82DEDD1FAE706
:103AB000002803D129002000FFF76CFF022200211B
:103AC000200001F0D9FF0028DFD1992304225B00F8
:103AD000E254DAE7002803D101212000FFF75AFF62
:103AE0000422ECE770B5057C0400002D05D0200011
:103AF00000F075FD002805D070BDFFF78BFF002892
:103B0000F5D0F9E7002DF7D1992303225B00E254A9
:103B1000F2E7F7B50600002501220B21300001F085
:103B2000ABFF002204000B21300001F0A5FF6B4623
:103B3000DF1D04433A001321300001F0E2FF0722A9
:103B400064B23B782043013540B2EDB2134204D059
:103B5000032D04D00028DFD0FEBD032DFCD10C20A6
:103B60004042F9E7002370B5037404000D00FFF72D
:103B7000B9FF002809D129002000FFF755FE0028D1
:103B800003D101002000FFF7C4FF70BD70B5050030
:103B900016001C00152967D10122EA3101F06CFFE3
:103BA000002204001100280001F066FF00220443F7
:103BB000FF21280001F060FF64B20443012280214C
:103BC000280001F059FF64B2044302228521280035
:103BD00001F052FF64B204430422FF21280001F0E7
:103BE0004BFF64B204430022CD21280001F044FFC2
:103BF00064B204431122CC21280001F03DFF64B2DD
:103C000004430722FF21280001F036FF64B2044379
:103C10000022BE21280001F02FFF64B204430622D7
:103C2000FF21280001F028FF64B204430922CC21BF
:103C3000280001F021FF64B204430022FF21280084
:103C400001F01AFF64B204430122FF21280001F0B1
:103C500013FF002264B204431100280001F00CFF9E
:103C600064B2204340B270BD042A27D8100004F08B
:103C700035FA1F2123031D0003220A21280001F029
:103C8000FBFE0028EFD123005C1EA341EF221B01A5
:103C90008421280001F00EFF0028E4D12B00DA3344
:103CA00001001E702800FFF734FFDCE70422E4E780
:103CB0000022E2E70122E0E70222DEE70B20404299
:103CC000D1E70000F0B595B06A4600230600D51C88
:103CD00001AC0121D3802B702370029300F0CEFC45
:103CE0003300FF335A7D012A0AD8197D012A05D1F4
:103CF000202905D8300000F0C2F906E00C29F9D9D6
:103D0000220002A9300000F036FB041E00D094E02F
:103D1000A8235B00F35C4A49002B02D13300FC333B
:103D2000196D300001F0AEFA041E00D085E02300CA
:103D3000210004223000FFF729FF041E00D07CE0A0
:103D40000122FF21300001F097FE6B4607009A1D0B
:103D50008421300001F0E4FE22000743FF213000FF
:103D600001F08AFE7FB207437CB2002C65D16B461E
:103D70003200DB88D4321B01136004A93000FFF746
:103D800052FC041E59D129003000FFF799FA041E95
:103D900053D1322330002A78FF33F25404A9402251
:103DA000103006F05FF92A000121300001F0A9FE71
:103DB000041E42D198232A785B00F25401000200CD
:103DC0003000FFF796FA041E37D1020002213000BE
:103DD000FFF78FFA041E30D1992303225B00F254BF
:103DE0006B465D1D01002A00300001F053F9041EEE
:103DF00023D133002A78E8331A7001212A003000D9
:103E000001F048F9041E18D133002A78E0331A7003
:103E1000032103AA3000FFF7D9FA041E0DD13300A5
:103E2000039AE4331A60042103AA3000FFF7CEFAA4
:103E3000041E02D1039BDC363360200015B0F0BDB8
:103E40000000002037B56B46DD1D0C002A00132151
:103E500001F057FE07232A781340236018231A42E3
:103E600001D0062040423EBD030037B5DA331B784F
:103E70000C0001AD042B0AD12900FFF7E3FF019BE1
:103E8000042B02D1033B23703EBD0023FBE72A0035
:103E9000142101F036FE0028F6D101232A781A42B7
:103EA000F1D12070F0E710B500F065FA10BD000008
:103EB00037B56B469D1D0C002A00282101F030FE0D
:103EC00000280AD12B8805491B051B0DFA228B42BD
:103ED00001D903495B18534323603EBDFF0700002F
:103EE00000F0FFFFF7B5012464421C60D408009481
:103EF00007242240063C0027A446009D0191019919
:103F00008D4217D2002F15D10099445D3E008D429D
:103F100002D114411600E4B261460C4205D0674656
:103F2000EC00A6191E600135E9E701366408082E89
:103F3000F2D1F8E7F7BD0000034B80098000C058BC
:103F4000431E9841C0B27047AC02002010B5072450
:103F5000D30822408B4208D2C018012393401A0094
:103F6000037813430370002010BD32204042FBE76A
:103F700010B50A000623B02101F056FD10BD10B5A2
:103F80000A000623B02101F063FD10BDF0B5070063
:103F9000002687B01D000E9B0091019203930F9B9A
:103FA0009E4218D003AB0E9A0C990198FFF79AFF26
:103FB000039C631C2AD00D9BE018FFF7BDFF009BFC
:103FC000984223D122000C992800FFF7BFFF631C01
:103FD0000E930136E3E70020109B0E9A1A6000282A
:103FE00019D129003800FFF7C3FF002813D104AC12
:103FF00021003800FFF7C3FF00230C9A9A420AD031
:10400000E95CE25C914204D10133F6E732204042A0
:10401000E2E73220404207B0F0BDF0B5982589B004
:104020000F006D00C02201210400465D01F024FD57
:10403000002822D101A92000FFF794FD00281CD1FF
:104040000122FF21200001F017FD002815D13A00C0
:10405000B621200001F064FD00280ED10200FF21EE
:10406000200001F009FD002807D1320001212000C5
:1040700001F002FD002800D1665509B0F0BDF0B591
:104080000E0089B01500FF210122040001F0F4FCAC
:10409000021E17D14F21200001F0EEFC002811D1A3
:1040A0002C224E21200001F0E7FC021E0AD1FF2144
:1040B000200001F0E1FC002804D1B422B621200048
:1040C00001F0DAFC23000027FC339F629F85BD428C
:1040D00009D03800B430FFF72FFF002803D12C2F70
:1040E00001D00137F5E707AB0493B4230193AE3B4E
:1040F0000093220023002B32253303960297FF33CF
:10410000FF3229002000FFF741FF002804D10123DE
:10411000FF34A3752675657509B0F0BD012210B591
:104120000A430021040001F0A7FC00280FD1200061
:1041300000F055FA00280AD101002000FFF7E9FC41
:10414000002804D102000100200001F095FC10BD00
:10415000F0B5002689B0059310AB1B78039101934D
:1041600011AB1B780492029306ABDF1D0122FF21E5
:1041700005003E7001F080FC320031000400280090
:1041800001F07AFC32000443FF21280001F074FCA6
:1041900064B2039B044366B2002B2FD0019B002B1B
:1041A00006D00E9ACB21280001F0ABFC064376B274
:1041B000029B002B06D03A00EE21280001F0A1FC62
:1041C000064376B20122FF21280001F055FC0122AE
:1041D00006430021280001F04FFC76B2064300227E
:1041E000FF21280001F048FC10223B7876B293436F
:1041F00030430F9A40B2137009B0F0BD019B002B01
:1042000006D0049ACB21280001F036FC064376B292
:10421000029B002BD6D0059B8022EE21280001F0C6
:1042200049FCCDE7F0B5002789B0059302ABDF75F7
:10423000059B050004911600BB4202D098235B0049
:10424000C75C01222800110001F016FC041E2BD1CE
:1042500040212800FFF762FF041E25D1012E13D153
:10426000172302AA9B180193049B0390009302005A
:104270000300029631002800FFF76AFF002805D0EE
:104280000400200009B0F0BD049B1870059B002BB2
:10429000F7D03A000121280001F0EEFB041EF0D116
:1042A00098235B00EF54ECE70023049A1370E8E7CF
:1042B000F0B589B0059300230493059B05000E001B
:1042C0001700002B03D098235B00C35C04930222E9
:1042D0000121280001F0D0FB041E2BD10100280091
:1042E000FFF71CFF041E25D1012F12D1172302AAAC
:1042F0009B18029000930200030003970196390077
:104300002800FFF725FF002804D00400200009B092
:10431000F0BD3070059B002BF8D0049A01212800D5
:1043200001F0AAFB041EF1D16A469823127C5B00BF
:10433000EA54EBE700233370E8E7F7B51E0098274F
:1043400001927F00002332000400C55DFFF76AFF81
:1043500000280FD10300320001992000FFF7A8FFC9
:10436000002807D12A000121200001F085FB002848
:1043700000D1E555FEBDF0B51D2797B00F920AAAF2
:104380000023BF18020011AEFE320E911293139358
:1043900033703B70D18F050007910100FC318B62B7
:1043A0005385FF21012201F067FB041E00D00FE1BD
:1043B00002004F21280001F05FFB041E00D007E13E
:1043C0002C224E21280001F057FB041E00D0FFE0F4
:1043D0000200FF21280001F04FFB041E00D0F7E08F
:1043E000B422B621280001F047FB041E00D0EFE004
:1043F00002008021280001F03FFB041E00D0E7E00E
:1044000003003A0031002800FFF797FF041E00D098
:10441000DEE02B002B33FF330A93063B099312ABEC
:10442000049303230393B1330193AE3B12900290A4
:1044300000930100099B0A9A2800FFF7A7FD041EBC
:1044400000D0C5E01E26129B280006930AABF61882
:104450003100FFF7E2FD041E00D0B9E03288079971
:104460008A4257D92A00FC32906290850698B4306F
:10447000FFF762FD002805D1069B2B2B02D80133E4
:104480000693F3E712AB0493069B03260293B4232F
:104490000193AE3B00930396099B0A9A01212800E1
:1044A000FFF774FD002833D11E27129B28000693C6
:1044B0000AABFF183900FFF7B0FD002828D13B8870
:1044C000079A934200D886E0012308930B9324E0D7
:1044D000290025310622FF3114A805F0C3FD0C9EEA
:1044E0000D972FE00C9E6A4620210E9B52181E60ED
:1044F00012780F9BFF351A700123AB750E9B1B685A
:104500002B750F9B1B786B7562E0322464425FE071
:1045100004005DE0002608960B961E230AAA9B184D
:104520001F88079B9F42DED22900032625310622E1
:10453000FF3114A805F096FD079BFF1AFA17BB1868
:1045400053400D9313AB069A06210A98FFF7CAFC55
:10455000139F7B1CD9D03800731CB4300C93FFF729
:10456000EBFC0B9A08909042CFD13A0006210998B3
:10457000FFF7ECFC0028CBD17B1C0999280006939F
:10458000FFF7F6FC0028C3D11E270AABFF1839003D
:104590002800FFF742FD0028BAD1079A3B889F1AEE
:1045A000FA17BF185740079A934291D90D9B9F4223
:1045B00098D914A92800FFF7DBFC07002800253054
:1045C000062214A9FF3005F04DFD002F8BD03C00D2
:1045D000200017B0F0BD06000890012376E773B500
:1045E0006B46DD1D00230600C8242B702900300017
:1045F000FFF73AFC00280BD12B78012B08D0013CA7
:10460000002C03D0300001F0A9FAEFE70720404268
:1046100076BD8023DB05834201D99B08FBE700229E
:10462000002B07D0D1185208814201D8401AD21865
:104630009B08F5E710007047F7B5002283210500BD
:1046400001F01AFA041E11D1C8266B46DF1D3A008C
:104650008321280001F055FA3B780400002B05D196
:10466000002803D1013E002EEFD1073C2800012293
:10467000832101F001FA204340B2FEBDF0B50300F2
:10468000002695B005910B960C96F0331B7805002B
:1046900001933400072B00D180E20122802101F038
:1046A000EBF901220400FF21280001F0E5F93200B6
:1046B00004433100280001F0DFF964B2044306220C
:1046C000FF21280001F0D8F908AB5F1D64B23A0061
:1046D00004438321280001F014FA04223B7864B2D9
:1046E0001A4304438321280001F0C6F964B204434D
:1046F0000722FF21280001F0BFF964B201228121C5
:104700000443280001F0B8F964B20443280001F022
:1047100025FA64B2044301228021280001F0ACF99B
:104720000127059B64B204433B4064B20393B34248
:1047300000D136E2019B3B4200D036E26B2294214D
:10474000280001F099F906002800FFF775FF0AAA72
:1047500006439021280001F0F2F934430A9E64B226
:104760007304F60B5B0E2422942104433E40280080
:104770000693049601F080F964B204432800FFF721
:104780005BFF64B204430AAA9021280001F0D7F924
:104790000A9B0DAE1A0E32701A0C727064B21A0AAD
:1047A00094210443B27028002522F37001F064F9CB
:1047B00064B204432800FFF73FFF64B204430AAA2F
:1047C0009021280001F0BBF90A9B64B21A0E044341
:1047D0001B0C64B2327173710222059B1340079364
:1047E00000D1C9E0019B1340029300D0C4E09421A2
:1047F000280001F041F906002800FFF71DFF08AB73
:104800009A1D06439021280001F07BF9344364B2DD
:104810007B2294210443280001F02EF964B2044362
:104820002800FFF709FF64B208ABDA1D04439021AA
:10483000280001F066F964B277229421044328002D
:1048400001F01AF964B204432800FFF7F5FE7F2750
:1048500064B204430AAA9021280001F070F90A9B6F
:104860000FAE5A0E32709A0C3A407270DA0A3A4021
:10487000B2701A093A40F2707822DB00134008A99E
:1048800064B24B7104439421280001F0F5F864B23E
:1048900004432800FFF7D0FE64B204430AAA902123
:1048A000280001F04CF90A9B08A949795A0F5218BF
:1048B00032719A0D3A407271DA0B3A40B2711A0AAB
:1048C0003A40F2715A083A40327240229B0113403A
:1048D00064B208AA5371942179220443280001F09C
:1048E000CBF864B204432800FFF7A6FE64B2044389
:1048F0000AAA9021280001F022F90A9B08A9497907
:104900009A0E52187272DA0C3A40B2721A0B3A408E
:10491000F2725A093A4032737C229B00134064B20F
:1049200008AA537194217A220443280001F0A4F8C4
:1049300064B204432800FFF77FFE64B204430AAA6E
:104940009021280001F0FBF80A9B08A949799A0FE9
:1049500052187273DA0D3A40B2731A0C3A40F2737D
:104960005A0A9B083B4073746B4664B21B7A04433B
:104970003A4064B23274B3740423059A1A40029226
:1049800000D115E1019A1A4200D011E17B22942155
:10499000280001F071F806002800FFF74DFE0BAA71
:1049A00006439021280001F0CAF8344364B27C2207
:1049B00094210443280001F05FF864B20443280006
:1049C000FFF73AFE64B204430CAA9021280001F0DC
:1049D000B6F864B2732294210443280001F04CF825
:1049E00064B204432800FFF727FE64B204430AAA16
:1049F0009021280001F0A3F864B20A9B742294214C
:104A0000044328001E0601F037F864B2044328006E
:104A1000FFF712FE64B204430AAA9021280001F0B5
:104A20008EF864B20A9B75229421044328001F0E5D
:104A300001F022F864B204432800FFF7FDFD64B2E0
:104A400004430AAA9021280001F079F864B20A9B75
:104A500076229421360C0443280037431E0601F0C9
:104A60000BF864B204432800FFF7E6FD64B2044388
:104A70000AAA9021280001F062F80A9B64B2360C61
:104A800004431B0E64B21E4300228121280000F063
:104A9000F3FF06220443FF21280000F0EDFF64B27B
:104AA00008AB5A1D04438321280001F02AF808AB03
:104AB0005A79042364B29A4304438321280000F006
:104AC000DBFF64B204430122FF21280000F0D4FF81
:104AD00064B2044301220021280000F0CDFF64B23B
:104AE00004430022FF21280000F0C6FF64B2044303
:104AF00000228021280000F0BFFF64B2044364B2AA
:104B0000002C4BD1039B002B14D0019BDB0711D44D
:104B10006A462B00127EFF331A756A46127C0DA876
:104B20005A7523001A00195C2B32FF320133A95445
:104B3000062BF7D1079B002B11D0019B9B070ED4AE
:104B400008AB9A792B00F1331A7008ABDA792B0095
:104B50002800F2331A700FA9F33006F00DFB029B08
:104B6000002B16D00423019A134012D12A000B996E
:104B7000FC32D1610C997F0211625762002E07D07E
:104B80000D4BF618FA239B0073431B095B421BB2C3
:104B9000EB60019B059AF03513432B70200015B094
:104BA000F0BD039B0493069316E604963300FAE7E0
:104BB00000273E0068E7C04600E7FFFF0023984259
:104BC0000BD0FF2201380100914303D0013340088C
:104BD0009BB2F8E71B021B189BB21800704703003A
:104BE000C0B21B0A984001307047000070B5FA2629
:104BF000B60071430D00FA21084CC9005443F53446
:104C0000FF34200003F074FA31002D18200003F067
:104C10006FFA0100280003F06BFA70BD002F3A0014
:104C2000F0B5040085B01600032920D16B465F1D46
:104C30003A000021FEF759FB3A78310005002000C8
:104C4000FFF7D4FF80B2FFF7B9FF6B46D88023008F
:104C5000D83302001880002D06D12000512100F029
:104C60001AFFE434051E3BD0280005B0F0BD04292E
:104C700038D102AD2900FEF78CFBEF78002F15D05C
:104C80006B4600215A1D2000FEF72FFB051EEBD1BD
:104C90006B469F1D3A005121200000F041FF0500A6
:104CA0003888FFF79CFF87B2002DDDD16B460121CC
:104CB0005A1D2000FEF719FB051ED5D16B463100A9
:104CC0005A792000FFF792FFC01980B2FFF776FFF4
:104CD00071210200200000F0DEFE051EC4D1DC348C
:104CE0002660C1E704256D42BEE7000070B50D00E7
:104CF000FA210A4C89005443F534FF34200003F0B4
:104D0000F7F9FA214543C900200003F0F1F9FA212F
:104D10002818890003F0ECF970BDC046002F3A0056
:104D2000F0B5002787B002AB03AE05000192DF703B
:104D3000378002291CD89E1C32003900FEF7D5FAB4
:104D40000400B84206D102ABDA1C4621280000F06C
:104D5000D8FE040002ABD878FFF741FF327881B269
:104D60002800FFF7C3FF019B1860200007B0F0BDCB
:104D700003291CD102AB9A1C3900FEF7B6FA0400D5
:104D80003800002CEFD102AB21009A1C2800FEF75E
:104D9000ACFA041E05D132005121280000F0C0FEFB
:104DA00004003088FFF71BFF02AB9A78D7E704298D
:104DB00038D104AC2100FEF7ECFAE078002817D0D7
:104DC00002AB9A1C39002800FEF78FFA041E27D187
:104DD00032005121280000F0A3FE04003088FFF7C4
:104DE000FEFE86B2002C04D002AB9A78B81BB6E760
:104DF000060002AB9A1C01212800FEF776FA002774
:104E00000400B842F0D102AB9F1D3A007121280086
:104E100000F086FE04003888FFF7E1FE87B2E3E782
:104E20003E00E1E738003C009DE773B50400150043
:104E300002291CD86B46DE1D32000021FEF755FA10
:104E4000002813D1327829002000FFF7CFFE8023FD
:104E500081B25B00FF22994201D80138C2B223001F
:104E6000D8331A804621200000F006FE76BDFFF7F9
:104E7000D7FEFBE70023F0B5160087B002AAD37077
:104E80000133334005000F000193002B05D10029A9
:104E900006D133000C3B062B3ED90420404239E0BA
:104EA000012900D086E03300083B062BF5D8082EF8
:104EB00000D09DE01022482100F0DEFD32004721A5
:104EC000280000F0D9FD022204003221280000F061
:104ED000D3FD0C2204433021280000F0CDFD64B244
:104EE00004433A00FF21280000F0C6FD30221100E3
:104EF00064B2044364B2280000F0BEFD019A04438A
:104F0000FF21280000F0B8FD64B2204340B2002821
:104F100000D1BBE007B0F0BD18220C2E05D0302226
:104F20000E2E02D0102E42D140225721280000F030
:104F3000A3FD08225621280000F09EFD0028E9D19B
:104F40007410013CE4B204AA03212800FFF7E8FE34
:104F5000002819D105AA02212800FFF7E1FE002848
:104F600012D122005021280000F086FD00280BD12C
:104F7000049A03212800FFF753FE002804D1059A64
:104F800002212800FFF751FF2B00E8331E70002894
:104F9000C0D169692800FEF7A0F90028BAD102A99A
:104FA0000200012303312800FFF782F9B2E7502203
:104FB000122EBAD07410013CE4B2002FC3D0012FDE
:104FC00000D06AE703AA04212800FFF7A9FE002801
:104FD0000BD122007021280000F04EFD002804D1E2
:104FE000039A04212800FFF71BFE2B00E033CDE7D6
:104FF0000A2E21D12822482100F03EFD0822472117
:10500000280000F039FD032204003221280000F0BE
:1050100033FD0922044364B23021280000F02CFD46
:105020003A000443FF21280000F026FD64B2044347
:1050300064B2202230215EE70C2E12D138224821A2
:1050400000F01AFD08224721280000F015FD032278
:1050500004003221280000F00FFD044364B208224E
:10506000DAE70E2EA6D14822110000F005FD082235
:105070004721280000F000FD03220400322128000F
:1050800000F0FAFC044364B20722C5E77410013C47
:10509000E4B297E713B51400002904D0012910D019
:1050A000042040420CE06B465021DA1D00F029FD3F
:1050B000002805D16B4607331B7801335B00237052
:1050C00016BD6B467021DA1DF0E70000FA23F0B53B
:1050D000DB0087B00293002303932F4B070001915D
:1050E000994204D804267642300007B0F0BD04ADE2
:1050F0002900FEF74EF9061EF6D1019B274A9C189F
:105100002B78002B05D16B78002B02D1AB78002BCC
:1051100019D002AA02213800FFF702FE002838D178
:105120002B78002B05D0029B1D4A9B189C42D9D995
:10513000E41AAB78002B24D0029B1A4A9B185B0020
:105140009C42CFD9E41AEB78002B0DD003AA03219F
:105150003800FFF7E5FDA522039B92009B18A342B0
:10516000C0D2002815D1E41A2B79002BBCD00E4BED
:105170000421E2183800FFF753FD019B06007B6114
:10518000B2E76B78002BDED0A522029B92009B1821
:10519000D6E70600A8E7C0461F4E000018F7FFFF3D
:1051A0004E020000B2020000DAFDFFFFFA23F0B564
:1051B000DB0087B00293002303932E4B04AD0B60FA
:1051C0000C0029000700FEF7E4F8061E37D12B7803
:1051D000002B05D16B78002B02D1AB78002B19D0B6
:1051E00002AA02213800FFF79BFD002840D12B784E
:1051F000002B05D0204A029B9B182268D3182360FD
:10520000AB78002B1ED0029B1C4A9B185B002268C7
:10521000D3182360EB78002B1CD12B79002B0CD0FA
:1052200001AA04213800FFF77BFD154A019B9B185A
:105230002268D318236000281AD123687B613000CC
:1052400007B0F0BD6B78002BE4D0A522029B920042
:105250009B18DCE703AA03213800FFF761FDA522B4
:10526000039B92009B182268D31823600028D4D097
:105270000600E4E7360B00004E020000B202000018
:1052800026020000F7B50D00002106000A006F1885
:105290003B78002B3AD0002A38D14C1C285DFF2BDC
:1052A0001FD18C1C2B5D032807D80C1D31001B025D
:1052B000FE3102F013FF060A0E12042252422100B0
:1052C000E5E7F878C318CB86F9E7F878C3180B87B9
:1052D000F5E7F878C3184B87F1E7F878C318CB8760
:1052E000EDE7042BE9D802318C46110001AA8B426C
:1052F00004DD7C18A47854540131F8E761465C1849
:105300000100300000F090FB0200D8E71000FEBD65
:105310000023F7B513606B46DE1D0F00310005005A
:105320001400FEF790F8002808D13378002B05D040
:10533000BA8A2B6A534380331B0A2360FEBD13B520
:10534000CB681400136001AAFFF7E2FF002803D125
:105350002368019A9B18236016BD0000F8B51C0055
:10536000AA2300255B00C35AFC30C66D5E4380361D
:10537000360A5E43AA420CD0500889024018110038
:1053800002F0B6FE80230335684340431B02C51874
:105390002D0C802306981B026043079AC018070C47
:1053A000D018000C0330062102F0A2FE072460434F
:1053B000234B7F43984241D8079A0621D01C02F024
:1053C00097FE802360431B02C018000C4043089BDB
:1053D0005C08E4191900201802F08AFE8003FE21FF
:1053E0007F3002F085FEFA216843F5308900FF30F6
:1053F00002F07EFEFA210001F530FF308900040042
:1054000002F076FE0700300020308009FFF701F936
:1054100005000020874208D0FA212000C90002F0D0
:1054200067FE3900801902F063FEFFF7F2F885424B
:1054300000D90500099A00201560F8BD0148C6E7AB
:10544000FFFF00000000F0FFF0B505000F008FB077
:105450000993036A08920C930B690DAA0793CB6812
:105460000B93FFF76CFF0CAA39002800FFF750FFE1
:10547000061E31D12B00E0331C78043B2200196852
:105480002800FFF7B3FB2B000690E8331A78083C9E
:10549000043B1968631E9C412800FFF7A7FBA31C6F
:1054A000FA2480210D9AA400544309026418803222
:1054B000210C140004910C99FF220A9121009143C0
:1054C000049A05910D91002A09D1594B089AFC358F
:1054D00013606B64099B1E6030000FB0F0BDFA21B1
:1054E000069A89001018C0025843F530FF3002F0C8
:1054F000FFFD0300FA214F4889005843F530FF3083
:1055000002F0F6FD240A444380340690240A00D1B8
:105510000134FA20C8230A9E800046439B039E4222
:1055200000D91E00079B04995843000C000402F0A8
:10553000DFFD414B984200D9180096239B0043435E
:105540000C2060430793FFF764F8FA21049B0A904C
:105550001C04A01BF5308900FF3002F0C9FD0302D6
:105560003000FA21F530FF3000198900049302F071
:10557000BFFD0100049802F0BBFD3B8904002F48E9
:105580002F49584302F0B4FD802324025B021C1B08
:10559000802380224443C8201B02E4185202240CBA
:1055A000A418640864438000A40B6043079AC018E1
:1055B000D318000C1B0C5B434043C018FFF729F8BD
:1055C00000046421323002F093FD0A9B590002F07E
:1055D0008FFD03001B481C4958431C4BC01802F0A8
:1055E00087FDF0231B02984200D918004043184B56
:1055F000C018FFF70EF8FA239B0058430C4B984253
:1056000000D91800089B0B9A18602B00FC335864D3
:10561000099B05990393069B28000293079B01931E
:10562000C8239B0000932300FFF798FE060053E772
:10563000AE878F0277060000666666009A990600BC
:105640005C120000B50B000010270000881300005A
:1056500004110000F0B58FB003930023059206AA51
:10566000937106AAD37108AA13700A2509220400AF
:1056700006A812182D1813702B800D93CB080193D8
:105680000F23019AFF211A40744B0092D34001224C
:1056900020001340049300F0EFF9002804D12A0001
:1056A000B621200000F03CFA0A2306AA9B181D88A8
:1056B0006D02002804D10200FF21200000F0DCF977
:1056C0002300FC33DD64002805D106AB01009A1DE0
:1056D0002000FDF717FF06AB9E79002E19D000269B
:1056E000B0421DD10DAB09AA14992000FFF7ACFE02
:1056F000B04215D10D9B149A0100538120000AAAD3
:10570000FDF73EFF0A9BB34203D0099A93429B41A7
:105710005E42002804D108AA02212000FDF7F2FE13
:1057200008AB1F78002F0DD00027B84213D10BAA69
:1057300002212000FDF724FF0B9BBB4202D0AB42AD
:10574000AD416F42002806D1092206ABD2180321D1
:105750002000FDF7D7FE092306AA9B181D78002D0F
:1057600019D00025A8421ED1039B0290AB4205D060
:10577000059B0399180202F0BBFC029000250CAABD
:1057800003212000FDF7FCFE0C9BAB4203D0029AE4
:105790009A42AD416D42002805D1049B012B38D1BE
:1057A000FE33159A1370159B1B78002B01D1149AA8
:1057B000538106ABDA1D01212000FDF7A3FE00286E
:1057C00025D106AB06331B78002B00D10126230020
:1057D000009A2E331E700123042A04D006ABDB7915
:1057E0005A425341DBB222002F32137008AB1B78B0
:1057F000002B00D10127230030331F70092306AA94
:105800009B181B78002B00D10125313425700FB077
:10581000F0BD009B013B022B01D80523C1E7009B93
:10582000062B01D0092B01D10423BAE70D21019BDE
:105830000B40082B01D0012F01D10323B1E7009BBE
:10584000042B01D0012D01D10223AAE70123012E4F
:10585000A7D00023159A35001370A4E7A1F000002B
:10586000F8B50E00022104001700FEF707FF051E21
:105870000AD123003800F1331B784030002B05D1CA
:105880000649357005F078FC2800F8BD230021009A
:10589000F2331B78F3313370F4E7C046D6EC0000E6
:1058A00073B56B46DE1D0C000A0031000500FFF7E2
:1058B000D7FF00282CD133781649002B09D0222B92
:1058C00004D81549202B04D1144902E01449262B91
:1058D000FAD9200005F050FC20001249203005F0D4
:1058E0004BFC2200C0216032280000F00AF9002899
:1058F0000ED16B469E1D3200C221280000F001F936
:105900002300012261331A70337862341B0923703B
:1059100076BDC046FAEA000006EB000012EB00007C
:105920001EEB000033EB0000F8B50F00069C0100F1
:10593000200015001E00FCF775FF236839001B6866
:1059400020009847AE19B54206D0236829781B6815
:10595000200098470135F6E72000FDF70EF80020FB
:10596000F8BDF7B51F000600089C0191010020005A
:105970001500FCF757FF236801991B682000984722
:105980002000FCF7FAFF3100FAB22000FCF793FF89
:10599000EE19B54206D0236820005B69984728704D
:1059A0000135F6E70020FEBD1FB514000F226A4442
:1059B000147000930123FFF7B7FF04B010BD1FB5AB
:1059C00003AC627012122270009322000223FFF7D0
:1059D000ABFF04B010BD07B500930123FFF7C1FF73
:1059E0000EBD30B585B003AC150000932200022334
:1059F000FFF7B7FF23885BBA2B8005B030BD30B509
:105A000085B003AC1500009322000423FFF7A9FF23
:105A10002388A2785BBA9BB21B021343E2781B0275
:105A200013432B6005B030BD73B500253F2B00D963
:105A3000043DAE246400065DFC30406E00903000F2
:105A4000FFF772FF002801D014256D42280076BDB3
:105A500073B500253F2B00D9043DAE246400065DDC
:105A6000FC30406E00903000FFF77BFF002801D033
:105A700014256D42280076BD10B50300AE24FC331A
:105A800064005B6E005DFFF78FFF0023984200D03B
:105A9000143B180010BD10B50300AE24FC336400A5
:105AA0005B6E005DFFF78BFF0023984200D0143B34
:105AB000180010BDF0B587B00393AE2302925B00CF
:105AC000C35CFC30019304ABDE1D0500436E320065
:105AD00001980F00FFF77FFF041E0DD13278029B63
:105AE00039001A40039B019813431A0033706B6E00
:105AF000FFF75AFF002801D014246442200007B0A9
:105B0000F0BD10B50300AE24FC3364005B6E005D95
:105B1000FFF761FF0023984200D0143B180010BD2E
:105B200010B50300AE24FC3364005B6E005DFFF72C
:105B300058FF0023984200D0143B180010BD10B548
:105B40000300AE24FC3364005B6E005DFFF757FF7B
:105B50000023984200D0143B180010BD002382B0EF
:105B60000193019BF92B03D8C046019B0133F7E752
:105B7000002002B07047000010B5024801F0EDFDB2
:105B800010BDC046D817002013B51249124800F0C6
:105B900004F91249124800F000F91249124800F0C5
:105BA000FCF81249124800F0F8F8124C1249200093
:105BB00000F0F3F81149124800F0EFF800230193C8
:105BC000013300930722053321000E4801F034FD14
:105BD00013BDC04600080042141A0020000C004209
:105BE000181A0020001000421C1A00200014004265
:105BF000201A0020241A002000180042001C004235
:105C0000281A0020D8170020F7B506000D000C0058
:105C10008B180193019B671B9C4207D03368217846
:105C20001B683000984701340028F3D13800FEBDCE
:105C300070B5040008000D0005F0A6FA2368020004
:105C400029005B682000984770BD10B50B1E02D07C
:105C5000FFF7EEFF0300180010BD10B5FFF7F5FFCA
:105C600010BD10B5FFF7F1FF10BD10B503681B683C
:105C7000984710BD10B50249FFF7DAFF10BDC046C6
:105C8000D4EC000070B50400FFF7DFFF0500200032
:105C9000FFF7F0FF401970BD70B50400FFF7D5FFA6
:105CA00005002000FFF7E6FF401970BD70B5050044
:105CB000FFF7DBFF04002800FFF7DCFF201870BDB2
:105CC000F0B58BB06B461500002205330600DA777D
:105CD0000800012D00D80A2509AC290002F08EFA2F
:105CE000CAB2130037330700DBB2092902D8130008
:105CF0003033DBB2013C2370002FEED121003000A5
:105D0000FFF7A3FF0BB0F0BDF8B506000C00151EA1
:105D100004D10368C9B21B689847F8BD0A2A0CD1A0
:105D200000290BDA2D21FFF7A0FF614207002A00AE
:105D30003000FFF7C5FF3818EFE7D2B2210030007E
:105D4000FFF7BEFFE9E710B5FFF7DEFF10BD70B546
:105D50000400FFF7D9FF05002000FFF78BFF401973
:105D600070BD10B5002A04D10368C9B21B689847FA
:105D700010BDD2B2FFF7A4FFFAE710B5FFF7F1FFAD
:105D800010BD70B50400FFF7ECFF05002000FFF721
:105D900071FF401970BD1000704701607047944654
:105DA000F0B59E1E721E96416246056892072F68E6
:105DB00036063A4332432A60072505AC247800684A
:105DC000A4012940214342680024022B00D05C0337
:105DD000114321434160F0BD30B5C0250368AD03D8
:105DE0001C6812052A402243C0240904A402214051
:105DF0001143196003685A6814435C6030BD012385
:105E0000026811680B43136003681A68D207FCD458
:105E1000DA69D207F9D470470223026811680B438C
:105E200013600268D3699B07FCD4704703681A7E2D
:105E3000D20702D41A7E9207FCD57047002203686D
:105E40005A8370470368187E4007C00F7047036885
:105E5000187EC0097047802302685B42117E0B43A5
:105E6000137670470368588B8007C00F7047022372
:105E70000268518B0B43538370470368187EC00739
:105E8000C00F70470368188DC0B2704703681A7E50
:105E9000D207FCD589B20120198570470122036819
:105EA0009A757047012203681A75704701230268CA
:105EB00011680B43136003681A68D207FCD4DA69CF
:105EC000D207F9D470470223026811680B431360AC
:105ED0000368DA699207FCD430215A8B8A43110097
:105EE00010220A435A830268D3695B07FCD47047C7
:105EF0000221026813688B4313600268D3699B0711
:105F0000FCD4704780230268DB02116851680B43A0
:105F100053607047036803491A685A680A405A6018
:105F20007047C046FFFFFBFF032230B503681140F6
:105F30001C68074D5A6809042A40E4061143640F9F
:105F40005960052C03D10268D3695B07FCD430BDCE
:105F5000FFFFFCFF30B503680400588B8006800FFC
:105F6000022814D05D8B0020AD06AD0F032D2ED07E
:105F7000588B800705D55D8B0020AD06AD0F012D38
:105F800025D100205D8BAD06AD0F85421FD04800A6
:105F9000596A1043C90AC0B2C90201435962236851
:105FA000002A08D11A7ED207FCD5588B4007C30FB0
:105FB000012058400BE0187E8007C00FF5D11A7EF3
:105FC000D207F8D5C022596892020A435A6030BD00
:105FD0000368283319700368187EC007C00F03D107
:105FE0005A8BD207F8D57047588B4007C30F012052
:105FF0005840F8E7036828331970036800201A7EB8
:10600000520704D5588B01234007C00F58407047F2
:1060100003681868C006400F043843425841C0B2B4
:1060200070470368187E4007C00F70470368187EEA
:10603000C007C00F70470368588BC006C00F704779
:106040000368187E8007C00F70470368588B0007ED
:10605000C00F704703681A68D206520F052A02D192
:106060001A7E9207FCD528331878C0B2704700001A
:106070000368104A934213D00F4A934212D00F4A3A
:10608000934211D00E4A934210D00E4A93420FD041
:1060900001200D4A4042934201D1063040B2704780
:1060A0000020FBE70120F9E70220F7E70320F5E7EE
:1060B0000420F3E700080042000C004200100042F8
:1060C0000014004200180042001C0042F8B5FFF71F
:1060D000CFFF00282CDBC3001C48FF22C01805237B
:1060E0000479C35603201840C0008240C021D24327
:1060F0008140002B1DDB1F2501201D40C026A8402C
:10610000134D7600A851C0269B089B005B19B60072
:106110009F593A401143995128603F2323408024DE
:10612000E4011C430B4B5C805A7852B2002AFBDB23
:10613000F8BD0F200340083B07489B089B001B1835
:10614000D86902401143D961E7E7C046D8EC0000A6
:1061500000E100E0000C004000ED00E0F8B50400B4
:106160000F0016001D00FFF7B1FF2000FFF747FEEC
:106170001C21BB000B4071072268090C0B43136004
:10618000842322689375012F1AD11021012E00D08B
:1061900008390C4B69431868C00001F0A9FF0722B9
:1061A000216802408B895203DB04DB0C13438B8193
:1061B000226803049089DB0C400B40031843908154
:1061C000F8BDC04638030020F8B504000F00FFF703
:1061D0007DFF2000FFF76AFE1422236879001A6011
:1061E0000C4B25681E68300001F082FF0A4904004C
:1061F000300001F07DFF7D23FA215843C90001F0F2
:1062000077FFFF23241AE868053C1C4098430443A9
:10621000EC60F8BD3803002040420F003F2070477B
:1062200013B56B460268D97107335468190001220F
:10623000A04716BD10B50221006900F025FD034BF3
:106240001B6801335A1E9341181810BD0C0300201F
:1062500010B50321006900F02DFD10BD10B503211C
:10626000006900F0F5FC10BD10B5054C23685A1C00
:1062700004D103685B69984703002060180010BDD3
:106280000C030020074B0200186810B5411C03D016
:10629000012252421A6010BD0221106900F0F4FD83
:1062A000F9E7C0460C03002010B51300094A0400AA
:1062B000D079C0B2002805D1627E002A02D0012325
:1062C000636006E00A002069032100F0EBFD00286E
:1062D000F5D010BDC002002010B503784222023371
:1062E00003700249024800F089FE10BDC802002078
:1062F000481A002010B50178020043780020A12937
:1063000008D1212B05D107221649174800F076FE47
:10631000012010BD2129FCD1202B13D107221149C6
:10632000114800F00BFD96220E4BD20019689142E5
:106330000ED10124D87904400AD1FA2001F0E2FDFF
:106340000020E6E7222B06D19278064BDA71EAE7C5
:1063500001F0DEFDF4E7232BDBD15288034B1A60FA
:10636000D7E7C046C0020020481A0020BC02002027
:10637000012343767047000070B5050001F0F2FA82
:10638000F423FF33002498420BD96B7E0134002B99
:1063900007D0054B0A20DC79631E9C41E4B201F072
:1063A00017FB200070BDC046C0020020FA22002169
:1063B000054B92009A60054A596008321A60044AF7
:1063C00019761A617047C0462C1A002008ED0000AB
:1063D000481A00207047704770B50F26CB1D013951
:1063E00002003240D5B22C0000093034092A00DD09
:1063F00007341C70013B8B42F2D170BDA02110B557
:106400000400490001F066FE200010BDF8B5032924
:1064100008D1304B8000C058002802D003689B6828
:106420009847F8BD822919D1C3B22B4D5A01AA1839
:1064300091692A4C80010C40C0218905214391615A
:106440002749083340187021506128685B011A5CA5
:106450008A43110030220A431A54E2E70029E0D1AE
:10646000C026C1B21C4C4B01E3189A681B4DB605FF
:106470002A4032439A601B4A800182185A600A00FF
:106480000727246808325201115DB9430F0001212A
:10649000394311559F6912493D4040182E439E6172
:1064A00058617020115D814308001021014311558E
:1064B00099680D48A218084080214903014399605A
:1064C0009968890B89039960402311790B431371F3
:1064D000A7E7C0464C1A0020001F0020FFFFFF8FD7
:1064E000741A0020341C0020FF3F00F0EFF31083EB
:1064F00003600123436072B670470368002B02D12A
:1065000062B6BFF36F8F7047F7B50500FC35EB69D6
:106510000600002B18D196277F00C45D6846FFF760
:10652000E5FF019BE4B2013B02D3F45DE4B2FAE77C
:1065300068460193FFF7E1FF002C01D10020FEBD6A
:10654000E86AAB6AC01AFAE76846FFF7CFFF9E22F7
:106550000024019B5200013B02D3B45CE4B2FAE791
:1065600068460193FFF7C9FF002CE7D0E86BAB6BDF
:10657000E8E7000030B54468FC3043698069DBB26D
:106580005A01A2189168094D80042940000901436D
:10659000916091680833890B8903916022685B01DF
:1065A000D318402219790A431A7130BDFF3F00F019
:1065B000F7B50500FF21FC356A6943680A401B688E
:1065C000083252019A18D3790400DB0754D501260A
:1065D000D6716B6962680B405B01D318286A9A68B0
:1065E0009204920C002822D1EA62EA6A002A40D082
:1065F0006A6B2E6268465A60FFF778FF9E273E213D
:10660000019B7F00013BFF315A1C2ED09622520085
:10661000A654E25D581ED2B2002A05D066546846E0
:106620000193FFF76AFFF7BD62540300ECE7EA63EA
:10663000EA6B002A1DD000222A626A6A68465A6004
:10664000FFF754FF96273E21019B7F00013BFF315E
:106650005A1C0AD09E225200A654E25D581ED2B2A5
:10666000002ADBD162540300F2E768460193FFF78A
:1066700044FF2000FFF77EFF63681A686B69DBB296
:1066800008335B01D3187F22DA71CCE7F7B5070036
:1066900068463C00FFF72AFF0026FF22019BFC34DE
:1066A000013B0DD3E0682169884204DBE66820697C
:1066B000961B3618F4E72669E168761A013EEFE783
:1066C00068460193FFF719FFE3696846002B52D132
:1066D000FFF70CFF9621019B4900013B5A1C0CD08F
:1066E0007D5C5A1EEDB2002D05D168460193FFF77F
:1066F00004FF2800FEBD1300F0E768460193002563
:10670000FFF7FBFEFF21A36AB54214D0E26A9A426A
:1067100011D95A1CA262626AD3181878E3682269F8
:106720000133C0B20B40934203D0E268BA18107232
:10673000E3600135E7E7E26A9A42DAD10023A36217
:106740000133E36168469624FFF7D0FE64003E22E1
:106750000021019BFF32013B581CC6D03955B85C63
:106760005E1E002805D0B95438000193FFF702FFE0
:10677000EDE73300F0E7FFF7B9FE9E21019B4900EA
:10678000013B5A1C06D07D5C5A1EEDB2002DACD0E8
:106790001300F6E7684601930025FFF7AEFEFF21E0
:1067A000A36BB54202D0E26B9A421DD8E26B9A42CB
:1067B0009FD100236846A363E3619E24FFF796FE02
:1067C00064003E220021019BFF32013B581C00D196
:1067D0008BE73955B85C5E1E002817D0B9543800D5
:1067E0000193FFF7C7FEECE75A1CA263626BD31854
:1067F0001878E36822690133C0B20B40934203D09A
:10680000E268BA181072E3600135C9E73300DDE7CA
:1068100010B50400FFF73AFF2300FC331969DA686A
:10682000914203D01B69E418207A10BD0120404238
:10683000FBE710B50400FC34FFF728FFE06823698C
:10684000C01A01D50130FF3010BDF0B585B00192FE
:1068500000910500FFF71AFF02A8FFF747FE01208D
:106860000024FF26039B40425A1E531C1FD02B00BE
:10687000FC3301998C4218D2D9681F69C91B01D514
:106880000131FF31002910D01969DF688C46010001
:10689000BC4506D019691F69691801373740097A64
:1068A0001F61009F39550134E3E7013ADDE702A893
:1068B0000392FFF722FE200005B0F0BD37B56B460E
:1068C000DC1D00230D0020002370FFF705FD2B6861
:1068D0001818286001F0A4FB210001F05DFB2B6873
:1068E0001818286020783EBD02220B0010B5934393
:1068F0000C00012B0BD10D4B08341B6864011C19D3
:10690000802321795B420B432371E27110BD01F0BA
:1069100087FB210001F074FB0028F7D0034B0834FB
:106920001B6864011C197F23E371EFE7001F00203F
:1069300070B50024374B012105000B201C7001F0BD
:1069400023FA01210B2001F04FFA334B01210C20D7
:106950001C7001F019FA01210C2001F045FA2023E6
:106960002E4A0F20D1690B43D36101222C490B78A9
:1069700013430B702B4B19788143197006211C7837
:106980002143197028490C7822430A701A78024072
:106990001A70602219780A431A70244B244A5A80CC
:1069A0005A78D209FCD1234800F0D6FF224C7F262A
:1069B000200001F047FB200001F05CFB0C210823C4
:1069C0002068C2788A4313430322C3702068C378C7
:1069D0009343013A1343C370206803783340037034
:1069E00004232068067833430370206803898B43AF
:1069F0000381C120114980000B581B021B0A0B5058
:106A000080230B60236819780A431A7001232B70C6
:106A100070BDC046691A0020681A002000040040BA
:106A2000584400413C44004159440041000C00409E
:106A3000064000006D740000001F002000E100E02F
:106A40000078002810D00121084B1B681A898A435E
:106A50001A810822198B0A431A830422198B0A43CC
:106A60001A830022024B1A607047C046001F0020A4
:106A7000F81E002010B50F4A93699B0B9B0393618E
:106A800013680222FF331A729879823A02439A718C
:106A90001A7A9207FCD57F24074A2140937A08008E
:106AA000A3431900802301439172917A5B420B4307
:106AB000937210BD001F00200050004110B50B79EB
:106AC0000C00002B0CD10800FFF714FC002801D0AB
:106AD000012010BD094A93699B0B9B039361F7E763
:106AE00001F09EFA210001F07BFA0028F0D1034A60
:106AF00093699B0B9B039361EBE7C046001F00204B
:106B0000F8B50D00832A19D1CBB2434C5A01A21813
:106B100091694248AD010840C02189050143916156
:106B20003F4920686D187021083355615B011A5C7C
:106B30008A43110040220A431A54F8BD022A65D143
:106B4000384B8A00D058002802D003689B699847C8
:106B5000A020400000F08EFF80270600324B7F000F
:106B600003602D4B002143603A00083003F083FAA4
:106B7000340096220023FC345200E360A3622361B8
:106B80006561E361A7612362E362B3541032A363DA
:106B9000E363B3543E223800FF32B35403F04EFA9D
:106BA0006062380003F04AFA2B006063FF201A4944
:106BB00003405A018A189168184F08330F40C021CA
:106BC0008905394307279160134A5B011168AD00BD
:106BD0005A5CBA43170003223A435A5461697368F6
:106BE000014049015918636A4B60736862691B6808
:106BF000024052019B1801221B18997A30000A4367
:106C00009A72FFF7B7FC074BEE5096E71100280089
:106C1000FFF7FCFB91E7C046001F0020FFFFFF8F3E
:106C2000741A00204C1A002038ED000070B50500E1
:106C30000124064BA200D258002A06D021002800C9
:106C40000134FFF75DFF0A2CF3D170BD1003002063
:106C50000B4BCAB20B488901C9185301C3185961BB
:106C600099690832890B89039961036852019A185E
:106C70000223D3715179823B0B4353717047C04655
:106C8000741A0020001F0020084B8A00D05810B54D
:106C9000002803D00368DB68984710BDC9B2044BD5
:106CA0004901591888688004800CF6E74C1A0020C6
:106CB000001F002010B50C00FFF7E6FF00280CD0E5
:106CC000064BE4B21B68083464011C198023627906
:106CD0005B42134363710223E37110BD001F002068
:106CE00070B5CBB2124A13485C01890189180219A8
:106CF00051609168104D08330D408021890229436D
:106D0000402591609168890B8903916001685A015F
:106D10008A1816793543157195796D06FCD55B0196
:106D2000C918CB79DB07FCD500198068C0B270BDEB
:106D3000341C0020001F0020FF3F00F070B514003D
:106D400040220B4B0D001B68FF3359790A435A71DF
:106D50000021FFF7C5FFA04200D92000002305490C
:106D6000A34203D0CA5CEA540133F9E770BDC046C0
:106D7000001F0020341C002010B5C9B20B48490187
:106D8000421893689B049B0C3F2B0BD99468403BA3
:106D90009B04A40B9B0CA4032343936041188868B5
:106DA000C0B210BD93689B0B9B03F6E7001F002049
:106DB000F0B51C002F4B85B01B6806000D0001923A
:106DC000002B54D02C4F3978C9B2002902D10C20A5
:106DD00001F00AF864233B70284BAA00D058002821
:106DE00008D0036822005B680199984704002000DE
:106DF00005B0F0BD29003000FFF746FF844204D9FA
:106E000029003000FFF740FF040029003000FFF7A1
:106E1000B3FF0121EBB21A4F03935B010293029A75
:106E20003B6801989B18FF335A7A0A435A72154BF4
:106E3000A901C918220003F015F9002CD7D02900A8
:106E40003000FFF721FF0028D1D14021039B3A6891
:106E500008335B01D3181879014319710121D971E5
:106E6000029BD318FF339A7A0A439A72BFE7012430
:106E70006442BCE7F81E0020681A00204C1A00206B
:106E8000001F0020341C002013B56B46DC1D2200BF
:106E90000123FFF78DFF012801D1207816BD0120C5
:106EA0004042FBE7F0B51E003A4B85B01B680F006F
:106EB0000192002B3FD08023DB019E423BD8364C11
:106EC0002178C9B2002902D10B2000F08DFF642384
:106ED00000252370314BBA01D3180293002E2CD019
:106EE0002F4B1B680393FF233B401C000093083487
:106EF000039B64011C19A379DB0921D0294B2A4982
:106F0000186801F0F5F8294B1721584301F0F0F803
:106F1000274BE279920713D4DA5D002A01D10138B8
:106F2000F7D20122DA55009B5A011D4B9B189A6932
:106F3000920B92039A6101256D42280005B0F0BDC5
:106F400000221B4B3400DA55402E00D94024220089
:106F50000199029803F086F8009BA1045A01104B96
:106F6000890C9B18029A2D195A619A69361B920B4B
:106F700092030A439A61009B039A08335B01D3187A
:106F80000222DA715979823A0A435A71019B1B191C
:106F90000193A3E7F81E0020691A0020741A00204C
:106FA000001F00203803002040420F007011010034
:106FB0006B1A002070B50D001C000D4BAE01F618C9
:106FC00011003000220003F04DF8EDB209496D01C7
:106FD0004D196E61AB69084A20001340AB61AB6983
:106FE000A2049B0B920C9B031343AB6170BDC04684
:106FF000741A0020001F0020FF3F00F0F7B5104B6F
:1070000001901B780F001500002B0CD10D4B1600C2
:107010001C78002C09D00C4E0C48348820186419B8
:1070200003F020F834802800FEBD002EFBD03A1972
:10703000330000210198FFF7BDFF2418361AF4E74A
:10704000F41D0020F51E0020F61E0020F51D002076
:10705000F8B5002000AF0E001500012A27D9D31D76
:107060006A46DB08DB00D31A9D46080004F08CF862
:107070006C4603230222002101304000207063701F
:10708000AA420DD2307800280AD0531CDBB2013658
:10709000A0549D4203D00232E154D2B2F0E72A005C
:1070A00021000448FFF7AAFF431E9841C0B2BD4625
:1070B000F8BDC046481A0020F0B50024012685B06E
:1070C000184B0F0069461E7005000094FFF7F6FB91
:1070D000154B01A90B806A3BFF3BCB716E3B0B72DA
:1070E000009B8C7109334B800E4B4E7108711C70E4
:1070F0003A00092F0FD00D4F09223E700C4E280088
:1071000000943480FFF77AFF69462800FFF7D6FB2A
:10711000328808493C702800FFF770FF012005B055
:10712000F0BDC046F41D002009020000F51E00203D
:10713000F61E0020F51D0020F0B5CF7893B00500B5
:107140000E00022F09D1C9882D48FFF7B5FF441E54
:10715000A041C4B2200013B0F0BD00F061FF3100C7
:1071600000F02EFF002803D0C417241AE40FF1E723
:10717000012F0FD1F288082A0AD02249112A13D8E8
:10718000D2B2002A10D02800FFF738FF0124E1E72F
:107190001D49F5E70400032FDCD1B378002B05D19E
:1071A000F2881A49032AEBD90A78ECE7022B06D1B8
:1071B000B27917492800FFF74BFF0400CAE7012BFB
:1071C00002D1B2791349F5E7032BC3D1124B01A9C0
:1071D0001868FFF701F9114B03A91868FFF7FCF8CD
:1071E0000F4B05A91868FFF7F7F80E4B07A91868A9
:1071F000FFF7F2F86B460533DC77B27901A9D9E7DE
:10720000481A002070ED000082ED000066ED0000DD
:1072100058ED00006AED00000CA0800040A0800046
:1072200044A0800048A0800037B5040048780D00D5
:107230000B2810D800F052FF061B0F2B0F40456D96
:10724000494C6669097801AA002906D102231180F8
:107250002000FFF7AFFE01203EBD002313802E4B20
:107260001B78012B00D1137002230021F0E78A78EC
:107270000023012A03D101AA1380284BF0E7264AF4
:107280001370274A93699B0B9B039361E3E78D7807
:10729000012D06D10021214B01AA1D7011702B0078
:1072A000D6E70120002DD7D11B4B1D4A18709369DA
:1072B0009B0B9B039361CFE789782000FFF7DAFBF4
:1072C000C9E72000FFF738FFC6E70123154ACCE7DE
:1072D0000B780020DB06BFD12000FFF7A7FC2A2097
:1072E000AA78104BFF301A6002230D4A11680C5C1B
:1072F00023434A240B54FF340B5D2938FF380343E2
:107300000B55D4E70123084AAFE78A78064B1A6089
:10731000B7E70020A0E7C0466A1A0020721A0020D2
:10732000001F0020F81E0020FC1E0020474BF7B570
:107330001C780600002C7CD1454D2B689B8B1B07CD
:107340000ED521002000FFF761F82A6810231100F4
:10735000FF31887A03438B723E4B1C600823938372
:107360002B689A8B52071FD504229A833A4A1378C6
:10737000002B0AD01378013BDBB213701378002B7B
:1073800003D101210B2000F02FFD344A1378002B8C
:107390000AD01378013BDBB213701378002B03D1B2
:1073A00001210C2000F020FD2B68FF331A7AD20651
:1073B0001ED510221A72597930320A435A7160234D
:1073C000274930000A781A4234D1FFF72DFF2B6885
:1073D000FF33002831D08022997952420A439A71B2
:1073E0001A7A520604D540221A72597A0A435A72FE
:1073F000012427002B681B8CA343DBB20193019B64
:1074000023413B4212D023002A6808335B01D31882
:10741000DA79D20702D4DB799B0707D5114BA2009A
:10742000D05800280DD003681B6898470134082CF9
:10743000E5D1F7BDFFF742FBC9E720210A4A917168
:10744000CEE7E1B23000FFF74FFAEFE7F51E00207C
:10745000001F0020F81E0020691A0020681A002072
:10746000341C00204C1A0020FF50004110B5024887
:10747000FFF75CFF10BDC046481A0020014B024ACE
:107480001A607047001F0020005000410120704723
:1074900010B50368014A1B6A984710BD1304000029
:1074A0000300FC33D9699A69914203D0DB69C018A3
:1074B000007D704701204042FBE710B504000069E1
:1074C000FEF79DFC22000023FC329361D3618622EB
:1074D0009200A4186360A36010BDF0200140303911
:1074E000484248417047F0231B0119408023062081
:1074F0009B0099420AD00133FF330130994205D0F5
:10750000802302385B00994200D0002070470F2092
:1075100001400020012903D00239481E8141481C46
:10752000704700008923F0B5182685B002919B00B2
:107530000400C05C330008214343324D1700EB18B0
:10754000595600F07DFC304B0821E05C330043438A
:10755000EB18595600F074FC2C4BE25C0393022AA2
:1075600009D11133E05CFF2805D008214643AE194C
:10757000715600F065FC8A26B600A05DFF2819D080
:10758000012100F001FC1822A35D21495A43AB56AA
:10759000AD18DB0158188B21890060501D4901226C
:1075A0005B188C218900635069688A408D218900AD
:1075B00062501A600122029B11002069FEF7CEFD85
:1075C00039002000FFF78FFF390005002000FFF78A
:1075D0009EFF390006002000FFF77FFF3300009078
:1075E000290020690122FEF7DAFB0B4B2069E25CDF
:1075F000039BE15CFEF7F0FB2069FEF70DFC05B094
:10760000F0BDC0463CEB0000250200002702000050
:10761000184400411444004126020000802210B5A5
:1076200004005200002102F026FD23000022FC335A
:107630005A6020009A6010BDF7B51D0008AB1B789A
:107640000400009309AB1B781600019300234360EC
:10765000FA239B008360114B0F0008330360143042
:10766000FFF7DCFF20001D30FF30FFF7D7FF892335
:107670006A469B002761E654094B1278E554094B92
:107680002000E2546A46084B1279E2548A22293BD0
:10769000FF3B9200A3541032A354FEBD94ED0000B2
:1076A0002502000026020000270200000300FC3330
:1076B00059689A68914204DB5A689868801AFF30CA
:1076C000704798685B68C01A0138F9E710B51D303B
:1076D000FF30FFF7EBFF10BD030070B5FC33D96935
:1076E0009A69040091421AD0DA698218157DDA6924
:1076F0000132D2B2DA618A239B00E35CFF2B0CD00B
:1077000020001430FFF7D2FF0A2806DD8C238D22DB
:107710009B009200E358A2581A60280070BD012512
:107720006D42E8E70300FC3358689B68C01A01D536
:107730000130FF30704710B5040020001D30FF30CD
:10774000FFF7F0FF0028F8D12069FEF76FFB10BDAE
:1077500010B51430FFF7E6FF10BD10B50400006946
:10776000FEF780FB002805D02069FEF78BFB20691F
:10777000FEF77DFB2069FEF765FB002820D020691D
:10778000FEF780FB2200FC329369D1690133DBB242
:107790008B4203D091696118087593618A239B001D
:1077A000E35CFF2B0CD020001430FFF77FFF09288B
:1077B00006DC8B238D229B009200E358A2581A60AE
:1077C0002069FEF75AFB00281AD020001D30FF3038
:1077D000FFF7A8FF002822D086239B00E3189968B2
:1077E0005A68914218D08E219A684900A218515CBB
:1077F0009A680132D2B29A60C9B22069FEF746FB9C
:107800002069FEF724FB002805D02069FEF723FB42
:107810002069FEF713FB10BD01214942ECE7206906
:10782000FEF740FBECE7000070B5040000690D00B6
:10783000FEF723FB00283ED1FF2686239B00E3189A
:107840005A689968013232408A4223D1EFF310839B
:10785000DB070DD41E4B5B68DB05DB0DEDD0103B69
:107860005BB2002B0DDB9B08C0331A4A9B009B5870
:107870002069FEF702FB0028DFD02000FFF76DFF34
:10788000DBE70F221340083B9B08134A9B009B1821
:107890001B68EDE75A68013216409A68964205D097
:1078A0008E215A684900A21855545E602069FEF77F
:1078B000F5FA012070BD20001D30FF30FFF732FFC8
:1078C0000028B9D129002069FEF7E0FAF1E7C046A7
:1078D00000ED00E000E100E01CED00E0FEE700004C
:1078E000034B10B51B68002B00D0984710BDC04655
:1078F0000420002070B50F490F4CA14204D100F0C4
:10790000DFF800F09FF8FEE70C4D00238D42F6D023
:10791000CA18E818A24205D3094B8242EFD00949A0
:10792000002204E0006804331060F1E704C38B42D6
:10793000FCD3E4E70000002030050020A4F10000A3
:10794000300500202820002010B500F064F8002841
:1079500001D100F055F810BD014B18607047C046CA
:1079600004200020014B18687047C0460820002002
:10797000F7B51348012284461249134C8E68636898
:1079800005689B0E1340019288686268019F920E01
:107990003A4067463F6893420ED1BD420CD18642C1
:1079A0000AD35B19FA254868AD00861B07486B436C
:1079B0007043000DC018FEBD3D0013000600E3E754
:1079C0000820002010E000E000ED00E05555000028
:1079D00070B5041E10D0FFF7CBFF050000F01AF8B9
:1079E000FFF7C6FF054B401B9842F7D9FA23013C2D
:1079F0009B00ED18002CF3D170BDC046E7030000DA
:107A000010B5034A13680133136000F089FA10BD02
:107A100008200020704700207047704710B5FAF723
:107A200033FEFAF765FEFFF7F5FF034B002BF8D0A6
:107A300000E000BFF5E7C0460000000010B5FFF70A
:107A4000EDFF000010B500F0EBF802F0D3FAFFF7FD
:107A5000E4FF0120FFF7BCFF054C2000FEF768FFA4
:107A60002000FEF7EDFFFFF7E9FF002010BDC04644
:107A7000481A002010B502F0E1FA10BD10B502F06E
:107A8000E7FA10BD10B50200EFF3108172B60A4B91
:107A90001868002801D10948186018688218EFF3A7
:107AA0000884A24204D21A60002900D162B610BD37
:107AB00001204042F8E7C0460C200020282000208A
:107AC0001E2270B546484749436893431C3A134306
:107AD000436008238C6923438B61434C434B9C8256
